{
	"contracts/EVote.sol": {
		"EVote": {
			"abi": [
				{
					"inputs": [],
					"stateMutability": "nonpayable",
					"type": "constructor"
				},
				{
					"inputs": [
						{
							"internalType": "address",
							"name": "officialAddress",
							"type": "address"
						},
						{
							"internalType": "string",
							"name": "name",
							"type": "string"
						},
						{
							"internalType": "string",
							"name": "zoneCode",
							"type": "string"
						}
					],
					"name": "accredictedNewOfficial",
					"outputs": [],
					"stateMutability": "nonpayable",
					"type": "function"
				},
				{
					"inputs": [
						{
							"internalType": "string",
							"name": "lga",
							"type": "string"
						},
						{
							"internalType": "string",
							"name": "code",
							"type": "string"
						},
						{
							"internalType": "string",
							"name": "state",
							"type": "string"
						}
					],
					"name": "addZone",
					"outputs": [],
					"stateMutability": "nonpayable",
					"type": "function"
				},
				{
					"inputs": [],
					"name": "getZone",
					"outputs": [
						{
							"components": [
								{
									"internalType": "string",
									"name": "lga",
									"type": "string"
								},
								{
									"internalType": "string",
									"name": "state",
									"type": "string"
								},
								{
									"internalType": "string",
									"name": "zoneCode",
									"type": "string"
								}
							],
							"internalType": "struct VoteZone[]",
							"name": "",
							"type": "tuple[]"
						}
					],
					"stateMutability": "view",
					"type": "function"
				}
			],
			"devdoc": {
				"kind": "dev",
				"methods": {},
				"version": 1
			},
			"evm": {
				"assembly": "    /* \"contracts/EVote.sol\":371:1776  contract EVote{... */\n  mstore(0x40, 0x80)\n    /* \"contracts/EVote.sol\":916:969  constructor (){... */\n  callvalue\n  dup1\n  iszero\n  tag_1\n  jumpi\n  0x00\n  dup1\n  revert\ntag_1:\n  pop\n    /* \"contracts/EVote.sol\":952:962  msg.sender */\n  caller\n    /* \"contracts/EVote.sol\":940:949  ownerAddr */\n  0x00\n  dup1\n    /* \"contracts/EVote.sol\":940:962  ownerAddr = msg.sender */\n  0x0100\n  exp\n  dup2\n  sload\n  dup2\n  0xffffffffffffffffffffffffffffffffffffffff\n  mul\n  not\n  and\n  swap1\n  dup4\n  0xffffffffffffffffffffffffffffffffffffffff\n  and\n  mul\n  or\n  swap1\n  sstore\n  pop\n    /* \"contracts/EVote.sol\":371:1776  contract EVote{... */\n  dataSize(sub_0)\n  dup1\n  dataOffset(sub_0)\n  0x00\n  codecopy\n  0x00\n  return\nstop\n\nsub_0: assembly {\n        /* \"contracts/EVote.sol\":371:1776  contract EVote{... */\n      mstore(0x40, 0x80)\n      callvalue\n      dup1\n      iszero\n      tag_1\n      jumpi\n      0x00\n      dup1\n      revert\n    tag_1:\n      pop\n      jumpi(tag_2, lt(calldatasize, 0x04))\n      shr(0xe0, calldataload(0x00))\n      dup1\n      0x6e12dc0e\n      eq\n      tag_3\n      jumpi\n      dup1\n      0xb7a455e6\n      eq\n      tag_4\n      jumpi\n      dup1\n      0xf9095eb7\n      eq\n      tag_5\n      jumpi\n    tag_2:\n      0x00\n      dup1\n      revert\n        /* \"contracts/EVote.sol\":975:1234  function addZone(string calldata lga, string calldata code, string calldata state)  external isOwnerMod checkLocalGovtCode(code){... */\n    tag_3:\n      tag_6\n      0x04\n      dup1\n      calldatasize\n      sub\n      dup2\n      add\n      swap1\n      tag_7\n      swap2\n      swap1\n      tag_8\n      jump\t// in\n    tag_7:\n      tag_9\n      jump\t// in\n    tag_6:\n      stop\n        /* \"contracts/EVote.sol\":1335:1771  function accredictedNewOfficial(address officialAddress, string calldata name, string calldata zoneCode) external isOwnerMod checkLocalGovtCode(zoneCode){... */\n    tag_4:\n      tag_10\n      0x04\n      dup1\n      calldatasize\n      sub\n      dup2\n      add\n      swap1\n      tag_11\n      swap2\n      swap1\n      tag_12\n      jump\t// in\n    tag_11:\n      tag_13\n      jump\t// in\n    tag_10:\n      stop\n        /* \"contracts/EVote.sol\":1240:1329  function getZone() external view returns (VoteZone[] memory){... */\n    tag_5:\n      tag_14\n      tag_15\n      jump\t// in\n    tag_14:\n      mload(0x40)\n      tag_16\n      swap2\n      swap1\n      tag_17\n      jump\t// in\n    tag_16:\n      mload(0x40)\n      dup1\n      swap2\n      sub\n      swap1\n      return\n        /* \"contracts/EVote.sol\":975:1234  function addZone(string calldata lga, string calldata code, string calldata state)  external isOwnerMod checkLocalGovtCode(code){... */\n    tag_9:\n        /* \"contracts/EVote.sol\":680:690  msg.sender */\n      caller\n        /* \"contracts/EVote.sol\":667:690  ownerAddr != msg.sender */\n      0xffffffffffffffffffffffffffffffffffffffff\n      and\n        /* \"contracts/EVote.sol\":667:676  ownerAddr */\n      0x00\n      dup1\n      sload\n      swap1\n      0x0100\n      exp\n      swap1\n      div\n      0xffffffffffffffffffffffffffffffffffffffff\n      and\n        /* \"contracts/EVote.sol\":667:690  ownerAddr != msg.sender */\n      0xffffffffffffffffffffffffffffffffffffffff\n      and\n      eq\n      iszero\n        /* \"contracts/EVote.sol\":659:718  require(ownerAddr != msg.sender,\"you can not add official\") */\n      tag_19\n      jumpi\n      mload(0x40)\n      0x08c379a000000000000000000000000000000000000000000000000000000000\n      dup2\n      mstore\n      0x04\n      add\n      tag_20\n      swap1\n      tag_21\n      jump\t// in\n    tag_20:\n      mload(0x40)\n      dup1\n      swap2\n      sub\n      swap1\n      revert\n    tag_19:\n        /* \"contracts/EVote.sol\":1098:1102  code */\n      dup4\n      dup4\n        /* \"contracts/EVote.sol\":851:852  0 */\n      0x00\n        /* \"contracts/EVote.sol\":815:830  accredictedZone */\n      0x03\n        /* \"contracts/EVote.sol\":831:835  code */\n      dup4\n      dup4\n        /* \"contracts/EVote.sol\":815:836  accredictedZone[code] */\n      mload(0x40)\n      tag_23\n      swap3\n      swap2\n      swap1\n      tag_24\n      jump\t// in\n    tag_23:\n      swap1\n      dup2\n      mstore\n      0x20\n      add\n      mload(0x40)\n      dup1\n      swap2\n      sub\n      swap1\n      keccak256\n        /* \"contracts/EVote.sol\":815:840  accredictedZone[code].lga */\n      0x00\n      add\n        /* \"contracts/EVote.sol\":809:848  bytes(accredictedZone[code].lga).length */\n      dup1\n      sload\n      tag_25\n      swap1\n      tag_26\n      jump\t// in\n    tag_25:\n      swap1\n      pop\n        /* \"contracts/EVote.sol\":809:852  bytes(accredictedZone[code].lga).length < 0 */\n      lt\n        /* \"contracts/EVote.sol\":801:888  require(bytes(accredictedZone[code].lga).length < 0 , \"local government already exist\") */\n      tag_27\n      jumpi\n      mload(0x40)\n      0x08c379a000000000000000000000000000000000000000000000000000000000\n      dup2\n      mstore\n      0x04\n      add\n      tag_28\n      swap1\n      tag_29\n      jump\t// in\n    tag_28:\n      mload(0x40)\n      dup1\n      swap2\n      sub\n      swap1\n      revert\n    tag_27:\n        /* \"contracts/EVote.sol\":1113:1134  VoteZone memory _zone */\n      0x00\n        /* \"contracts/EVote.sol\":1137:1161  VoteZone(lga,state,code) */\n      mload(0x40)\n      dup1\n      0x60\n      add\n      0x40\n      mstore\n      dup1\n        /* \"contracts/EVote.sol\":1146:1149  lga */\n      dup11\n      dup11\n        /* \"contracts/EVote.sol\":1137:1161  VoteZone(lga,state,code) */\n      dup1\n      dup1\n      0x1f\n      add\n      0x20\n      dup1\n      swap2\n      div\n      mul\n      0x20\n      add\n      mload(0x40)\n      swap1\n      dup2\n      add\n      0x40\n      mstore\n      dup1\n      swap4\n      swap3\n      swap2\n      swap1\n      dup2\n      dup2\n      mstore\n      0x20\n      add\n      dup4\n      dup4\n      dup1\n      dup3\n      dup5\n      calldatacopy\n      0x00\n      dup2\n      dup5\n      add\n      mstore\n      not(0x1f)\n      0x1f\n      dup3\n      add\n      and\n      swap1\n      pop\n      dup1\n      dup4\n      add\n      swap3\n      pop\n      pop\n      pop\n      pop\n      pop\n      pop\n      pop\n      dup2\n      mstore\n      0x20\n      add\n        /* \"contracts/EVote.sol\":1150:1155  state */\n      dup7\n      dup7\n        /* \"contracts/EVote.sol\":1137:1161  VoteZone(lga,state,code) */\n      dup1\n      dup1\n      0x1f\n      add\n      0x20\n      dup1\n      swap2\n      div\n      mul\n      0x20\n      add\n      mload(0x40)\n      swap1\n      dup2\n      add\n      0x40\n      mstore\n      dup1\n      swap4\n      swap3\n      swap2\n      swap1\n      dup2\n      dup2\n      mstore\n      0x20\n      add\n      dup4\n      dup4\n      dup1\n      dup3\n      dup5\n      calldatacopy\n      0x00\n      dup2\n      dup5\n      add\n      mstore\n      not(0x1f)\n      0x1f\n      dup3\n      add\n      and\n      swap1\n      pop\n      dup1\n      dup4\n      add\n      swap3\n      pop\n      pop\n      pop\n      pop\n      pop\n      pop\n      pop\n      dup2\n      mstore\n      0x20\n      add\n        /* \"contracts/EVote.sol\":1156:1160  code */\n      dup9\n      dup9\n        /* \"contracts/EVote.sol\":1137:1161  VoteZone(lga,state,code) */\n      dup1\n      dup1\n      0x1f\n      add\n      0x20\n      dup1\n      swap2\n      div\n      mul\n      0x20\n      add\n      mload(0x40)\n      swap1\n      dup2\n      add\n      0x40\n      mstore\n      dup1\n      swap4\n      swap3\n      swap2\n      swap1\n      dup2\n      dup2\n      mstore\n      0x20\n      add\n      dup4\n      dup4\n      dup1\n      dup3\n      dup5\n      calldatacopy\n      0x00\n      dup2\n      dup5\n      add\n      mstore\n      not(0x1f)\n      0x1f\n      dup3\n      add\n      and\n      swap1\n      pop\n      dup1\n      dup4\n      add\n      swap3\n      pop\n      pop\n      pop\n      pop\n      pop\n      pop\n      pop\n      dup2\n      mstore\n      pop\n        /* \"contracts/EVote.sol\":1113:1161  VoteZone memory _zone = VoteZone(lga,state,code) */\n      swap1\n      pop\n        /* \"contracts/EVote.sol\":1195:1200  _zone */\n      dup1\n        /* \"contracts/EVote.sol\":1171:1186  accredictedZone */\n      0x03\n        /* \"contracts/EVote.sol\":1187:1191  code */\n      dup9\n      dup9\n        /* \"contracts/EVote.sol\":1171:1192  accredictedZone[code] */\n      mload(0x40)\n      tag_31\n      swap3\n      swap2\n      swap1\n      tag_24\n      jump\t// in\n    tag_31:\n      swap1\n      dup2\n      mstore\n      0x20\n      add\n      mload(0x40)\n      dup1\n      swap2\n      sub\n      swap1\n      keccak256\n        /* \"contracts/EVote.sol\":1171:1200  accredictedZone[code] = _zone */\n      0x00\n      dup3\n      add\n      mload\n      dup2\n      0x00\n      add\n      swap1\n      dup1\n      mload\n      swap1\n      0x20\n      add\n      swap1\n      tag_32\n      swap3\n      swap2\n      swap1\n      tag_33\n      jump\t// in\n    tag_32:\n      pop\n      0x20\n      dup3\n      add\n      mload\n      dup2\n      0x01\n      add\n      swap1\n      dup1\n      mload\n      swap1\n      0x20\n      add\n      swap1\n      tag_34\n      swap3\n      swap2\n      swap1\n      tag_33\n      jump\t// in\n    tag_34:\n      pop\n      0x40\n      dup3\n      add\n      mload\n      dup2\n      0x02\n      add\n      swap1\n      dup1\n      mload\n      swap1\n      0x20\n      add\n      swap1\n      tag_35\n      swap3\n      swap2\n      swap1\n      tag_33\n      jump\t// in\n    tag_35:\n      pop\n      swap1\n      pop\n      pop\n        /* \"contracts/EVote.sol\":1210:1215  zones */\n      0x04\n        /* \"contracts/EVote.sol\":1221:1226  _zone */\n      dup2\n        /* \"contracts/EVote.sol\":1210:1227  zones.push(_zone) */\n      swap1\n      dup1\n      0x01\n      dup2\n      sload\n      add\n      dup1\n      dup3\n      sstore\n      dup1\n      swap2\n      pop\n      pop\n      0x01\n      swap1\n      sub\n      swap1\n      0x00\n      mstore\n      keccak256(0x00, 0x20)\n      swap1\n      0x03\n      mul\n      add\n      0x00\n      swap1\n      swap2\n      swap1\n      swap2\n      swap1\n      swap2\n      pop\n      0x00\n      dup3\n      add\n      mload\n      dup2\n      0x00\n      add\n      swap1\n      dup1\n      mload\n      swap1\n      0x20\n      add\n      swap1\n      tag_37\n      swap3\n      swap2\n      swap1\n      tag_33\n      jump\t// in\n    tag_37:\n      pop\n      0x20\n      dup3\n      add\n      mload\n      dup2\n      0x01\n      add\n      swap1\n      dup1\n      mload\n      swap1\n      0x20\n      add\n      swap1\n      tag_38\n      swap3\n      swap2\n      swap1\n      tag_33\n      jump\t// in\n    tag_38:\n      pop\n      0x40\n      dup3\n      add\n      mload\n      dup2\n      0x02\n      add\n      swap1\n      dup1\n      mload\n      swap1\n      0x20\n      add\n      swap1\n      tag_39\n      swap3\n      swap2\n      swap1\n      tag_33\n      jump\t// in\n    tag_39:\n      pop\n      pop\n      pop\n        /* \"contracts/EVote.sol\":1103:1234  {... */\n      pop\n        /* \"contracts/EVote.sol\":728:729  _ */\n      pop\n      pop\n        /* \"contracts/EVote.sol\":975:1234  function addZone(string calldata lga, string calldata code, string calldata state)  external isOwnerMod checkLocalGovtCode(code){... */\n      pop\n      pop\n      pop\n      pop\n      pop\n      pop\n      jump\t// out\n        /* \"contracts/EVote.sol\":1335:1771  function accredictedNewOfficial(address officialAddress, string calldata name, string calldata zoneCode) external isOwnerMod checkLocalGovtCode(zoneCode){... */\n    tag_13:\n        /* \"contracts/EVote.sol\":680:690  msg.sender */\n      caller\n        /* \"contracts/EVote.sol\":667:690  ownerAddr != msg.sender */\n      0xffffffffffffffffffffffffffffffffffffffff\n      and\n        /* \"contracts/EVote.sol\":667:676  ownerAddr */\n      0x00\n      dup1\n      sload\n      swap1\n      0x0100\n      exp\n      swap1\n      div\n      0xffffffffffffffffffffffffffffffffffffffff\n      and\n        /* \"contracts/EVote.sol\":667:690  ownerAddr != msg.sender */\n      0xffffffffffffffffffffffffffffffffffffffff\n      and\n      eq\n      iszero\n        /* \"contracts/EVote.sol\":659:718  require(ownerAddr != msg.sender,\"you can not add official\") */\n      tag_41\n      jumpi\n      mload(0x40)\n      0x08c379a000000000000000000000000000000000000000000000000000000000\n      dup2\n      mstore\n      0x04\n      add\n      tag_42\n      swap1\n      tag_21\n      jump\t// in\n    tag_42:\n      mload(0x40)\n      dup1\n      swap2\n      sub\n      swap1\n      revert\n    tag_41:\n        /* \"contracts/EVote.sol\":1479:1487  zoneCode */\n      dup2\n      dup2\n        /* \"contracts/EVote.sol\":851:852  0 */\n      0x00\n        /* \"contracts/EVote.sol\":815:830  accredictedZone */\n      0x03\n        /* \"contracts/EVote.sol\":831:835  code */\n      dup4\n      dup4\n        /* \"contracts/EVote.sol\":815:836  accredictedZone[code] */\n      mload(0x40)\n      tag_44\n      swap3\n      swap2\n      swap1\n      tag_24\n      jump\t// in\n    tag_44:\n      swap1\n      dup2\n      mstore\n      0x20\n      add\n      mload(0x40)\n      dup1\n      swap2\n      sub\n      swap1\n      keccak256\n        /* \"contracts/EVote.sol\":815:840  accredictedZone[code].lga */\n      0x00\n      add\n        /* \"contracts/EVote.sol\":809:848  bytes(accredictedZone[code].lga).length */\n      dup1\n      sload\n      tag_45\n      swap1\n      tag_26\n      jump\t// in\n    tag_45:\n      swap1\n      pop\n        /* \"contracts/EVote.sol\":809:852  bytes(accredictedZone[code].lga).length < 0 */\n      lt\n        /* \"contracts/EVote.sol\":801:888  require(bytes(accredictedZone[code].lga).length < 0 , \"local government already exist\") */\n      tag_46\n      jumpi\n      mload(0x40)\n      0x08c379a000000000000000000000000000000000000000000000000000000000\n      dup2\n      mstore\n      0x04\n      add\n      tag_47\n      swap1\n      tag_29\n      jump\t// in\n    tag_47:\n      mload(0x40)\n      dup1\n      swap2\n      sub\n      swap1\n      revert\n    tag_46:\n        /* \"contracts/EVote.sol\":1498:1521  accredictedOfficialAddr */\n      0x01\n        /* \"contracts/EVote.sol\":1527:1542  officialAddress */\n      dup8\n        /* \"contracts/EVote.sol\":1498:1543  accredictedOfficialAddr.push(officialAddress) */\n      swap1\n      dup1\n      0x01\n      dup2\n      sload\n      add\n      dup1\n      dup3\n      sstore\n      dup1\n      swap2\n      pop\n      pop\n      0x01\n      swap1\n      sub\n      swap1\n      0x00\n      mstore\n      keccak256(0x00, 0x20)\n      add\n      0x00\n      swap1\n      swap2\n      swap1\n      swap2\n      swap1\n      swap2\n      0x0100\n      exp\n      dup2\n      sload\n      dup2\n      0xffffffffffffffffffffffffffffffffffffffff\n      mul\n      not\n      and\n      swap1\n      dup4\n      0xffffffffffffffffffffffffffffffffffffffff\n      and\n      mul\n      or\n      swap1\n      sstore\n      pop\n        /* \"contracts/EVote.sol\":1600:1714  Official({... */\n      mload(0x40)\n      dup1\n      0x80\n      add\n      0x40\n      mstore\n      dup1\n        /* \"contracts/EVote.sol\":1626:1630  name */\n      dup8\n      dup8\n        /* \"contracts/EVote.sol\":1600:1714  Official({... */\n      dup1\n      dup1\n      0x1f\n      add\n      0x20\n      dup1\n      swap2\n      div\n      mul\n      0x20\n      add\n      mload(0x40)\n      swap1\n      dup2\n      add\n      0x40\n      mstore\n      dup1\n      swap4\n      swap3\n      swap2\n      swap1\n      dup2\n      dup2\n      mstore\n      0x20\n      add\n      dup4\n      dup4\n      dup1\n      dup3\n      dup5\n      calldatacopy\n      0x00\n      dup2\n      dup5\n      add\n      mstore\n      not(0x1f)\n      0x1f\n      dup3\n      add\n      and\n      swap1\n      pop\n      dup1\n      dup4\n      add\n      swap3\n      pop\n      pop\n      pop\n      pop\n      pop\n      pop\n      pop\n      dup2\n      mstore\n      0x20\n      add\n        /* \"contracts/EVote.sol\":1641:1649  zoneCode */\n      dup6\n      dup6\n        /* \"contracts/EVote.sol\":1600:1714  Official({... */\n      dup1\n      dup1\n      0x1f\n      add\n      0x20\n      dup1\n      swap2\n      div\n      mul\n      0x20\n      add\n      mload(0x40)\n      swap1\n      dup2\n      add\n      0x40\n      mstore\n      dup1\n      swap4\n      swap3\n      swap2\n      swap1\n      dup2\n      dup2\n      mstore\n      0x20\n      add\n      dup4\n      dup4\n      dup1\n      dup3\n      dup5\n      calldatacopy\n      0x00\n      dup2\n      dup5\n      add\n      mstore\n      not(0x1f)\n      0x1f\n      dup3\n      add\n      and\n      swap1\n      pop\n      dup1\n      dup4\n      add\n      swap3\n      pop\n      pop\n      pop\n      pop\n      pop\n      pop\n      pop\n      dup2\n      mstore\n      0x20\n      add\n        /* \"contracts/EVote.sol\":1673:1688  officialAddress */\n      dup9\n        /* \"contracts/EVote.sol\":1600:1714  Official({... */\n      0xffffffffffffffffffffffffffffffffffffffff\n      and\n      dup2\n      mstore\n      0x20\n      add\n        /* \"contracts/EVote.sol\":1708:1712  true */\n      0x01\n        /* \"contracts/EVote.sol\":1600:1714  Official({... */\n      iszero\n      iszero\n      dup2\n      mstore\n      pop\n        /* \"contracts/EVote.sol\":1554:1580  accredictedOfficialDetails */\n      0x02\n        /* \"contracts/EVote.sol\":1554:1597  accredictedOfficialDetails[officialAddress] */\n      0x00\n        /* \"contracts/EVote.sol\":1581:1596  officialAddress */\n      dup10\n        /* \"contracts/EVote.sol\":1554:1597  accredictedOfficialDetails[officialAddress] */\n      0xffffffffffffffffffffffffffffffffffffffff\n      and\n      0xffffffffffffffffffffffffffffffffffffffff\n      and\n      dup2\n      mstore\n      0x20\n      add\n      swap1\n      dup2\n      mstore\n      0x20\n      add\n      0x00\n      keccak256\n        /* \"contracts/EVote.sol\":1554:1714  accredictedOfficialDetails[officialAddress] = Official({... */\n      0x00\n      dup3\n      add\n      mload\n      dup2\n      0x00\n      add\n      swap1\n      dup1\n      mload\n      swap1\n      0x20\n      add\n      swap1\n      tag_50\n      swap3\n      swap2\n      swap1\n      tag_33\n      jump\t// in\n    tag_50:\n      pop\n      0x20\n      dup3\n      add\n      mload\n      dup2\n      0x01\n      add\n      swap1\n      dup1\n      mload\n      swap1\n      0x20\n      add\n      swap1\n      tag_51\n      swap3\n      swap2\n      swap1\n      tag_33\n      jump\t// in\n    tag_51:\n      pop\n      0x40\n      dup3\n      add\n      mload\n      dup2\n      0x02\n      add\n      exp(0x0100, 0x00)\n      dup2\n      sload\n      dup2\n      0xffffffffffffffffffffffffffffffffffffffff\n      mul\n      not\n      and\n      swap1\n      dup4\n      0xffffffffffffffffffffffffffffffffffffffff\n      and\n      mul\n      or\n      swap1\n      sstore\n      pop\n      0x60\n      dup3\n      add\n      mload\n      dup2\n      0x02\n      add\n      exp(0x0100, 0x14)\n      dup2\n      sload\n      dup2\n      0xff\n      mul\n      not\n      and\n      swap1\n      dup4\n      iszero\n      iszero\n      mul\n      or\n      swap1\n      sstore\n      pop\n      swap1\n      pop\n      pop\n        /* \"contracts/EVote.sol\":728:729  _ */\n      pop\n      pop\n        /* \"contracts/EVote.sol\":1335:1771  function accredictedNewOfficial(address officialAddress, string calldata name, string calldata zoneCode) external isOwnerMod checkLocalGovtCode(zoneCode){... */\n      pop\n      pop\n      pop\n      pop\n      pop\n      jump\t// out\n        /* \"contracts/EVote.sol\":1240:1329  function getZone() external view returns (VoteZone[] memory){... */\n    tag_15:\n        /* \"contracts/EVote.sol\":1282:1299  VoteZone[] memory */\n      0x60\n        /* \"contracts/EVote.sol\":1316:1321  zones */\n      0x04\n        /* \"contracts/EVote.sol\":1309:1321  return zones */\n      dup1\n      sload\n      dup1\n      0x20\n      mul\n      0x20\n      add\n      mload(0x40)\n      swap1\n      dup2\n      add\n      0x40\n      mstore\n      dup1\n      swap3\n      swap2\n      swap1\n      dup2\n      dup2\n      mstore\n      0x20\n      add\n      0x00\n      swap1\n    tag_53:\n      dup3\n      dup3\n      lt\n      iszero\n      tag_54\n      jumpi\n      dup4\n      dup3\n      swap1\n      0x00\n      mstore\n      keccak256(0x00, 0x20)\n      swap1\n      0x03\n      mul\n      add\n      mload(0x40)\n      dup1\n      0x60\n      add\n      0x40\n      mstore\n      swap1\n      dup2\n      0x00\n      dup3\n      add\n      dup1\n      sload\n      tag_56\n      swap1\n      tag_26\n      jump\t// in\n    tag_56:\n      dup1\n      0x1f\n      add\n      0x20\n      dup1\n      swap2\n      div\n      mul\n      0x20\n      add\n      mload(0x40)\n      swap1\n      dup2\n      add\n      0x40\n      mstore\n      dup1\n      swap3\n      swap2\n      swap1\n      dup2\n      dup2\n      mstore\n      0x20\n      add\n      dup3\n      dup1\n      sload\n      tag_57\n      swap1\n      tag_26\n      jump\t// in\n    tag_57:\n      dup1\n      iszero\n      tag_58\n      jumpi\n      dup1\n      0x1f\n      lt\n      tag_59\n      jumpi\n      0x0100\n      dup1\n      dup4\n      sload\n      div\n      mul\n      dup4\n      mstore\n      swap2\n      0x20\n      add\n      swap2\n      jump(tag_58)\n    tag_59:\n      dup3\n      add\n      swap2\n      swap1\n      0x00\n      mstore\n      keccak256(0x00, 0x20)\n      swap1\n    tag_60:\n      dup2\n      sload\n      dup2\n      mstore\n      swap1\n      0x01\n      add\n      swap1\n      0x20\n      add\n      dup1\n      dup4\n      gt\n      tag_60\n      jumpi\n      dup3\n      swap1\n      sub\n      0x1f\n      and\n      dup3\n      add\n      swap2\n    tag_58:\n      pop\n      pop\n      pop\n      pop\n      pop\n      dup2\n      mstore\n      0x20\n      add\n      0x01\n      dup3\n      add\n      dup1\n      sload\n      tag_61\n      swap1\n      tag_26\n      jump\t// in\n    tag_61:\n      dup1\n      0x1f\n      add\n      0x20\n      dup1\n      swap2\n      div\n      mul\n      0x20\n      add\n      mload(0x40)\n      swap1\n      dup2\n      add\n      0x40\n      mstore\n      dup1\n      swap3\n      swap2\n      swap1\n      dup2\n      dup2\n      mstore\n      0x20\n      add\n      dup3\n      dup1\n      sload\n      tag_62\n      swap1\n      tag_26\n      jump\t// in\n    tag_62:\n      dup1\n      iszero\n      tag_63\n      jumpi\n      dup1\n      0x1f\n      lt\n      tag_64\n      jumpi\n      0x0100\n      dup1\n      dup4\n      sload\n      div\n      mul\n      dup4\n      mstore\n      swap2\n      0x20\n      add\n      swap2\n      jump(tag_63)\n    tag_64:\n      dup3\n      add\n      swap2\n      swap1\n      0x00\n      mstore\n      keccak256(0x00, 0x20)\n      swap1\n    tag_65:\n      dup2\n      sload\n      dup2\n      mstore\n      swap1\n      0x01\n      add\n      swap1\n      0x20\n      add\n      dup1\n      dup4\n      gt\n      tag_65\n      jumpi\n      dup3\n      swap1\n      sub\n      0x1f\n      and\n      dup3\n      add\n      swap2\n    tag_63:\n      pop\n      pop\n      pop\n      pop\n      pop\n      dup2\n      mstore\n      0x20\n      add\n      0x02\n      dup3\n      add\n      dup1\n      sload\n      tag_66\n      swap1\n      tag_26\n      jump\t// in\n    tag_66:\n      dup1\n      0x1f\n      add\n      0x20\n      dup1\n      swap2\n      div\n      mul\n      0x20\n      add\n      mload(0x40)\n      swap1\n      dup2\n      add\n      0x40\n      mstore\n      dup1\n      swap3\n      swap2\n      swap1\n      dup2\n      dup2\n      mstore\n      0x20\n      add\n      dup3\n      dup1\n      sload\n      tag_67\n      swap1\n      tag_26\n      jump\t// in\n    tag_67:\n      dup1\n      iszero\n      tag_68\n      jumpi\n      dup1\n      0x1f\n      lt\n      tag_69\n      jumpi\n      0x0100\n      dup1\n      dup4\n      sload\n      div\n      mul\n      dup4\n      mstore\n      swap2\n      0x20\n      add\n      swap2\n      jump(tag_68)\n    tag_69:\n      dup3\n      add\n      swap2\n      swap1\n      0x00\n      mstore\n      keccak256(0x00, 0x20)\n      swap1\n    tag_70:\n      dup2\n      sload\n      dup2\n      mstore\n      swap1\n      0x01\n      add\n      swap1\n      0x20\n      add\n      dup1\n      dup4\n      gt\n      tag_70\n      jumpi\n      dup3\n      swap1\n      sub\n      0x1f\n      and\n      dup3\n      add\n      swap2\n    tag_68:\n      pop\n      pop\n      pop\n      pop\n      pop\n      dup2\n      mstore\n      pop\n      pop\n      dup2\n      mstore\n      0x20\n      add\n      swap1\n      0x01\n      add\n      swap1\n      jump(tag_53)\n    tag_54:\n      pop\n      pop\n      pop\n      pop\n      swap1\n      pop\n        /* \"contracts/EVote.sol\":1240:1329  function getZone() external view returns (VoteZone[] memory){... */\n      swap1\n      jump\t// out\n    tag_33:\n      dup3\n      dup1\n      sload\n      tag_71\n      swap1\n      tag_26\n      jump\t// in\n    tag_71:\n      swap1\n      0x00\n      mstore\n      keccak256(0x00, 0x20)\n      swap1\n      0x1f\n      add\n      0x20\n      swap1\n      div\n      dup2\n      add\n      swap3\n      dup3\n      tag_73\n      jumpi\n      0x00\n      dup6\n      sstore\n      jump(tag_72)\n    tag_73:\n      dup3\n      0x1f\n      lt\n      tag_74\n      jumpi\n      dup1\n      mload\n      not(0xff)\n      and\n      dup4\n      dup1\n      add\n      or\n      dup6\n      sstore\n      jump(tag_72)\n    tag_74:\n      dup3\n      dup1\n      add\n      0x01\n      add\n      dup6\n      sstore\n      dup3\n      iszero\n      tag_72\n      jumpi\n      swap2\n      dup3\n      add\n    tag_75:\n      dup3\n      dup2\n      gt\n      iszero\n      tag_76\n      jumpi\n      dup3\n      mload\n      dup3\n      sstore\n      swap2\n      0x20\n      add\n      swap2\n      swap1\n      0x01\n      add\n      swap1\n      jump(tag_75)\n    tag_76:\n    tag_72:\n      pop\n      swap1\n      pop\n      tag_77\n      swap2\n      swap1\n      tag_78\n      jump\t// in\n    tag_77:\n      pop\n      swap1\n      jump\t// out\n    tag_78:\n    tag_79:\n      dup1\n      dup3\n      gt\n      iszero\n      tag_80\n      jumpi\n      0x00\n      dup2\n      0x00\n      swap1\n      sstore\n      pop\n      0x01\n      add\n      jump(tag_79)\n    tag_80:\n      pop\n      swap1\n      jump\t// out\n        /* \"#utility.yul\":88:205   */\n    tag_82:\n        /* \"#utility.yul\":197:198   */\n      0x00\n        /* \"#utility.yul\":194:195   */\n      dup1\n        /* \"#utility.yul\":187:199   */\n      revert\n        /* \"#utility.yul\":211:328   */\n    tag_83:\n        /* \"#utility.yul\":320:321   */\n      0x00\n        /* \"#utility.yul\":317:318   */\n      dup1\n        /* \"#utility.yul\":310:322   */\n      revert\n        /* \"#utility.yul\":334:451   */\n    tag_84:\n        /* \"#utility.yul\":443:444   */\n      0x00\n        /* \"#utility.yul\":440:441   */\n      dup1\n        /* \"#utility.yul\":433:445   */\n      revert\n        /* \"#utility.yul\":457:574   */\n    tag_85:\n        /* \"#utility.yul\":566:567   */\n      0x00\n        /* \"#utility.yul\":563:564   */\n      dup1\n        /* \"#utility.yul\":556:568   */\n      revert\n        /* \"#utility.yul\":580:697   */\n    tag_86:\n        /* \"#utility.yul\":689:690   */\n      0x00\n        /* \"#utility.yul\":686:687   */\n      dup1\n        /* \"#utility.yul\":679:691   */\n      revert\n        /* \"#utility.yul\":717:1270   */\n    tag_87:\n        /* \"#utility.yul\":775:783   */\n      0x00\n        /* \"#utility.yul\":785:791   */\n      dup1\n        /* \"#utility.yul\":835:838   */\n      dup4\n        /* \"#utility.yul\":828:832   */\n      0x1f\n        /* \"#utility.yul\":820:826   */\n      dup5\n        /* \"#utility.yul\":816:833   */\n      add\n        /* \"#utility.yul\":812:839   */\n      slt\n        /* \"#utility.yul\":802:924   */\n      tag_121\n      jumpi\n        /* \"#utility.yul\":843:922   */\n      tag_122\n      tag_84\n      jump\t// in\n    tag_122:\n        /* \"#utility.yul\":802:924   */\n    tag_121:\n        /* \"#utility.yul\":956:962   */\n      dup3\n        /* \"#utility.yul\":943:963   */\n      calldataload\n        /* \"#utility.yul\":933:963   */\n      swap1\n      pop\n        /* \"#utility.yul\":986:1004   */\n      0xffffffffffffffff\n        /* \"#utility.yul\":978:984   */\n      dup2\n        /* \"#utility.yul\":975:1005   */\n      gt\n        /* \"#utility.yul\":972:1089   */\n      iszero\n      tag_123\n      jumpi\n        /* \"#utility.yul\":1008:1087   */\n      tag_124\n      tag_85\n      jump\t// in\n    tag_124:\n        /* \"#utility.yul\":972:1089   */\n    tag_123:\n        /* \"#utility.yul\":1122:1126   */\n      0x20\n        /* \"#utility.yul\":1114:1120   */\n      dup4\n        /* \"#utility.yul\":1110:1127   */\n      add\n        /* \"#utility.yul\":1098:1127   */\n      swap2\n      pop\n        /* \"#utility.yul\":1176:1179   */\n      dup4\n        /* \"#utility.yul\":1168:1172   */\n      0x01\n        /* \"#utility.yul\":1160:1166   */\n      dup3\n        /* \"#utility.yul\":1156:1173   */\n      mul\n        /* \"#utility.yul\":1146:1154   */\n      dup4\n        /* \"#utility.yul\":1142:1174   */\n      add\n        /* \"#utility.yul\":1139:1180   */\n      gt\n        /* \"#utility.yul\":1136:1264   */\n      iszero\n      tag_125\n      jumpi\n        /* \"#utility.yul\":1183:1262   */\n      tag_126\n      tag_86\n      jump\t// in\n    tag_126:\n        /* \"#utility.yul\":1136:1264   */\n    tag_125:\n        /* \"#utility.yul\":717:1270   */\n      swap3\n      pop\n      swap3\n      swap1\n      pop\n      jump\t// out\n        /* \"#utility.yul\":1276:2495   */\n    tag_8:\n        /* \"#utility.yul\":1389:1395   */\n      0x00\n        /* \"#utility.yul\":1397:1403   */\n      dup1\n        /* \"#utility.yul\":1405:1411   */\n      0x00\n        /* \"#utility.yul\":1413:1419   */\n      dup1\n        /* \"#utility.yul\":1421:1427   */\n      0x00\n        /* \"#utility.yul\":1429:1435   */\n      dup1\n        /* \"#utility.yul\":1478:1480   */\n      0x60\n        /* \"#utility.yul\":1466:1475   */\n      dup8\n        /* \"#utility.yul\":1457:1464   */\n      dup10\n        /* \"#utility.yul\":1453:1476   */\n      sub\n        /* \"#utility.yul\":1449:1481   */\n      slt\n        /* \"#utility.yul\":1446:1565   */\n      iszero\n      tag_128\n      jumpi\n        /* \"#utility.yul\":1484:1563   */\n      tag_129\n      tag_82\n      jump\t// in\n    tag_129:\n        /* \"#utility.yul\":1446:1565   */\n    tag_128:\n        /* \"#utility.yul\":1632:1633   */\n      0x00\n        /* \"#utility.yul\":1621:1630   */\n      dup8\n        /* \"#utility.yul\":1617:1634   */\n      add\n        /* \"#utility.yul\":1604:1635   */\n      calldataload\n        /* \"#utility.yul\":1662:1680   */\n      0xffffffffffffffff\n        /* \"#utility.yul\":1654:1660   */\n      dup2\n        /* \"#utility.yul\":1651:1681   */\n      gt\n        /* \"#utility.yul\":1648:1765   */\n      iszero\n      tag_130\n      jumpi\n        /* \"#utility.yul\":1684:1763   */\n      tag_131\n      tag_83\n      jump\t// in\n    tag_131:\n        /* \"#utility.yul\":1648:1765   */\n    tag_130:\n        /* \"#utility.yul\":1797:1862   */\n      tag_132\n        /* \"#utility.yul\":1854:1861   */\n      dup10\n        /* \"#utility.yul\":1845:1851   */\n      dup3\n        /* \"#utility.yul\":1834:1843   */\n      dup11\n        /* \"#utility.yul\":1830:1852   */\n      add\n        /* \"#utility.yul\":1797:1862   */\n      tag_87\n      jump\t// in\n    tag_132:\n        /* \"#utility.yul\":1779:1862   */\n      swap7\n      pop\n      swap7\n      pop\n        /* \"#utility.yul\":1575:1872   */\n      pop\n        /* \"#utility.yul\":1939:1941   */\n      0x20\n        /* \"#utility.yul\":1928:1937   */\n      dup8\n        /* \"#utility.yul\":1924:1942   */\n      add\n        /* \"#utility.yul\":1911:1943   */\n      calldataload\n        /* \"#utility.yul\":1970:1988   */\n      0xffffffffffffffff\n        /* \"#utility.yul\":1962:1968   */\n      dup2\n        /* \"#utility.yul\":1959:1989   */\n      gt\n        /* \"#utility.yul\":1956:2073   */\n      iszero\n      tag_133\n      jumpi\n        /* \"#utility.yul\":1992:2071   */\n      tag_134\n      tag_83\n      jump\t// in\n    tag_134:\n        /* \"#utility.yul\":1956:2073   */\n    tag_133:\n        /* \"#utility.yul\":2105:2170   */\n      tag_135\n        /* \"#utility.yul\":2162:2169   */\n      dup10\n        /* \"#utility.yul\":2153:2159   */\n      dup3\n        /* \"#utility.yul\":2142:2151   */\n      dup11\n        /* \"#utility.yul\":2138:2160   */\n      add\n        /* \"#utility.yul\":2105:2170   */\n      tag_87\n      jump\t// in\n    tag_135:\n        /* \"#utility.yul\":2087:2170   */\n      swap5\n      pop\n      swap5\n      pop\n        /* \"#utility.yul\":1882:2180   */\n      pop\n        /* \"#utility.yul\":2247:2249   */\n      0x40\n        /* \"#utility.yul\":2236:2245   */\n      dup8\n        /* \"#utility.yul\":2232:2250   */\n      add\n        /* \"#utility.yul\":2219:2251   */\n      calldataload\n        /* \"#utility.yul\":2278:2296   */\n      0xffffffffffffffff\n        /* \"#utility.yul\":2270:2276   */\n      dup2\n        /* \"#utility.yul\":2267:2297   */\n      gt\n        /* \"#utility.yul\":2264:2381   */\n      iszero\n      tag_136\n      jumpi\n        /* \"#utility.yul\":2300:2379   */\n      tag_137\n      tag_83\n      jump\t// in\n    tag_137:\n        /* \"#utility.yul\":2264:2381   */\n    tag_136:\n        /* \"#utility.yul\":2413:2478   */\n      tag_138\n        /* \"#utility.yul\":2470:2477   */\n      dup10\n        /* \"#utility.yul\":2461:2467   */\n      dup3\n        /* \"#utility.yul\":2450:2459   */\n      dup11\n        /* \"#utility.yul\":2446:2468   */\n      add\n        /* \"#utility.yul\":2413:2478   */\n      tag_87\n      jump\t// in\n    tag_138:\n        /* \"#utility.yul\":2395:2478   */\n      swap3\n      pop\n      swap3\n      pop\n        /* \"#utility.yul\":2190:2488   */\n      pop\n        /* \"#utility.yul\":1276:2495   */\n      swap3\n      swap6\n      pop\n      swap3\n      swap6\n      pop\n      swap3\n      swap6\n      jump\t// out\n        /* \"#utility.yul\":2501:2627   */\n    tag_88:\n        /* \"#utility.yul\":2538:2545   */\n      0x00\n        /* \"#utility.yul\":2578:2620   */\n      0xffffffffffffffffffffffffffffffffffffffff\n        /* \"#utility.yul\":2571:2576   */\n      dup3\n        /* \"#utility.yul\":2567:2621   */\n      and\n        /* \"#utility.yul\":2556:2621   */\n      swap1\n      pop\n        /* \"#utility.yul\":2501:2627   */\n      swap2\n      swap1\n      pop\n      jump\t// out\n        /* \"#utility.yul\":2633:2729   */\n    tag_89:\n        /* \"#utility.yul\":2670:2677   */\n      0x00\n        /* \"#utility.yul\":2699:2723   */\n      tag_141\n        /* \"#utility.yul\":2717:2722   */\n      dup3\n        /* \"#utility.yul\":2699:2723   */\n      tag_88\n      jump\t// in\n    tag_141:\n        /* \"#utility.yul\":2688:2723   */\n      swap1\n      pop\n        /* \"#utility.yul\":2633:2729   */\n      swap2\n      swap1\n      pop\n      jump\t// out\n        /* \"#utility.yul\":2735:2857   */\n    tag_90:\n        /* \"#utility.yul\":2808:2832   */\n      tag_143\n        /* \"#utility.yul\":2826:2831   */\n      dup2\n        /* \"#utility.yul\":2808:2832   */\n      tag_89\n      jump\t// in\n    tag_143:\n        /* \"#utility.yul\":2801:2806   */\n      dup2\n        /* \"#utility.yul\":2798:2833   */\n      eq\n        /* \"#utility.yul\":2788:2851   */\n      tag_144\n      jumpi\n        /* \"#utility.yul\":2847:2848   */\n      0x00\n        /* \"#utility.yul\":2844:2845   */\n      dup1\n        /* \"#utility.yul\":2837:2849   */\n      revert\n        /* \"#utility.yul\":2788:2851   */\n    tag_144:\n        /* \"#utility.yul\":2735:2857   */\n      pop\n      jump\t// out\n        /* \"#utility.yul\":2863:3002   */\n    tag_91:\n        /* \"#utility.yul\":2909:2914   */\n      0x00\n        /* \"#utility.yul\":2947:2953   */\n      dup2\n        /* \"#utility.yul\":2934:2954   */\n      calldataload\n        /* \"#utility.yul\":2925:2954   */\n      swap1\n      pop\n        /* \"#utility.yul\":2963:2996   */\n      tag_146\n        /* \"#utility.yul\":2990:2995   */\n      dup2\n        /* \"#utility.yul\":2963:2996   */\n      tag_90\n      jump\t// in\n    tag_146:\n        /* \"#utility.yul\":2863:3002   */\n      swap3\n      swap2\n      pop\n      pop\n      jump\t// out\n        /* \"#utility.yul\":3008:4027   */\n    tag_12:\n        /* \"#utility.yul\":3109:3115   */\n      0x00\n        /* \"#utility.yul\":3117:3123   */\n      dup1\n        /* \"#utility.yul\":3125:3131   */\n      0x00\n        /* \"#utility.yul\":3133:3139   */\n      dup1\n        /* \"#utility.yul\":3141:3147   */\n      0x00\n        /* \"#utility.yul\":3190:3192   */\n      0x60\n        /* \"#utility.yul\":3178:3187   */\n      dup7\n        /* \"#utility.yul\":3169:3176   */\n      dup9\n        /* \"#utility.yul\":3165:3188   */\n      sub\n        /* \"#utility.yul\":3161:3193   */\n      slt\n        /* \"#utility.yul\":3158:3277   */\n      iszero\n      tag_148\n      jumpi\n        /* \"#utility.yul\":3196:3275   */\n      tag_149\n      tag_82\n      jump\t// in\n    tag_149:\n        /* \"#utility.yul\":3158:3277   */\n    tag_148:\n        /* \"#utility.yul\":3316:3317   */\n      0x00\n        /* \"#utility.yul\":3341:3394   */\n      tag_150\n        /* \"#utility.yul\":3386:3393   */\n      dup9\n        /* \"#utility.yul\":3377:3383   */\n      dup3\n        /* \"#utility.yul\":3366:3375   */\n      dup10\n        /* \"#utility.yul\":3362:3384   */\n      add\n        /* \"#utility.yul\":3341:3394   */\n      tag_91\n      jump\t// in\n    tag_150:\n        /* \"#utility.yul\":3331:3394   */\n      swap6\n      pop\n        /* \"#utility.yul\":3287:3404   */\n      pop\n        /* \"#utility.yul\":3471:3473   */\n      0x20\n        /* \"#utility.yul\":3460:3469   */\n      dup7\n        /* \"#utility.yul\":3456:3474   */\n      add\n        /* \"#utility.yul\":3443:3475   */\n      calldataload\n        /* \"#utility.yul\":3502:3520   */\n      0xffffffffffffffff\n        /* \"#utility.yul\":3494:3500   */\n      dup2\n        /* \"#utility.yul\":3491:3521   */\n      gt\n        /* \"#utility.yul\":3488:3605   */\n      iszero\n      tag_151\n      jumpi\n        /* \"#utility.yul\":3524:3603   */\n      tag_152\n      tag_83\n      jump\t// in\n    tag_152:\n        /* \"#utility.yul\":3488:3605   */\n    tag_151:\n        /* \"#utility.yul\":3637:3702   */\n      tag_153\n        /* \"#utility.yul\":3694:3701   */\n      dup9\n        /* \"#utility.yul\":3685:3691   */\n      dup3\n        /* \"#utility.yul\":3674:3683   */\n      dup10\n        /* \"#utility.yul\":3670:3692   */\n      add\n        /* \"#utility.yul\":3637:3702   */\n      tag_87\n      jump\t// in\n    tag_153:\n        /* \"#utility.yul\":3619:3702   */\n      swap5\n      pop\n      swap5\n      pop\n        /* \"#utility.yul\":3414:3712   */\n      pop\n        /* \"#utility.yul\":3779:3781   */\n      0x40\n        /* \"#utility.yul\":3768:3777   */\n      dup7\n        /* \"#utility.yul\":3764:3782   */\n      add\n        /* \"#utility.yul\":3751:3783   */\n      calldataload\n        /* \"#utility.yul\":3810:3828   */\n      0xffffffffffffffff\n        /* \"#utility.yul\":3802:3808   */\n      dup2\n        /* \"#utility.yul\":3799:3829   */\n      gt\n        /* \"#utility.yul\":3796:3913   */\n      iszero\n      tag_154\n      jumpi\n        /* \"#utility.yul\":3832:3911   */\n      tag_155\n      tag_83\n      jump\t// in\n    tag_155:\n        /* \"#utility.yul\":3796:3913   */\n    tag_154:\n        /* \"#utility.yul\":3945:4010   */\n      tag_156\n        /* \"#utility.yul\":4002:4009   */\n      dup9\n        /* \"#utility.yul\":3993:3999   */\n      dup3\n        /* \"#utility.yul\":3982:3991   */\n      dup10\n        /* \"#utility.yul\":3978:4000   */\n      add\n        /* \"#utility.yul\":3945:4010   */\n      tag_87\n      jump\t// in\n    tag_156:\n        /* \"#utility.yul\":3927:4010   */\n      swap3\n      pop\n      swap3\n      pop\n        /* \"#utility.yul\":3722:4020   */\n      pop\n        /* \"#utility.yul\":3008:4027   */\n      swap3\n      swap6\n      pop\n      swap3\n      swap6\n      swap1\n      swap4\n      pop\n      jump\t// out\n        /* \"#utility.yul\":4033:4172   */\n    tag_92:\n        /* \"#utility.yul\":4125:4131   */\n      0x00\n        /* \"#utility.yul\":4159:4164   */\n      dup2\n        /* \"#utility.yul\":4153:4165   */\n      mload\n        /* \"#utility.yul\":4143:4165   */\n      swap1\n      pop\n        /* \"#utility.yul\":4033:4172   */\n      swap2\n      swap1\n      pop\n      jump\t// out\n        /* \"#utility.yul\":4178:4387   */\n    tag_93:\n        /* \"#utility.yul\":4302:4313   */\n      0x00\n        /* \"#utility.yul\":4336:4342   */\n      dup3\n        /* \"#utility.yul\":4331:4334   */\n      dup3\n        /* \"#utility.yul\":4324:4343   */\n      mstore\n        /* \"#utility.yul\":4376:4380   */\n      0x20\n        /* \"#utility.yul\":4371:4374   */\n      dup3\n        /* \"#utility.yul\":4367:4381   */\n      add\n        /* \"#utility.yul\":4352:4381   */\n      swap1\n      pop\n        /* \"#utility.yul\":4178:4387   */\n      swap3\n      swap2\n      pop\n      pop\n      jump\t// out\n        /* \"#utility.yul\":4393:4550   */\n    tag_94:\n        /* \"#utility.yul\":4485:4489   */\n      0x00\n        /* \"#utility.yul\":4508:4511   */\n      dup2\n        /* \"#utility.yul\":4500:4511   */\n      swap1\n      pop\n        /* \"#utility.yul\":4538:4542   */\n      0x20\n        /* \"#utility.yul\":4533:4536   */\n      dup3\n        /* \"#utility.yul\":4529:4543   */\n      add\n        /* \"#utility.yul\":4521:4543   */\n      swap1\n      pop\n        /* \"#utility.yul\":4393:4550   */\n      swap2\n      swap1\n      pop\n      jump\t// out\n        /* \"#utility.yul\":4556:4655   */\n    tag_95:\n        /* \"#utility.yul\":4608:4614   */\n      0x00\n        /* \"#utility.yul\":4642:4647   */\n      dup2\n        /* \"#utility.yul\":4636:4648   */\n      mload\n        /* \"#utility.yul\":4626:4648   */\n      swap1\n      pop\n        /* \"#utility.yul\":4556:4655   */\n      swap2\n      swap1\n      pop\n      jump\t// out\n        /* \"#utility.yul\":4661:4820   */\n    tag_96:\n        /* \"#utility.yul\":4735:4746   */\n      0x00\n        /* \"#utility.yul\":4769:4775   */\n      dup3\n        /* \"#utility.yul\":4764:4767   */\n      dup3\n        /* \"#utility.yul\":4757:4776   */\n      mstore\n        /* \"#utility.yul\":4809:4813   */\n      0x20\n        /* \"#utility.yul\":4804:4807   */\n      dup3\n        /* \"#utility.yul\":4800:4814   */\n      add\n        /* \"#utility.yul\":4785:4814   */\n      swap1\n      pop\n        /* \"#utility.yul\":4661:4820   */\n      swap3\n      swap2\n      pop\n      pop\n      jump\t// out\n        /* \"#utility.yul\":4826:5133   */\n    tag_97:\n        /* \"#utility.yul\":4894:4895   */\n      0x00\n        /* \"#utility.yul\":4904:5017   */\n    tag_163:\n        /* \"#utility.yul\":4918:4924   */\n      dup4\n        /* \"#utility.yul\":4915:4916   */\n      dup2\n        /* \"#utility.yul\":4912:4925   */\n      lt\n        /* \"#utility.yul\":4904:5017   */\n      iszero\n      tag_165\n      jumpi\n        /* \"#utility.yul\":5003:5004   */\n      dup1\n        /* \"#utility.yul\":4998:5001   */\n      dup3\n        /* \"#utility.yul\":4994:5005   */\n      add\n        /* \"#utility.yul\":4988:5006   */\n      mload\n        /* \"#utility.yul\":4984:4985   */\n      dup2\n        /* \"#utility.yul\":4979:4982   */\n      dup5\n        /* \"#utility.yul\":4975:4986   */\n      add\n        /* \"#utility.yul\":4968:5007   */\n      mstore\n        /* \"#utility.yul\":4940:4942   */\n      0x20\n        /* \"#utility.yul\":4937:4938   */\n      dup2\n        /* \"#utility.yul\":4933:4943   */\n      add\n        /* \"#utility.yul\":4928:4943   */\n      swap1\n      pop\n        /* \"#utility.yul\":4904:5017   */\n      jump(tag_163)\n    tag_165:\n        /* \"#utility.yul\":5035:5041   */\n      dup4\n        /* \"#utility.yul\":5032:5033   */\n      dup2\n        /* \"#utility.yul\":5029:5042   */\n      gt\n        /* \"#utility.yul\":5026:5127   */\n      iszero\n      tag_166\n      jumpi\n        /* \"#utility.yul\":5115:5116   */\n      0x00\n        /* \"#utility.yul\":5106:5112   */\n      dup5\n        /* \"#utility.yul\":5101:5104   */\n      dup5\n        /* \"#utility.yul\":5097:5113   */\n      add\n        /* \"#utility.yul\":5090:5117   */\n      mstore\n        /* \"#utility.yul\":5026:5127   */\n    tag_166:\n        /* \"#utility.yul\":4875:5133   */\n      pop\n        /* \"#utility.yul\":4826:5133   */\n      pop\n      pop\n      pop\n      jump\t// out\n        /* \"#utility.yul\":5139:5241   */\n    tag_98:\n        /* \"#utility.yul\":5180:5186   */\n      0x00\n        /* \"#utility.yul\":5231:5233   */\n      0x1f\n        /* \"#utility.yul\":5227:5234   */\n      not\n        /* \"#utility.yul\":5222:5224   */\n      0x1f\n        /* \"#utility.yul\":5215:5220   */\n      dup4\n        /* \"#utility.yul\":5211:5225   */\n      add\n        /* \"#utility.yul\":5207:5235   */\n      and\n        /* \"#utility.yul\":5197:5235   */\n      swap1\n      pop\n        /* \"#utility.yul\":5139:5241   */\n      swap2\n      swap1\n      pop\n      jump\t// out\n        /* \"#utility.yul\":5247:5591   */\n    tag_99:\n        /* \"#utility.yul\":5325:5328   */\n      0x00\n        /* \"#utility.yul\":5353:5392   */\n      tag_169\n        /* \"#utility.yul\":5386:5391   */\n      dup3\n        /* \"#utility.yul\":5353:5392   */\n      tag_95\n      jump\t// in\n    tag_169:\n        /* \"#utility.yul\":5408:5469   */\n      tag_170\n        /* \"#utility.yul\":5462:5468   */\n      dup2\n        /* \"#utility.yul\":5457:5460   */\n      dup6\n        /* \"#utility.yul\":5408:5469   */\n      tag_96\n      jump\t// in\n    tag_170:\n        /* \"#utility.yul\":5401:5469   */\n      swap4\n      pop\n        /* \"#utility.yul\":5478:5530   */\n      tag_171\n        /* \"#utility.yul\":5523:5529   */\n      dup2\n        /* \"#utility.yul\":5518:5521   */\n      dup6\n        /* \"#utility.yul\":5511:5515   */\n      0x20\n        /* \"#utility.yul\":5504:5509   */\n      dup7\n        /* \"#utility.yul\":5500:5516   */\n      add\n        /* \"#utility.yul\":5478:5530   */\n      tag_97\n      jump\t// in\n    tag_171:\n        /* \"#utility.yul\":5555:5584   */\n      tag_172\n        /* \"#utility.yul\":5577:5583   */\n      dup2\n        /* \"#utility.yul\":5555:5584   */\n      tag_98\n      jump\t// in\n    tag_172:\n        /* \"#utility.yul\":5550:5553   */\n      dup5\n        /* \"#utility.yul\":5546:5585   */\n      add\n        /* \"#utility.yul\":5539:5585   */\n      swap2\n      pop\n        /* \"#utility.yul\":5329:5591   */\n      pop\n        /* \"#utility.yul\":5247:5591   */\n      swap3\n      swap2\n      pop\n      pop\n      jump\t// out\n        /* \"#utility.yul\":5639:6555   */\n    tag_100:\n        /* \"#utility.yul\":5748:5751   */\n      0x00\n        /* \"#utility.yul\":5784:5788   */\n      0x60\n        /* \"#utility.yul\":5779:5782   */\n      dup4\n        /* \"#utility.yul\":5775:5789   */\n      add\n        /* \"#utility.yul\":5870:5874   */\n      0x00\n        /* \"#utility.yul\":5863:5868   */\n      dup4\n        /* \"#utility.yul\":5859:5875   */\n      add\n        /* \"#utility.yul\":5853:5876   */\n      mload\n        /* \"#utility.yul\":5923:5926   */\n      dup5\n        /* \"#utility.yul\":5917:5921   */\n      dup3\n        /* \"#utility.yul\":5913:5927   */\n      sub\n        /* \"#utility.yul\":5906:5910   */\n      0x00\n        /* \"#utility.yul\":5901:5904   */\n      dup7\n        /* \"#utility.yul\":5897:5911   */\n      add\n        /* \"#utility.yul\":5890:5928   */\n      mstore\n        /* \"#utility.yul\":5949:6022   */\n      tag_174\n        /* \"#utility.yul\":6017:6021   */\n      dup3\n        /* \"#utility.yul\":6003:6015   */\n      dup3\n        /* \"#utility.yul\":5949:6022   */\n      tag_99\n      jump\t// in\n    tag_174:\n        /* \"#utility.yul\":5941:6022   */\n      swap2\n      pop\n        /* \"#utility.yul\":5799:6033   */\n      pop\n        /* \"#utility.yul\":6116:6120   */\n      0x20\n        /* \"#utility.yul\":6109:6114   */\n      dup4\n        /* \"#utility.yul\":6105:6121   */\n      add\n        /* \"#utility.yul\":6099:6122   */\n      mload\n        /* \"#utility.yul\":6169:6172   */\n      dup5\n        /* \"#utility.yul\":6163:6167   */\n      dup3\n        /* \"#utility.yul\":6159:6173   */\n      sub\n        /* \"#utility.yul\":6152:6156   */\n      0x20\n        /* \"#utility.yul\":6147:6150   */\n      dup7\n        /* \"#utility.yul\":6143:6157   */\n      add\n        /* \"#utility.yul\":6136:6174   */\n      mstore\n        /* \"#utility.yul\":6195:6268   */\n      tag_175\n        /* \"#utility.yul\":6263:6267   */\n      dup3\n        /* \"#utility.yul\":6249:6261   */\n      dup3\n        /* \"#utility.yul\":6195:6268   */\n      tag_99\n      jump\t// in\n    tag_175:\n        /* \"#utility.yul\":6187:6268   */\n      swap2\n      pop\n        /* \"#utility.yul\":6043:6279   */\n      pop\n        /* \"#utility.yul\":6365:6369   */\n      0x40\n        /* \"#utility.yul\":6358:6363   */\n      dup4\n        /* \"#utility.yul\":6354:6370   */\n      add\n        /* \"#utility.yul\":6348:6371   */\n      mload\n        /* \"#utility.yul\":6418:6421   */\n      dup5\n        /* \"#utility.yul\":6412:6416   */\n      dup3\n        /* \"#utility.yul\":6408:6422   */\n      sub\n        /* \"#utility.yul\":6401:6405   */\n      0x40\n        /* \"#utility.yul\":6396:6399   */\n      dup7\n        /* \"#utility.yul\":6392:6406   */\n      add\n        /* \"#utility.yul\":6385:6423   */\n      mstore\n        /* \"#utility.yul\":6444:6517   */\n      tag_176\n        /* \"#utility.yul\":6512:6516   */\n      dup3\n        /* \"#utility.yul\":6498:6510   */\n      dup3\n        /* \"#utility.yul\":6444:6517   */\n      tag_99\n      jump\t// in\n    tag_176:\n        /* \"#utility.yul\":6436:6517   */\n      swap2\n      pop\n        /* \"#utility.yul\":6289:6528   */\n      pop\n        /* \"#utility.yul\":6545:6549   */\n      dup1\n        /* \"#utility.yul\":6538:6549   */\n      swap2\n      pop\n        /* \"#utility.yul\":5753:6555   */\n      pop\n        /* \"#utility.yul\":5639:6555   */\n      swap3\n      swap2\n      pop\n      pop\n      jump\t// out\n        /* \"#utility.yul\":6561:6817   */\n    tag_101:\n        /* \"#utility.yul\":6680:6690   */\n      0x00\n        /* \"#utility.yul\":6715:6811   */\n      tag_178\n        /* \"#utility.yul\":6807:6810   */\n      dup4\n        /* \"#utility.yul\":6799:6805   */\n      dup4\n        /* \"#utility.yul\":6715:6811   */\n      tag_100\n      jump\t// in\n    tag_178:\n        /* \"#utility.yul\":6701:6811   */\n      swap1\n      pop\n        /* \"#utility.yul\":6561:6817   */\n      swap3\n      swap2\n      pop\n      pop\n      jump\t// out\n        /* \"#utility.yul\":6823:6961   */\n    tag_102:\n        /* \"#utility.yul\":6918:6922   */\n      0x00\n        /* \"#utility.yul\":6950:6954   */\n      0x20\n        /* \"#utility.yul\":6945:6948   */\n      dup3\n        /* \"#utility.yul\":6941:6955   */\n      add\n        /* \"#utility.yul\":6933:6955   */\n      swap1\n      pop\n        /* \"#utility.yul\":6823:6961   */\n      swap2\n      swap1\n      pop\n      jump\t// out\n        /* \"#utility.yul\":7013:8124   */\n    tag_103:\n        /* \"#utility.yul\":7182:7185   */\n      0x00\n        /* \"#utility.yul\":7211:7290   */\n      tag_181\n        /* \"#utility.yul\":7284:7289   */\n      dup3\n        /* \"#utility.yul\":7211:7290   */\n      tag_92\n      jump\t// in\n    tag_181:\n        /* \"#utility.yul\":7306:7417   */\n      tag_182\n        /* \"#utility.yul\":7410:7416   */\n      dup2\n        /* \"#utility.yul\":7405:7408   */\n      dup6\n        /* \"#utility.yul\":7306:7417   */\n      tag_93\n      jump\t// in\n    tag_182:\n        /* \"#utility.yul\":7299:7417   */\n      swap4\n      pop\n        /* \"#utility.yul\":7443:7446   */\n      dup4\n        /* \"#utility.yul\":7488:7492   */\n      0x20\n        /* \"#utility.yul\":7480:7486   */\n      dup3\n        /* \"#utility.yul\":7476:7493   */\n      mul\n        /* \"#utility.yul\":7471:7474   */\n      dup6\n        /* \"#utility.yul\":7467:7494   */\n      add\n        /* \"#utility.yul\":7518:7599   */\n      tag_183\n        /* \"#utility.yul\":7593:7598   */\n      dup6\n        /* \"#utility.yul\":7518:7599   */\n      tag_94\n      jump\t// in\n    tag_183:\n        /* \"#utility.yul\":7622:7629   */\n      dup1\n        /* \"#utility.yul\":7653:7654   */\n      0x00\n        /* \"#utility.yul\":7638:8079   */\n    tag_184:\n        /* \"#utility.yul\":7663:7669   */\n      dup6\n        /* \"#utility.yul\":7660:7661   */\n      dup2\n        /* \"#utility.yul\":7657:7670   */\n      lt\n        /* \"#utility.yul\":7638:8079   */\n      iszero\n      tag_186\n      jumpi\n        /* \"#utility.yul\":7734:7743   */\n      dup5\n        /* \"#utility.yul\":7728:7732   */\n      dup5\n        /* \"#utility.yul\":7724:7744   */\n      sub\n        /* \"#utility.yul\":7719:7722   */\n      dup10\n        /* \"#utility.yul\":7712:7745   */\n      mstore\n        /* \"#utility.yul\":7785:7791   */\n      dup2\n        /* \"#utility.yul\":7779:7792   */\n      mload\n        /* \"#utility.yul\":7813:7927   */\n      tag_187\n        /* \"#utility.yul\":7922:7926   */\n      dup6\n        /* \"#utility.yul\":7907:7920   */\n      dup3\n        /* \"#utility.yul\":7813:7927   */\n      tag_101\n      jump\t// in\n    tag_187:\n        /* \"#utility.yul\":7805:7927   */\n      swap5\n      pop\n        /* \"#utility.yul\":7950:8035   */\n      tag_188\n        /* \"#utility.yul\":8028:8034   */\n      dup4\n        /* \"#utility.yul\":7950:8035   */\n      tag_102\n      jump\t// in\n    tag_188:\n        /* \"#utility.yul\":7940:8035   */\n      swap3\n      pop\n        /* \"#utility.yul\":8064:8068   */\n      0x20\n        /* \"#utility.yul\":8059:8062   */\n      dup11\n        /* \"#utility.yul\":8055:8069   */\n      add\n        /* \"#utility.yul\":8048:8069   */\n      swap10\n      pop\n        /* \"#utility.yul\":7698:8079   */\n      pop\n        /* \"#utility.yul\":7685:7686   */\n      0x01\n        /* \"#utility.yul\":7682:7683   */\n      dup2\n        /* \"#utility.yul\":7678:7687   */\n      add\n        /* \"#utility.yul\":7673:7687   */\n      swap1\n      pop\n        /* \"#utility.yul\":7638:8079   */\n      jump(tag_184)\n    tag_186:\n        /* \"#utility.yul\":7642:7656   */\n      pop\n        /* \"#utility.yul\":8095:8099   */\n      dup3\n        /* \"#utility.yul\":8088:8099   */\n      swap8\n      pop\n        /* \"#utility.yul\":8115:8118   */\n      dup8\n        /* \"#utility.yul\":8108:8118   */\n      swap6\n      pop\n        /* \"#utility.yul\":7187:8124   */\n      pop\n      pop\n      pop\n      pop\n      pop\n        /* \"#utility.yul\":7013:8124   */\n      swap3\n      swap2\n      pop\n      pop\n      jump\t// out\n        /* \"#utility.yul\":8130:8603   */\n    tag_17:\n        /* \"#utility.yul\":8323:8327   */\n      0x00\n        /* \"#utility.yul\":8361:8363   */\n      0x20\n        /* \"#utility.yul\":8350:8359   */\n      dup3\n        /* \"#utility.yul\":8346:8364   */\n      add\n        /* \"#utility.yul\":8338:8364   */\n      swap1\n      pop\n        /* \"#utility.yul\":8410:8419   */\n      dup2\n        /* \"#utility.yul\":8404:8408   */\n      dup2\n        /* \"#utility.yul\":8400:8420   */\n      sub\n        /* \"#utility.yul\":8396:8397   */\n      0x00\n        /* \"#utility.yul\":8385:8394   */\n      dup4\n        /* \"#utility.yul\":8381:8398   */\n      add\n        /* \"#utility.yul\":8374:8421   */\n      mstore\n        /* \"#utility.yul\":8438:8596   */\n      tag_190\n        /* \"#utility.yul\":8591:8595   */\n      dup2\n        /* \"#utility.yul\":8582:8588   */\n      dup5\n        /* \"#utility.yul\":8438:8596   */\n      tag_103\n      jump\t// in\n    tag_190:\n        /* \"#utility.yul\":8430:8596   */\n      swap1\n      pop\n        /* \"#utility.yul\":8130:8603   */\n      swap3\n      swap2\n      pop\n      pop\n      jump\t// out\n        /* \"#utility.yul\":8609:8778   */\n    tag_104:\n        /* \"#utility.yul\":8693:8704   */\n      0x00\n        /* \"#utility.yul\":8727:8733   */\n      dup3\n        /* \"#utility.yul\":8722:8725   */\n      dup3\n        /* \"#utility.yul\":8715:8734   */\n      mstore\n        /* \"#utility.yul\":8767:8771   */\n      0x20\n        /* \"#utility.yul\":8762:8765   */\n      dup3\n        /* \"#utility.yul\":8758:8772   */\n      add\n        /* \"#utility.yul\":8743:8772   */\n      swap1\n      pop\n        /* \"#utility.yul\":8609:8778   */\n      swap3\n      swap2\n      pop\n      pop\n      jump\t// out\n        /* \"#utility.yul\":8784:8958   */\n    tag_105:\n        /* \"#utility.yul\":8924:8950   */\n      0x796f752063616e206e6f7420616464206f6666696369616c0000000000000000\n        /* \"#utility.yul\":8920:8921   */\n      0x00\n        /* \"#utility.yul\":8912:8918   */\n      dup3\n        /* \"#utility.yul\":8908:8922   */\n      add\n        /* \"#utility.yul\":8901:8951   */\n      mstore\n        /* \"#utility.yul\":8784:8958   */\n      pop\n      jump\t// out\n        /* \"#utility.yul\":8964:9330   */\n    tag_106:\n        /* \"#utility.yul\":9106:9109   */\n      0x00\n        /* \"#utility.yul\":9127:9194   */\n      tag_194\n        /* \"#utility.yul\":9191:9193   */\n      0x18\n        /* \"#utility.yul\":9186:9189   */\n      dup4\n        /* \"#utility.yul\":9127:9194   */\n      tag_104\n      jump\t// in\n    tag_194:\n        /* \"#utility.yul\":9120:9194   */\n      swap2\n      pop\n        /* \"#utility.yul\":9203:9296   */\n      tag_195\n        /* \"#utility.yul\":9292:9295   */\n      dup3\n        /* \"#utility.yul\":9203:9296   */\n      tag_105\n      jump\t// in\n    tag_195:\n        /* \"#utility.yul\":9321:9323   */\n      0x20\n        /* \"#utility.yul\":9316:9319   */\n      dup3\n        /* \"#utility.yul\":9312:9324   */\n      add\n        /* \"#utility.yul\":9305:9324   */\n      swap1\n      pop\n        /* \"#utility.yul\":8964:9330   */\n      swap2\n      swap1\n      pop\n      jump\t// out\n        /* \"#utility.yul\":9336:9755   */\n    tag_21:\n        /* \"#utility.yul\":9502:9506   */\n      0x00\n        /* \"#utility.yul\":9540:9542   */\n      0x20\n        /* \"#utility.yul\":9529:9538   */\n      dup3\n        /* \"#utility.yul\":9525:9543   */\n      add\n        /* \"#utility.yul\":9517:9543   */\n      swap1\n      pop\n        /* \"#utility.yul\":9589:9598   */\n      dup2\n        /* \"#utility.yul\":9583:9587   */\n      dup2\n        /* \"#utility.yul\":9579:9599   */\n      sub\n        /* \"#utility.yul\":9575:9576   */\n      0x00\n        /* \"#utility.yul\":9564:9573   */\n      dup4\n        /* \"#utility.yul\":9560:9577   */\n      add\n        /* \"#utility.yul\":9553:9600   */\n      mstore\n        /* \"#utility.yul\":9617:9748   */\n      tag_197\n        /* \"#utility.yul\":9743:9747   */\n      dup2\n        /* \"#utility.yul\":9617:9748   */\n      tag_106\n      jump\t// in\n    tag_197:\n        /* \"#utility.yul\":9609:9748   */\n      swap1\n      pop\n        /* \"#utility.yul\":9336:9755   */\n      swap2\n      swap1\n      pop\n      jump\t// out\n        /* \"#utility.yul\":9761:9909   */\n    tag_107:\n        /* \"#utility.yul\":9863:9874   */\n      0x00\n        /* \"#utility.yul\":9900:9903   */\n      dup2\n        /* \"#utility.yul\":9885:9903   */\n      swap1\n      pop\n        /* \"#utility.yul\":9761:9909   */\n      swap3\n      swap2\n      pop\n      pop\n      jump\t// out\n        /* \"#utility.yul\":9915:10069   */\n    tag_108:\n        /* \"#utility.yul\":9999:10005   */\n      dup3\n        /* \"#utility.yul\":9994:9997   */\n      dup2\n        /* \"#utility.yul\":9989:9992   */\n      dup4\n        /* \"#utility.yul\":9976:10006   */\n      calldatacopy\n        /* \"#utility.yul\":10061:10062   */\n      0x00\n        /* \"#utility.yul\":10052:10058   */\n      dup4\n        /* \"#utility.yul\":10047:10050   */\n      dup4\n        /* \"#utility.yul\":10043:10059   */\n      add\n        /* \"#utility.yul\":10036:10063   */\n      mstore\n        /* \"#utility.yul\":9915:10069   */\n      pop\n      pop\n      pop\n      jump\t// out\n        /* \"#utility.yul\":10099:10416   */\n    tag_109:\n        /* \"#utility.yul\":10215:10218   */\n      0x00\n        /* \"#utility.yul\":10236:10325   */\n      tag_201\n        /* \"#utility.yul\":10318:10324   */\n      dup4\n        /* \"#utility.yul\":10313:10316   */\n      dup6\n        /* \"#utility.yul\":10236:10325   */\n      tag_107\n      jump\t// in\n    tag_201:\n        /* \"#utility.yul\":10229:10325   */\n      swap4\n      pop\n        /* \"#utility.yul\":10335:10378   */\n      tag_202\n        /* \"#utility.yul\":10371:10377   */\n      dup4\n        /* \"#utility.yul\":10366:10369   */\n      dup6\n        /* \"#utility.yul\":10359:10364   */\n      dup5\n        /* \"#utility.yul\":10335:10378   */\n      tag_108\n      jump\t// in\n    tag_202:\n        /* \"#utility.yul\":10403:10409   */\n      dup3\n        /* \"#utility.yul\":10398:10401   */\n      dup5\n        /* \"#utility.yul\":10394:10410   */\n      add\n        /* \"#utility.yul\":10387:10410   */\n      swap1\n      pop\n        /* \"#utility.yul\":10099:10416   */\n      swap4\n      swap3\n      pop\n      pop\n      pop\n      jump\t// out\n        /* \"#utility.yul\":10422:10717   */\n    tag_24:\n        /* \"#utility.yul\":10564:10567   */\n      0x00\n        /* \"#utility.yul\":10586:10691   */\n      tag_204\n        /* \"#utility.yul\":10687:10690   */\n      dup3\n        /* \"#utility.yul\":10678:10684   */\n      dup5\n        /* \"#utility.yul\":10670:10676   */\n      dup7\n        /* \"#utility.yul\":10586:10691   */\n      tag_109\n      jump\t// in\n    tag_204:\n        /* \"#utility.yul\":10579:10691   */\n      swap2\n      pop\n        /* \"#utility.yul\":10708:10711   */\n      dup2\n        /* \"#utility.yul\":10701:10711   */\n      swap1\n      pop\n        /* \"#utility.yul\":10422:10717   */\n      swap4\n      swap3\n      pop\n      pop\n      pop\n      jump\t// out\n        /* \"#utility.yul\":10723:10903   */\n    tag_110:\n        /* \"#utility.yul\":10771:10848   */\n      0x4e487b7100000000000000000000000000000000000000000000000000000000\n        /* \"#utility.yul\":10768:10769   */\n      0x00\n        /* \"#utility.yul\":10761:10849   */\n      mstore\n        /* \"#utility.yul\":10868:10872   */\n      0x22\n        /* \"#utility.yul\":10865:10866   */\n      0x04\n        /* \"#utility.yul\":10858:10873   */\n      mstore\n        /* \"#utility.yul\":10892:10896   */\n      0x24\n        /* \"#utility.yul\":10889:10890   */\n      0x00\n        /* \"#utility.yul\":10882:10897   */\n      revert\n        /* \"#utility.yul\":10909:11229   */\n    tag_26:\n        /* \"#utility.yul\":10953:10959   */\n      0x00\n        /* \"#utility.yul\":10990:10991   */\n      0x02\n        /* \"#utility.yul\":10984:10988   */\n      dup3\n        /* \"#utility.yul\":10980:10992   */\n      div\n        /* \"#utility.yul\":10970:10992   */\n      swap1\n      pop\n        /* \"#utility.yul\":11037:11038   */\n      0x01\n        /* \"#utility.yul\":11031:11035   */\n      dup3\n        /* \"#utility.yul\":11027:11039   */\n      and\n        /* \"#utility.yul\":11058:11076   */\n      dup1\n        /* \"#utility.yul\":11048:11129   */\n      tag_207\n      jumpi\n        /* \"#utility.yul\":11114:11118   */\n      0x7f\n        /* \"#utility.yul\":11106:11112   */\n      dup3\n        /* \"#utility.yul\":11102:11119   */\n      and\n        /* \"#utility.yul\":11092:11119   */\n      swap2\n      pop\n        /* \"#utility.yul\":11048:11129   */\n    tag_207:\n        /* \"#utility.yul\":11176:11178   */\n      0x20\n        /* \"#utility.yul\":11168:11174   */\n      dup3\n        /* \"#utility.yul\":11165:11179   */\n      lt\n        /* \"#utility.yul\":11145:11163   */\n      dup2\n        /* \"#utility.yul\":11142:11180   */\n      eq\n        /* \"#utility.yul\":11139:11223   */\n      iszero\n      tag_208\n      jumpi\n        /* \"#utility.yul\":11195:11213   */\n      tag_209\n      tag_110\n      jump\t// in\n    tag_209:\n        /* \"#utility.yul\":11139:11223   */\n    tag_208:\n        /* \"#utility.yul\":10960:11229   */\n      pop\n        /* \"#utility.yul\":10909:11229   */\n      swap2\n      swap1\n      pop\n      jump\t// out\n        /* \"#utility.yul\":11235:11415   */\n    tag_111:\n        /* \"#utility.yul\":11375:11407   */\n      0x6c6f63616c20676f7665726e6d656e7420616c72656164792065786973740000\n        /* \"#utility.yul\":11371:11372   */\n      0x00\n        /* \"#utility.yul\":11363:11369   */\n      dup3\n        /* \"#utility.yul\":11359:11373   */\n      add\n        /* \"#utility.yul\":11352:11408   */\n      mstore\n        /* \"#utility.yul\":11235:11415   */\n      pop\n      jump\t// out\n        /* \"#utility.yul\":11421:11787   */\n    tag_112:\n        /* \"#utility.yul\":11563:11566   */\n      0x00\n        /* \"#utility.yul\":11584:11651   */\n      tag_212\n        /* \"#utility.yul\":11648:11650   */\n      0x1e\n        /* \"#utility.yul\":11643:11646   */\n      dup4\n        /* \"#utility.yul\":11584:11651   */\n      tag_104\n      jump\t// in\n    tag_212:\n        /* \"#utility.yul\":11577:11651   */\n      swap2\n      pop\n        /* \"#utility.yul\":11660:11753   */\n      tag_213\n        /* \"#utility.yul\":11749:11752   */\n      dup3\n        /* \"#utility.yul\":11660:11753   */\n      tag_111\n      jump\t// in\n    tag_213:\n        /* \"#utility.yul\":11778:11780   */\n      0x20\n        /* \"#utility.yul\":11773:11776   */\n      dup3\n        /* \"#utility.yul\":11769:11781   */\n      add\n        /* \"#utility.yul\":11762:11781   */\n      swap1\n      pop\n        /* \"#utility.yul\":11421:11787   */\n      swap2\n      swap1\n      pop\n      jump\t// out\n        /* \"#utility.yul\":11793:12212   */\n    tag_29:\n        /* \"#utility.yul\":11959:11963   */\n      0x00\n        /* \"#utility.yul\":11997:11999   */\n      0x20\n        /* \"#utility.yul\":11986:11995   */\n      dup3\n        /* \"#utility.yul\":11982:12000   */\n      add\n        /* \"#utility.yul\":11974:12000   */\n      swap1\n      pop\n        /* \"#utility.yul\":12046:12055   */\n      dup2\n        /* \"#utility.yul\":12040:12044   */\n      dup2\n        /* \"#utility.yul\":12036:12056   */\n      sub\n        /* \"#utility.yul\":12032:12033   */\n      0x00\n        /* \"#utility.yul\":12021:12030   */\n      dup4\n        /* \"#utility.yul\":12017:12034   */\n      add\n        /* \"#utility.yul\":12010:12057   */\n      mstore\n        /* \"#utility.yul\":12074:12205   */\n      tag_215\n        /* \"#utility.yul\":12200:12204   */\n      dup2\n        /* \"#utility.yul\":12074:12205   */\n      tag_112\n      jump\t// in\n    tag_215:\n        /* \"#utility.yul\":12066:12205   */\n      swap1\n      pop\n        /* \"#utility.yul\":11793:12212   */\n      swap2\n      swap1\n      pop\n      jump\t// out\n\n    auxdata: 0xa264697066735822122081d3bc370a336741d3026c7762b722f1d6e4c6c4ed3f526f085cb87091b4651564736f6c63430008080033\n}\n",
				"bytecode": {
					"linkReferences": {},
					"object": "608060405234801561001057600080fd5b50336000806101000a81548173ffffffffffffffffffffffffffffffffffffffff021916908373ffffffffffffffffffffffffffffffffffffffff160217905550610f2a806100606000396000f3fe608060405234801561001057600080fd5b50600436106100415760003560e01c80636e12dc0e14610046578063b7a455e614610062578063f9095eb71461007e575b600080fd5b610060600480360381019061005b91906109d0565b61009c565b005b61007c60048036038101906100779190610ae2565b610395565b005b6100866106a9565b6040516100939190610d30565b60405180910390f35b3373ffffffffffffffffffffffffffffffffffffffff1660008054906101000a900473ffffffffffffffffffffffffffffffffffffffff1673ffffffffffffffffffffffffffffffffffffffff16141561012b576040517f08c379a000000000000000000000000000000000000000000000000000000000815260040161012290610daf565b60405180910390fd5b8383600060038383604051610141929190610e0e565b9081526020016040518091039020600001805461015d90610e56565b90501061019f576040517f08c379a000000000000000000000000000000000000000000000000000000000815260040161019690610ed4565b60405180910390fd5b600060405180606001604052808a8a8080601f016020809104026020016040519081016040528093929190818152602001838380828437600081840152601f19601f82011690508083019250505050505050815260200186868080601f016020809104026020016040519081016040528093929190818152602001838380828437600081840152601f19601f82011690508083019250505050505050815260200188888080601f016020809104026020016040519081016040528093929190818152602001838380828437600081840152601f19601f820116905080830192505050505050508152509050806003888860405161029d929190610e0e565b908152602001604051809103902060008201518160000190805190602001906102c79291906108be565b5060208201518160010190805190602001906102e49291906108be565b5060408201518160020190805190602001906103019291906108be565b509050506004819080600181540180825580915050600190039060005260206000209060030201600090919091909150600082015181600001908051906020019061034d9291906108be565b50602082015181600101908051906020019061036a9291906108be565b5060408201518160020190805190602001906103879291906108be565b505050505050505050505050565b3373ffffffffffffffffffffffffffffffffffffffff1660008054906101000a900473ffffffffffffffffffffffffffffffffffffffff1673ffffffffffffffffffffffffffffffffffffffff161415610424576040517f08c379a000000000000000000000000000000000000000000000000000000000815260040161041b90610daf565b60405180910390fd5b818160006003838360405161043a929190610e0e565b9081526020016040518091039020600001805461045690610e56565b905010610498576040517f08c379a000000000000000000000000000000000000000000000000000000000815260040161048f90610ed4565b60405180910390fd5b6001879080600181540180825580915050600190039060005260206000200160009091909190916101000a81548173ffffffffffffffffffffffffffffffffffffffff021916908373ffffffffffffffffffffffffffffffffffffffff160217905550604051806080016040528087878080601f016020809104026020016040519081016040528093929190818152602001838380828437600081840152601f19601f82011690508083019250505050505050815260200185858080601f016020809104026020016040519081016040528093929190818152602001838380828437600081840152601f19601f8201169050808301925050505050505081526020018873ffffffffffffffffffffffffffffffffffffffff16815260200160011515815250600260008973ffffffffffffffffffffffffffffffffffffffff1673ffffffffffffffffffffffffffffffffffffffff16815260200190815260200160002060008201518160000190805190602001906106189291906108be565b5060208201518160010190805190602001906106359291906108be565b5060408201518160020160006101000a81548173ffffffffffffffffffffffffffffffffffffffff021916908373ffffffffffffffffffffffffffffffffffffffff16021790555060608201518160020160146101000a81548160ff02191690831515021790555090505050505050505050565b60606004805480602002602001604051908101604052809291908181526020016000905b828210156108b5578382906000526020600020906003020160405180606001604052908160008201805461070090610e56565b80601f016020809104026020016040519081016040528092919081815260200182805461072c90610e56565b80156107795780601f1061074e57610100808354040283529160200191610779565b820191906000526020600020905b81548152906001019060200180831161075c57829003601f168201915b5050505050815260200160018201805461079290610e56565b80601f01602080910402602001604051908101604052809291908181526020018280546107be90610e56565b801561080b5780601f106107e05761010080835404028352916020019161080b565b820191906000526020600020905b8154815290600101906020018083116107ee57829003601f168201915b5050505050815260200160028201805461082490610e56565b80601f016020809104026020016040519081016040528092919081815260200182805461085090610e56565b801561089d5780601f106108725761010080835404028352916020019161089d565b820191906000526020600020905b81548152906001019060200180831161088057829003601f168201915b505050505081525050815260200190600101906106cd565b50505050905090565b8280546108ca90610e56565b90600052602060002090601f0160209004810192826108ec5760008555610933565b82601f1061090557805160ff1916838001178555610933565b82800160010185558215610933579182015b82811115610932578251825591602001919060010190610917565b5b5090506109409190610944565b5090565b5b8082111561095d576000816000905550600101610945565b5090565b600080fd5b600080fd5b600080fd5b600080fd5b600080fd5b60008083601f8401126109905761098f61096b565b5b8235905067ffffffffffffffff8111156109ad576109ac610970565b5b6020830191508360018202830111156109c9576109c8610975565b5b9250929050565b600080600080600080606087890312156109ed576109ec610961565b5b600087013567ffffffffffffffff811115610a0b57610a0a610966565b5b610a1789828a0161097a565b9650965050602087013567ffffffffffffffff811115610a3a57610a39610966565b5b610a4689828a0161097a565b9450945050604087013567ffffffffffffffff811115610a6957610a68610966565b5b610a7589828a0161097a565b92509250509295509295509295565b600073ffffffffffffffffffffffffffffffffffffffff82169050919050565b6000610aaf82610a84565b9050919050565b610abf81610aa4565b8114610aca57600080fd5b50565b600081359050610adc81610ab6565b92915050565b600080600080600060608688031215610afe57610afd610961565b5b6000610b0c88828901610acd565b955050602086013567ffffffffffffffff811115610b2d57610b2c610966565b5b610b398882890161097a565b9450945050604086013567ffffffffffffffff811115610b5c57610b5b610966565b5b610b688882890161097a565b92509250509295509295909350565b600081519050919050565b600082825260208201905092915050565b6000819050602082019050919050565b600081519050919050565b600082825260208201905092915050565b60005b83811015610bdd578082015181840152602081019050610bc2565b83811115610bec576000848401525b50505050565b6000601f19601f8301169050919050565b6000610c0e82610ba3565b610c188185610bae565b9350610c28818560208601610bbf565b610c3181610bf2565b840191505092915050565b60006060830160008301518482036000860152610c598282610c03565b91505060208301518482036020860152610c738282610c03565b91505060408301518482036040860152610c8d8282610c03565b9150508091505092915050565b6000610ca68383610c3c565b905092915050565b6000602082019050919050565b6000610cc682610b77565b610cd08185610b82565b935083602082028501610ce285610b93565b8060005b85811015610d1e5784840389528151610cff8582610c9a565b9450610d0a83610cae565b925060208a01995050600181019050610ce6565b50829750879550505050505092915050565b60006020820190508181036000830152610d4a8184610cbb565b905092915050565b600082825260208201905092915050565b7f796f752063616e206e6f7420616464206f6666696369616c0000000000000000600082015250565b6000610d99601883610d52565b9150610da482610d63565b602082019050919050565b60006020820190508181036000830152610dc881610d8c565b9050919050565b600081905092915050565b82818337600083830152505050565b6000610df58385610dcf565b9350610e02838584610dda565b82840190509392505050565b6000610e1b828486610de9565b91508190509392505050565b7f4e487b7100000000000000000000000000000000000000000000000000000000600052602260045260246000fd5b60006002820490506001821680610e6e57607f821691505b60208210811415610e8257610e81610e27565b5b50919050565b7f6c6f63616c20676f7665726e6d656e7420616c72656164792065786973740000600082015250565b6000610ebe601e83610d52565b9150610ec982610e88565b602082019050919050565b60006020820190508181036000830152610eed81610eb1565b905091905056fea264697066735822122081d3bc370a336741d3026c7762b722f1d6e4c6c4ed3f526f085cb87091b4651564736f6c63430008080033",
					"opcodes": "PUSH1 0x80 PUSH1 0x40 MSTORE CALLVALUE DUP1 ISZERO PUSH2 0x10 JUMPI PUSH1 0x0 DUP1 REVERT JUMPDEST POP CALLER PUSH1 0x0 DUP1 PUSH2 0x100 EXP DUP2 SLOAD DUP2 PUSH20 0xFFFFFFFFFFFFFFFFFFFFFFFFFFFFFFFFFFFFFFFF MUL NOT AND SWAP1 DUP4 PUSH20 0xFFFFFFFFFFFFFFFFFFFFFFFFFFFFFFFFFFFFFFFF AND MUL OR SWAP1 SSTORE POP PUSH2 0xF2A DUP1 PUSH2 0x60 PUSH1 0x0 CODECOPY PUSH1 0x0 RETURN INVALID PUSH1 0x80 PUSH1 0x40 MSTORE CALLVALUE DUP1 ISZERO PUSH2 0x10 JUMPI PUSH1 0x0 DUP1 REVERT JUMPDEST POP PUSH1 0x4 CALLDATASIZE LT PUSH2 0x41 JUMPI PUSH1 0x0 CALLDATALOAD PUSH1 0xE0 SHR DUP1 PUSH4 0x6E12DC0E EQ PUSH2 0x46 JUMPI DUP1 PUSH4 0xB7A455E6 EQ PUSH2 0x62 JUMPI DUP1 PUSH4 0xF9095EB7 EQ PUSH2 0x7E JUMPI JUMPDEST PUSH1 0x0 DUP1 REVERT JUMPDEST PUSH2 0x60 PUSH1 0x4 DUP1 CALLDATASIZE SUB DUP2 ADD SWAP1 PUSH2 0x5B SWAP2 SWAP1 PUSH2 0x9D0 JUMP JUMPDEST PUSH2 0x9C JUMP JUMPDEST STOP JUMPDEST PUSH2 0x7C PUSH1 0x4 DUP1 CALLDATASIZE SUB DUP2 ADD SWAP1 PUSH2 0x77 SWAP2 SWAP1 PUSH2 0xAE2 JUMP JUMPDEST PUSH2 0x395 JUMP JUMPDEST STOP JUMPDEST PUSH2 0x86 PUSH2 0x6A9 JUMP JUMPDEST PUSH1 0x40 MLOAD PUSH2 0x93 SWAP2 SWAP1 PUSH2 0xD30 JUMP JUMPDEST PUSH1 0x40 MLOAD DUP1 SWAP2 SUB SWAP1 RETURN JUMPDEST CALLER PUSH20 0xFFFFFFFFFFFFFFFFFFFFFFFFFFFFFFFFFFFFFFFF AND PUSH1 0x0 DUP1 SLOAD SWAP1 PUSH2 0x100 EXP SWAP1 DIV PUSH20 0xFFFFFFFFFFFFFFFFFFFFFFFFFFFFFFFFFFFFFFFF AND PUSH20 0xFFFFFFFFFFFFFFFFFFFFFFFFFFFFFFFFFFFFFFFF AND EQ ISZERO PUSH2 0x12B JUMPI PUSH1 0x40 MLOAD PUSH32 0x8C379A000000000000000000000000000000000000000000000000000000000 DUP2 MSTORE PUSH1 0x4 ADD PUSH2 0x122 SWAP1 PUSH2 0xDAF JUMP JUMPDEST PUSH1 0x40 MLOAD DUP1 SWAP2 SUB SWAP1 REVERT JUMPDEST DUP4 DUP4 PUSH1 0x0 PUSH1 0x3 DUP4 DUP4 PUSH1 0x40 MLOAD PUSH2 0x141 SWAP3 SWAP2 SWAP1 PUSH2 0xE0E JUMP JUMPDEST SWAP1 DUP2 MSTORE PUSH1 0x20 ADD PUSH1 0x40 MLOAD DUP1 SWAP2 SUB SWAP1 KECCAK256 PUSH1 0x0 ADD DUP1 SLOAD PUSH2 0x15D SWAP1 PUSH2 0xE56 JUMP JUMPDEST SWAP1 POP LT PUSH2 0x19F JUMPI PUSH1 0x40 MLOAD PUSH32 0x8C379A000000000000000000000000000000000000000000000000000000000 DUP2 MSTORE PUSH1 0x4 ADD PUSH2 0x196 SWAP1 PUSH2 0xED4 JUMP JUMPDEST PUSH1 0x40 MLOAD DUP1 SWAP2 SUB SWAP1 REVERT JUMPDEST PUSH1 0x0 PUSH1 0x40 MLOAD DUP1 PUSH1 0x60 ADD PUSH1 0x40 MSTORE DUP1 DUP11 DUP11 DUP1 DUP1 PUSH1 0x1F ADD PUSH1 0x20 DUP1 SWAP2 DIV MUL PUSH1 0x20 ADD PUSH1 0x40 MLOAD SWAP1 DUP2 ADD PUSH1 0x40 MSTORE DUP1 SWAP4 SWAP3 SWAP2 SWAP1 DUP2 DUP2 MSTORE PUSH1 0x20 ADD DUP4 DUP4 DUP1 DUP3 DUP5 CALLDATACOPY PUSH1 0x0 DUP2 DUP5 ADD MSTORE PUSH1 0x1F NOT PUSH1 0x1F DUP3 ADD AND SWAP1 POP DUP1 DUP4 ADD SWAP3 POP POP POP POP POP POP POP DUP2 MSTORE PUSH1 0x20 ADD DUP7 DUP7 DUP1 DUP1 PUSH1 0x1F ADD PUSH1 0x20 DUP1 SWAP2 DIV MUL PUSH1 0x20 ADD PUSH1 0x40 MLOAD SWAP1 DUP2 ADD PUSH1 0x40 MSTORE DUP1 SWAP4 SWAP3 SWAP2 SWAP1 DUP2 DUP2 MSTORE PUSH1 0x20 ADD DUP4 DUP4 DUP1 DUP3 DUP5 CALLDATACOPY PUSH1 0x0 DUP2 DUP5 ADD MSTORE PUSH1 0x1F NOT PUSH1 0x1F DUP3 ADD AND SWAP1 POP DUP1 DUP4 ADD SWAP3 POP POP POP POP POP POP POP DUP2 MSTORE PUSH1 0x20 ADD DUP9 DUP9 DUP1 DUP1 PUSH1 0x1F ADD PUSH1 0x20 DUP1 SWAP2 DIV MUL PUSH1 0x20 ADD PUSH1 0x40 MLOAD SWAP1 DUP2 ADD PUSH1 0x40 MSTORE DUP1 SWAP4 SWAP3 SWAP2 SWAP1 DUP2 DUP2 MSTORE PUSH1 0x20 ADD DUP4 DUP4 DUP1 DUP3 DUP5 CALLDATACOPY PUSH1 0x0 DUP2 DUP5 ADD MSTORE PUSH1 0x1F NOT PUSH1 0x1F DUP3 ADD AND SWAP1 POP DUP1 DUP4 ADD SWAP3 POP POP POP POP POP POP POP DUP2 MSTORE POP SWAP1 POP DUP1 PUSH1 0x3 DUP9 DUP9 PUSH1 0x40 MLOAD PUSH2 0x29D SWAP3 SWAP2 SWAP1 PUSH2 0xE0E JUMP JUMPDEST SWAP1 DUP2 MSTORE PUSH1 0x20 ADD PUSH1 0x40 MLOAD DUP1 SWAP2 SUB SWAP1 KECCAK256 PUSH1 0x0 DUP3 ADD MLOAD DUP2 PUSH1 0x0 ADD SWAP1 DUP1 MLOAD SWAP1 PUSH1 0x20 ADD SWAP1 PUSH2 0x2C7 SWAP3 SWAP2 SWAP1 PUSH2 0x8BE JUMP JUMPDEST POP PUSH1 0x20 DUP3 ADD MLOAD DUP2 PUSH1 0x1 ADD SWAP1 DUP1 MLOAD SWAP1 PUSH1 0x20 ADD SWAP1 PUSH2 0x2E4 SWAP3 SWAP2 SWAP1 PUSH2 0x8BE JUMP JUMPDEST POP PUSH1 0x40 DUP3 ADD MLOAD DUP2 PUSH1 0x2 ADD SWAP1 DUP1 MLOAD SWAP1 PUSH1 0x20 ADD SWAP1 PUSH2 0x301 SWAP3 SWAP2 SWAP1 PUSH2 0x8BE JUMP JUMPDEST POP SWAP1 POP POP PUSH1 0x4 DUP2 SWAP1 DUP1 PUSH1 0x1 DUP2 SLOAD ADD DUP1 DUP3 SSTORE DUP1 SWAP2 POP POP PUSH1 0x1 SWAP1 SUB SWAP1 PUSH1 0x0 MSTORE PUSH1 0x20 PUSH1 0x0 KECCAK256 SWAP1 PUSH1 0x3 MUL ADD PUSH1 0x0 SWAP1 SWAP2 SWAP1 SWAP2 SWAP1 SWAP2 POP PUSH1 0x0 DUP3 ADD MLOAD DUP2 PUSH1 0x0 ADD SWAP1 DUP1 MLOAD SWAP1 PUSH1 0x20 ADD SWAP1 PUSH2 0x34D SWAP3 SWAP2 SWAP1 PUSH2 0x8BE JUMP JUMPDEST POP PUSH1 0x20 DUP3 ADD MLOAD DUP2 PUSH1 0x1 ADD SWAP1 DUP1 MLOAD SWAP1 PUSH1 0x20 ADD SWAP1 PUSH2 0x36A SWAP3 SWAP2 SWAP1 PUSH2 0x8BE JUMP JUMPDEST POP PUSH1 0x40 DUP3 ADD MLOAD DUP2 PUSH1 0x2 ADD SWAP1 DUP1 MLOAD SWAP1 PUSH1 0x20 ADD SWAP1 PUSH2 0x387 SWAP3 SWAP2 SWAP1 PUSH2 0x8BE JUMP JUMPDEST POP POP POP POP POP POP POP POP POP POP POP POP JUMP JUMPDEST CALLER PUSH20 0xFFFFFFFFFFFFFFFFFFFFFFFFFFFFFFFFFFFFFFFF AND PUSH1 0x0 DUP1 SLOAD SWAP1 PUSH2 0x100 EXP SWAP1 DIV PUSH20 0xFFFFFFFFFFFFFFFFFFFFFFFFFFFFFFFFFFFFFFFF AND PUSH20 0xFFFFFFFFFFFFFFFFFFFFFFFFFFFFFFFFFFFFFFFF AND EQ ISZERO PUSH2 0x424 JUMPI PUSH1 0x40 MLOAD PUSH32 0x8C379A000000000000000000000000000000000000000000000000000000000 DUP2 MSTORE PUSH1 0x4 ADD PUSH2 0x41B SWAP1 PUSH2 0xDAF JUMP JUMPDEST PUSH1 0x40 MLOAD DUP1 SWAP2 SUB SWAP1 REVERT JUMPDEST DUP2 DUP2 PUSH1 0x0 PUSH1 0x3 DUP4 DUP4 PUSH1 0x40 MLOAD PUSH2 0x43A SWAP3 SWAP2 SWAP1 PUSH2 0xE0E JUMP JUMPDEST SWAP1 DUP2 MSTORE PUSH1 0x20 ADD PUSH1 0x40 MLOAD DUP1 SWAP2 SUB SWAP1 KECCAK256 PUSH1 0x0 ADD DUP1 SLOAD PUSH2 0x456 SWAP1 PUSH2 0xE56 JUMP JUMPDEST SWAP1 POP LT PUSH2 0x498 JUMPI PUSH1 0x40 MLOAD PUSH32 0x8C379A000000000000000000000000000000000000000000000000000000000 DUP2 MSTORE PUSH1 0x4 ADD PUSH2 0x48F SWAP1 PUSH2 0xED4 JUMP JUMPDEST PUSH1 0x40 MLOAD DUP1 SWAP2 SUB SWAP1 REVERT JUMPDEST PUSH1 0x1 DUP8 SWAP1 DUP1 PUSH1 0x1 DUP2 SLOAD ADD DUP1 DUP3 SSTORE DUP1 SWAP2 POP POP PUSH1 0x1 SWAP1 SUB SWAP1 PUSH1 0x0 MSTORE PUSH1 0x20 PUSH1 0x0 KECCAK256 ADD PUSH1 0x0 SWAP1 SWAP2 SWAP1 SWAP2 SWAP1 SWAP2 PUSH2 0x100 EXP DUP2 SLOAD DUP2 PUSH20 0xFFFFFFFFFFFFFFFFFFFFFFFFFFFFFFFFFFFFFFFF MUL NOT AND SWAP1 DUP4 PUSH20 0xFFFFFFFFFFFFFFFFFFFFFFFFFFFFFFFFFFFFFFFF AND MUL OR SWAP1 SSTORE POP PUSH1 0x40 MLOAD DUP1 PUSH1 0x80 ADD PUSH1 0x40 MSTORE DUP1 DUP8 DUP8 DUP1 DUP1 PUSH1 0x1F ADD PUSH1 0x20 DUP1 SWAP2 DIV MUL PUSH1 0x20 ADD PUSH1 0x40 MLOAD SWAP1 DUP2 ADD PUSH1 0x40 MSTORE DUP1 SWAP4 SWAP3 SWAP2 SWAP1 DUP2 DUP2 MSTORE PUSH1 0x20 ADD DUP4 DUP4 DUP1 DUP3 DUP5 CALLDATACOPY PUSH1 0x0 DUP2 DUP5 ADD MSTORE PUSH1 0x1F NOT PUSH1 0x1F DUP3 ADD AND SWAP1 POP DUP1 DUP4 ADD SWAP3 POP POP POP POP POP POP POP DUP2 MSTORE PUSH1 0x20 ADD DUP6 DUP6 DUP1 DUP1 PUSH1 0x1F ADD PUSH1 0x20 DUP1 SWAP2 DIV MUL PUSH1 0x20 ADD PUSH1 0x40 MLOAD SWAP1 DUP2 ADD PUSH1 0x40 MSTORE DUP1 SWAP4 SWAP3 SWAP2 SWAP1 DUP2 DUP2 MSTORE PUSH1 0x20 ADD DUP4 DUP4 DUP1 DUP3 DUP5 CALLDATACOPY PUSH1 0x0 DUP2 DUP5 ADD MSTORE PUSH1 0x1F NOT PUSH1 0x1F DUP3 ADD AND SWAP1 POP DUP1 DUP4 ADD SWAP3 POP POP POP POP POP POP POP DUP2 MSTORE PUSH1 0x20 ADD DUP9 PUSH20 0xFFFFFFFFFFFFFFFFFFFFFFFFFFFFFFFFFFFFFFFF AND DUP2 MSTORE PUSH1 0x20 ADD PUSH1 0x1 ISZERO ISZERO DUP2 MSTORE POP PUSH1 0x2 PUSH1 0x0 DUP10 PUSH20 0xFFFFFFFFFFFFFFFFFFFFFFFFFFFFFFFFFFFFFFFF AND PUSH20 0xFFFFFFFFFFFFFFFFFFFFFFFFFFFFFFFFFFFFFFFF AND DUP2 MSTORE PUSH1 0x20 ADD SWAP1 DUP2 MSTORE PUSH1 0x20 ADD PUSH1 0x0 KECCAK256 PUSH1 0x0 DUP3 ADD MLOAD DUP2 PUSH1 0x0 ADD SWAP1 DUP1 MLOAD SWAP1 PUSH1 0x20 ADD SWAP1 PUSH2 0x618 SWAP3 SWAP2 SWAP1 PUSH2 0x8BE JUMP JUMPDEST POP PUSH1 0x20 DUP3 ADD MLOAD DUP2 PUSH1 0x1 ADD SWAP1 DUP1 MLOAD SWAP1 PUSH1 0x20 ADD SWAP1 PUSH2 0x635 SWAP3 SWAP2 SWAP1 PUSH2 0x8BE JUMP JUMPDEST POP PUSH1 0x40 DUP3 ADD MLOAD DUP2 PUSH1 0x2 ADD PUSH1 0x0 PUSH2 0x100 EXP DUP2 SLOAD DUP2 PUSH20 0xFFFFFFFFFFFFFFFFFFFFFFFFFFFFFFFFFFFFFFFF MUL NOT AND SWAP1 DUP4 PUSH20 0xFFFFFFFFFFFFFFFFFFFFFFFFFFFFFFFFFFFFFFFF AND MUL OR SWAP1 SSTORE POP PUSH1 0x60 DUP3 ADD MLOAD DUP2 PUSH1 0x2 ADD PUSH1 0x14 PUSH2 0x100 EXP DUP2 SLOAD DUP2 PUSH1 0xFF MUL NOT AND SWAP1 DUP4 ISZERO ISZERO MUL OR SWAP1 SSTORE POP SWAP1 POP POP POP POP POP POP POP POP POP JUMP JUMPDEST PUSH1 0x60 PUSH1 0x4 DUP1 SLOAD DUP1 PUSH1 0x20 MUL PUSH1 0x20 ADD PUSH1 0x40 MLOAD SWAP1 DUP2 ADD PUSH1 0x40 MSTORE DUP1 SWAP3 SWAP2 SWAP1 DUP2 DUP2 MSTORE PUSH1 0x20 ADD PUSH1 0x0 SWAP1 JUMPDEST DUP3 DUP3 LT ISZERO PUSH2 0x8B5 JUMPI DUP4 DUP3 SWAP1 PUSH1 0x0 MSTORE PUSH1 0x20 PUSH1 0x0 KECCAK256 SWAP1 PUSH1 0x3 MUL ADD PUSH1 0x40 MLOAD DUP1 PUSH1 0x60 ADD PUSH1 0x40 MSTORE SWAP1 DUP2 PUSH1 0x0 DUP3 ADD DUP1 SLOAD PUSH2 0x700 SWAP1 PUSH2 0xE56 JUMP JUMPDEST DUP1 PUSH1 0x1F ADD PUSH1 0x20 DUP1 SWAP2 DIV MUL PUSH1 0x20 ADD PUSH1 0x40 MLOAD SWAP1 DUP2 ADD PUSH1 0x40 MSTORE DUP1 SWAP3 SWAP2 SWAP1 DUP2 DUP2 MSTORE PUSH1 0x20 ADD DUP3 DUP1 SLOAD PUSH2 0x72C SWAP1 PUSH2 0xE56 JUMP JUMPDEST DUP1 ISZERO PUSH2 0x779 JUMPI DUP1 PUSH1 0x1F LT PUSH2 0x74E JUMPI PUSH2 0x100 DUP1 DUP4 SLOAD DIV MUL DUP4 MSTORE SWAP2 PUSH1 0x20 ADD SWAP2 PUSH2 0x779 JUMP JUMPDEST DUP3 ADD SWAP2 SWAP1 PUSH1 0x0 MSTORE PUSH1 0x20 PUSH1 0x0 KECCAK256 SWAP1 JUMPDEST DUP2 SLOAD DUP2 MSTORE SWAP1 PUSH1 0x1 ADD SWAP1 PUSH1 0x20 ADD DUP1 DUP4 GT PUSH2 0x75C JUMPI DUP3 SWAP1 SUB PUSH1 0x1F AND DUP3 ADD SWAP2 JUMPDEST POP POP POP POP POP DUP2 MSTORE PUSH1 0x20 ADD PUSH1 0x1 DUP3 ADD DUP1 SLOAD PUSH2 0x792 SWAP1 PUSH2 0xE56 JUMP JUMPDEST DUP1 PUSH1 0x1F ADD PUSH1 0x20 DUP1 SWAP2 DIV MUL PUSH1 0x20 ADD PUSH1 0x40 MLOAD SWAP1 DUP2 ADD PUSH1 0x40 MSTORE DUP1 SWAP3 SWAP2 SWAP1 DUP2 DUP2 MSTORE PUSH1 0x20 ADD DUP3 DUP1 SLOAD PUSH2 0x7BE SWAP1 PUSH2 0xE56 JUMP JUMPDEST DUP1 ISZERO PUSH2 0x80B JUMPI DUP1 PUSH1 0x1F LT PUSH2 0x7E0 JUMPI PUSH2 0x100 DUP1 DUP4 SLOAD DIV MUL DUP4 MSTORE SWAP2 PUSH1 0x20 ADD SWAP2 PUSH2 0x80B JUMP JUMPDEST DUP3 ADD SWAP2 SWAP1 PUSH1 0x0 MSTORE PUSH1 0x20 PUSH1 0x0 KECCAK256 SWAP1 JUMPDEST DUP2 SLOAD DUP2 MSTORE SWAP1 PUSH1 0x1 ADD SWAP1 PUSH1 0x20 ADD DUP1 DUP4 GT PUSH2 0x7EE JUMPI DUP3 SWAP1 SUB PUSH1 0x1F AND DUP3 ADD SWAP2 JUMPDEST POP POP POP POP POP DUP2 MSTORE PUSH1 0x20 ADD PUSH1 0x2 DUP3 ADD DUP1 SLOAD PUSH2 0x824 SWAP1 PUSH2 0xE56 JUMP JUMPDEST DUP1 PUSH1 0x1F ADD PUSH1 0x20 DUP1 SWAP2 DIV MUL PUSH1 0x20 ADD PUSH1 0x40 MLOAD SWAP1 DUP2 ADD PUSH1 0x40 MSTORE DUP1 SWAP3 SWAP2 SWAP1 DUP2 DUP2 MSTORE PUSH1 0x20 ADD DUP3 DUP1 SLOAD PUSH2 0x850 SWAP1 PUSH2 0xE56 JUMP JUMPDEST DUP1 ISZERO PUSH2 0x89D JUMPI DUP1 PUSH1 0x1F LT PUSH2 0x872 JUMPI PUSH2 0x100 DUP1 DUP4 SLOAD DIV MUL DUP4 MSTORE SWAP2 PUSH1 0x20 ADD SWAP2 PUSH2 0x89D JUMP JUMPDEST DUP3 ADD SWAP2 SWAP1 PUSH1 0x0 MSTORE PUSH1 0x20 PUSH1 0x0 KECCAK256 SWAP1 JUMPDEST DUP2 SLOAD DUP2 MSTORE SWAP1 PUSH1 0x1 ADD SWAP1 PUSH1 0x20 ADD DUP1 DUP4 GT PUSH2 0x880 JUMPI DUP3 SWAP1 SUB PUSH1 0x1F AND DUP3 ADD SWAP2 JUMPDEST POP POP POP POP POP DUP2 MSTORE POP POP DUP2 MSTORE PUSH1 0x20 ADD SWAP1 PUSH1 0x1 ADD SWAP1 PUSH2 0x6CD JUMP JUMPDEST POP POP POP POP SWAP1 POP SWAP1 JUMP JUMPDEST DUP3 DUP1 SLOAD PUSH2 0x8CA SWAP1 PUSH2 0xE56 JUMP JUMPDEST SWAP1 PUSH1 0x0 MSTORE PUSH1 0x20 PUSH1 0x0 KECCAK256 SWAP1 PUSH1 0x1F ADD PUSH1 0x20 SWAP1 DIV DUP2 ADD SWAP3 DUP3 PUSH2 0x8EC JUMPI PUSH1 0x0 DUP6 SSTORE PUSH2 0x933 JUMP JUMPDEST DUP3 PUSH1 0x1F LT PUSH2 0x905 JUMPI DUP1 MLOAD PUSH1 0xFF NOT AND DUP4 DUP1 ADD OR DUP6 SSTORE PUSH2 0x933 JUMP JUMPDEST DUP3 DUP1 ADD PUSH1 0x1 ADD DUP6 SSTORE DUP3 ISZERO PUSH2 0x933 JUMPI SWAP2 DUP3 ADD JUMPDEST DUP3 DUP2 GT ISZERO PUSH2 0x932 JUMPI DUP3 MLOAD DUP3 SSTORE SWAP2 PUSH1 0x20 ADD SWAP2 SWAP1 PUSH1 0x1 ADD SWAP1 PUSH2 0x917 JUMP JUMPDEST JUMPDEST POP SWAP1 POP PUSH2 0x940 SWAP2 SWAP1 PUSH2 0x944 JUMP JUMPDEST POP SWAP1 JUMP JUMPDEST JUMPDEST DUP1 DUP3 GT ISZERO PUSH2 0x95D JUMPI PUSH1 0x0 DUP2 PUSH1 0x0 SWAP1 SSTORE POP PUSH1 0x1 ADD PUSH2 0x945 JUMP JUMPDEST POP SWAP1 JUMP JUMPDEST PUSH1 0x0 DUP1 REVERT JUMPDEST PUSH1 0x0 DUP1 REVERT JUMPDEST PUSH1 0x0 DUP1 REVERT JUMPDEST PUSH1 0x0 DUP1 REVERT JUMPDEST PUSH1 0x0 DUP1 REVERT JUMPDEST PUSH1 0x0 DUP1 DUP4 PUSH1 0x1F DUP5 ADD SLT PUSH2 0x990 JUMPI PUSH2 0x98F PUSH2 0x96B JUMP JUMPDEST JUMPDEST DUP3 CALLDATALOAD SWAP1 POP PUSH8 0xFFFFFFFFFFFFFFFF DUP2 GT ISZERO PUSH2 0x9AD JUMPI PUSH2 0x9AC PUSH2 0x970 JUMP JUMPDEST JUMPDEST PUSH1 0x20 DUP4 ADD SWAP2 POP DUP4 PUSH1 0x1 DUP3 MUL DUP4 ADD GT ISZERO PUSH2 0x9C9 JUMPI PUSH2 0x9C8 PUSH2 0x975 JUMP JUMPDEST JUMPDEST SWAP3 POP SWAP3 SWAP1 POP JUMP JUMPDEST PUSH1 0x0 DUP1 PUSH1 0x0 DUP1 PUSH1 0x0 DUP1 PUSH1 0x60 DUP8 DUP10 SUB SLT ISZERO PUSH2 0x9ED JUMPI PUSH2 0x9EC PUSH2 0x961 JUMP JUMPDEST JUMPDEST PUSH1 0x0 DUP8 ADD CALLDATALOAD PUSH8 0xFFFFFFFFFFFFFFFF DUP2 GT ISZERO PUSH2 0xA0B JUMPI PUSH2 0xA0A PUSH2 0x966 JUMP JUMPDEST JUMPDEST PUSH2 0xA17 DUP10 DUP3 DUP11 ADD PUSH2 0x97A JUMP JUMPDEST SWAP7 POP SWAP7 POP POP PUSH1 0x20 DUP8 ADD CALLDATALOAD PUSH8 0xFFFFFFFFFFFFFFFF DUP2 GT ISZERO PUSH2 0xA3A JUMPI PUSH2 0xA39 PUSH2 0x966 JUMP JUMPDEST JUMPDEST PUSH2 0xA46 DUP10 DUP3 DUP11 ADD PUSH2 0x97A JUMP JUMPDEST SWAP5 POP SWAP5 POP POP PUSH1 0x40 DUP8 ADD CALLDATALOAD PUSH8 0xFFFFFFFFFFFFFFFF DUP2 GT ISZERO PUSH2 0xA69 JUMPI PUSH2 0xA68 PUSH2 0x966 JUMP JUMPDEST JUMPDEST PUSH2 0xA75 DUP10 DUP3 DUP11 ADD PUSH2 0x97A JUMP JUMPDEST SWAP3 POP SWAP3 POP POP SWAP3 SWAP6 POP SWAP3 SWAP6 POP SWAP3 SWAP6 JUMP JUMPDEST PUSH1 0x0 PUSH20 0xFFFFFFFFFFFFFFFFFFFFFFFFFFFFFFFFFFFFFFFF DUP3 AND SWAP1 POP SWAP2 SWAP1 POP JUMP JUMPDEST PUSH1 0x0 PUSH2 0xAAF DUP3 PUSH2 0xA84 JUMP JUMPDEST SWAP1 POP SWAP2 SWAP1 POP JUMP JUMPDEST PUSH2 0xABF DUP2 PUSH2 0xAA4 JUMP JUMPDEST DUP2 EQ PUSH2 0xACA JUMPI PUSH1 0x0 DUP1 REVERT JUMPDEST POP JUMP JUMPDEST PUSH1 0x0 DUP2 CALLDATALOAD SWAP1 POP PUSH2 0xADC DUP2 PUSH2 0xAB6 JUMP JUMPDEST SWAP3 SWAP2 POP POP JUMP JUMPDEST PUSH1 0x0 DUP1 PUSH1 0x0 DUP1 PUSH1 0x0 PUSH1 0x60 DUP7 DUP9 SUB SLT ISZERO PUSH2 0xAFE JUMPI PUSH2 0xAFD PUSH2 0x961 JUMP JUMPDEST JUMPDEST PUSH1 0x0 PUSH2 0xB0C DUP9 DUP3 DUP10 ADD PUSH2 0xACD JUMP JUMPDEST SWAP6 POP POP PUSH1 0x20 DUP7 ADD CALLDATALOAD PUSH8 0xFFFFFFFFFFFFFFFF DUP2 GT ISZERO PUSH2 0xB2D JUMPI PUSH2 0xB2C PUSH2 0x966 JUMP JUMPDEST JUMPDEST PUSH2 0xB39 DUP9 DUP3 DUP10 ADD PUSH2 0x97A JUMP JUMPDEST SWAP5 POP SWAP5 POP POP PUSH1 0x40 DUP7 ADD CALLDATALOAD PUSH8 0xFFFFFFFFFFFFFFFF DUP2 GT ISZERO PUSH2 0xB5C JUMPI PUSH2 0xB5B PUSH2 0x966 JUMP JUMPDEST JUMPDEST PUSH2 0xB68 DUP9 DUP3 DUP10 ADD PUSH2 0x97A JUMP JUMPDEST SWAP3 POP SWAP3 POP POP SWAP3 SWAP6 POP SWAP3 SWAP6 SWAP1 SWAP4 POP JUMP JUMPDEST PUSH1 0x0 DUP2 MLOAD SWAP1 POP SWAP2 SWAP1 POP JUMP JUMPDEST PUSH1 0x0 DUP3 DUP3 MSTORE PUSH1 0x20 DUP3 ADD SWAP1 POP SWAP3 SWAP2 POP POP JUMP JUMPDEST PUSH1 0x0 DUP2 SWAP1 POP PUSH1 0x20 DUP3 ADD SWAP1 POP SWAP2 SWAP1 POP JUMP JUMPDEST PUSH1 0x0 DUP2 MLOAD SWAP1 POP SWAP2 SWAP1 POP JUMP JUMPDEST PUSH1 0x0 DUP3 DUP3 MSTORE PUSH1 0x20 DUP3 ADD SWAP1 POP SWAP3 SWAP2 POP POP JUMP JUMPDEST PUSH1 0x0 JUMPDEST DUP4 DUP2 LT ISZERO PUSH2 0xBDD JUMPI DUP1 DUP3 ADD MLOAD DUP2 DUP5 ADD MSTORE PUSH1 0x20 DUP2 ADD SWAP1 POP PUSH2 0xBC2 JUMP JUMPDEST DUP4 DUP2 GT ISZERO PUSH2 0xBEC JUMPI PUSH1 0x0 DUP5 DUP5 ADD MSTORE JUMPDEST POP POP POP POP JUMP JUMPDEST PUSH1 0x0 PUSH1 0x1F NOT PUSH1 0x1F DUP4 ADD AND SWAP1 POP SWAP2 SWAP1 POP JUMP JUMPDEST PUSH1 0x0 PUSH2 0xC0E DUP3 PUSH2 0xBA3 JUMP JUMPDEST PUSH2 0xC18 DUP2 DUP6 PUSH2 0xBAE JUMP JUMPDEST SWAP4 POP PUSH2 0xC28 DUP2 DUP6 PUSH1 0x20 DUP7 ADD PUSH2 0xBBF JUMP JUMPDEST PUSH2 0xC31 DUP2 PUSH2 0xBF2 JUMP JUMPDEST DUP5 ADD SWAP2 POP POP SWAP3 SWAP2 POP POP JUMP JUMPDEST PUSH1 0x0 PUSH1 0x60 DUP4 ADD PUSH1 0x0 DUP4 ADD MLOAD DUP5 DUP3 SUB PUSH1 0x0 DUP7 ADD MSTORE PUSH2 0xC59 DUP3 DUP3 PUSH2 0xC03 JUMP JUMPDEST SWAP2 POP POP PUSH1 0x20 DUP4 ADD MLOAD DUP5 DUP3 SUB PUSH1 0x20 DUP7 ADD MSTORE PUSH2 0xC73 DUP3 DUP3 PUSH2 0xC03 JUMP JUMPDEST SWAP2 POP POP PUSH1 0x40 DUP4 ADD MLOAD DUP5 DUP3 SUB PUSH1 0x40 DUP7 ADD MSTORE PUSH2 0xC8D DUP3 DUP3 PUSH2 0xC03 JUMP JUMPDEST SWAP2 POP POP DUP1 SWAP2 POP POP SWAP3 SWAP2 POP POP JUMP JUMPDEST PUSH1 0x0 PUSH2 0xCA6 DUP4 DUP4 PUSH2 0xC3C JUMP JUMPDEST SWAP1 POP SWAP3 SWAP2 POP POP JUMP JUMPDEST PUSH1 0x0 PUSH1 0x20 DUP3 ADD SWAP1 POP SWAP2 SWAP1 POP JUMP JUMPDEST PUSH1 0x0 PUSH2 0xCC6 DUP3 PUSH2 0xB77 JUMP JUMPDEST PUSH2 0xCD0 DUP2 DUP6 PUSH2 0xB82 JUMP JUMPDEST SWAP4 POP DUP4 PUSH1 0x20 DUP3 MUL DUP6 ADD PUSH2 0xCE2 DUP6 PUSH2 0xB93 JUMP JUMPDEST DUP1 PUSH1 0x0 JUMPDEST DUP6 DUP2 LT ISZERO PUSH2 0xD1E JUMPI DUP5 DUP5 SUB DUP10 MSTORE DUP2 MLOAD PUSH2 0xCFF DUP6 DUP3 PUSH2 0xC9A JUMP JUMPDEST SWAP5 POP PUSH2 0xD0A DUP4 PUSH2 0xCAE JUMP JUMPDEST SWAP3 POP PUSH1 0x20 DUP11 ADD SWAP10 POP POP PUSH1 0x1 DUP2 ADD SWAP1 POP PUSH2 0xCE6 JUMP JUMPDEST POP DUP3 SWAP8 POP DUP8 SWAP6 POP POP POP POP POP POP SWAP3 SWAP2 POP POP JUMP JUMPDEST PUSH1 0x0 PUSH1 0x20 DUP3 ADD SWAP1 POP DUP2 DUP2 SUB PUSH1 0x0 DUP4 ADD MSTORE PUSH2 0xD4A DUP2 DUP5 PUSH2 0xCBB JUMP JUMPDEST SWAP1 POP SWAP3 SWAP2 POP POP JUMP JUMPDEST PUSH1 0x0 DUP3 DUP3 MSTORE PUSH1 0x20 DUP3 ADD SWAP1 POP SWAP3 SWAP2 POP POP JUMP JUMPDEST PUSH32 0x796F752063616E206E6F7420616464206F6666696369616C0000000000000000 PUSH1 0x0 DUP3 ADD MSTORE POP JUMP JUMPDEST PUSH1 0x0 PUSH2 0xD99 PUSH1 0x18 DUP4 PUSH2 0xD52 JUMP JUMPDEST SWAP2 POP PUSH2 0xDA4 DUP3 PUSH2 0xD63 JUMP JUMPDEST PUSH1 0x20 DUP3 ADD SWAP1 POP SWAP2 SWAP1 POP JUMP JUMPDEST PUSH1 0x0 PUSH1 0x20 DUP3 ADD SWAP1 POP DUP2 DUP2 SUB PUSH1 0x0 DUP4 ADD MSTORE PUSH2 0xDC8 DUP2 PUSH2 0xD8C JUMP JUMPDEST SWAP1 POP SWAP2 SWAP1 POP JUMP JUMPDEST PUSH1 0x0 DUP2 SWAP1 POP SWAP3 SWAP2 POP POP JUMP JUMPDEST DUP3 DUP2 DUP4 CALLDATACOPY PUSH1 0x0 DUP4 DUP4 ADD MSTORE POP POP POP JUMP JUMPDEST PUSH1 0x0 PUSH2 0xDF5 DUP4 DUP6 PUSH2 0xDCF JUMP JUMPDEST SWAP4 POP PUSH2 0xE02 DUP4 DUP6 DUP5 PUSH2 0xDDA JUMP JUMPDEST DUP3 DUP5 ADD SWAP1 POP SWAP4 SWAP3 POP POP POP JUMP JUMPDEST PUSH1 0x0 PUSH2 0xE1B DUP3 DUP5 DUP7 PUSH2 0xDE9 JUMP JUMPDEST SWAP2 POP DUP2 SWAP1 POP SWAP4 SWAP3 POP POP POP JUMP JUMPDEST PUSH32 0x4E487B7100000000000000000000000000000000000000000000000000000000 PUSH1 0x0 MSTORE PUSH1 0x22 PUSH1 0x4 MSTORE PUSH1 0x24 PUSH1 0x0 REVERT JUMPDEST PUSH1 0x0 PUSH1 0x2 DUP3 DIV SWAP1 POP PUSH1 0x1 DUP3 AND DUP1 PUSH2 0xE6E JUMPI PUSH1 0x7F DUP3 AND SWAP2 POP JUMPDEST PUSH1 0x20 DUP3 LT DUP2 EQ ISZERO PUSH2 0xE82 JUMPI PUSH2 0xE81 PUSH2 0xE27 JUMP JUMPDEST JUMPDEST POP SWAP2 SWAP1 POP JUMP JUMPDEST PUSH32 0x6C6F63616C20676F7665726E6D656E7420616C72656164792065786973740000 PUSH1 0x0 DUP3 ADD MSTORE POP JUMP JUMPDEST PUSH1 0x0 PUSH2 0xEBE PUSH1 0x1E DUP4 PUSH2 0xD52 JUMP JUMPDEST SWAP2 POP PUSH2 0xEC9 DUP3 PUSH2 0xE88 JUMP JUMPDEST PUSH1 0x20 DUP3 ADD SWAP1 POP SWAP2 SWAP1 POP JUMP JUMPDEST PUSH1 0x0 PUSH1 0x20 DUP3 ADD SWAP1 POP DUP2 DUP2 SUB PUSH1 0x0 DUP4 ADD MSTORE PUSH2 0xEED DUP2 PUSH2 0xEB1 JUMP JUMPDEST SWAP1 POP SWAP2 SWAP1 POP JUMP INVALID LOG2 PUSH5 0x6970667358 0x22 SLT KECCAK256 DUP2 0xD3 0xBC CALLDATACOPY EXP CALLER PUSH8 0x41D3026C7762B722 CALL 0xD6 0xE4 0xC6 0xC4 0xED EXTCODEHASH MSTORE PUSH16 0x85CB87091B4651564736F6C63430008 ADDMOD STOP CALLER "
				},
				"gasEstimates": {
					"creation": {
						"codeDepositCost": "776400",
						"executionCost": "25078",
						"totalCost": "801478"
					},
					"external": {
						"accredictedNewOfficial(address,string,string)": "infinite",
						"addZone(string,string,string)": "infinite",
						"getZone()": "infinite"
					}
				},
				"methodIdentifiers": {
					"accredictedNewOfficial(address,string,string)": "b7a455e6",
					"addZone(string,string,string)": "6e12dc0e",
					"getZone()": "f9095eb7"
				}
			},
			"storageLayout": {
				"storage": [
					{
						"astId": 4,
						"contract": "contracts/EVote.sol:EVote",
						"label": "ownerAddr",
						"offset": 0,
						"slot": "0",
						"type": "t_address"
					},
					{
						"astId": 7,
						"contract": "contracts/EVote.sol:EVote",
						"label": "accredictedOfficialAddr",
						"offset": 0,
						"slot": "1",
						"type": "t_array(t_address)dyn_storage"
					},
					{
						"astId": 12,
						"contract": "contracts/EVote.sol:EVote",
						"label": "accredictedOfficialDetails",
						"offset": 0,
						"slot": "2",
						"type": "t_mapping(t_address,t_struct(Official)152_storage)"
					},
					{
						"astId": 17,
						"contract": "contracts/EVote.sol:EVote",
						"label": "accredictedZone",
						"offset": 0,
						"slot": "3",
						"type": "t_mapping(t_string_memory_ptr,t_struct(VoteZone)159_storage)"
					},
					{
						"astId": 21,
						"contract": "contracts/EVote.sol:EVote",
						"label": "zones",
						"offset": 0,
						"slot": "4",
						"type": "t_array(t_struct(VoteZone)159_storage)dyn_storage"
					}
				],
				"types": {
					"t_address": {
						"encoding": "inplace",
						"label": "address",
						"numberOfBytes": "20"
					},
					"t_array(t_address)dyn_storage": {
						"base": "t_address",
						"encoding": "dynamic_array",
						"label": "address[]",
						"numberOfBytes": "32"
					},
					"t_array(t_struct(VoteZone)159_storage)dyn_storage": {
						"base": "t_struct(VoteZone)159_storage",
						"encoding": "dynamic_array",
						"label": "struct VoteZone[]",
						"numberOfBytes": "32"
					},
					"t_bool": {
						"encoding": "inplace",
						"label": "bool",
						"numberOfBytes": "1"
					},
					"t_mapping(t_address,t_struct(Official)152_storage)": {
						"encoding": "mapping",
						"key": "t_address",
						"label": "mapping(address => struct Official)",
						"numberOfBytes": "32",
						"value": "t_struct(Official)152_storage"
					},
					"t_mapping(t_string_memory_ptr,t_struct(VoteZone)159_storage)": {
						"encoding": "mapping",
						"key": "t_string_memory_ptr",
						"label": "mapping(string => struct VoteZone)",
						"numberOfBytes": "32",
						"value": "t_struct(VoteZone)159_storage"
					},
					"t_string_memory_ptr": {
						"encoding": "bytes",
						"label": "string",
						"numberOfBytes": "32"
					},
					"t_string_storage": {
						"encoding": "bytes",
						"label": "string",
						"numberOfBytes": "32"
					},
					"t_struct(Official)152_storage": {
						"encoding": "inplace",
						"label": "struct Official",
						"members": [
							{
								"astId": 145,
								"contract": "contracts/EVote.sol:EVote",
								"label": "name",
								"offset": 0,
								"slot": "0",
								"type": "t_string_storage"
							},
							{
								"astId": 147,
								"contract": "contracts/EVote.sol:EVote",
								"label": "zoneCode",
								"offset": 0,
								"slot": "1",
								"type": "t_string_storage"
							},
							{
								"astId": 149,
								"contract": "contracts/EVote.sol:EVote",
								"label": "officialAddr",
								"offset": 0,
								"slot": "2",
								"type": "t_address"
							},
							{
								"astId": 151,
								"contract": "contracts/EVote.sol:EVote",
								"label": "isActive",
								"offset": 20,
								"slot": "2",
								"type": "t_bool"
							}
						],
						"numberOfBytes": "96"
					},
					"t_struct(VoteZone)159_storage": {
						"encoding": "inplace",
						"label": "struct VoteZone",
						"members": [
							{
								"astId": 154,
								"contract": "contracts/EVote.sol:EVote",
								"label": "lga",
								"offset": 0,
								"slot": "0",
								"type": "t_string_storage"
							},
							{
								"astId": 156,
								"contract": "contracts/EVote.sol:EVote",
								"label": "state",
								"offset": 0,
								"slot": "1",
								"type": "t_string_storage"
							},
							{
								"astId": 158,
								"contract": "contracts/EVote.sol:EVote",
								"label": "zoneCode",
								"offset": 0,
								"slot": "2",
								"type": "t_string_storage"
							}
						],
						"numberOfBytes": "96"
					}
				}
			},
			"userdoc": {
				"kind": "user",
				"methods": {},
				"version": 1
			}
		}
	}
}