{
	"contracts/EVote.sol": {
		"EVote": {
			"abi": [
				{
					"inputs": [],
					"stateMutability": "nonpayable",
					"type": "constructor"
				},
				{
					"inputs": [
						{
							"internalType": "address",
							"name": "officialAddress",
							"type": "address"
						},
						{
							"internalType": "string",
							"name": "zoneCode",
							"type": "string"
						}
					],
					"name": "accredictedNewOfficial",
					"outputs": [],
					"stateMutability": "nonpayable",
					"type": "function"
				},
				{
					"inputs": [
						{
							"internalType": "string",
							"name": "lga",
							"type": "string"
						},
						{
							"internalType": "string",
							"name": "code",
							"type": "string"
						},
						{
							"internalType": "string",
							"name": "state",
							"type": "string"
						}
					],
					"name": "addZone",
					"outputs": [],
					"stateMutability": "nonpayable",
					"type": "function"
				}
			],
			"devdoc": {
				"kind": "dev",
				"methods": {},
				"version": 1
			},
			"evm": {
				"assembly": "    /* \"contracts/EVote.sol\":371:1351  contract EVote{... */\n  mstore(0x40, 0x80)\n    /* \"contracts/EVote.sol\":690:743  constructor (){... */\n  callvalue\n  dup1\n  iszero\n  tag_1\n  jumpi\n  0x00\n  dup1\n  revert\ntag_1:\n  pop\n    /* \"contracts/EVote.sol\":726:736  msg.sender */\n  caller\n    /* \"contracts/EVote.sol\":714:723  ownerAddr */\n  0x00\n  dup1\n    /* \"contracts/EVote.sol\":714:736  ownerAddr = msg.sender */\n  0x0100\n  exp\n  dup2\n  sload\n  dup2\n  0xffffffffffffffffffffffffffffffffffffffff\n  mul\n  not\n  and\n  swap1\n  dup4\n  0xffffffffffffffffffffffffffffffffffffffff\n  and\n  mul\n  or\n  swap1\n  sstore\n  pop\n    /* \"contracts/EVote.sol\":371:1351  contract EVote{... */\n  dataSize(sub_0)\n  dup1\n  dataOffset(sub_0)\n  0x00\n  codecopy\n  0x00\n  return\nstop\n\nsub_0: assembly {\n        /* \"contracts/EVote.sol\":371:1351  contract EVote{... */\n      mstore(0x40, 0x80)\n      callvalue\n      dup1\n      iszero\n      tag_1\n      jumpi\n      0x00\n      dup1\n      revert\n    tag_1:\n      pop\n      jumpi(tag_2, lt(calldatasize, 0x04))\n      shr(0xe0, calldataload(0x00))\n      dup1\n      0x6e12dc0e\n      eq\n      tag_3\n      jumpi\n      dup1\n      0xe81de400\n      eq\n      tag_4\n      jumpi\n    tag_2:\n      0x00\n      dup1\n      revert\n        /* \"contracts/EVote.sol\":749:994  function addZone(string calldata lga, string calldata code, string calldata state)  external isOwnerMod{... */\n    tag_3:\n      tag_5\n      0x04\n      dup1\n      calldatasize\n      sub\n      dup2\n      add\n      swap1\n      tag_6\n      swap2\n      swap1\n      tag_7\n      jump\t// in\n    tag_6:\n      tag_8\n      jump\t// in\n    tag_5:\n      stop\n        /* \"contracts/EVote.sol\":1000:1348  function accredictedNewOfficial(address officialAddress, string calldata zoneCode) external isOwnerMod{... */\n    tag_4:\n      tag_9\n      0x04\n      dup1\n      calldatasize\n      sub\n      dup2\n      add\n      swap1\n      tag_10\n      swap2\n      swap1\n      tag_11\n      jump\t// in\n    tag_10:\n      tag_12\n      jump\t// in\n    tag_9:\n      stop\n        /* \"contracts/EVote.sol\":749:994  function addZone(string calldata lga, string calldata code, string calldata state)  external isOwnerMod{... */\n    tag_8:\n        /* \"contracts/EVote.sol\":624:634  msg.sender */\n      caller\n        /* \"contracts/EVote.sol\":611:634  ownerAddr != msg.sender */\n      0xffffffffffffffffffffffffffffffffffffffff\n      and\n        /* \"contracts/EVote.sol\":611:620  ownerAddr */\n      0x00\n      dup1\n      sload\n      swap1\n      0x0100\n      exp\n      swap1\n      div\n      0xffffffffffffffffffffffffffffffffffffffff\n      and\n        /* \"contracts/EVote.sol\":611:634  ownerAddr != msg.sender */\n      0xffffffffffffffffffffffffffffffffffffffff\n      and\n      eq\n      iszero\n        /* \"contracts/EVote.sol\":603:662  require(ownerAddr != msg.sender,\"you can not add official\") */\n      tag_14\n      jumpi\n      mload(0x40)\n      0x08c379a000000000000000000000000000000000000000000000000000000000\n      dup2\n      mstore\n      0x04\n      add\n      tag_15\n      swap1\n      tag_16\n      jump\t// in\n    tag_15:\n      mload(0x40)\n      dup1\n      swap2\n      sub\n      swap1\n      revert\n    tag_14:\n        /* \"contracts/EVote.sol\":963:987  VoteZone(lga,state,code) */\n      mload(0x40)\n      dup1\n      0x60\n      add\n      0x40\n      mstore\n      dup1\n        /* \"contracts/EVote.sol\":972:975  lga */\n      dup8\n      dup8\n        /* \"contracts/EVote.sol\":963:987  VoteZone(lga,state,code) */\n      dup1\n      dup1\n      0x1f\n      add\n      0x20\n      dup1\n      swap2\n      div\n      mul\n      0x20\n      add\n      mload(0x40)\n      swap1\n      dup2\n      add\n      0x40\n      mstore\n      dup1\n      swap4\n      swap3\n      swap2\n      swap1\n      dup2\n      dup2\n      mstore\n      0x20\n      add\n      dup4\n      dup4\n      dup1\n      dup3\n      dup5\n      calldatacopy\n      0x00\n      dup2\n      dup5\n      add\n      mstore\n      not(0x1f)\n      0x1f\n      dup3\n      add\n      and\n      swap1\n      pop\n      dup1\n      dup4\n      add\n      swap3\n      pop\n      pop\n      pop\n      pop\n      pop\n      pop\n      pop\n      dup2\n      mstore\n      0x20\n      add\n        /* \"contracts/EVote.sol\":976:981  state */\n      dup4\n      dup4\n        /* \"contracts/EVote.sol\":963:987  VoteZone(lga,state,code) */\n      dup1\n      dup1\n      0x1f\n      add\n      0x20\n      dup1\n      swap2\n      div\n      mul\n      0x20\n      add\n      mload(0x40)\n      swap1\n      dup2\n      add\n      0x40\n      mstore\n      dup1\n      swap4\n      swap3\n      swap2\n      swap1\n      dup2\n      dup2\n      mstore\n      0x20\n      add\n      dup4\n      dup4\n      dup1\n      dup3\n      dup5\n      calldatacopy\n      0x00\n      dup2\n      dup5\n      add\n      mstore\n      not(0x1f)\n      0x1f\n      dup3\n      add\n      and\n      swap1\n      pop\n      dup1\n      dup4\n      add\n      swap3\n      pop\n      pop\n      pop\n      pop\n      pop\n      pop\n      pop\n      dup2\n      mstore\n      0x20\n      add\n        /* \"contracts/EVote.sol\":982:986  code */\n      dup6\n      dup6\n        /* \"contracts/EVote.sol\":963:987  VoteZone(lga,state,code) */\n      dup1\n      dup1\n      0x1f\n      add\n      0x20\n      dup1\n      swap2\n      div\n      mul\n      0x20\n      add\n      mload(0x40)\n      swap1\n      dup2\n      add\n      0x40\n      mstore\n      dup1\n      swap4\n      swap3\n      swap2\n      swap1\n      dup2\n      dup2\n      mstore\n      0x20\n      add\n      dup4\n      dup4\n      dup1\n      dup3\n      dup5\n      calldatacopy\n      0x00\n      dup2\n      dup5\n      add\n      mstore\n      not(0x1f)\n      0x1f\n      dup3\n      add\n      and\n      swap1\n      pop\n      dup1\n      dup4\n      add\n      swap3\n      pop\n      pop\n      pop\n      pop\n      pop\n      pop\n      pop\n      dup2\n      mstore\n      pop\n        /* \"contracts/EVote.sol\":939:954  accredictedZone */\n      0x03\n        /* \"contracts/EVote.sol\":955:959  code */\n      dup6\n      dup6\n        /* \"contracts/EVote.sol\":939:960  accredictedZone[code] */\n      mload(0x40)\n      tag_18\n      swap3\n      swap2\n      swap1\n      tag_19\n      jump\t// in\n    tag_18:\n      swap1\n      dup2\n      mstore\n      0x20\n      add\n      mload(0x40)\n      dup1\n      swap2\n      sub\n      swap1\n      keccak256\n        /* \"contracts/EVote.sol\":939:987  accredictedZone[code] = VoteZone(lga,state,code) */\n      0x00\n      dup3\n      add\n      mload\n      dup2\n      0x00\n      add\n      swap1\n      dup1\n      mload\n      swap1\n      0x20\n      add\n      swap1\n      tag_20\n      swap3\n      swap2\n      swap1\n      tag_21\n      jump\t// in\n    tag_20:\n      pop\n      0x20\n      dup3\n      add\n      mload\n      dup2\n      0x01\n      add\n      swap1\n      dup1\n      mload\n      swap1\n      0x20\n      add\n      swap1\n      tag_22\n      swap3\n      swap2\n      swap1\n      tag_21\n      jump\t// in\n    tag_22:\n      pop\n      0x40\n      dup3\n      add\n      mload\n      dup2\n      0x02\n      add\n      swap1\n      dup1\n      mload\n      swap1\n      0x20\n      add\n      swap1\n      tag_23\n      swap3\n      swap2\n      swap1\n      tag_21\n      jump\t// in\n    tag_23:\n      pop\n      swap1\n      pop\n      pop\n        /* \"contracts/EVote.sol\":749:994  function addZone(string calldata lga, string calldata code, string calldata state)  external isOwnerMod{... */\n      pop\n      pop\n      pop\n      pop\n      pop\n      pop\n      jump\t// out\n        /* \"contracts/EVote.sol\":1000:1348  function accredictedNewOfficial(address officialAddress, string calldata zoneCode) external isOwnerMod{... */\n    tag_12:\n        /* \"contracts/EVote.sol\":624:634  msg.sender */\n      caller\n        /* \"contracts/EVote.sol\":611:634  ownerAddr != msg.sender */\n      0xffffffffffffffffffffffffffffffffffffffff\n      and\n        /* \"contracts/EVote.sol\":611:620  ownerAddr */\n      0x00\n      dup1\n      sload\n      swap1\n      0x0100\n      exp\n      swap1\n      div\n      0xffffffffffffffffffffffffffffffffffffffff\n      and\n        /* \"contracts/EVote.sol\":611:634  ownerAddr != msg.sender */\n      0xffffffffffffffffffffffffffffffffffffffff\n      and\n      eq\n      iszero\n        /* \"contracts/EVote.sol\":603:662  require(ownerAddr != msg.sender,\"you can not add official\") */\n      tag_25\n      jumpi\n      mload(0x40)\n      0x08c379a000000000000000000000000000000000000000000000000000000000\n      dup2\n      mstore\n      0x04\n      add\n      tag_26\n      swap1\n      tag_16\n      jump\t// in\n    tag_26:\n      mload(0x40)\n      dup1\n      swap2\n      sub\n      swap1\n      revert\n    tag_25:\n        /* \"contracts/EVote.sol\":1166:1167  0 */\n      0x00\n        /* \"contracts/EVote.sol\":1126:1141  accredictedZone */\n      0x03\n        /* \"contracts/EVote.sol\":1142:1150  zoneCode */\n      dup4\n      dup4\n        /* \"contracts/EVote.sol\":1126:1151  accredictedZone[zoneCode] */\n      mload(0x40)\n      tag_28\n      swap3\n      swap2\n      swap1\n      tag_19\n      jump\t// in\n    tag_28:\n      swap1\n      dup2\n      mstore\n      0x20\n      add\n      mload(0x40)\n      dup1\n      swap2\n      sub\n      swap1\n      keccak256\n        /* \"contracts/EVote.sol\":1126:1155  accredictedZone[zoneCode].lga */\n      0x00\n      add\n        /* \"contracts/EVote.sol\":1120:1163  bytes(accredictedZone[zoneCode].lga).length */\n      dup1\n      sload\n      tag_29\n      swap1\n      tag_30\n      jump\t// in\n    tag_29:\n      swap1\n      pop\n        /* \"contracts/EVote.sol\":1120:1167  bytes(accredictedZone[zoneCode].lga).length < 0 */\n      lt\n        /* \"contracts/EVote.sol\":1112:1187  require(bytes(accredictedZone[zoneCode].lga).length < 0 ,\"local not found\") */\n      tag_31\n      jumpi\n      mload(0x40)\n      0x08c379a000000000000000000000000000000000000000000000000000000000\n      dup2\n      mstore\n      0x04\n      add\n      tag_32\n      swap1\n      tag_33\n      jump\t// in\n    tag_32:\n      mload(0x40)\n      dup1\n      swap2\n      sub\n      swap1\n      revert\n    tag_31:\n        /* \"contracts/EVote.sol\":1197:1220  accredictedOfficialAddr */\n      0x01\n        /* \"contracts/EVote.sol\":1226:1241  officialAddress */\n      dup4\n        /* \"contracts/EVote.sol\":1197:1242  accredictedOfficialAddr.push(officialAddress) */\n      swap1\n      dup1\n      0x01\n      dup2\n      sload\n      add\n      dup1\n      dup3\n      sstore\n      dup1\n      swap2\n      pop\n      pop\n      0x01\n      swap1\n      sub\n      swap1\n      0x00\n      mstore\n      keccak256(0x00, 0x20)\n      add\n      0x00\n      swap1\n      swap2\n      swap1\n      swap2\n      swap1\n      swap2\n      0x0100\n      exp\n      dup2\n      sload\n      dup2\n      0xffffffffffffffffffffffffffffffffffffffff\n      mul\n      not\n      and\n      swap1\n      dup4\n      0xffffffffffffffffffffffffffffffffffffffff\n      and\n      mul\n      or\n      swap1\n      sstore\n      pop\n        /* \"contracts/EVote.sol\":1000:1348  function accredictedNewOfficial(address officialAddress, string calldata zoneCode) external isOwnerMod{... */\n      pop\n      pop\n      pop\n      jump\t// out\n    tag_21:\n      dup3\n      dup1\n      sload\n      tag_35\n      swap1\n      tag_30\n      jump\t// in\n    tag_35:\n      swap1\n      0x00\n      mstore\n      keccak256(0x00, 0x20)\n      swap1\n      0x1f\n      add\n      0x20\n      swap1\n      div\n      dup2\n      add\n      swap3\n      dup3\n      tag_37\n      jumpi\n      0x00\n      dup6\n      sstore\n      jump(tag_36)\n    tag_37:\n      dup3\n      0x1f\n      lt\n      tag_38\n      jumpi\n      dup1\n      mload\n      not(0xff)\n      and\n      dup4\n      dup1\n      add\n      or\n      dup6\n      sstore\n      jump(tag_36)\n    tag_38:\n      dup3\n      dup1\n      add\n      0x01\n      add\n      dup6\n      sstore\n      dup3\n      iszero\n      tag_36\n      jumpi\n      swap2\n      dup3\n      add\n    tag_39:\n      dup3\n      dup2\n      gt\n      iszero\n      tag_40\n      jumpi\n      dup3\n      mload\n      dup3\n      sstore\n      swap2\n      0x20\n      add\n      swap2\n      swap1\n      0x01\n      add\n      swap1\n      jump(tag_39)\n    tag_40:\n    tag_36:\n      pop\n      swap1\n      pop\n      tag_41\n      swap2\n      swap1\n      tag_42\n      jump\t// in\n    tag_41:\n      pop\n      swap1\n      jump\t// out\n    tag_42:\n    tag_43:\n      dup1\n      dup3\n      gt\n      iszero\n      tag_44\n      jumpi\n      0x00\n      dup2\n      0x00\n      swap1\n      sstore\n      pop\n      0x01\n      add\n      jump(tag_43)\n    tag_44:\n      pop\n      swap1\n      jump\t// out\n        /* \"#utility.yul\":88:205   */\n    tag_46:\n        /* \"#utility.yul\":197:198   */\n      0x00\n        /* \"#utility.yul\":194:195   */\n      dup1\n        /* \"#utility.yul\":187:199   */\n      revert\n        /* \"#utility.yul\":211:328   */\n    tag_47:\n        /* \"#utility.yul\":320:321   */\n      0x00\n        /* \"#utility.yul\":317:318   */\n      dup1\n        /* \"#utility.yul\":310:322   */\n      revert\n        /* \"#utility.yul\":334:451   */\n    tag_48:\n        /* \"#utility.yul\":443:444   */\n      0x00\n        /* \"#utility.yul\":440:441   */\n      dup1\n        /* \"#utility.yul\":433:445   */\n      revert\n        /* \"#utility.yul\":457:574   */\n    tag_49:\n        /* \"#utility.yul\":566:567   */\n      0x00\n        /* \"#utility.yul\":563:564   */\n      dup1\n        /* \"#utility.yul\":556:568   */\n      revert\n        /* \"#utility.yul\":580:697   */\n    tag_50:\n        /* \"#utility.yul\":689:690   */\n      0x00\n        /* \"#utility.yul\":686:687   */\n      dup1\n        /* \"#utility.yul\":679:691   */\n      revert\n        /* \"#utility.yul\":717:1270   */\n    tag_51:\n        /* \"#utility.yul\":775:783   */\n      0x00\n        /* \"#utility.yul\":785:791   */\n      dup1\n        /* \"#utility.yul\":835:838   */\n      dup4\n        /* \"#utility.yul\":828:832   */\n      0x1f\n        /* \"#utility.yul\":820:826   */\n      dup5\n        /* \"#utility.yul\":816:833   */\n      add\n        /* \"#utility.yul\":812:839   */\n      slt\n        /* \"#utility.yul\":802:924   */\n      tag_73\n      jumpi\n        /* \"#utility.yul\":843:922   */\n      tag_74\n      tag_48\n      jump\t// in\n    tag_74:\n        /* \"#utility.yul\":802:924   */\n    tag_73:\n        /* \"#utility.yul\":956:962   */\n      dup3\n        /* \"#utility.yul\":943:963   */\n      calldataload\n        /* \"#utility.yul\":933:963   */\n      swap1\n      pop\n        /* \"#utility.yul\":986:1004   */\n      0xffffffffffffffff\n        /* \"#utility.yul\":978:984   */\n      dup2\n        /* \"#utility.yul\":975:1005   */\n      gt\n        /* \"#utility.yul\":972:1089   */\n      iszero\n      tag_75\n      jumpi\n        /* \"#utility.yul\":1008:1087   */\n      tag_76\n      tag_49\n      jump\t// in\n    tag_76:\n        /* \"#utility.yul\":972:1089   */\n    tag_75:\n        /* \"#utility.yul\":1122:1126   */\n      0x20\n        /* \"#utility.yul\":1114:1120   */\n      dup4\n        /* \"#utility.yul\":1110:1127   */\n      add\n        /* \"#utility.yul\":1098:1127   */\n      swap2\n      pop\n        /* \"#utility.yul\":1176:1179   */\n      dup4\n        /* \"#utility.yul\":1168:1172   */\n      0x01\n        /* \"#utility.yul\":1160:1166   */\n      dup3\n        /* \"#utility.yul\":1156:1173   */\n      mul\n        /* \"#utility.yul\":1146:1154   */\n      dup4\n        /* \"#utility.yul\":1142:1174   */\n      add\n        /* \"#utility.yul\":1139:1180   */\n      gt\n        /* \"#utility.yul\":1136:1264   */\n      iszero\n      tag_77\n      jumpi\n        /* \"#utility.yul\":1183:1262   */\n      tag_78\n      tag_50\n      jump\t// in\n    tag_78:\n        /* \"#utility.yul\":1136:1264   */\n    tag_77:\n        /* \"#utility.yul\":717:1270   */\n      swap3\n      pop\n      swap3\n      swap1\n      pop\n      jump\t// out\n        /* \"#utility.yul\":1276:2495   */\n    tag_7:\n        /* \"#utility.yul\":1389:1395   */\n      0x00\n        /* \"#utility.yul\":1397:1403   */\n      dup1\n        /* \"#utility.yul\":1405:1411   */\n      0x00\n        /* \"#utility.yul\":1413:1419   */\n      dup1\n        /* \"#utility.yul\":1421:1427   */\n      0x00\n        /* \"#utility.yul\":1429:1435   */\n      dup1\n        /* \"#utility.yul\":1478:1480   */\n      0x60\n        /* \"#utility.yul\":1466:1475   */\n      dup8\n        /* \"#utility.yul\":1457:1464   */\n      dup10\n        /* \"#utility.yul\":1453:1476   */\n      sub\n        /* \"#utility.yul\":1449:1481   */\n      slt\n        /* \"#utility.yul\":1446:1565   */\n      iszero\n      tag_80\n      jumpi\n        /* \"#utility.yul\":1484:1563   */\n      tag_81\n      tag_46\n      jump\t// in\n    tag_81:\n        /* \"#utility.yul\":1446:1565   */\n    tag_80:\n        /* \"#utility.yul\":1632:1633   */\n      0x00\n        /* \"#utility.yul\":1621:1630   */\n      dup8\n        /* \"#utility.yul\":1617:1634   */\n      add\n        /* \"#utility.yul\":1604:1635   */\n      calldataload\n        /* \"#utility.yul\":1662:1680   */\n      0xffffffffffffffff\n        /* \"#utility.yul\":1654:1660   */\n      dup2\n        /* \"#utility.yul\":1651:1681   */\n      gt\n        /* \"#utility.yul\":1648:1765   */\n      iszero\n      tag_82\n      jumpi\n        /* \"#utility.yul\":1684:1763   */\n      tag_83\n      tag_47\n      jump\t// in\n    tag_83:\n        /* \"#utility.yul\":1648:1765   */\n    tag_82:\n        /* \"#utility.yul\":1797:1862   */\n      tag_84\n        /* \"#utility.yul\":1854:1861   */\n      dup10\n        /* \"#utility.yul\":1845:1851   */\n      dup3\n        /* \"#utility.yul\":1834:1843   */\n      dup11\n        /* \"#utility.yul\":1830:1852   */\n      add\n        /* \"#utility.yul\":1797:1862   */\n      tag_51\n      jump\t// in\n    tag_84:\n        /* \"#utility.yul\":1779:1862   */\n      swap7\n      pop\n      swap7\n      pop\n        /* \"#utility.yul\":1575:1872   */\n      pop\n        /* \"#utility.yul\":1939:1941   */\n      0x20\n        /* \"#utility.yul\":1928:1937   */\n      dup8\n        /* \"#utility.yul\":1924:1942   */\n      add\n        /* \"#utility.yul\":1911:1943   */\n      calldataload\n        /* \"#utility.yul\":1970:1988   */\n      0xffffffffffffffff\n        /* \"#utility.yul\":1962:1968   */\n      dup2\n        /* \"#utility.yul\":1959:1989   */\n      gt\n        /* \"#utility.yul\":1956:2073   */\n      iszero\n      tag_85\n      jumpi\n        /* \"#utility.yul\":1992:2071   */\n      tag_86\n      tag_47\n      jump\t// in\n    tag_86:\n        /* \"#utility.yul\":1956:2073   */\n    tag_85:\n        /* \"#utility.yul\":2105:2170   */\n      tag_87\n        /* \"#utility.yul\":2162:2169   */\n      dup10\n        /* \"#utility.yul\":2153:2159   */\n      dup3\n        /* \"#utility.yul\":2142:2151   */\n      dup11\n        /* \"#utility.yul\":2138:2160   */\n      add\n        /* \"#utility.yul\":2105:2170   */\n      tag_51\n      jump\t// in\n    tag_87:\n        /* \"#utility.yul\":2087:2170   */\n      swap5\n      pop\n      swap5\n      pop\n        /* \"#utility.yul\":1882:2180   */\n      pop\n        /* \"#utility.yul\":2247:2249   */\n      0x40\n        /* \"#utility.yul\":2236:2245   */\n      dup8\n        /* \"#utility.yul\":2232:2250   */\n      add\n        /* \"#utility.yul\":2219:2251   */\n      calldataload\n        /* \"#utility.yul\":2278:2296   */\n      0xffffffffffffffff\n        /* \"#utility.yul\":2270:2276   */\n      dup2\n        /* \"#utility.yul\":2267:2297   */\n      gt\n        /* \"#utility.yul\":2264:2381   */\n      iszero\n      tag_88\n      jumpi\n        /* \"#utility.yul\":2300:2379   */\n      tag_89\n      tag_47\n      jump\t// in\n    tag_89:\n        /* \"#utility.yul\":2264:2381   */\n    tag_88:\n        /* \"#utility.yul\":2413:2478   */\n      tag_90\n        /* \"#utility.yul\":2470:2477   */\n      dup10\n        /* \"#utility.yul\":2461:2467   */\n      dup3\n        /* \"#utility.yul\":2450:2459   */\n      dup11\n        /* \"#utility.yul\":2446:2468   */\n      add\n        /* \"#utility.yul\":2413:2478   */\n      tag_51\n      jump\t// in\n    tag_90:\n        /* \"#utility.yul\":2395:2478   */\n      swap3\n      pop\n      swap3\n      pop\n        /* \"#utility.yul\":2190:2488   */\n      pop\n        /* \"#utility.yul\":1276:2495   */\n      swap3\n      swap6\n      pop\n      swap3\n      swap6\n      pop\n      swap3\n      swap6\n      jump\t// out\n        /* \"#utility.yul\":2501:2627   */\n    tag_52:\n        /* \"#utility.yul\":2538:2545   */\n      0x00\n        /* \"#utility.yul\":2578:2620   */\n      0xffffffffffffffffffffffffffffffffffffffff\n        /* \"#utility.yul\":2571:2576   */\n      dup3\n        /* \"#utility.yul\":2567:2621   */\n      and\n        /* \"#utility.yul\":2556:2621   */\n      swap1\n      pop\n        /* \"#utility.yul\":2501:2627   */\n      swap2\n      swap1\n      pop\n      jump\t// out\n        /* \"#utility.yul\":2633:2729   */\n    tag_53:\n        /* \"#utility.yul\":2670:2677   */\n      0x00\n        /* \"#utility.yul\":2699:2723   */\n      tag_93\n        /* \"#utility.yul\":2717:2722   */\n      dup3\n        /* \"#utility.yul\":2699:2723   */\n      tag_52\n      jump\t// in\n    tag_93:\n        /* \"#utility.yul\":2688:2723   */\n      swap1\n      pop\n        /* \"#utility.yul\":2633:2729   */\n      swap2\n      swap1\n      pop\n      jump\t// out\n        /* \"#utility.yul\":2735:2857   */\n    tag_54:\n        /* \"#utility.yul\":2808:2832   */\n      tag_95\n        /* \"#utility.yul\":2826:2831   */\n      dup2\n        /* \"#utility.yul\":2808:2832   */\n      tag_53\n      jump\t// in\n    tag_95:\n        /* \"#utility.yul\":2801:2806   */\n      dup2\n        /* \"#utility.yul\":2798:2833   */\n      eq\n        /* \"#utility.yul\":2788:2851   */\n      tag_96\n      jumpi\n        /* \"#utility.yul\":2847:2848   */\n      0x00\n        /* \"#utility.yul\":2844:2845   */\n      dup1\n        /* \"#utility.yul\":2837:2849   */\n      revert\n        /* \"#utility.yul\":2788:2851   */\n    tag_96:\n        /* \"#utility.yul\":2735:2857   */\n      pop\n      jump\t// out\n        /* \"#utility.yul\":2863:3002   */\n    tag_55:\n        /* \"#utility.yul\":2909:2914   */\n      0x00\n        /* \"#utility.yul\":2947:2953   */\n      dup2\n        /* \"#utility.yul\":2934:2954   */\n      calldataload\n        /* \"#utility.yul\":2925:2954   */\n      swap1\n      pop\n        /* \"#utility.yul\":2963:2996   */\n      tag_98\n        /* \"#utility.yul\":2990:2995   */\n      dup2\n        /* \"#utility.yul\":2963:2996   */\n      tag_54\n      jump\t// in\n    tag_98:\n        /* \"#utility.yul\":2863:3002   */\n      swap3\n      swap2\n      pop\n      pop\n      jump\t// out\n        /* \"#utility.yul\":3008:3682   */\n    tag_11:\n        /* \"#utility.yul\":3088:3094   */\n      0x00\n        /* \"#utility.yul\":3096:3102   */\n      dup1\n        /* \"#utility.yul\":3104:3110   */\n      0x00\n        /* \"#utility.yul\":3153:3155   */\n      0x40\n        /* \"#utility.yul\":3141:3150   */\n      dup5\n        /* \"#utility.yul\":3132:3139   */\n      dup7\n        /* \"#utility.yul\":3128:3151   */\n      sub\n        /* \"#utility.yul\":3124:3156   */\n      slt\n        /* \"#utility.yul\":3121:3240   */\n      iszero\n      tag_100\n      jumpi\n        /* \"#utility.yul\":3159:3238   */\n      tag_101\n      tag_46\n      jump\t// in\n    tag_101:\n        /* \"#utility.yul\":3121:3240   */\n    tag_100:\n        /* \"#utility.yul\":3279:3280   */\n      0x00\n        /* \"#utility.yul\":3304:3357   */\n      tag_102\n        /* \"#utility.yul\":3349:3356   */\n      dup7\n        /* \"#utility.yul\":3340:3346   */\n      dup3\n        /* \"#utility.yul\":3329:3338   */\n      dup8\n        /* \"#utility.yul\":3325:3347   */\n      add\n        /* \"#utility.yul\":3304:3357   */\n      tag_55\n      jump\t// in\n    tag_102:\n        /* \"#utility.yul\":3294:3357   */\n      swap4\n      pop\n        /* \"#utility.yul\":3250:3367   */\n      pop\n        /* \"#utility.yul\":3434:3436   */\n      0x20\n        /* \"#utility.yul\":3423:3432   */\n      dup5\n        /* \"#utility.yul\":3419:3437   */\n      add\n        /* \"#utility.yul\":3406:3438   */\n      calldataload\n        /* \"#utility.yul\":3465:3483   */\n      0xffffffffffffffff\n        /* \"#utility.yul\":3457:3463   */\n      dup2\n        /* \"#utility.yul\":3454:3484   */\n      gt\n        /* \"#utility.yul\":3451:3568   */\n      iszero\n      tag_103\n      jumpi\n        /* \"#utility.yul\":3487:3566   */\n      tag_104\n      tag_47\n      jump\t// in\n    tag_104:\n        /* \"#utility.yul\":3451:3568   */\n    tag_103:\n        /* \"#utility.yul\":3600:3665   */\n      tag_105\n        /* \"#utility.yul\":3657:3664   */\n      dup7\n        /* \"#utility.yul\":3648:3654   */\n      dup3\n        /* \"#utility.yul\":3637:3646   */\n      dup8\n        /* \"#utility.yul\":3633:3655   */\n      add\n        /* \"#utility.yul\":3600:3665   */\n      tag_51\n      jump\t// in\n    tag_105:\n        /* \"#utility.yul\":3582:3665   */\n      swap3\n      pop\n      swap3\n      pop\n        /* \"#utility.yul\":3377:3675   */\n      pop\n        /* \"#utility.yul\":3008:3682   */\n      swap3\n      pop\n      swap3\n      pop\n      swap3\n      jump\t// out\n        /* \"#utility.yul\":3688:3857   */\n    tag_56:\n        /* \"#utility.yul\":3772:3783   */\n      0x00\n        /* \"#utility.yul\":3806:3812   */\n      dup3\n        /* \"#utility.yul\":3801:3804   */\n      dup3\n        /* \"#utility.yul\":3794:3813   */\n      mstore\n        /* \"#utility.yul\":3846:3850   */\n      0x20\n        /* \"#utility.yul\":3841:3844   */\n      dup3\n        /* \"#utility.yul\":3837:3851   */\n      add\n        /* \"#utility.yul\":3822:3851   */\n      swap1\n      pop\n        /* \"#utility.yul\":3688:3857   */\n      swap3\n      swap2\n      pop\n      pop\n      jump\t// out\n        /* \"#utility.yul\":3863:4037   */\n    tag_57:\n        /* \"#utility.yul\":4003:4029   */\n      0x796f752063616e206e6f7420616464206f6666696369616c0000000000000000\n        /* \"#utility.yul\":3999:4000   */\n      0x00\n        /* \"#utility.yul\":3991:3997   */\n      dup3\n        /* \"#utility.yul\":3987:4001   */\n      add\n        /* \"#utility.yul\":3980:4030   */\n      mstore\n        /* \"#utility.yul\":3863:4037   */\n      pop\n      jump\t// out\n        /* \"#utility.yul\":4043:4409   */\n    tag_58:\n        /* \"#utility.yul\":4185:4188   */\n      0x00\n        /* \"#utility.yul\":4206:4273   */\n      tag_109\n        /* \"#utility.yul\":4270:4272   */\n      0x18\n        /* \"#utility.yul\":4265:4268   */\n      dup4\n        /* \"#utility.yul\":4206:4273   */\n      tag_56\n      jump\t// in\n    tag_109:\n        /* \"#utility.yul\":4199:4273   */\n      swap2\n      pop\n        /* \"#utility.yul\":4282:4375   */\n      tag_110\n        /* \"#utility.yul\":4371:4374   */\n      dup3\n        /* \"#utility.yul\":4282:4375   */\n      tag_57\n      jump\t// in\n    tag_110:\n        /* \"#utility.yul\":4400:4402   */\n      0x20\n        /* \"#utility.yul\":4395:4398   */\n      dup3\n        /* \"#utility.yul\":4391:4403   */\n      add\n        /* \"#utility.yul\":4384:4403   */\n      swap1\n      pop\n        /* \"#utility.yul\":4043:4409   */\n      swap2\n      swap1\n      pop\n      jump\t// out\n        /* \"#utility.yul\":4415:4834   */\n    tag_16:\n        /* \"#utility.yul\":4581:4585   */\n      0x00\n        /* \"#utility.yul\":4619:4621   */\n      0x20\n        /* \"#utility.yul\":4608:4617   */\n      dup3\n        /* \"#utility.yul\":4604:4622   */\n      add\n        /* \"#utility.yul\":4596:4622   */\n      swap1\n      pop\n        /* \"#utility.yul\":4668:4677   */\n      dup2\n        /* \"#utility.yul\":4662:4666   */\n      dup2\n        /* \"#utility.yul\":4658:4678   */\n      sub\n        /* \"#utility.yul\":4654:4655   */\n      0x00\n        /* \"#utility.yul\":4643:4652   */\n      dup4\n        /* \"#utility.yul\":4639:4656   */\n      add\n        /* \"#utility.yul\":4632:4679   */\n      mstore\n        /* \"#utility.yul\":4696:4827   */\n      tag_112\n        /* \"#utility.yul\":4822:4826   */\n      dup2\n        /* \"#utility.yul\":4696:4827   */\n      tag_58\n      jump\t// in\n    tag_112:\n        /* \"#utility.yul\":4688:4827   */\n      swap1\n      pop\n        /* \"#utility.yul\":4415:4834   */\n      swap2\n      swap1\n      pop\n      jump\t// out\n        /* \"#utility.yul\":4840:4988   */\n    tag_59:\n        /* \"#utility.yul\":4942:4953   */\n      0x00\n        /* \"#utility.yul\":4979:4982   */\n      dup2\n        /* \"#utility.yul\":4964:4982   */\n      swap1\n      pop\n        /* \"#utility.yul\":4840:4988   */\n      swap3\n      swap2\n      pop\n      pop\n      jump\t// out\n        /* \"#utility.yul\":4994:5148   */\n    tag_60:\n        /* \"#utility.yul\":5078:5084   */\n      dup3\n        /* \"#utility.yul\":5073:5076   */\n      dup2\n        /* \"#utility.yul\":5068:5071   */\n      dup4\n        /* \"#utility.yul\":5055:5085   */\n      calldatacopy\n        /* \"#utility.yul\":5140:5141   */\n      0x00\n        /* \"#utility.yul\":5131:5137   */\n      dup4\n        /* \"#utility.yul\":5126:5129   */\n      dup4\n        /* \"#utility.yul\":5122:5138   */\n      add\n        /* \"#utility.yul\":5115:5142   */\n      mstore\n        /* \"#utility.yul\":4994:5148   */\n      pop\n      pop\n      pop\n      jump\t// out\n        /* \"#utility.yul\":5178:5495   */\n    tag_61:\n        /* \"#utility.yul\":5294:5297   */\n      0x00\n        /* \"#utility.yul\":5315:5404   */\n      tag_116\n        /* \"#utility.yul\":5397:5403   */\n      dup4\n        /* \"#utility.yul\":5392:5395   */\n      dup6\n        /* \"#utility.yul\":5315:5404   */\n      tag_59\n      jump\t// in\n    tag_116:\n        /* \"#utility.yul\":5308:5404   */\n      swap4\n      pop\n        /* \"#utility.yul\":5414:5457   */\n      tag_117\n        /* \"#utility.yul\":5450:5456   */\n      dup4\n        /* \"#utility.yul\":5445:5448   */\n      dup6\n        /* \"#utility.yul\":5438:5443   */\n      dup5\n        /* \"#utility.yul\":5414:5457   */\n      tag_60\n      jump\t// in\n    tag_117:\n        /* \"#utility.yul\":5482:5488   */\n      dup3\n        /* \"#utility.yul\":5477:5480   */\n      dup5\n        /* \"#utility.yul\":5473:5489   */\n      add\n        /* \"#utility.yul\":5466:5489   */\n      swap1\n      pop\n        /* \"#utility.yul\":5178:5495   */\n      swap4\n      swap3\n      pop\n      pop\n      pop\n      jump\t// out\n        /* \"#utility.yul\":5501:5796   */\n    tag_19:\n        /* \"#utility.yul\":5643:5646   */\n      0x00\n        /* \"#utility.yul\":5665:5770   */\n      tag_119\n        /* \"#utility.yul\":5766:5769   */\n      dup3\n        /* \"#utility.yul\":5757:5763   */\n      dup5\n        /* \"#utility.yul\":5749:5755   */\n      dup7\n        /* \"#utility.yul\":5665:5770   */\n      tag_61\n      jump\t// in\n    tag_119:\n        /* \"#utility.yul\":5658:5770   */\n      swap2\n      pop\n        /* \"#utility.yul\":5787:5790   */\n      dup2\n        /* \"#utility.yul\":5780:5790   */\n      swap1\n      pop\n        /* \"#utility.yul\":5501:5796   */\n      swap4\n      swap3\n      pop\n      pop\n      pop\n      jump\t// out\n        /* \"#utility.yul\":5802:5982   */\n    tag_62:\n        /* \"#utility.yul\":5850:5927   */\n      0x4e487b7100000000000000000000000000000000000000000000000000000000\n        /* \"#utility.yul\":5847:5848   */\n      0x00\n        /* \"#utility.yul\":5840:5928   */\n      mstore\n        /* \"#utility.yul\":5947:5951   */\n      0x22\n        /* \"#utility.yul\":5944:5945   */\n      0x04\n        /* \"#utility.yul\":5937:5952   */\n      mstore\n        /* \"#utility.yul\":5971:5975   */\n      0x24\n        /* \"#utility.yul\":5968:5969   */\n      0x00\n        /* \"#utility.yul\":5961:5976   */\n      revert\n        /* \"#utility.yul\":5988:6308   */\n    tag_30:\n        /* \"#utility.yul\":6032:6038   */\n      0x00\n        /* \"#utility.yul\":6069:6070   */\n      0x02\n        /* \"#utility.yul\":6063:6067   */\n      dup3\n        /* \"#utility.yul\":6059:6071   */\n      div\n        /* \"#utility.yul\":6049:6071   */\n      swap1\n      pop\n        /* \"#utility.yul\":6116:6117   */\n      0x01\n        /* \"#utility.yul\":6110:6114   */\n      dup3\n        /* \"#utility.yul\":6106:6118   */\n      and\n        /* \"#utility.yul\":6137:6155   */\n      dup1\n        /* \"#utility.yul\":6127:6208   */\n      tag_122\n      jumpi\n        /* \"#utility.yul\":6193:6197   */\n      0x7f\n        /* \"#utility.yul\":6185:6191   */\n      dup3\n        /* \"#utility.yul\":6181:6198   */\n      and\n        /* \"#utility.yul\":6171:6198   */\n      swap2\n      pop\n        /* \"#utility.yul\":6127:6208   */\n    tag_122:\n        /* \"#utility.yul\":6255:6257   */\n      0x20\n        /* \"#utility.yul\":6247:6253   */\n      dup3\n        /* \"#utility.yul\":6244:6258   */\n      lt\n        /* \"#utility.yul\":6224:6242   */\n      dup2\n        /* \"#utility.yul\":6221:6259   */\n      eq\n        /* \"#utility.yul\":6218:6302   */\n      iszero\n      tag_123\n      jumpi\n        /* \"#utility.yul\":6274:6292   */\n      tag_124\n      tag_62\n      jump\t// in\n    tag_124:\n        /* \"#utility.yul\":6218:6302   */\n    tag_123:\n        /* \"#utility.yul\":6039:6308   */\n      pop\n        /* \"#utility.yul\":5988:6308   */\n      swap2\n      swap1\n      pop\n      jump\t// out\n        /* \"#utility.yul\":6314:6479   */\n    tag_63:\n        /* \"#utility.yul\":6454:6471   */\n      0x6c6f63616c206e6f7420666f756e640000000000000000000000000000000000\n        /* \"#utility.yul\":6450:6451   */\n      0x00\n        /* \"#utility.yul\":6442:6448   */\n      dup3\n        /* \"#utility.yul\":6438:6452   */\n      add\n        /* \"#utility.yul\":6431:6472   */\n      mstore\n        /* \"#utility.yul\":6314:6479   */\n      pop\n      jump\t// out\n        /* \"#utility.yul\":6485:6851   */\n    tag_64:\n        /* \"#utility.yul\":6627:6630   */\n      0x00\n        /* \"#utility.yul\":6648:6715   */\n      tag_127\n        /* \"#utility.yul\":6712:6714   */\n      0x0f\n        /* \"#utility.yul\":6707:6710   */\n      dup4\n        /* \"#utility.yul\":6648:6715   */\n      tag_56\n      jump\t// in\n    tag_127:\n        /* \"#utility.yul\":6641:6715   */\n      swap2\n      pop\n        /* \"#utility.yul\":6724:6817   */\n      tag_128\n        /* \"#utility.yul\":6813:6816   */\n      dup3\n        /* \"#utility.yul\":6724:6817   */\n      tag_63\n      jump\t// in\n    tag_128:\n        /* \"#utility.yul\":6842:6844   */\n      0x20\n        /* \"#utility.yul\":6837:6840   */\n      dup3\n        /* \"#utility.yul\":6833:6845   */\n      add\n        /* \"#utility.yul\":6826:6845   */\n      swap1\n      pop\n        /* \"#utility.yul\":6485:6851   */\n      swap2\n      swap1\n      pop\n      jump\t// out\n        /* \"#utility.yul\":6857:7276   */\n    tag_33:\n        /* \"#utility.yul\":7023:7027   */\n      0x00\n        /* \"#utility.yul\":7061:7063   */\n      0x20\n        /* \"#utility.yul\":7050:7059   */\n      dup3\n        /* \"#utility.yul\":7046:7064   */\n      add\n        /* \"#utility.yul\":7038:7064   */\n      swap1\n      pop\n        /* \"#utility.yul\":7110:7119   */\n      dup2\n        /* \"#utility.yul\":7104:7108   */\n      dup2\n        /* \"#utility.yul\":7100:7120   */\n      sub\n        /* \"#utility.yul\":7096:7097   */\n      0x00\n        /* \"#utility.yul\":7085:7094   */\n      dup4\n        /* \"#utility.yul\":7081:7098   */\n      add\n        /* \"#utility.yul\":7074:7121   */\n      mstore\n        /* \"#utility.yul\":7138:7269   */\n      tag_130\n        /* \"#utility.yul\":7264:7268   */\n      dup2\n        /* \"#utility.yul\":7138:7269   */\n      tag_64\n      jump\t// in\n    tag_130:\n        /* \"#utility.yul\":7130:7269   */\n      swap1\n      pop\n        /* \"#utility.yul\":6857:7276   */\n      swap2\n      swap1\n      pop\n      jump\t// out\n\n    auxdata: 0xa2646970667358221220f959506be968fd9ae7e63d202edbdb3aa35c1a814592a614994f70529d24b39264736f6c63430008080033\n}\n",
				"bytecode": {
					"linkReferences": {},
					"object": "608060405234801561001057600080fd5b50336000806101000a81548173ffffffffffffffffffffffffffffffffffffffff021916908373ffffffffffffffffffffffffffffffffffffffff160217905550610830806100606000396000f3fe608060405234801561001057600080fd5b50600436106100365760003560e01c80636e12dc0e1461003b578063e81de40014610057575b600080fd5b610055600480360381019061005091906104e6565b610073565b005b610071600480360381019061006c91906105f8565b61026b565b005b3373ffffffffffffffffffffffffffffffffffffffff1660008054906101000a900473ffffffffffffffffffffffffffffffffffffffff1673ffffffffffffffffffffffffffffffffffffffff161415610102576040517f08c379a00000000000000000000000000000000000000000000000000000000081526004016100f9906106b5565b60405180910390fd5b604051806060016040528087878080601f016020809104026020016040519081016040528093929190818152602001838380828437600081840152601f19601f82011690508083019250505050505050815260200183838080601f016020809104026020016040519081016040528093929190818152602001838380828437600081840152601f19601f82011690508083019250505050505050815260200185858080601f016020809104026020016040519081016040528093929190818152602001838380828437600081840152601f19601f82011690508083019250505050505050815250600385856040516101fb929190610714565b908152602001604051809103902060008201518160000190805190602001906102259291906103d4565b5060208201518160010190805190602001906102429291906103d4565b50604082015181600201908051906020019061025f9291906103d4565b50905050505050505050565b3373ffffffffffffffffffffffffffffffffffffffff1660008054906101000a900473ffffffffffffffffffffffffffffffffffffffff1673ffffffffffffffffffffffffffffffffffffffff1614156102fa576040517f08c379a00000000000000000000000000000000000000000000000000000000081526004016102f1906106b5565b60405180910390fd5b60006003838360405161030e929190610714565b9081526020016040518091039020600001805461032a9061075c565b90501061036c576040517f08c379a0000000000000000000000000000000000000000000000000000000008152600401610363906107da565b60405180910390fd5b6001839080600181540180825580915050600190039060005260206000200160009091909190916101000a81548173ffffffffffffffffffffffffffffffffffffffff021916908373ffffffffffffffffffffffffffffffffffffffff160217905550505050565b8280546103e09061075c565b90600052602060002090601f0160209004810192826104025760008555610449565b82601f1061041b57805160ff1916838001178555610449565b82800160010185558215610449579182015b8281111561044857825182559160200191906001019061042d565b5b509050610456919061045a565b5090565b5b8082111561047357600081600090555060010161045b565b5090565b600080fd5b600080fd5b600080fd5b600080fd5b600080fd5b60008083601f8401126104a6576104a5610481565b5b8235905067ffffffffffffffff8111156104c3576104c2610486565b5b6020830191508360018202830111156104df576104de61048b565b5b9250929050565b6000806000806000806060878903121561050357610502610477565b5b600087013567ffffffffffffffff8111156105215761052061047c565b5b61052d89828a01610490565b9650965050602087013567ffffffffffffffff8111156105505761054f61047c565b5b61055c89828a01610490565b9450945050604087013567ffffffffffffffff81111561057f5761057e61047c565b5b61058b89828a01610490565b92509250509295509295509295565b600073ffffffffffffffffffffffffffffffffffffffff82169050919050565b60006105c58261059a565b9050919050565b6105d5816105ba565b81146105e057600080fd5b50565b6000813590506105f2816105cc565b92915050565b60008060006040848603121561061157610610610477565b5b600061061f868287016105e3565b935050602084013567ffffffffffffffff8111156106405761063f61047c565b5b61064c86828701610490565b92509250509250925092565b600082825260208201905092915050565b7f796f752063616e206e6f7420616464206f6666696369616c0000000000000000600082015250565b600061069f601883610658565b91506106aa82610669565b602082019050919050565b600060208201905081810360008301526106ce81610692565b9050919050565b600081905092915050565b82818337600083830152505050565b60006106fb83856106d5565b93506107088385846106e0565b82840190509392505050565b60006107218284866106ef565b91508190509392505050565b7f4e487b7100000000000000000000000000000000000000000000000000000000600052602260045260246000fd5b6000600282049050600182168061077457607f821691505b602082108114156107885761078761072d565b5b50919050565b7f6c6f63616c206e6f7420666f756e640000000000000000000000000000000000600082015250565b60006107c4600f83610658565b91506107cf8261078e565b602082019050919050565b600060208201905081810360008301526107f3816107b7565b905091905056fea2646970667358221220f959506be968fd9ae7e63d202edbdb3aa35c1a814592a614994f70529d24b39264736f6c63430008080033",
					"opcodes": "PUSH1 0x80 PUSH1 0x40 MSTORE CALLVALUE DUP1 ISZERO PUSH2 0x10 JUMPI PUSH1 0x0 DUP1 REVERT JUMPDEST POP CALLER PUSH1 0x0 DUP1 PUSH2 0x100 EXP DUP2 SLOAD DUP2 PUSH20 0xFFFFFFFFFFFFFFFFFFFFFFFFFFFFFFFFFFFFFFFF MUL NOT AND SWAP1 DUP4 PUSH20 0xFFFFFFFFFFFFFFFFFFFFFFFFFFFFFFFFFFFFFFFF AND MUL OR SWAP1 SSTORE POP PUSH2 0x830 DUP1 PUSH2 0x60 PUSH1 0x0 CODECOPY PUSH1 0x0 RETURN INVALID PUSH1 0x80 PUSH1 0x40 MSTORE CALLVALUE DUP1 ISZERO PUSH2 0x10 JUMPI PUSH1 0x0 DUP1 REVERT JUMPDEST POP PUSH1 0x4 CALLDATASIZE LT PUSH2 0x36 JUMPI PUSH1 0x0 CALLDATALOAD PUSH1 0xE0 SHR DUP1 PUSH4 0x6E12DC0E EQ PUSH2 0x3B JUMPI DUP1 PUSH4 0xE81DE400 EQ PUSH2 0x57 JUMPI JUMPDEST PUSH1 0x0 DUP1 REVERT JUMPDEST PUSH2 0x55 PUSH1 0x4 DUP1 CALLDATASIZE SUB DUP2 ADD SWAP1 PUSH2 0x50 SWAP2 SWAP1 PUSH2 0x4E6 JUMP JUMPDEST PUSH2 0x73 JUMP JUMPDEST STOP JUMPDEST PUSH2 0x71 PUSH1 0x4 DUP1 CALLDATASIZE SUB DUP2 ADD SWAP1 PUSH2 0x6C SWAP2 SWAP1 PUSH2 0x5F8 JUMP JUMPDEST PUSH2 0x26B JUMP JUMPDEST STOP JUMPDEST CALLER PUSH20 0xFFFFFFFFFFFFFFFFFFFFFFFFFFFFFFFFFFFFFFFF AND PUSH1 0x0 DUP1 SLOAD SWAP1 PUSH2 0x100 EXP SWAP1 DIV PUSH20 0xFFFFFFFFFFFFFFFFFFFFFFFFFFFFFFFFFFFFFFFF AND PUSH20 0xFFFFFFFFFFFFFFFFFFFFFFFFFFFFFFFFFFFFFFFF AND EQ ISZERO PUSH2 0x102 JUMPI PUSH1 0x40 MLOAD PUSH32 0x8C379A000000000000000000000000000000000000000000000000000000000 DUP2 MSTORE PUSH1 0x4 ADD PUSH2 0xF9 SWAP1 PUSH2 0x6B5 JUMP JUMPDEST PUSH1 0x40 MLOAD DUP1 SWAP2 SUB SWAP1 REVERT JUMPDEST PUSH1 0x40 MLOAD DUP1 PUSH1 0x60 ADD PUSH1 0x40 MSTORE DUP1 DUP8 DUP8 DUP1 DUP1 PUSH1 0x1F ADD PUSH1 0x20 DUP1 SWAP2 DIV MUL PUSH1 0x20 ADD PUSH1 0x40 MLOAD SWAP1 DUP2 ADD PUSH1 0x40 MSTORE DUP1 SWAP4 SWAP3 SWAP2 SWAP1 DUP2 DUP2 MSTORE PUSH1 0x20 ADD DUP4 DUP4 DUP1 DUP3 DUP5 CALLDATACOPY PUSH1 0x0 DUP2 DUP5 ADD MSTORE PUSH1 0x1F NOT PUSH1 0x1F DUP3 ADD AND SWAP1 POP DUP1 DUP4 ADD SWAP3 POP POP POP POP POP POP POP DUP2 MSTORE PUSH1 0x20 ADD DUP4 DUP4 DUP1 DUP1 PUSH1 0x1F ADD PUSH1 0x20 DUP1 SWAP2 DIV MUL PUSH1 0x20 ADD PUSH1 0x40 MLOAD SWAP1 DUP2 ADD PUSH1 0x40 MSTORE DUP1 SWAP4 SWAP3 SWAP2 SWAP1 DUP2 DUP2 MSTORE PUSH1 0x20 ADD DUP4 DUP4 DUP1 DUP3 DUP5 CALLDATACOPY PUSH1 0x0 DUP2 DUP5 ADD MSTORE PUSH1 0x1F NOT PUSH1 0x1F DUP3 ADD AND SWAP1 POP DUP1 DUP4 ADD SWAP3 POP POP POP POP POP POP POP DUP2 MSTORE PUSH1 0x20 ADD DUP6 DUP6 DUP1 DUP1 PUSH1 0x1F ADD PUSH1 0x20 DUP1 SWAP2 DIV MUL PUSH1 0x20 ADD PUSH1 0x40 MLOAD SWAP1 DUP2 ADD PUSH1 0x40 MSTORE DUP1 SWAP4 SWAP3 SWAP2 SWAP1 DUP2 DUP2 MSTORE PUSH1 0x20 ADD DUP4 DUP4 DUP1 DUP3 DUP5 CALLDATACOPY PUSH1 0x0 DUP2 DUP5 ADD MSTORE PUSH1 0x1F NOT PUSH1 0x1F DUP3 ADD AND SWAP1 POP DUP1 DUP4 ADD SWAP3 POP POP POP POP POP POP POP DUP2 MSTORE POP PUSH1 0x3 DUP6 DUP6 PUSH1 0x40 MLOAD PUSH2 0x1FB SWAP3 SWAP2 SWAP1 PUSH2 0x714 JUMP JUMPDEST SWAP1 DUP2 MSTORE PUSH1 0x20 ADD PUSH1 0x40 MLOAD DUP1 SWAP2 SUB SWAP1 KECCAK256 PUSH1 0x0 DUP3 ADD MLOAD DUP2 PUSH1 0x0 ADD SWAP1 DUP1 MLOAD SWAP1 PUSH1 0x20 ADD SWAP1 PUSH2 0x225 SWAP3 SWAP2 SWAP1 PUSH2 0x3D4 JUMP JUMPDEST POP PUSH1 0x20 DUP3 ADD MLOAD DUP2 PUSH1 0x1 ADD SWAP1 DUP1 MLOAD SWAP1 PUSH1 0x20 ADD SWAP1 PUSH2 0x242 SWAP3 SWAP2 SWAP1 PUSH2 0x3D4 JUMP JUMPDEST POP PUSH1 0x40 DUP3 ADD MLOAD DUP2 PUSH1 0x2 ADD SWAP1 DUP1 MLOAD SWAP1 PUSH1 0x20 ADD SWAP1 PUSH2 0x25F SWAP3 SWAP2 SWAP1 PUSH2 0x3D4 JUMP JUMPDEST POP SWAP1 POP POP POP POP POP POP POP POP JUMP JUMPDEST CALLER PUSH20 0xFFFFFFFFFFFFFFFFFFFFFFFFFFFFFFFFFFFFFFFF AND PUSH1 0x0 DUP1 SLOAD SWAP1 PUSH2 0x100 EXP SWAP1 DIV PUSH20 0xFFFFFFFFFFFFFFFFFFFFFFFFFFFFFFFFFFFFFFFF AND PUSH20 0xFFFFFFFFFFFFFFFFFFFFFFFFFFFFFFFFFFFFFFFF AND EQ ISZERO PUSH2 0x2FA JUMPI PUSH1 0x40 MLOAD PUSH32 0x8C379A000000000000000000000000000000000000000000000000000000000 DUP2 MSTORE PUSH1 0x4 ADD PUSH2 0x2F1 SWAP1 PUSH2 0x6B5 JUMP JUMPDEST PUSH1 0x40 MLOAD DUP1 SWAP2 SUB SWAP1 REVERT JUMPDEST PUSH1 0x0 PUSH1 0x3 DUP4 DUP4 PUSH1 0x40 MLOAD PUSH2 0x30E SWAP3 SWAP2 SWAP1 PUSH2 0x714 JUMP JUMPDEST SWAP1 DUP2 MSTORE PUSH1 0x20 ADD PUSH1 0x40 MLOAD DUP1 SWAP2 SUB SWAP1 KECCAK256 PUSH1 0x0 ADD DUP1 SLOAD PUSH2 0x32A SWAP1 PUSH2 0x75C JUMP JUMPDEST SWAP1 POP LT PUSH2 0x36C JUMPI PUSH1 0x40 MLOAD PUSH32 0x8C379A000000000000000000000000000000000000000000000000000000000 DUP2 MSTORE PUSH1 0x4 ADD PUSH2 0x363 SWAP1 PUSH2 0x7DA JUMP JUMPDEST PUSH1 0x40 MLOAD DUP1 SWAP2 SUB SWAP1 REVERT JUMPDEST PUSH1 0x1 DUP4 SWAP1 DUP1 PUSH1 0x1 DUP2 SLOAD ADD DUP1 DUP3 SSTORE DUP1 SWAP2 POP POP PUSH1 0x1 SWAP1 SUB SWAP1 PUSH1 0x0 MSTORE PUSH1 0x20 PUSH1 0x0 KECCAK256 ADD PUSH1 0x0 SWAP1 SWAP2 SWAP1 SWAP2 SWAP1 SWAP2 PUSH2 0x100 EXP DUP2 SLOAD DUP2 PUSH20 0xFFFFFFFFFFFFFFFFFFFFFFFFFFFFFFFFFFFFFFFF MUL NOT AND SWAP1 DUP4 PUSH20 0xFFFFFFFFFFFFFFFFFFFFFFFFFFFFFFFFFFFFFFFF AND MUL OR SWAP1 SSTORE POP POP POP POP JUMP JUMPDEST DUP3 DUP1 SLOAD PUSH2 0x3E0 SWAP1 PUSH2 0x75C JUMP JUMPDEST SWAP1 PUSH1 0x0 MSTORE PUSH1 0x20 PUSH1 0x0 KECCAK256 SWAP1 PUSH1 0x1F ADD PUSH1 0x20 SWAP1 DIV DUP2 ADD SWAP3 DUP3 PUSH2 0x402 JUMPI PUSH1 0x0 DUP6 SSTORE PUSH2 0x449 JUMP JUMPDEST DUP3 PUSH1 0x1F LT PUSH2 0x41B JUMPI DUP1 MLOAD PUSH1 0xFF NOT AND DUP4 DUP1 ADD OR DUP6 SSTORE PUSH2 0x449 JUMP JUMPDEST DUP3 DUP1 ADD PUSH1 0x1 ADD DUP6 SSTORE DUP3 ISZERO PUSH2 0x449 JUMPI SWAP2 DUP3 ADD JUMPDEST DUP3 DUP2 GT ISZERO PUSH2 0x448 JUMPI DUP3 MLOAD DUP3 SSTORE SWAP2 PUSH1 0x20 ADD SWAP2 SWAP1 PUSH1 0x1 ADD SWAP1 PUSH2 0x42D JUMP JUMPDEST JUMPDEST POP SWAP1 POP PUSH2 0x456 SWAP2 SWAP1 PUSH2 0x45A JUMP JUMPDEST POP SWAP1 JUMP JUMPDEST JUMPDEST DUP1 DUP3 GT ISZERO PUSH2 0x473 JUMPI PUSH1 0x0 DUP2 PUSH1 0x0 SWAP1 SSTORE POP PUSH1 0x1 ADD PUSH2 0x45B JUMP JUMPDEST POP SWAP1 JUMP JUMPDEST PUSH1 0x0 DUP1 REVERT JUMPDEST PUSH1 0x0 DUP1 REVERT JUMPDEST PUSH1 0x0 DUP1 REVERT JUMPDEST PUSH1 0x0 DUP1 REVERT JUMPDEST PUSH1 0x0 DUP1 REVERT JUMPDEST PUSH1 0x0 DUP1 DUP4 PUSH1 0x1F DUP5 ADD SLT PUSH2 0x4A6 JUMPI PUSH2 0x4A5 PUSH2 0x481 JUMP JUMPDEST JUMPDEST DUP3 CALLDATALOAD SWAP1 POP PUSH8 0xFFFFFFFFFFFFFFFF DUP2 GT ISZERO PUSH2 0x4C3 JUMPI PUSH2 0x4C2 PUSH2 0x486 JUMP JUMPDEST JUMPDEST PUSH1 0x20 DUP4 ADD SWAP2 POP DUP4 PUSH1 0x1 DUP3 MUL DUP4 ADD GT ISZERO PUSH2 0x4DF JUMPI PUSH2 0x4DE PUSH2 0x48B JUMP JUMPDEST JUMPDEST SWAP3 POP SWAP3 SWAP1 POP JUMP JUMPDEST PUSH1 0x0 DUP1 PUSH1 0x0 DUP1 PUSH1 0x0 DUP1 PUSH1 0x60 DUP8 DUP10 SUB SLT ISZERO PUSH2 0x503 JUMPI PUSH2 0x502 PUSH2 0x477 JUMP JUMPDEST JUMPDEST PUSH1 0x0 DUP8 ADD CALLDATALOAD PUSH8 0xFFFFFFFFFFFFFFFF DUP2 GT ISZERO PUSH2 0x521 JUMPI PUSH2 0x520 PUSH2 0x47C JUMP JUMPDEST JUMPDEST PUSH2 0x52D DUP10 DUP3 DUP11 ADD PUSH2 0x490 JUMP JUMPDEST SWAP7 POP SWAP7 POP POP PUSH1 0x20 DUP8 ADD CALLDATALOAD PUSH8 0xFFFFFFFFFFFFFFFF DUP2 GT ISZERO PUSH2 0x550 JUMPI PUSH2 0x54F PUSH2 0x47C JUMP JUMPDEST JUMPDEST PUSH2 0x55C DUP10 DUP3 DUP11 ADD PUSH2 0x490 JUMP JUMPDEST SWAP5 POP SWAP5 POP POP PUSH1 0x40 DUP8 ADD CALLDATALOAD PUSH8 0xFFFFFFFFFFFFFFFF DUP2 GT ISZERO PUSH2 0x57F JUMPI PUSH2 0x57E PUSH2 0x47C JUMP JUMPDEST JUMPDEST PUSH2 0x58B DUP10 DUP3 DUP11 ADD PUSH2 0x490 JUMP JUMPDEST SWAP3 POP SWAP3 POP POP SWAP3 SWAP6 POP SWAP3 SWAP6 POP SWAP3 SWAP6 JUMP JUMPDEST PUSH1 0x0 PUSH20 0xFFFFFFFFFFFFFFFFFFFFFFFFFFFFFFFFFFFFFFFF DUP3 AND SWAP1 POP SWAP2 SWAP1 POP JUMP JUMPDEST PUSH1 0x0 PUSH2 0x5C5 DUP3 PUSH2 0x59A JUMP JUMPDEST SWAP1 POP SWAP2 SWAP1 POP JUMP JUMPDEST PUSH2 0x5D5 DUP2 PUSH2 0x5BA JUMP JUMPDEST DUP2 EQ PUSH2 0x5E0 JUMPI PUSH1 0x0 DUP1 REVERT JUMPDEST POP JUMP JUMPDEST PUSH1 0x0 DUP2 CALLDATALOAD SWAP1 POP PUSH2 0x5F2 DUP2 PUSH2 0x5CC JUMP JUMPDEST SWAP3 SWAP2 POP POP JUMP JUMPDEST PUSH1 0x0 DUP1 PUSH1 0x0 PUSH1 0x40 DUP5 DUP7 SUB SLT ISZERO PUSH2 0x611 JUMPI PUSH2 0x610 PUSH2 0x477 JUMP JUMPDEST JUMPDEST PUSH1 0x0 PUSH2 0x61F DUP7 DUP3 DUP8 ADD PUSH2 0x5E3 JUMP JUMPDEST SWAP4 POP POP PUSH1 0x20 DUP5 ADD CALLDATALOAD PUSH8 0xFFFFFFFFFFFFFFFF DUP2 GT ISZERO PUSH2 0x640 JUMPI PUSH2 0x63F PUSH2 0x47C JUMP JUMPDEST JUMPDEST PUSH2 0x64C DUP7 DUP3 DUP8 ADD PUSH2 0x490 JUMP JUMPDEST SWAP3 POP SWAP3 POP POP SWAP3 POP SWAP3 POP SWAP3 JUMP JUMPDEST PUSH1 0x0 DUP3 DUP3 MSTORE PUSH1 0x20 DUP3 ADD SWAP1 POP SWAP3 SWAP2 POP POP JUMP JUMPDEST PUSH32 0x796F752063616E206E6F7420616464206F6666696369616C0000000000000000 PUSH1 0x0 DUP3 ADD MSTORE POP JUMP JUMPDEST PUSH1 0x0 PUSH2 0x69F PUSH1 0x18 DUP4 PUSH2 0x658 JUMP JUMPDEST SWAP2 POP PUSH2 0x6AA DUP3 PUSH2 0x669 JUMP JUMPDEST PUSH1 0x20 DUP3 ADD SWAP1 POP SWAP2 SWAP1 POP JUMP JUMPDEST PUSH1 0x0 PUSH1 0x20 DUP3 ADD SWAP1 POP DUP2 DUP2 SUB PUSH1 0x0 DUP4 ADD MSTORE PUSH2 0x6CE DUP2 PUSH2 0x692 JUMP JUMPDEST SWAP1 POP SWAP2 SWAP1 POP JUMP JUMPDEST PUSH1 0x0 DUP2 SWAP1 POP SWAP3 SWAP2 POP POP JUMP JUMPDEST DUP3 DUP2 DUP4 CALLDATACOPY PUSH1 0x0 DUP4 DUP4 ADD MSTORE POP POP POP JUMP JUMPDEST PUSH1 0x0 PUSH2 0x6FB DUP4 DUP6 PUSH2 0x6D5 JUMP JUMPDEST SWAP4 POP PUSH2 0x708 DUP4 DUP6 DUP5 PUSH2 0x6E0 JUMP JUMPDEST DUP3 DUP5 ADD SWAP1 POP SWAP4 SWAP3 POP POP POP JUMP JUMPDEST PUSH1 0x0 PUSH2 0x721 DUP3 DUP5 DUP7 PUSH2 0x6EF JUMP JUMPDEST SWAP2 POP DUP2 SWAP1 POP SWAP4 SWAP3 POP POP POP JUMP JUMPDEST PUSH32 0x4E487B7100000000000000000000000000000000000000000000000000000000 PUSH1 0x0 MSTORE PUSH1 0x22 PUSH1 0x4 MSTORE PUSH1 0x24 PUSH1 0x0 REVERT JUMPDEST PUSH1 0x0 PUSH1 0x2 DUP3 DIV SWAP1 POP PUSH1 0x1 DUP3 AND DUP1 PUSH2 0x774 JUMPI PUSH1 0x7F DUP3 AND SWAP2 POP JUMPDEST PUSH1 0x20 DUP3 LT DUP2 EQ ISZERO PUSH2 0x788 JUMPI PUSH2 0x787 PUSH2 0x72D JUMP JUMPDEST JUMPDEST POP SWAP2 SWAP1 POP JUMP JUMPDEST PUSH32 0x6C6F63616C206E6F7420666F756E640000000000000000000000000000000000 PUSH1 0x0 DUP3 ADD MSTORE POP JUMP JUMPDEST PUSH1 0x0 PUSH2 0x7C4 PUSH1 0xF DUP4 PUSH2 0x658 JUMP JUMPDEST SWAP2 POP PUSH2 0x7CF DUP3 PUSH2 0x78E JUMP JUMPDEST PUSH1 0x20 DUP3 ADD SWAP1 POP SWAP2 SWAP1 POP JUMP JUMPDEST PUSH1 0x0 PUSH1 0x20 DUP3 ADD SWAP1 POP DUP2 DUP2 SUB PUSH1 0x0 DUP4 ADD MSTORE PUSH2 0x7F3 DUP2 PUSH2 0x7B7 JUMP JUMPDEST SWAP1 POP SWAP2 SWAP1 POP JUMP INVALID LOG2 PUSH5 0x6970667358 0x22 SLT KECCAK256 0xF9 MSIZE POP PUSH12 0xE968FD9AE7E63D202EDBDB3A LOG3 0x5C BYTE DUP2 GASLIMIT SWAP3 0xA6 EQ SWAP10 0x4F PUSH17 0x529D24B39264736F6C6343000808003300 "
				},
				"gasEstimates": {
					"creation": {
						"codeDepositCost": "419200",
						"executionCost": "24721",
						"totalCost": "443921"
					},
					"external": {
						"accredictedNewOfficial(address,string)": "infinite",
						"addZone(string,string,string)": "infinite"
					}
				},
				"methodIdentifiers": {
					"accredictedNewOfficial(address,string)": "e81de400",
					"addZone(string,string,string)": "6e12dc0e"
				}
			},
			"storageLayout": {
				"storage": [
					{
						"astId": 4,
						"contract": "contracts/EVote.sol:EVote",
						"label": "ownerAddr",
						"offset": 0,
						"slot": "0",
						"type": "t_address"
					},
					{
						"astId": 7,
						"contract": "contracts/EVote.sol:EVote",
						"label": "accredictedOfficialAddr",
						"offset": 0,
						"slot": "1",
						"type": "t_array(t_address)dyn_storage"
					},
					{
						"astId": 12,
						"contract": "contracts/EVote.sol:EVote",
						"label": "accredictedOfficialDetails",
						"offset": 0,
						"slot": "2",
						"type": "t_mapping(t_address,t_struct(Official)102_storage)"
					},
					{
						"astId": 17,
						"contract": "contracts/EVote.sol:EVote",
						"label": "accredictedZone",
						"offset": 0,
						"slot": "3",
						"type": "t_mapping(t_string_memory_ptr,t_struct(VoteZone)109_storage)"
					}
				],
				"types": {
					"t_address": {
						"encoding": "inplace",
						"label": "address",
						"numberOfBytes": "20"
					},
					"t_array(t_address)dyn_storage": {
						"base": "t_address",
						"encoding": "dynamic_array",
						"label": "address[]",
						"numberOfBytes": "32"
					},
					"t_bool": {
						"encoding": "inplace",
						"label": "bool",
						"numberOfBytes": "1"
					},
					"t_mapping(t_address,t_struct(Official)102_storage)": {
						"encoding": "mapping",
						"key": "t_address",
						"label": "mapping(address => struct Official)",
						"numberOfBytes": "32",
						"value": "t_struct(Official)102_storage"
					},
					"t_mapping(t_string_memory_ptr,t_struct(VoteZone)109_storage)": {
						"encoding": "mapping",
						"key": "t_string_memory_ptr",
						"label": "mapping(string => struct VoteZone)",
						"numberOfBytes": "32",
						"value": "t_struct(VoteZone)109_storage"
					},
					"t_string_memory_ptr": {
						"encoding": "bytes",
						"label": "string",
						"numberOfBytes": "32"
					},
					"t_string_storage": {
						"encoding": "bytes",
						"label": "string",
						"numberOfBytes": "32"
					},
					"t_struct(Official)102_storage": {
						"encoding": "inplace",
						"label": "struct Official",
						"members": [
							{
								"astId": 95,
								"contract": "contracts/EVote.sol:EVote",
								"label": "name",
								"offset": 0,
								"slot": "0",
								"type": "t_string_storage"
							},
							{
								"astId": 97,
								"contract": "contracts/EVote.sol:EVote",
								"label": "zoneCode",
								"offset": 0,
								"slot": "1",
								"type": "t_string_storage"
							},
							{
								"astId": 99,
								"contract": "contracts/EVote.sol:EVote",
								"label": "officialAddr",
								"offset": 0,
								"slot": "2",
								"type": "t_address"
							},
							{
								"astId": 101,
								"contract": "contracts/EVote.sol:EVote",
								"label": "isActive",
								"offset": 20,
								"slot": "2",
								"type": "t_bool"
							}
						],
						"numberOfBytes": "96"
					},
					"t_struct(VoteZone)109_storage": {
						"encoding": "inplace",
						"label": "struct VoteZone",
						"members": [
							{
								"astId": 104,
								"contract": "contracts/EVote.sol:EVote",
								"label": "lga",
								"offset": 0,
								"slot": "0",
								"type": "t_string_storage"
							},
							{
								"astId": 106,
								"contract": "contracts/EVote.sol:EVote",
								"label": "state",
								"offset": 0,
								"slot": "1",
								"type": "t_string_storage"
							},
							{
								"astId": 108,
								"contract": "contracts/EVote.sol:EVote",
								"label": "zoneCode",
								"offset": 0,
								"slot": "2",
								"type": "t_string_storage"
							}
						],
						"numberOfBytes": "96"
					}
				}
			},
			"userdoc": {
				"kind": "user",
				"methods": {},
				"version": 1
			}
		}
	}
}