{
	"contracts/EVote.sol": {
		"EVote": {
			"abi": [
				{
					"inputs": [],
					"stateMutability": "nonpayable",
					"type": "constructor"
				},
				{
					"inputs": [
						{
							"internalType": "address",
							"name": "officialAddress",
							"type": "address"
						},
						{
							"internalType": "string",
							"name": "name",
							"type": "string"
						},
						{
							"internalType": "string",
							"name": "zoneCode",
							"type": "string"
						}
					],
					"name": "accredictedNewOfficial",
					"outputs": [],
					"stateMutability": "nonpayable",
					"type": "function"
				},
				{
					"inputs": [
						{
							"internalType": "string",
							"name": "lga",
							"type": "string"
						},
						{
							"internalType": "string",
							"name": "code",
							"type": "string"
						},
						{
							"internalType": "string",
							"name": "state",
							"type": "string"
						}
					],
					"name": "addZone",
					"outputs": [],
					"stateMutability": "nonpayable",
					"type": "function"
				}
			],
			"devdoc": {
				"kind": "dev",
				"methods": {},
				"version": 1
			},
			"evm": {
				"assembly": "    /* \"contracts/EVote.sol\":371:1557  contract EVote{... */\n  mstore(0x40, 0x80)\n    /* \"contracts/EVote.sol\":860:913  constructor (){... */\n  callvalue\n  dup1\n  iszero\n  tag_1\n  jumpi\n  0x00\n  dup1\n  revert\ntag_1:\n  pop\n    /* \"contracts/EVote.sol\":896:906  msg.sender */\n  caller\n    /* \"contracts/EVote.sol\":884:893  ownerAddr */\n  0x00\n  dup1\n    /* \"contracts/EVote.sol\":884:906  ownerAddr = msg.sender */\n  0x0100\n  exp\n  dup2\n  sload\n  dup2\n  0xffffffffffffffffffffffffffffffffffffffff\n  mul\n  not\n  and\n  swap1\n  dup4\n  0xffffffffffffffffffffffffffffffffffffffff\n  and\n  mul\n  or\n  swap1\n  sstore\n  pop\n    /* \"contracts/EVote.sol\":371:1557  contract EVote{... */\n  dataSize(sub_0)\n  dup1\n  dataOffset(sub_0)\n  0x00\n  codecopy\n  0x00\n  return\nstop\n\nsub_0: assembly {\n        /* \"contracts/EVote.sol\":371:1557  contract EVote{... */\n      mstore(0x40, 0x80)\n      callvalue\n      dup1\n      iszero\n      tag_1\n      jumpi\n      0x00\n      dup1\n      revert\n    tag_1:\n      pop\n      jumpi(tag_2, lt(calldatasize, 0x04))\n      shr(0xe0, calldataload(0x00))\n      dup1\n      0x6e12dc0e\n      eq\n      tag_3\n      jumpi\n      dup1\n      0xb7a455e6\n      eq\n      tag_4\n      jumpi\n    tag_2:\n      0x00\n      dup1\n      revert\n        /* \"contracts/EVote.sol\":919:1112  function addZone(string calldata lga, string calldata code, string calldata state)  external isOwnerMod checkLocalGovtCode(code){... */\n    tag_3:\n      tag_5\n      0x04\n      dup1\n      calldatasize\n      sub\n      dup2\n      add\n      swap1\n      tag_6\n      swap2\n      swap1\n      tag_7\n      jump\t// in\n    tag_6:\n      tag_8\n      jump\t// in\n    tag_5:\n      stop\n        /* \"contracts/EVote.sol\":1118:1554  function accredictedNewOfficial(address officialAddress, string calldata name, string calldata zoneCode) external isOwnerMod checkLocalGovtCode(zoneCode){... */\n    tag_4:\n      tag_9\n      0x04\n      dup1\n      calldatasize\n      sub\n      dup2\n      add\n      swap1\n      tag_10\n      swap2\n      swap1\n      tag_11\n      jump\t// in\n    tag_10:\n      tag_12\n      jump\t// in\n    tag_9:\n      stop\n        /* \"contracts/EVote.sol\":919:1112  function addZone(string calldata lga, string calldata code, string calldata state)  external isOwnerMod checkLocalGovtCode(code){... */\n    tag_8:\n        /* \"contracts/EVote.sol\":624:634  msg.sender */\n      caller\n        /* \"contracts/EVote.sol\":611:634  ownerAddr != msg.sender */\n      0xffffffffffffffffffffffffffffffffffffffff\n      and\n        /* \"contracts/EVote.sol\":611:620  ownerAddr */\n      0x00\n      dup1\n      sload\n      swap1\n      0x0100\n      exp\n      swap1\n      div\n      0xffffffffffffffffffffffffffffffffffffffff\n      and\n        /* \"contracts/EVote.sol\":611:634  ownerAddr != msg.sender */\n      0xffffffffffffffffffffffffffffffffffffffff\n      and\n      eq\n      iszero\n        /* \"contracts/EVote.sol\":603:662  require(ownerAddr != msg.sender,\"you can not add official\") */\n      tag_14\n      jumpi\n      mload(0x40)\n      0x08c379a000000000000000000000000000000000000000000000000000000000\n      dup2\n      mstore\n      0x04\n      add\n      tag_15\n      swap1\n      tag_16\n      jump\t// in\n    tag_15:\n      mload(0x40)\n      dup1\n      swap2\n      sub\n      swap1\n      revert\n    tag_14:\n        /* \"contracts/EVote.sol\":1042:1046  code */\n      dup4\n      dup4\n        /* \"contracts/EVote.sol\":795:796  0 */\n      0x00\n        /* \"contracts/EVote.sol\":759:774  accredictedZone */\n      0x03\n        /* \"contracts/EVote.sol\":775:779  code */\n      dup4\n      dup4\n        /* \"contracts/EVote.sol\":759:780  accredictedZone[code] */\n      mload(0x40)\n      tag_18\n      swap3\n      swap2\n      swap1\n      tag_19\n      jump\t// in\n    tag_18:\n      swap1\n      dup2\n      mstore\n      0x20\n      add\n      mload(0x40)\n      dup1\n      swap2\n      sub\n      swap1\n      keccak256\n        /* \"contracts/EVote.sol\":759:784  accredictedZone[code].lga */\n      0x00\n      add\n        /* \"contracts/EVote.sol\":753:792  bytes(accredictedZone[code].lga).length */\n      dup1\n      sload\n      tag_20\n      swap1\n      tag_21\n      jump\t// in\n    tag_20:\n      swap1\n      pop\n        /* \"contracts/EVote.sol\":753:796  bytes(accredictedZone[code].lga).length < 0 */\n      lt\n        /* \"contracts/EVote.sol\":745:832  require(bytes(accredictedZone[code].lga).length < 0 , \"local government already exist\") */\n      tag_22\n      jumpi\n      mload(0x40)\n      0x08c379a000000000000000000000000000000000000000000000000000000000\n      dup2\n      mstore\n      0x04\n      add\n      tag_23\n      swap1\n      tag_24\n      jump\t// in\n    tag_23:\n      mload(0x40)\n      dup1\n      swap2\n      sub\n      swap1\n      revert\n    tag_22:\n        /* \"contracts/EVote.sol\":1081:1105  VoteZone(lga,state,code) */\n      mload(0x40)\n      dup1\n      0x60\n      add\n      0x40\n      mstore\n      dup1\n        /* \"contracts/EVote.sol\":1090:1093  lga */\n      dup10\n      dup10\n        /* \"contracts/EVote.sol\":1081:1105  VoteZone(lga,state,code) */\n      dup1\n      dup1\n      0x1f\n      add\n      0x20\n      dup1\n      swap2\n      div\n      mul\n      0x20\n      add\n      mload(0x40)\n      swap1\n      dup2\n      add\n      0x40\n      mstore\n      dup1\n      swap4\n      swap3\n      swap2\n      swap1\n      dup2\n      dup2\n      mstore\n      0x20\n      add\n      dup4\n      dup4\n      dup1\n      dup3\n      dup5\n      calldatacopy\n      0x00\n      dup2\n      dup5\n      add\n      mstore\n      not(0x1f)\n      0x1f\n      dup3\n      add\n      and\n      swap1\n      pop\n      dup1\n      dup4\n      add\n      swap3\n      pop\n      pop\n      pop\n      pop\n      pop\n      pop\n      pop\n      dup2\n      mstore\n      0x20\n      add\n        /* \"contracts/EVote.sol\":1094:1099  state */\n      dup6\n      dup6\n        /* \"contracts/EVote.sol\":1081:1105  VoteZone(lga,state,code) */\n      dup1\n      dup1\n      0x1f\n      add\n      0x20\n      dup1\n      swap2\n      div\n      mul\n      0x20\n      add\n      mload(0x40)\n      swap1\n      dup2\n      add\n      0x40\n      mstore\n      dup1\n      swap4\n      swap3\n      swap2\n      swap1\n      dup2\n      dup2\n      mstore\n      0x20\n      add\n      dup4\n      dup4\n      dup1\n      dup3\n      dup5\n      calldatacopy\n      0x00\n      dup2\n      dup5\n      add\n      mstore\n      not(0x1f)\n      0x1f\n      dup3\n      add\n      and\n      swap1\n      pop\n      dup1\n      dup4\n      add\n      swap3\n      pop\n      pop\n      pop\n      pop\n      pop\n      pop\n      pop\n      dup2\n      mstore\n      0x20\n      add\n        /* \"contracts/EVote.sol\":1100:1104  code */\n      dup8\n      dup8\n        /* \"contracts/EVote.sol\":1081:1105  VoteZone(lga,state,code) */\n      dup1\n      dup1\n      0x1f\n      add\n      0x20\n      dup1\n      swap2\n      div\n      mul\n      0x20\n      add\n      mload(0x40)\n      swap1\n      dup2\n      add\n      0x40\n      mstore\n      dup1\n      swap4\n      swap3\n      swap2\n      swap1\n      dup2\n      dup2\n      mstore\n      0x20\n      add\n      dup4\n      dup4\n      dup1\n      dup3\n      dup5\n      calldatacopy\n      0x00\n      dup2\n      dup5\n      add\n      mstore\n      not(0x1f)\n      0x1f\n      dup3\n      add\n      and\n      swap1\n      pop\n      dup1\n      dup4\n      add\n      swap3\n      pop\n      pop\n      pop\n      pop\n      pop\n      pop\n      pop\n      dup2\n      mstore\n      pop\n        /* \"contracts/EVote.sol\":1057:1072  accredictedZone */\n      0x03\n        /* \"contracts/EVote.sol\":1073:1077  code */\n      dup8\n      dup8\n        /* \"contracts/EVote.sol\":1057:1078  accredictedZone[code] */\n      mload(0x40)\n      tag_26\n      swap3\n      swap2\n      swap1\n      tag_19\n      jump\t// in\n    tag_26:\n      swap1\n      dup2\n      mstore\n      0x20\n      add\n      mload(0x40)\n      dup1\n      swap2\n      sub\n      swap1\n      keccak256\n        /* \"contracts/EVote.sol\":1057:1105  accredictedZone[code] = VoteZone(lga,state,code) */\n      0x00\n      dup3\n      add\n      mload\n      dup2\n      0x00\n      add\n      swap1\n      dup1\n      mload\n      swap1\n      0x20\n      add\n      swap1\n      tag_27\n      swap3\n      swap2\n      swap1\n      tag_28\n      jump\t// in\n    tag_27:\n      pop\n      0x20\n      dup3\n      add\n      mload\n      dup2\n      0x01\n      add\n      swap1\n      dup1\n      mload\n      swap1\n      0x20\n      add\n      swap1\n      tag_29\n      swap3\n      swap2\n      swap1\n      tag_28\n      jump\t// in\n    tag_29:\n      pop\n      0x40\n      dup3\n      add\n      mload\n      dup2\n      0x02\n      add\n      swap1\n      dup1\n      mload\n      swap1\n      0x20\n      add\n      swap1\n      tag_30\n      swap3\n      swap2\n      swap1\n      tag_28\n      jump\t// in\n    tag_30:\n      pop\n      swap1\n      pop\n      pop\n        /* \"contracts/EVote.sol\":672:673  _ */\n      pop\n      pop\n        /* \"contracts/EVote.sol\":919:1112  function addZone(string calldata lga, string calldata code, string calldata state)  external isOwnerMod checkLocalGovtCode(code){... */\n      pop\n      pop\n      pop\n      pop\n      pop\n      pop\n      jump\t// out\n        /* \"contracts/EVote.sol\":1118:1554  function accredictedNewOfficial(address officialAddress, string calldata name, string calldata zoneCode) external isOwnerMod checkLocalGovtCode(zoneCode){... */\n    tag_12:\n        /* \"contracts/EVote.sol\":624:634  msg.sender */\n      caller\n        /* \"contracts/EVote.sol\":611:634  ownerAddr != msg.sender */\n      0xffffffffffffffffffffffffffffffffffffffff\n      and\n        /* \"contracts/EVote.sol\":611:620  ownerAddr */\n      0x00\n      dup1\n      sload\n      swap1\n      0x0100\n      exp\n      swap1\n      div\n      0xffffffffffffffffffffffffffffffffffffffff\n      and\n        /* \"contracts/EVote.sol\":611:634  ownerAddr != msg.sender */\n      0xffffffffffffffffffffffffffffffffffffffff\n      and\n      eq\n      iszero\n        /* \"contracts/EVote.sol\":603:662  require(ownerAddr != msg.sender,\"you can not add official\") */\n      tag_32\n      jumpi\n      mload(0x40)\n      0x08c379a000000000000000000000000000000000000000000000000000000000\n      dup2\n      mstore\n      0x04\n      add\n      tag_33\n      swap1\n      tag_16\n      jump\t// in\n    tag_33:\n      mload(0x40)\n      dup1\n      swap2\n      sub\n      swap1\n      revert\n    tag_32:\n        /* \"contracts/EVote.sol\":1262:1270  zoneCode */\n      dup2\n      dup2\n        /* \"contracts/EVote.sol\":795:796  0 */\n      0x00\n        /* \"contracts/EVote.sol\":759:774  accredictedZone */\n      0x03\n        /* \"contracts/EVote.sol\":775:779  code */\n      dup4\n      dup4\n        /* \"contracts/EVote.sol\":759:780  accredictedZone[code] */\n      mload(0x40)\n      tag_35\n      swap3\n      swap2\n      swap1\n      tag_19\n      jump\t// in\n    tag_35:\n      swap1\n      dup2\n      mstore\n      0x20\n      add\n      mload(0x40)\n      dup1\n      swap2\n      sub\n      swap1\n      keccak256\n        /* \"contracts/EVote.sol\":759:784  accredictedZone[code].lga */\n      0x00\n      add\n        /* \"contracts/EVote.sol\":753:792  bytes(accredictedZone[code].lga).length */\n      dup1\n      sload\n      tag_36\n      swap1\n      tag_21\n      jump\t// in\n    tag_36:\n      swap1\n      pop\n        /* \"contracts/EVote.sol\":753:796  bytes(accredictedZone[code].lga).length < 0 */\n      lt\n        /* \"contracts/EVote.sol\":745:832  require(bytes(accredictedZone[code].lga).length < 0 , \"local government already exist\") */\n      tag_37\n      jumpi\n      mload(0x40)\n      0x08c379a000000000000000000000000000000000000000000000000000000000\n      dup2\n      mstore\n      0x04\n      add\n      tag_38\n      swap1\n      tag_24\n      jump\t// in\n    tag_38:\n      mload(0x40)\n      dup1\n      swap2\n      sub\n      swap1\n      revert\n    tag_37:\n        /* \"contracts/EVote.sol\":1281:1304  accredictedOfficialAddr */\n      0x01\n        /* \"contracts/EVote.sol\":1310:1325  officialAddress */\n      dup8\n        /* \"contracts/EVote.sol\":1281:1326  accredictedOfficialAddr.push(officialAddress) */\n      swap1\n      dup1\n      0x01\n      dup2\n      sload\n      add\n      dup1\n      dup3\n      sstore\n      dup1\n      swap2\n      pop\n      pop\n      0x01\n      swap1\n      sub\n      swap1\n      0x00\n      mstore\n      keccak256(0x00, 0x20)\n      add\n      0x00\n      swap1\n      swap2\n      swap1\n      swap2\n      swap1\n      swap2\n      0x0100\n      exp\n      dup2\n      sload\n      dup2\n      0xffffffffffffffffffffffffffffffffffffffff\n      mul\n      not\n      and\n      swap1\n      dup4\n      0xffffffffffffffffffffffffffffffffffffffff\n      and\n      mul\n      or\n      swap1\n      sstore\n      pop\n        /* \"contracts/EVote.sol\":1383:1497  Official({... */\n      mload(0x40)\n      dup1\n      0x80\n      add\n      0x40\n      mstore\n      dup1\n        /* \"contracts/EVote.sol\":1409:1413  name */\n      dup8\n      dup8\n        /* \"contracts/EVote.sol\":1383:1497  Official({... */\n      dup1\n      dup1\n      0x1f\n      add\n      0x20\n      dup1\n      swap2\n      div\n      mul\n      0x20\n      add\n      mload(0x40)\n      swap1\n      dup2\n      add\n      0x40\n      mstore\n      dup1\n      swap4\n      swap3\n      swap2\n      swap1\n      dup2\n      dup2\n      mstore\n      0x20\n      add\n      dup4\n      dup4\n      dup1\n      dup3\n      dup5\n      calldatacopy\n      0x00\n      dup2\n      dup5\n      add\n      mstore\n      not(0x1f)\n      0x1f\n      dup3\n      add\n      and\n      swap1\n      pop\n      dup1\n      dup4\n      add\n      swap3\n      pop\n      pop\n      pop\n      pop\n      pop\n      pop\n      pop\n      dup2\n      mstore\n      0x20\n      add\n        /* \"contracts/EVote.sol\":1424:1432  zoneCode */\n      dup6\n      dup6\n        /* \"contracts/EVote.sol\":1383:1497  Official({... */\n      dup1\n      dup1\n      0x1f\n      add\n      0x20\n      dup1\n      swap2\n      div\n      mul\n      0x20\n      add\n      mload(0x40)\n      swap1\n      dup2\n      add\n      0x40\n      mstore\n      dup1\n      swap4\n      swap3\n      swap2\n      swap1\n      dup2\n      dup2\n      mstore\n      0x20\n      add\n      dup4\n      dup4\n      dup1\n      dup3\n      dup5\n      calldatacopy\n      0x00\n      dup2\n      dup5\n      add\n      mstore\n      not(0x1f)\n      0x1f\n      dup3\n      add\n      and\n      swap1\n      pop\n      dup1\n      dup4\n      add\n      swap3\n      pop\n      pop\n      pop\n      pop\n      pop\n      pop\n      pop\n      dup2\n      mstore\n      0x20\n      add\n        /* \"contracts/EVote.sol\":1456:1471  officialAddress */\n      dup9\n        /* \"contracts/EVote.sol\":1383:1497  Official({... */\n      0xffffffffffffffffffffffffffffffffffffffff\n      and\n      dup2\n      mstore\n      0x20\n      add\n        /* \"contracts/EVote.sol\":1491:1495  true */\n      0x01\n        /* \"contracts/EVote.sol\":1383:1497  Official({... */\n      iszero\n      iszero\n      dup2\n      mstore\n      pop\n        /* \"contracts/EVote.sol\":1337:1363  accredictedOfficialDetails */\n      0x02\n        /* \"contracts/EVote.sol\":1337:1380  accredictedOfficialDetails[officialAddress] */\n      0x00\n        /* \"contracts/EVote.sol\":1364:1379  officialAddress */\n      dup10\n        /* \"contracts/EVote.sol\":1337:1380  accredictedOfficialDetails[officialAddress] */\n      0xffffffffffffffffffffffffffffffffffffffff\n      and\n      0xffffffffffffffffffffffffffffffffffffffff\n      and\n      dup2\n      mstore\n      0x20\n      add\n      swap1\n      dup2\n      mstore\n      0x20\n      add\n      0x00\n      keccak256\n        /* \"contracts/EVote.sol\":1337:1497  accredictedOfficialDetails[officialAddress] = Official({... */\n      0x00\n      dup3\n      add\n      mload\n      dup2\n      0x00\n      add\n      swap1\n      dup1\n      mload\n      swap1\n      0x20\n      add\n      swap1\n      tag_41\n      swap3\n      swap2\n      swap1\n      tag_28\n      jump\t// in\n    tag_41:\n      pop\n      0x20\n      dup3\n      add\n      mload\n      dup2\n      0x01\n      add\n      swap1\n      dup1\n      mload\n      swap1\n      0x20\n      add\n      swap1\n      tag_42\n      swap3\n      swap2\n      swap1\n      tag_28\n      jump\t// in\n    tag_42:\n      pop\n      0x40\n      dup3\n      add\n      mload\n      dup2\n      0x02\n      add\n      exp(0x0100, 0x00)\n      dup2\n      sload\n      dup2\n      0xffffffffffffffffffffffffffffffffffffffff\n      mul\n      not\n      and\n      swap1\n      dup4\n      0xffffffffffffffffffffffffffffffffffffffff\n      and\n      mul\n      or\n      swap1\n      sstore\n      pop\n      0x60\n      dup3\n      add\n      mload\n      dup2\n      0x02\n      add\n      exp(0x0100, 0x14)\n      dup2\n      sload\n      dup2\n      0xff\n      mul\n      not\n      and\n      swap1\n      dup4\n      iszero\n      iszero\n      mul\n      or\n      swap1\n      sstore\n      pop\n      swap1\n      pop\n      pop\n        /* \"contracts/EVote.sol\":672:673  _ */\n      pop\n      pop\n        /* \"contracts/EVote.sol\":1118:1554  function accredictedNewOfficial(address officialAddress, string calldata name, string calldata zoneCode) external isOwnerMod checkLocalGovtCode(zoneCode){... */\n      pop\n      pop\n      pop\n      pop\n      pop\n      jump\t// out\n    tag_28:\n      dup3\n      dup1\n      sload\n      tag_43\n      swap1\n      tag_21\n      jump\t// in\n    tag_43:\n      swap1\n      0x00\n      mstore\n      keccak256(0x00, 0x20)\n      swap1\n      0x1f\n      add\n      0x20\n      swap1\n      div\n      dup2\n      add\n      swap3\n      dup3\n      tag_45\n      jumpi\n      0x00\n      dup6\n      sstore\n      jump(tag_44)\n    tag_45:\n      dup3\n      0x1f\n      lt\n      tag_46\n      jumpi\n      dup1\n      mload\n      not(0xff)\n      and\n      dup4\n      dup1\n      add\n      or\n      dup6\n      sstore\n      jump(tag_44)\n    tag_46:\n      dup3\n      dup1\n      add\n      0x01\n      add\n      dup6\n      sstore\n      dup3\n      iszero\n      tag_44\n      jumpi\n      swap2\n      dup3\n      add\n    tag_47:\n      dup3\n      dup2\n      gt\n      iszero\n      tag_48\n      jumpi\n      dup3\n      mload\n      dup3\n      sstore\n      swap2\n      0x20\n      add\n      swap2\n      swap1\n      0x01\n      add\n      swap1\n      jump(tag_47)\n    tag_48:\n    tag_44:\n      pop\n      swap1\n      pop\n      tag_49\n      swap2\n      swap1\n      tag_50\n      jump\t// in\n    tag_49:\n      pop\n      swap1\n      jump\t// out\n    tag_50:\n    tag_51:\n      dup1\n      dup3\n      gt\n      iszero\n      tag_52\n      jumpi\n      0x00\n      dup2\n      0x00\n      swap1\n      sstore\n      pop\n      0x01\n      add\n      jump(tag_51)\n    tag_52:\n      pop\n      swap1\n      jump\t// out\n        /* \"#utility.yul\":88:205   */\n    tag_54:\n        /* \"#utility.yul\":197:198   */\n      0x00\n        /* \"#utility.yul\":194:195   */\n      dup1\n        /* \"#utility.yul\":187:199   */\n      revert\n        /* \"#utility.yul\":211:328   */\n    tag_55:\n        /* \"#utility.yul\":320:321   */\n      0x00\n        /* \"#utility.yul\":317:318   */\n      dup1\n        /* \"#utility.yul\":310:322   */\n      revert\n        /* \"#utility.yul\":334:451   */\n    tag_56:\n        /* \"#utility.yul\":443:444   */\n      0x00\n        /* \"#utility.yul\":440:441   */\n      dup1\n        /* \"#utility.yul\":433:445   */\n      revert\n        /* \"#utility.yul\":457:574   */\n    tag_57:\n        /* \"#utility.yul\":566:567   */\n      0x00\n        /* \"#utility.yul\":563:564   */\n      dup1\n        /* \"#utility.yul\":556:568   */\n      revert\n        /* \"#utility.yul\":580:697   */\n    tag_58:\n        /* \"#utility.yul\":689:690   */\n      0x00\n        /* \"#utility.yul\":686:687   */\n      dup1\n        /* \"#utility.yul\":679:691   */\n      revert\n        /* \"#utility.yul\":717:1270   */\n    tag_59:\n        /* \"#utility.yul\":775:783   */\n      0x00\n        /* \"#utility.yul\":785:791   */\n      dup1\n        /* \"#utility.yul\":835:838   */\n      dup4\n        /* \"#utility.yul\":828:832   */\n      0x1f\n        /* \"#utility.yul\":820:826   */\n      dup5\n        /* \"#utility.yul\":816:833   */\n      add\n        /* \"#utility.yul\":812:839   */\n      slt\n        /* \"#utility.yul\":802:924   */\n      tag_81\n      jumpi\n        /* \"#utility.yul\":843:922   */\n      tag_82\n      tag_56\n      jump\t// in\n    tag_82:\n        /* \"#utility.yul\":802:924   */\n    tag_81:\n        /* \"#utility.yul\":956:962   */\n      dup3\n        /* \"#utility.yul\":943:963   */\n      calldataload\n        /* \"#utility.yul\":933:963   */\n      swap1\n      pop\n        /* \"#utility.yul\":986:1004   */\n      0xffffffffffffffff\n        /* \"#utility.yul\":978:984   */\n      dup2\n        /* \"#utility.yul\":975:1005   */\n      gt\n        /* \"#utility.yul\":972:1089   */\n      iszero\n      tag_83\n      jumpi\n        /* \"#utility.yul\":1008:1087   */\n      tag_84\n      tag_57\n      jump\t// in\n    tag_84:\n        /* \"#utility.yul\":972:1089   */\n    tag_83:\n        /* \"#utility.yul\":1122:1126   */\n      0x20\n        /* \"#utility.yul\":1114:1120   */\n      dup4\n        /* \"#utility.yul\":1110:1127   */\n      add\n        /* \"#utility.yul\":1098:1127   */\n      swap2\n      pop\n        /* \"#utility.yul\":1176:1179   */\n      dup4\n        /* \"#utility.yul\":1168:1172   */\n      0x01\n        /* \"#utility.yul\":1160:1166   */\n      dup3\n        /* \"#utility.yul\":1156:1173   */\n      mul\n        /* \"#utility.yul\":1146:1154   */\n      dup4\n        /* \"#utility.yul\":1142:1174   */\n      add\n        /* \"#utility.yul\":1139:1180   */\n      gt\n        /* \"#utility.yul\":1136:1264   */\n      iszero\n      tag_85\n      jumpi\n        /* \"#utility.yul\":1183:1262   */\n      tag_86\n      tag_58\n      jump\t// in\n    tag_86:\n        /* \"#utility.yul\":1136:1264   */\n    tag_85:\n        /* \"#utility.yul\":717:1270   */\n      swap3\n      pop\n      swap3\n      swap1\n      pop\n      jump\t// out\n        /* \"#utility.yul\":1276:2495   */\n    tag_7:\n        /* \"#utility.yul\":1389:1395   */\n      0x00\n        /* \"#utility.yul\":1397:1403   */\n      dup1\n        /* \"#utility.yul\":1405:1411   */\n      0x00\n        /* \"#utility.yul\":1413:1419   */\n      dup1\n        /* \"#utility.yul\":1421:1427   */\n      0x00\n        /* \"#utility.yul\":1429:1435   */\n      dup1\n        /* \"#utility.yul\":1478:1480   */\n      0x60\n        /* \"#utility.yul\":1466:1475   */\n      dup8\n        /* \"#utility.yul\":1457:1464   */\n      dup10\n        /* \"#utility.yul\":1453:1476   */\n      sub\n        /* \"#utility.yul\":1449:1481   */\n      slt\n        /* \"#utility.yul\":1446:1565   */\n      iszero\n      tag_88\n      jumpi\n        /* \"#utility.yul\":1484:1563   */\n      tag_89\n      tag_54\n      jump\t// in\n    tag_89:\n        /* \"#utility.yul\":1446:1565   */\n    tag_88:\n        /* \"#utility.yul\":1632:1633   */\n      0x00\n        /* \"#utility.yul\":1621:1630   */\n      dup8\n        /* \"#utility.yul\":1617:1634   */\n      add\n        /* \"#utility.yul\":1604:1635   */\n      calldataload\n        /* \"#utility.yul\":1662:1680   */\n      0xffffffffffffffff\n        /* \"#utility.yul\":1654:1660   */\n      dup2\n        /* \"#utility.yul\":1651:1681   */\n      gt\n        /* \"#utility.yul\":1648:1765   */\n      iszero\n      tag_90\n      jumpi\n        /* \"#utility.yul\":1684:1763   */\n      tag_91\n      tag_55\n      jump\t// in\n    tag_91:\n        /* \"#utility.yul\":1648:1765   */\n    tag_90:\n        /* \"#utility.yul\":1797:1862   */\n      tag_92\n        /* \"#utility.yul\":1854:1861   */\n      dup10\n        /* \"#utility.yul\":1845:1851   */\n      dup3\n        /* \"#utility.yul\":1834:1843   */\n      dup11\n        /* \"#utility.yul\":1830:1852   */\n      add\n        /* \"#utility.yul\":1797:1862   */\n      tag_59\n      jump\t// in\n    tag_92:\n        /* \"#utility.yul\":1779:1862   */\n      swap7\n      pop\n      swap7\n      pop\n        /* \"#utility.yul\":1575:1872   */\n      pop\n        /* \"#utility.yul\":1939:1941   */\n      0x20\n        /* \"#utility.yul\":1928:1937   */\n      dup8\n        /* \"#utility.yul\":1924:1942   */\n      add\n        /* \"#utility.yul\":1911:1943   */\n      calldataload\n        /* \"#utility.yul\":1970:1988   */\n      0xffffffffffffffff\n        /* \"#utility.yul\":1962:1968   */\n      dup2\n        /* \"#utility.yul\":1959:1989   */\n      gt\n        /* \"#utility.yul\":1956:2073   */\n      iszero\n      tag_93\n      jumpi\n        /* \"#utility.yul\":1992:2071   */\n      tag_94\n      tag_55\n      jump\t// in\n    tag_94:\n        /* \"#utility.yul\":1956:2073   */\n    tag_93:\n        /* \"#utility.yul\":2105:2170   */\n      tag_95\n        /* \"#utility.yul\":2162:2169   */\n      dup10\n        /* \"#utility.yul\":2153:2159   */\n      dup3\n        /* \"#utility.yul\":2142:2151   */\n      dup11\n        /* \"#utility.yul\":2138:2160   */\n      add\n        /* \"#utility.yul\":2105:2170   */\n      tag_59\n      jump\t// in\n    tag_95:\n        /* \"#utility.yul\":2087:2170   */\n      swap5\n      pop\n      swap5\n      pop\n        /* \"#utility.yul\":1882:2180   */\n      pop\n        /* \"#utility.yul\":2247:2249   */\n      0x40\n        /* \"#utility.yul\":2236:2245   */\n      dup8\n        /* \"#utility.yul\":2232:2250   */\n      add\n        /* \"#utility.yul\":2219:2251   */\n      calldataload\n        /* \"#utility.yul\":2278:2296   */\n      0xffffffffffffffff\n        /* \"#utility.yul\":2270:2276   */\n      dup2\n        /* \"#utility.yul\":2267:2297   */\n      gt\n        /* \"#utility.yul\":2264:2381   */\n      iszero\n      tag_96\n      jumpi\n        /* \"#utility.yul\":2300:2379   */\n      tag_97\n      tag_55\n      jump\t// in\n    tag_97:\n        /* \"#utility.yul\":2264:2381   */\n    tag_96:\n        /* \"#utility.yul\":2413:2478   */\n      tag_98\n        /* \"#utility.yul\":2470:2477   */\n      dup10\n        /* \"#utility.yul\":2461:2467   */\n      dup3\n        /* \"#utility.yul\":2450:2459   */\n      dup11\n        /* \"#utility.yul\":2446:2468   */\n      add\n        /* \"#utility.yul\":2413:2478   */\n      tag_59\n      jump\t// in\n    tag_98:\n        /* \"#utility.yul\":2395:2478   */\n      swap3\n      pop\n      swap3\n      pop\n        /* \"#utility.yul\":2190:2488   */\n      pop\n        /* \"#utility.yul\":1276:2495   */\n      swap3\n      swap6\n      pop\n      swap3\n      swap6\n      pop\n      swap3\n      swap6\n      jump\t// out\n        /* \"#utility.yul\":2501:2627   */\n    tag_60:\n        /* \"#utility.yul\":2538:2545   */\n      0x00\n        /* \"#utility.yul\":2578:2620   */\n      0xffffffffffffffffffffffffffffffffffffffff\n        /* \"#utility.yul\":2571:2576   */\n      dup3\n        /* \"#utility.yul\":2567:2621   */\n      and\n        /* \"#utility.yul\":2556:2621   */\n      swap1\n      pop\n        /* \"#utility.yul\":2501:2627   */\n      swap2\n      swap1\n      pop\n      jump\t// out\n        /* \"#utility.yul\":2633:2729   */\n    tag_61:\n        /* \"#utility.yul\":2670:2677   */\n      0x00\n        /* \"#utility.yul\":2699:2723   */\n      tag_101\n        /* \"#utility.yul\":2717:2722   */\n      dup3\n        /* \"#utility.yul\":2699:2723   */\n      tag_60\n      jump\t// in\n    tag_101:\n        /* \"#utility.yul\":2688:2723   */\n      swap1\n      pop\n        /* \"#utility.yul\":2633:2729   */\n      swap2\n      swap1\n      pop\n      jump\t// out\n        /* \"#utility.yul\":2735:2857   */\n    tag_62:\n        /* \"#utility.yul\":2808:2832   */\n      tag_103\n        /* \"#utility.yul\":2826:2831   */\n      dup2\n        /* \"#utility.yul\":2808:2832   */\n      tag_61\n      jump\t// in\n    tag_103:\n        /* \"#utility.yul\":2801:2806   */\n      dup2\n        /* \"#utility.yul\":2798:2833   */\n      eq\n        /* \"#utility.yul\":2788:2851   */\n      tag_104\n      jumpi\n        /* \"#utility.yul\":2847:2848   */\n      0x00\n        /* \"#utility.yul\":2844:2845   */\n      dup1\n        /* \"#utility.yul\":2837:2849   */\n      revert\n        /* \"#utility.yul\":2788:2851   */\n    tag_104:\n        /* \"#utility.yul\":2735:2857   */\n      pop\n      jump\t// out\n        /* \"#utility.yul\":2863:3002   */\n    tag_63:\n        /* \"#utility.yul\":2909:2914   */\n      0x00\n        /* \"#utility.yul\":2947:2953   */\n      dup2\n        /* \"#utility.yul\":2934:2954   */\n      calldataload\n        /* \"#utility.yul\":2925:2954   */\n      swap1\n      pop\n        /* \"#utility.yul\":2963:2996   */\n      tag_106\n        /* \"#utility.yul\":2990:2995   */\n      dup2\n        /* \"#utility.yul\":2963:2996   */\n      tag_62\n      jump\t// in\n    tag_106:\n        /* \"#utility.yul\":2863:3002   */\n      swap3\n      swap2\n      pop\n      pop\n      jump\t// out\n        /* \"#utility.yul\":3008:4027   */\n    tag_11:\n        /* \"#utility.yul\":3109:3115   */\n      0x00\n        /* \"#utility.yul\":3117:3123   */\n      dup1\n        /* \"#utility.yul\":3125:3131   */\n      0x00\n        /* \"#utility.yul\":3133:3139   */\n      dup1\n        /* \"#utility.yul\":3141:3147   */\n      0x00\n        /* \"#utility.yul\":3190:3192   */\n      0x60\n        /* \"#utility.yul\":3178:3187   */\n      dup7\n        /* \"#utility.yul\":3169:3176   */\n      dup9\n        /* \"#utility.yul\":3165:3188   */\n      sub\n        /* \"#utility.yul\":3161:3193   */\n      slt\n        /* \"#utility.yul\":3158:3277   */\n      iszero\n      tag_108\n      jumpi\n        /* \"#utility.yul\":3196:3275   */\n      tag_109\n      tag_54\n      jump\t// in\n    tag_109:\n        /* \"#utility.yul\":3158:3277   */\n    tag_108:\n        /* \"#utility.yul\":3316:3317   */\n      0x00\n        /* \"#utility.yul\":3341:3394   */\n      tag_110\n        /* \"#utility.yul\":3386:3393   */\n      dup9\n        /* \"#utility.yul\":3377:3383   */\n      dup3\n        /* \"#utility.yul\":3366:3375   */\n      dup10\n        /* \"#utility.yul\":3362:3384   */\n      add\n        /* \"#utility.yul\":3341:3394   */\n      tag_63\n      jump\t// in\n    tag_110:\n        /* \"#utility.yul\":3331:3394   */\n      swap6\n      pop\n        /* \"#utility.yul\":3287:3404   */\n      pop\n        /* \"#utility.yul\":3471:3473   */\n      0x20\n        /* \"#utility.yul\":3460:3469   */\n      dup7\n        /* \"#utility.yul\":3456:3474   */\n      add\n        /* \"#utility.yul\":3443:3475   */\n      calldataload\n        /* \"#utility.yul\":3502:3520   */\n      0xffffffffffffffff\n        /* \"#utility.yul\":3494:3500   */\n      dup2\n        /* \"#utility.yul\":3491:3521   */\n      gt\n        /* \"#utility.yul\":3488:3605   */\n      iszero\n      tag_111\n      jumpi\n        /* \"#utility.yul\":3524:3603   */\n      tag_112\n      tag_55\n      jump\t// in\n    tag_112:\n        /* \"#utility.yul\":3488:3605   */\n    tag_111:\n        /* \"#utility.yul\":3637:3702   */\n      tag_113\n        /* \"#utility.yul\":3694:3701   */\n      dup9\n        /* \"#utility.yul\":3685:3691   */\n      dup3\n        /* \"#utility.yul\":3674:3683   */\n      dup10\n        /* \"#utility.yul\":3670:3692   */\n      add\n        /* \"#utility.yul\":3637:3702   */\n      tag_59\n      jump\t// in\n    tag_113:\n        /* \"#utility.yul\":3619:3702   */\n      swap5\n      pop\n      swap5\n      pop\n        /* \"#utility.yul\":3414:3712   */\n      pop\n        /* \"#utility.yul\":3779:3781   */\n      0x40\n        /* \"#utility.yul\":3768:3777   */\n      dup7\n        /* \"#utility.yul\":3764:3782   */\n      add\n        /* \"#utility.yul\":3751:3783   */\n      calldataload\n        /* \"#utility.yul\":3810:3828   */\n      0xffffffffffffffff\n        /* \"#utility.yul\":3802:3808   */\n      dup2\n        /* \"#utility.yul\":3799:3829   */\n      gt\n        /* \"#utility.yul\":3796:3913   */\n      iszero\n      tag_114\n      jumpi\n        /* \"#utility.yul\":3832:3911   */\n      tag_115\n      tag_55\n      jump\t// in\n    tag_115:\n        /* \"#utility.yul\":3796:3913   */\n    tag_114:\n        /* \"#utility.yul\":3945:4010   */\n      tag_116\n        /* \"#utility.yul\":4002:4009   */\n      dup9\n        /* \"#utility.yul\":3993:3999   */\n      dup3\n        /* \"#utility.yul\":3982:3991   */\n      dup10\n        /* \"#utility.yul\":3978:4000   */\n      add\n        /* \"#utility.yul\":3945:4010   */\n      tag_59\n      jump\t// in\n    tag_116:\n        /* \"#utility.yul\":3927:4010   */\n      swap3\n      pop\n      swap3\n      pop\n        /* \"#utility.yul\":3722:4020   */\n      pop\n        /* \"#utility.yul\":3008:4027   */\n      swap3\n      swap6\n      pop\n      swap3\n      swap6\n      swap1\n      swap4\n      pop\n      jump\t// out\n        /* \"#utility.yul\":4033:4202   */\n    tag_64:\n        /* \"#utility.yul\":4117:4128   */\n      0x00\n        /* \"#utility.yul\":4151:4157   */\n      dup3\n        /* \"#utility.yul\":4146:4149   */\n      dup3\n        /* \"#utility.yul\":4139:4158   */\n      mstore\n        /* \"#utility.yul\":4191:4195   */\n      0x20\n        /* \"#utility.yul\":4186:4189   */\n      dup3\n        /* \"#utility.yul\":4182:4196   */\n      add\n        /* \"#utility.yul\":4167:4196   */\n      swap1\n      pop\n        /* \"#utility.yul\":4033:4202   */\n      swap3\n      swap2\n      pop\n      pop\n      jump\t// out\n        /* \"#utility.yul\":4208:4382   */\n    tag_65:\n        /* \"#utility.yul\":4348:4374   */\n      0x796f752063616e206e6f7420616464206f6666696369616c0000000000000000\n        /* \"#utility.yul\":4344:4345   */\n      0x00\n        /* \"#utility.yul\":4336:4342   */\n      dup3\n        /* \"#utility.yul\":4332:4346   */\n      add\n        /* \"#utility.yul\":4325:4375   */\n      mstore\n        /* \"#utility.yul\":4208:4382   */\n      pop\n      jump\t// out\n        /* \"#utility.yul\":4388:4754   */\n    tag_66:\n        /* \"#utility.yul\":4530:4533   */\n      0x00\n        /* \"#utility.yul\":4551:4618   */\n      tag_120\n        /* \"#utility.yul\":4615:4617   */\n      0x18\n        /* \"#utility.yul\":4610:4613   */\n      dup4\n        /* \"#utility.yul\":4551:4618   */\n      tag_64\n      jump\t// in\n    tag_120:\n        /* \"#utility.yul\":4544:4618   */\n      swap2\n      pop\n        /* \"#utility.yul\":4627:4720   */\n      tag_121\n        /* \"#utility.yul\":4716:4719   */\n      dup3\n        /* \"#utility.yul\":4627:4720   */\n      tag_65\n      jump\t// in\n    tag_121:\n        /* \"#utility.yul\":4745:4747   */\n      0x20\n        /* \"#utility.yul\":4740:4743   */\n      dup3\n        /* \"#utility.yul\":4736:4748   */\n      add\n        /* \"#utility.yul\":4729:4748   */\n      swap1\n      pop\n        /* \"#utility.yul\":4388:4754   */\n      swap2\n      swap1\n      pop\n      jump\t// out\n        /* \"#utility.yul\":4760:5179   */\n    tag_16:\n        /* \"#utility.yul\":4926:4930   */\n      0x00\n        /* \"#utility.yul\":4964:4966   */\n      0x20\n        /* \"#utility.yul\":4953:4962   */\n      dup3\n        /* \"#utility.yul\":4949:4967   */\n      add\n        /* \"#utility.yul\":4941:4967   */\n      swap1\n      pop\n        /* \"#utility.yul\":5013:5022   */\n      dup2\n        /* \"#utility.yul\":5007:5011   */\n      dup2\n        /* \"#utility.yul\":5003:5023   */\n      sub\n        /* \"#utility.yul\":4999:5000   */\n      0x00\n        /* \"#utility.yul\":4988:4997   */\n      dup4\n        /* \"#utility.yul\":4984:5001   */\n      add\n        /* \"#utility.yul\":4977:5024   */\n      mstore\n        /* \"#utility.yul\":5041:5172   */\n      tag_123\n        /* \"#utility.yul\":5167:5171   */\n      dup2\n        /* \"#utility.yul\":5041:5172   */\n      tag_66\n      jump\t// in\n    tag_123:\n        /* \"#utility.yul\":5033:5172   */\n      swap1\n      pop\n        /* \"#utility.yul\":4760:5179   */\n      swap2\n      swap1\n      pop\n      jump\t// out\n        /* \"#utility.yul\":5185:5333   */\n    tag_67:\n        /* \"#utility.yul\":5287:5298   */\n      0x00\n        /* \"#utility.yul\":5324:5327   */\n      dup2\n        /* \"#utility.yul\":5309:5327   */\n      swap1\n      pop\n        /* \"#utility.yul\":5185:5333   */\n      swap3\n      swap2\n      pop\n      pop\n      jump\t// out\n        /* \"#utility.yul\":5339:5493   */\n    tag_68:\n        /* \"#utility.yul\":5423:5429   */\n      dup3\n        /* \"#utility.yul\":5418:5421   */\n      dup2\n        /* \"#utility.yul\":5413:5416   */\n      dup4\n        /* \"#utility.yul\":5400:5430   */\n      calldatacopy\n        /* \"#utility.yul\":5485:5486   */\n      0x00\n        /* \"#utility.yul\":5476:5482   */\n      dup4\n        /* \"#utility.yul\":5471:5474   */\n      dup4\n        /* \"#utility.yul\":5467:5483   */\n      add\n        /* \"#utility.yul\":5460:5487   */\n      mstore\n        /* \"#utility.yul\":5339:5493   */\n      pop\n      pop\n      pop\n      jump\t// out\n        /* \"#utility.yul\":5523:5840   */\n    tag_69:\n        /* \"#utility.yul\":5639:5642   */\n      0x00\n        /* \"#utility.yul\":5660:5749   */\n      tag_127\n        /* \"#utility.yul\":5742:5748   */\n      dup4\n        /* \"#utility.yul\":5737:5740   */\n      dup6\n        /* \"#utility.yul\":5660:5749   */\n      tag_67\n      jump\t// in\n    tag_127:\n        /* \"#utility.yul\":5653:5749   */\n      swap4\n      pop\n        /* \"#utility.yul\":5759:5802   */\n      tag_128\n        /* \"#utility.yul\":5795:5801   */\n      dup4\n        /* \"#utility.yul\":5790:5793   */\n      dup6\n        /* \"#utility.yul\":5783:5788   */\n      dup5\n        /* \"#utility.yul\":5759:5802   */\n      tag_68\n      jump\t// in\n    tag_128:\n        /* \"#utility.yul\":5827:5833   */\n      dup3\n        /* \"#utility.yul\":5822:5825   */\n      dup5\n        /* \"#utility.yul\":5818:5834   */\n      add\n        /* \"#utility.yul\":5811:5834   */\n      swap1\n      pop\n        /* \"#utility.yul\":5523:5840   */\n      swap4\n      swap3\n      pop\n      pop\n      pop\n      jump\t// out\n        /* \"#utility.yul\":5846:6141   */\n    tag_19:\n        /* \"#utility.yul\":5988:5991   */\n      0x00\n        /* \"#utility.yul\":6010:6115   */\n      tag_130\n        /* \"#utility.yul\":6111:6114   */\n      dup3\n        /* \"#utility.yul\":6102:6108   */\n      dup5\n        /* \"#utility.yul\":6094:6100   */\n      dup7\n        /* \"#utility.yul\":6010:6115   */\n      tag_69\n      jump\t// in\n    tag_130:\n        /* \"#utility.yul\":6003:6115   */\n      swap2\n      pop\n        /* \"#utility.yul\":6132:6135   */\n      dup2\n        /* \"#utility.yul\":6125:6135   */\n      swap1\n      pop\n        /* \"#utility.yul\":5846:6141   */\n      swap4\n      swap3\n      pop\n      pop\n      pop\n      jump\t// out\n        /* \"#utility.yul\":6147:6327   */\n    tag_70:\n        /* \"#utility.yul\":6195:6272   */\n      0x4e487b7100000000000000000000000000000000000000000000000000000000\n        /* \"#utility.yul\":6192:6193   */\n      0x00\n        /* \"#utility.yul\":6185:6273   */\n      mstore\n        /* \"#utility.yul\":6292:6296   */\n      0x22\n        /* \"#utility.yul\":6289:6290   */\n      0x04\n        /* \"#utility.yul\":6282:6297   */\n      mstore\n        /* \"#utility.yul\":6316:6320   */\n      0x24\n        /* \"#utility.yul\":6313:6314   */\n      0x00\n        /* \"#utility.yul\":6306:6321   */\n      revert\n        /* \"#utility.yul\":6333:6653   */\n    tag_21:\n        /* \"#utility.yul\":6377:6383   */\n      0x00\n        /* \"#utility.yul\":6414:6415   */\n      0x02\n        /* \"#utility.yul\":6408:6412   */\n      dup3\n        /* \"#utility.yul\":6404:6416   */\n      div\n        /* \"#utility.yul\":6394:6416   */\n      swap1\n      pop\n        /* \"#utility.yul\":6461:6462   */\n      0x01\n        /* \"#utility.yul\":6455:6459   */\n      dup3\n        /* \"#utility.yul\":6451:6463   */\n      and\n        /* \"#utility.yul\":6482:6500   */\n      dup1\n        /* \"#utility.yul\":6472:6553   */\n      tag_133\n      jumpi\n        /* \"#utility.yul\":6538:6542   */\n      0x7f\n        /* \"#utility.yul\":6530:6536   */\n      dup3\n        /* \"#utility.yul\":6526:6543   */\n      and\n        /* \"#utility.yul\":6516:6543   */\n      swap2\n      pop\n        /* \"#utility.yul\":6472:6553   */\n    tag_133:\n        /* \"#utility.yul\":6600:6602   */\n      0x20\n        /* \"#utility.yul\":6592:6598   */\n      dup3\n        /* \"#utility.yul\":6589:6603   */\n      lt\n        /* \"#utility.yul\":6569:6587   */\n      dup2\n        /* \"#utility.yul\":6566:6604   */\n      eq\n        /* \"#utility.yul\":6563:6647   */\n      iszero\n      tag_134\n      jumpi\n        /* \"#utility.yul\":6619:6637   */\n      tag_135\n      tag_70\n      jump\t// in\n    tag_135:\n        /* \"#utility.yul\":6563:6647   */\n    tag_134:\n        /* \"#utility.yul\":6384:6653   */\n      pop\n        /* \"#utility.yul\":6333:6653   */\n      swap2\n      swap1\n      pop\n      jump\t// out\n        /* \"#utility.yul\":6659:6839   */\n    tag_71:\n        /* \"#utility.yul\":6799:6831   */\n      0x6c6f63616c20676f7665726e6d656e7420616c72656164792065786973740000\n        /* \"#utility.yul\":6795:6796   */\n      0x00\n        /* \"#utility.yul\":6787:6793   */\n      dup3\n        /* \"#utility.yul\":6783:6797   */\n      add\n        /* \"#utility.yul\":6776:6832   */\n      mstore\n        /* \"#utility.yul\":6659:6839   */\n      pop\n      jump\t// out\n        /* \"#utility.yul\":6845:7211   */\n    tag_72:\n        /* \"#utility.yul\":6987:6990   */\n      0x00\n        /* \"#utility.yul\":7008:7075   */\n      tag_138\n        /* \"#utility.yul\":7072:7074   */\n      0x1e\n        /* \"#utility.yul\":7067:7070   */\n      dup4\n        /* \"#utility.yul\":7008:7075   */\n      tag_64\n      jump\t// in\n    tag_138:\n        /* \"#utility.yul\":7001:7075   */\n      swap2\n      pop\n        /* \"#utility.yul\":7084:7177   */\n      tag_139\n        /* \"#utility.yul\":7173:7176   */\n      dup3\n        /* \"#utility.yul\":7084:7177   */\n      tag_71\n      jump\t// in\n    tag_139:\n        /* \"#utility.yul\":7202:7204   */\n      0x20\n        /* \"#utility.yul\":7197:7200   */\n      dup3\n        /* \"#utility.yul\":7193:7205   */\n      add\n        /* \"#utility.yul\":7186:7205   */\n      swap1\n      pop\n        /* \"#utility.yul\":6845:7211   */\n      swap2\n      swap1\n      pop\n      jump\t// out\n        /* \"#utility.yul\":7217:7636   */\n    tag_24:\n        /* \"#utility.yul\":7383:7387   */\n      0x00\n        /* \"#utility.yul\":7421:7423   */\n      0x20\n        /* \"#utility.yul\":7410:7419   */\n      dup3\n        /* \"#utility.yul\":7406:7424   */\n      add\n        /* \"#utility.yul\":7398:7424   */\n      swap1\n      pop\n        /* \"#utility.yul\":7470:7479   */\n      dup2\n        /* \"#utility.yul\":7464:7468   */\n      dup2\n        /* \"#utility.yul\":7460:7480   */\n      sub\n        /* \"#utility.yul\":7456:7457   */\n      0x00\n        /* \"#utility.yul\":7445:7454   */\n      dup4\n        /* \"#utility.yul\":7441:7458   */\n      add\n        /* \"#utility.yul\":7434:7481   */\n      mstore\n        /* \"#utility.yul\":7498:7629   */\n      tag_141\n        /* \"#utility.yul\":7624:7628   */\n      dup2\n        /* \"#utility.yul\":7498:7629   */\n      tag_72\n      jump\t// in\n    tag_141:\n        /* \"#utility.yul\":7490:7629   */\n      swap1\n      pop\n        /* \"#utility.yul\":7217:7636   */\n      swap2\n      swap1\n      pop\n      jump\t// out\n\n    auxdata: 0xa2646970667358221220037a77832e7ade0d6f433c1f0316449455ec58402fc5d6d43575eba203a0289464736f6c63430008080033\n}\n",
				"bytecode": {
					"linkReferences": {},
					"object": "608060405234801561001057600080fd5b50336000806101000a81548173ffffffffffffffffffffffffffffffffffffffff021916908373ffffffffffffffffffffffffffffffffffffffff160217905550610a86806100606000396000f3fe608060405234801561001057600080fd5b50600436106100365760003560e01c80636e12dc0e1461003b578063b7a455e614610057575b600080fd5b61005560048036038101906100509190610707565b610073565b005b610071600480360381019061006c9190610819565b6102e1565b005b3373ffffffffffffffffffffffffffffffffffffffff1660008054906101000a900473ffffffffffffffffffffffffffffffffffffffff1673ffffffffffffffffffffffffffffffffffffffff161415610102576040517f08c379a00000000000000000000000000000000000000000000000000000000081526004016100f99061090b565b60405180910390fd5b838360006003838360405161011892919061096a565b90815260200160405180910390206000018054610134906109b2565b905010610176576040517f08c379a000000000000000000000000000000000000000000000000000000000815260040161016d90610a30565b60405180910390fd5b604051806060016040528089898080601f016020809104026020016040519081016040528093929190818152602001838380828437600081840152601f19601f82011690508083019250505050505050815260200185858080601f016020809104026020016040519081016040528093929190818152602001838380828437600081840152601f19601f82011690508083019250505050505050815260200187878080601f016020809104026020016040519081016040528093929190818152602001838380828437600081840152601f19601f820116905080830192505050505050508152506003878760405161026f92919061096a565b908152602001604051809103902060008201518160000190805190602001906102999291906105f5565b5060208201518160010190805190602001906102b69291906105f5565b5060408201518160020190805190602001906102d39291906105f5565b509050505050505050505050565b3373ffffffffffffffffffffffffffffffffffffffff1660008054906101000a900473ffffffffffffffffffffffffffffffffffffffff1673ffffffffffffffffffffffffffffffffffffffff161415610370576040517f08c379a00000000000000000000000000000000000000000000000000000000081526004016103679061090b565b60405180910390fd5b818160006003838360405161038692919061096a565b908152602001604051809103902060000180546103a2906109b2565b9050106103e4576040517f08c379a00000000000000000000000000000000000000000000000000000000081526004016103db90610a30565b60405180910390fd5b6001879080600181540180825580915050600190039060005260206000200160009091909190916101000a81548173ffffffffffffffffffffffffffffffffffffffff021916908373ffffffffffffffffffffffffffffffffffffffff160217905550604051806080016040528087878080601f016020809104026020016040519081016040528093929190818152602001838380828437600081840152601f19601f82011690508083019250505050505050815260200185858080601f016020809104026020016040519081016040528093929190818152602001838380828437600081840152601f19601f8201169050808301925050505050505081526020018873ffffffffffffffffffffffffffffffffffffffff16815260200160011515815250600260008973ffffffffffffffffffffffffffffffffffffffff1673ffffffffffffffffffffffffffffffffffffffff16815260200190815260200160002060008201518160000190805190602001906105649291906105f5565b5060208201518160010190805190602001906105819291906105f5565b5060408201518160020160006101000a81548173ffffffffffffffffffffffffffffffffffffffff021916908373ffffffffffffffffffffffffffffffffffffffff16021790555060608201518160020160146101000a81548160ff02191690831515021790555090505050505050505050565b828054610601906109b2565b90600052602060002090601f016020900481019282610623576000855561066a565b82601f1061063c57805160ff191683800117855561066a565b8280016001018555821561066a579182015b8281111561066957825182559160200191906001019061064e565b5b509050610677919061067b565b5090565b5b8082111561069457600081600090555060010161067c565b5090565b600080fd5b600080fd5b600080fd5b600080fd5b600080fd5b60008083601f8401126106c7576106c66106a2565b5b8235905067ffffffffffffffff8111156106e4576106e36106a7565b5b602083019150836001820283011115610700576106ff6106ac565b5b9250929050565b6000806000806000806060878903121561072457610723610698565b5b600087013567ffffffffffffffff8111156107425761074161069d565b5b61074e89828a016106b1565b9650965050602087013567ffffffffffffffff8111156107715761077061069d565b5b61077d89828a016106b1565b9450945050604087013567ffffffffffffffff8111156107a05761079f61069d565b5b6107ac89828a016106b1565b92509250509295509295509295565b600073ffffffffffffffffffffffffffffffffffffffff82169050919050565b60006107e6826107bb565b9050919050565b6107f6816107db565b811461080157600080fd5b50565b600081359050610813816107ed565b92915050565b60008060008060006060868803121561083557610834610698565b5b600061084388828901610804565b955050602086013567ffffffffffffffff8111156108645761086361069d565b5b610870888289016106b1565b9450945050604086013567ffffffffffffffff8111156108935761089261069d565b5b61089f888289016106b1565b92509250509295509295909350565b600082825260208201905092915050565b7f796f752063616e206e6f7420616464206f6666696369616c0000000000000000600082015250565b60006108f56018836108ae565b9150610900826108bf565b602082019050919050565b60006020820190508181036000830152610924816108e8565b9050919050565b600081905092915050565b82818337600083830152505050565b6000610951838561092b565b935061095e838584610936565b82840190509392505050565b6000610977828486610945565b91508190509392505050565b7f4e487b7100000000000000000000000000000000000000000000000000000000600052602260045260246000fd5b600060028204905060018216806109ca57607f821691505b602082108114156109de576109dd610983565b5b50919050565b7f6c6f63616c20676f7665726e6d656e7420616c72656164792065786973740000600082015250565b6000610a1a601e836108ae565b9150610a25826109e4565b602082019050919050565b60006020820190508181036000830152610a4981610a0d565b905091905056fea2646970667358221220037a77832e7ade0d6f433c1f0316449455ec58402fc5d6d43575eba203a0289464736f6c63430008080033",
					"opcodes": "PUSH1 0x80 PUSH1 0x40 MSTORE CALLVALUE DUP1 ISZERO PUSH2 0x10 JUMPI PUSH1 0x0 DUP1 REVERT JUMPDEST POP CALLER PUSH1 0x0 DUP1 PUSH2 0x100 EXP DUP2 SLOAD DUP2 PUSH20 0xFFFFFFFFFFFFFFFFFFFFFFFFFFFFFFFFFFFFFFFF MUL NOT AND SWAP1 DUP4 PUSH20 0xFFFFFFFFFFFFFFFFFFFFFFFFFFFFFFFFFFFFFFFF AND MUL OR SWAP1 SSTORE POP PUSH2 0xA86 DUP1 PUSH2 0x60 PUSH1 0x0 CODECOPY PUSH1 0x0 RETURN INVALID PUSH1 0x80 PUSH1 0x40 MSTORE CALLVALUE DUP1 ISZERO PUSH2 0x10 JUMPI PUSH1 0x0 DUP1 REVERT JUMPDEST POP PUSH1 0x4 CALLDATASIZE LT PUSH2 0x36 JUMPI PUSH1 0x0 CALLDATALOAD PUSH1 0xE0 SHR DUP1 PUSH4 0x6E12DC0E EQ PUSH2 0x3B JUMPI DUP1 PUSH4 0xB7A455E6 EQ PUSH2 0x57 JUMPI JUMPDEST PUSH1 0x0 DUP1 REVERT JUMPDEST PUSH2 0x55 PUSH1 0x4 DUP1 CALLDATASIZE SUB DUP2 ADD SWAP1 PUSH2 0x50 SWAP2 SWAP1 PUSH2 0x707 JUMP JUMPDEST PUSH2 0x73 JUMP JUMPDEST STOP JUMPDEST PUSH2 0x71 PUSH1 0x4 DUP1 CALLDATASIZE SUB DUP2 ADD SWAP1 PUSH2 0x6C SWAP2 SWAP1 PUSH2 0x819 JUMP JUMPDEST PUSH2 0x2E1 JUMP JUMPDEST STOP JUMPDEST CALLER PUSH20 0xFFFFFFFFFFFFFFFFFFFFFFFFFFFFFFFFFFFFFFFF AND PUSH1 0x0 DUP1 SLOAD SWAP1 PUSH2 0x100 EXP SWAP1 DIV PUSH20 0xFFFFFFFFFFFFFFFFFFFFFFFFFFFFFFFFFFFFFFFF AND PUSH20 0xFFFFFFFFFFFFFFFFFFFFFFFFFFFFFFFFFFFFFFFF AND EQ ISZERO PUSH2 0x102 JUMPI PUSH1 0x40 MLOAD PUSH32 0x8C379A000000000000000000000000000000000000000000000000000000000 DUP2 MSTORE PUSH1 0x4 ADD PUSH2 0xF9 SWAP1 PUSH2 0x90B JUMP JUMPDEST PUSH1 0x40 MLOAD DUP1 SWAP2 SUB SWAP1 REVERT JUMPDEST DUP4 DUP4 PUSH1 0x0 PUSH1 0x3 DUP4 DUP4 PUSH1 0x40 MLOAD PUSH2 0x118 SWAP3 SWAP2 SWAP1 PUSH2 0x96A JUMP JUMPDEST SWAP1 DUP2 MSTORE PUSH1 0x20 ADD PUSH1 0x40 MLOAD DUP1 SWAP2 SUB SWAP1 KECCAK256 PUSH1 0x0 ADD DUP1 SLOAD PUSH2 0x134 SWAP1 PUSH2 0x9B2 JUMP JUMPDEST SWAP1 POP LT PUSH2 0x176 JUMPI PUSH1 0x40 MLOAD PUSH32 0x8C379A000000000000000000000000000000000000000000000000000000000 DUP2 MSTORE PUSH1 0x4 ADD PUSH2 0x16D SWAP1 PUSH2 0xA30 JUMP JUMPDEST PUSH1 0x40 MLOAD DUP1 SWAP2 SUB SWAP1 REVERT JUMPDEST PUSH1 0x40 MLOAD DUP1 PUSH1 0x60 ADD PUSH1 0x40 MSTORE DUP1 DUP10 DUP10 DUP1 DUP1 PUSH1 0x1F ADD PUSH1 0x20 DUP1 SWAP2 DIV MUL PUSH1 0x20 ADD PUSH1 0x40 MLOAD SWAP1 DUP2 ADD PUSH1 0x40 MSTORE DUP1 SWAP4 SWAP3 SWAP2 SWAP1 DUP2 DUP2 MSTORE PUSH1 0x20 ADD DUP4 DUP4 DUP1 DUP3 DUP5 CALLDATACOPY PUSH1 0x0 DUP2 DUP5 ADD MSTORE PUSH1 0x1F NOT PUSH1 0x1F DUP3 ADD AND SWAP1 POP DUP1 DUP4 ADD SWAP3 POP POP POP POP POP POP POP DUP2 MSTORE PUSH1 0x20 ADD DUP6 DUP6 DUP1 DUP1 PUSH1 0x1F ADD PUSH1 0x20 DUP1 SWAP2 DIV MUL PUSH1 0x20 ADD PUSH1 0x40 MLOAD SWAP1 DUP2 ADD PUSH1 0x40 MSTORE DUP1 SWAP4 SWAP3 SWAP2 SWAP1 DUP2 DUP2 MSTORE PUSH1 0x20 ADD DUP4 DUP4 DUP1 DUP3 DUP5 CALLDATACOPY PUSH1 0x0 DUP2 DUP5 ADD MSTORE PUSH1 0x1F NOT PUSH1 0x1F DUP3 ADD AND SWAP1 POP DUP1 DUP4 ADD SWAP3 POP POP POP POP POP POP POP DUP2 MSTORE PUSH1 0x20 ADD DUP8 DUP8 DUP1 DUP1 PUSH1 0x1F ADD PUSH1 0x20 DUP1 SWAP2 DIV MUL PUSH1 0x20 ADD PUSH1 0x40 MLOAD SWAP1 DUP2 ADD PUSH1 0x40 MSTORE DUP1 SWAP4 SWAP3 SWAP2 SWAP1 DUP2 DUP2 MSTORE PUSH1 0x20 ADD DUP4 DUP4 DUP1 DUP3 DUP5 CALLDATACOPY PUSH1 0x0 DUP2 DUP5 ADD MSTORE PUSH1 0x1F NOT PUSH1 0x1F DUP3 ADD AND SWAP1 POP DUP1 DUP4 ADD SWAP3 POP POP POP POP POP POP POP DUP2 MSTORE POP PUSH1 0x3 DUP8 DUP8 PUSH1 0x40 MLOAD PUSH2 0x26F SWAP3 SWAP2 SWAP1 PUSH2 0x96A JUMP JUMPDEST SWAP1 DUP2 MSTORE PUSH1 0x20 ADD PUSH1 0x40 MLOAD DUP1 SWAP2 SUB SWAP1 KECCAK256 PUSH1 0x0 DUP3 ADD MLOAD DUP2 PUSH1 0x0 ADD SWAP1 DUP1 MLOAD SWAP1 PUSH1 0x20 ADD SWAP1 PUSH2 0x299 SWAP3 SWAP2 SWAP1 PUSH2 0x5F5 JUMP JUMPDEST POP PUSH1 0x20 DUP3 ADD MLOAD DUP2 PUSH1 0x1 ADD SWAP1 DUP1 MLOAD SWAP1 PUSH1 0x20 ADD SWAP1 PUSH2 0x2B6 SWAP3 SWAP2 SWAP1 PUSH2 0x5F5 JUMP JUMPDEST POP PUSH1 0x40 DUP3 ADD MLOAD DUP2 PUSH1 0x2 ADD SWAP1 DUP1 MLOAD SWAP1 PUSH1 0x20 ADD SWAP1 PUSH2 0x2D3 SWAP3 SWAP2 SWAP1 PUSH2 0x5F5 JUMP JUMPDEST POP SWAP1 POP POP POP POP POP POP POP POP POP POP JUMP JUMPDEST CALLER PUSH20 0xFFFFFFFFFFFFFFFFFFFFFFFFFFFFFFFFFFFFFFFF AND PUSH1 0x0 DUP1 SLOAD SWAP1 PUSH2 0x100 EXP SWAP1 DIV PUSH20 0xFFFFFFFFFFFFFFFFFFFFFFFFFFFFFFFFFFFFFFFF AND PUSH20 0xFFFFFFFFFFFFFFFFFFFFFFFFFFFFFFFFFFFFFFFF AND EQ ISZERO PUSH2 0x370 JUMPI PUSH1 0x40 MLOAD PUSH32 0x8C379A000000000000000000000000000000000000000000000000000000000 DUP2 MSTORE PUSH1 0x4 ADD PUSH2 0x367 SWAP1 PUSH2 0x90B JUMP JUMPDEST PUSH1 0x40 MLOAD DUP1 SWAP2 SUB SWAP1 REVERT JUMPDEST DUP2 DUP2 PUSH1 0x0 PUSH1 0x3 DUP4 DUP4 PUSH1 0x40 MLOAD PUSH2 0x386 SWAP3 SWAP2 SWAP1 PUSH2 0x96A JUMP JUMPDEST SWAP1 DUP2 MSTORE PUSH1 0x20 ADD PUSH1 0x40 MLOAD DUP1 SWAP2 SUB SWAP1 KECCAK256 PUSH1 0x0 ADD DUP1 SLOAD PUSH2 0x3A2 SWAP1 PUSH2 0x9B2 JUMP JUMPDEST SWAP1 POP LT PUSH2 0x3E4 JUMPI PUSH1 0x40 MLOAD PUSH32 0x8C379A000000000000000000000000000000000000000000000000000000000 DUP2 MSTORE PUSH1 0x4 ADD PUSH2 0x3DB SWAP1 PUSH2 0xA30 JUMP JUMPDEST PUSH1 0x40 MLOAD DUP1 SWAP2 SUB SWAP1 REVERT JUMPDEST PUSH1 0x1 DUP8 SWAP1 DUP1 PUSH1 0x1 DUP2 SLOAD ADD DUP1 DUP3 SSTORE DUP1 SWAP2 POP POP PUSH1 0x1 SWAP1 SUB SWAP1 PUSH1 0x0 MSTORE PUSH1 0x20 PUSH1 0x0 KECCAK256 ADD PUSH1 0x0 SWAP1 SWAP2 SWAP1 SWAP2 SWAP1 SWAP2 PUSH2 0x100 EXP DUP2 SLOAD DUP2 PUSH20 0xFFFFFFFFFFFFFFFFFFFFFFFFFFFFFFFFFFFFFFFF MUL NOT AND SWAP1 DUP4 PUSH20 0xFFFFFFFFFFFFFFFFFFFFFFFFFFFFFFFFFFFFFFFF AND MUL OR SWAP1 SSTORE POP PUSH1 0x40 MLOAD DUP1 PUSH1 0x80 ADD PUSH1 0x40 MSTORE DUP1 DUP8 DUP8 DUP1 DUP1 PUSH1 0x1F ADD PUSH1 0x20 DUP1 SWAP2 DIV MUL PUSH1 0x20 ADD PUSH1 0x40 MLOAD SWAP1 DUP2 ADD PUSH1 0x40 MSTORE DUP1 SWAP4 SWAP3 SWAP2 SWAP1 DUP2 DUP2 MSTORE PUSH1 0x20 ADD DUP4 DUP4 DUP1 DUP3 DUP5 CALLDATACOPY PUSH1 0x0 DUP2 DUP5 ADD MSTORE PUSH1 0x1F NOT PUSH1 0x1F DUP3 ADD AND SWAP1 POP DUP1 DUP4 ADD SWAP3 POP POP POP POP POP POP POP DUP2 MSTORE PUSH1 0x20 ADD DUP6 DUP6 DUP1 DUP1 PUSH1 0x1F ADD PUSH1 0x20 DUP1 SWAP2 DIV MUL PUSH1 0x20 ADD PUSH1 0x40 MLOAD SWAP1 DUP2 ADD PUSH1 0x40 MSTORE DUP1 SWAP4 SWAP3 SWAP2 SWAP1 DUP2 DUP2 MSTORE PUSH1 0x20 ADD DUP4 DUP4 DUP1 DUP3 DUP5 CALLDATACOPY PUSH1 0x0 DUP2 DUP5 ADD MSTORE PUSH1 0x1F NOT PUSH1 0x1F DUP3 ADD AND SWAP1 POP DUP1 DUP4 ADD SWAP3 POP POP POP POP POP POP POP DUP2 MSTORE PUSH1 0x20 ADD DUP9 PUSH20 0xFFFFFFFFFFFFFFFFFFFFFFFFFFFFFFFFFFFFFFFF AND DUP2 MSTORE PUSH1 0x20 ADD PUSH1 0x1 ISZERO ISZERO DUP2 MSTORE POP PUSH1 0x2 PUSH1 0x0 DUP10 PUSH20 0xFFFFFFFFFFFFFFFFFFFFFFFFFFFFFFFFFFFFFFFF AND PUSH20 0xFFFFFFFFFFFFFFFFFFFFFFFFFFFFFFFFFFFFFFFF AND DUP2 MSTORE PUSH1 0x20 ADD SWAP1 DUP2 MSTORE PUSH1 0x20 ADD PUSH1 0x0 KECCAK256 PUSH1 0x0 DUP3 ADD MLOAD DUP2 PUSH1 0x0 ADD SWAP1 DUP1 MLOAD SWAP1 PUSH1 0x20 ADD SWAP1 PUSH2 0x564 SWAP3 SWAP2 SWAP1 PUSH2 0x5F5 JUMP JUMPDEST POP PUSH1 0x20 DUP3 ADD MLOAD DUP2 PUSH1 0x1 ADD SWAP1 DUP1 MLOAD SWAP1 PUSH1 0x20 ADD SWAP1 PUSH2 0x581 SWAP3 SWAP2 SWAP1 PUSH2 0x5F5 JUMP JUMPDEST POP PUSH1 0x40 DUP3 ADD MLOAD DUP2 PUSH1 0x2 ADD PUSH1 0x0 PUSH2 0x100 EXP DUP2 SLOAD DUP2 PUSH20 0xFFFFFFFFFFFFFFFFFFFFFFFFFFFFFFFFFFFFFFFF MUL NOT AND SWAP1 DUP4 PUSH20 0xFFFFFFFFFFFFFFFFFFFFFFFFFFFFFFFFFFFFFFFF AND MUL OR SWAP1 SSTORE POP PUSH1 0x60 DUP3 ADD MLOAD DUP2 PUSH1 0x2 ADD PUSH1 0x14 PUSH2 0x100 EXP DUP2 SLOAD DUP2 PUSH1 0xFF MUL NOT AND SWAP1 DUP4 ISZERO ISZERO MUL OR SWAP1 SSTORE POP SWAP1 POP POP POP POP POP POP POP POP POP JUMP JUMPDEST DUP3 DUP1 SLOAD PUSH2 0x601 SWAP1 PUSH2 0x9B2 JUMP JUMPDEST SWAP1 PUSH1 0x0 MSTORE PUSH1 0x20 PUSH1 0x0 KECCAK256 SWAP1 PUSH1 0x1F ADD PUSH1 0x20 SWAP1 DIV DUP2 ADD SWAP3 DUP3 PUSH2 0x623 JUMPI PUSH1 0x0 DUP6 SSTORE PUSH2 0x66A JUMP JUMPDEST DUP3 PUSH1 0x1F LT PUSH2 0x63C JUMPI DUP1 MLOAD PUSH1 0xFF NOT AND DUP4 DUP1 ADD OR DUP6 SSTORE PUSH2 0x66A JUMP JUMPDEST DUP3 DUP1 ADD PUSH1 0x1 ADD DUP6 SSTORE DUP3 ISZERO PUSH2 0x66A JUMPI SWAP2 DUP3 ADD JUMPDEST DUP3 DUP2 GT ISZERO PUSH2 0x669 JUMPI DUP3 MLOAD DUP3 SSTORE SWAP2 PUSH1 0x20 ADD SWAP2 SWAP1 PUSH1 0x1 ADD SWAP1 PUSH2 0x64E JUMP JUMPDEST JUMPDEST POP SWAP1 POP PUSH2 0x677 SWAP2 SWAP1 PUSH2 0x67B JUMP JUMPDEST POP SWAP1 JUMP JUMPDEST JUMPDEST DUP1 DUP3 GT ISZERO PUSH2 0x694 JUMPI PUSH1 0x0 DUP2 PUSH1 0x0 SWAP1 SSTORE POP PUSH1 0x1 ADD PUSH2 0x67C JUMP JUMPDEST POP SWAP1 JUMP JUMPDEST PUSH1 0x0 DUP1 REVERT JUMPDEST PUSH1 0x0 DUP1 REVERT JUMPDEST PUSH1 0x0 DUP1 REVERT JUMPDEST PUSH1 0x0 DUP1 REVERT JUMPDEST PUSH1 0x0 DUP1 REVERT JUMPDEST PUSH1 0x0 DUP1 DUP4 PUSH1 0x1F DUP5 ADD SLT PUSH2 0x6C7 JUMPI PUSH2 0x6C6 PUSH2 0x6A2 JUMP JUMPDEST JUMPDEST DUP3 CALLDATALOAD SWAP1 POP PUSH8 0xFFFFFFFFFFFFFFFF DUP2 GT ISZERO PUSH2 0x6E4 JUMPI PUSH2 0x6E3 PUSH2 0x6A7 JUMP JUMPDEST JUMPDEST PUSH1 0x20 DUP4 ADD SWAP2 POP DUP4 PUSH1 0x1 DUP3 MUL DUP4 ADD GT ISZERO PUSH2 0x700 JUMPI PUSH2 0x6FF PUSH2 0x6AC JUMP JUMPDEST JUMPDEST SWAP3 POP SWAP3 SWAP1 POP JUMP JUMPDEST PUSH1 0x0 DUP1 PUSH1 0x0 DUP1 PUSH1 0x0 DUP1 PUSH1 0x60 DUP8 DUP10 SUB SLT ISZERO PUSH2 0x724 JUMPI PUSH2 0x723 PUSH2 0x698 JUMP JUMPDEST JUMPDEST PUSH1 0x0 DUP8 ADD CALLDATALOAD PUSH8 0xFFFFFFFFFFFFFFFF DUP2 GT ISZERO PUSH2 0x742 JUMPI PUSH2 0x741 PUSH2 0x69D JUMP JUMPDEST JUMPDEST PUSH2 0x74E DUP10 DUP3 DUP11 ADD PUSH2 0x6B1 JUMP JUMPDEST SWAP7 POP SWAP7 POP POP PUSH1 0x20 DUP8 ADD CALLDATALOAD PUSH8 0xFFFFFFFFFFFFFFFF DUP2 GT ISZERO PUSH2 0x771 JUMPI PUSH2 0x770 PUSH2 0x69D JUMP JUMPDEST JUMPDEST PUSH2 0x77D DUP10 DUP3 DUP11 ADD PUSH2 0x6B1 JUMP JUMPDEST SWAP5 POP SWAP5 POP POP PUSH1 0x40 DUP8 ADD CALLDATALOAD PUSH8 0xFFFFFFFFFFFFFFFF DUP2 GT ISZERO PUSH2 0x7A0 JUMPI PUSH2 0x79F PUSH2 0x69D JUMP JUMPDEST JUMPDEST PUSH2 0x7AC DUP10 DUP3 DUP11 ADD PUSH2 0x6B1 JUMP JUMPDEST SWAP3 POP SWAP3 POP POP SWAP3 SWAP6 POP SWAP3 SWAP6 POP SWAP3 SWAP6 JUMP JUMPDEST PUSH1 0x0 PUSH20 0xFFFFFFFFFFFFFFFFFFFFFFFFFFFFFFFFFFFFFFFF DUP3 AND SWAP1 POP SWAP2 SWAP1 POP JUMP JUMPDEST PUSH1 0x0 PUSH2 0x7E6 DUP3 PUSH2 0x7BB JUMP JUMPDEST SWAP1 POP SWAP2 SWAP1 POP JUMP JUMPDEST PUSH2 0x7F6 DUP2 PUSH2 0x7DB JUMP JUMPDEST DUP2 EQ PUSH2 0x801 JUMPI PUSH1 0x0 DUP1 REVERT JUMPDEST POP JUMP JUMPDEST PUSH1 0x0 DUP2 CALLDATALOAD SWAP1 POP PUSH2 0x813 DUP2 PUSH2 0x7ED JUMP JUMPDEST SWAP3 SWAP2 POP POP JUMP JUMPDEST PUSH1 0x0 DUP1 PUSH1 0x0 DUP1 PUSH1 0x0 PUSH1 0x60 DUP7 DUP9 SUB SLT ISZERO PUSH2 0x835 JUMPI PUSH2 0x834 PUSH2 0x698 JUMP JUMPDEST JUMPDEST PUSH1 0x0 PUSH2 0x843 DUP9 DUP3 DUP10 ADD PUSH2 0x804 JUMP JUMPDEST SWAP6 POP POP PUSH1 0x20 DUP7 ADD CALLDATALOAD PUSH8 0xFFFFFFFFFFFFFFFF DUP2 GT ISZERO PUSH2 0x864 JUMPI PUSH2 0x863 PUSH2 0x69D JUMP JUMPDEST JUMPDEST PUSH2 0x870 DUP9 DUP3 DUP10 ADD PUSH2 0x6B1 JUMP JUMPDEST SWAP5 POP SWAP5 POP POP PUSH1 0x40 DUP7 ADD CALLDATALOAD PUSH8 0xFFFFFFFFFFFFFFFF DUP2 GT ISZERO PUSH2 0x893 JUMPI PUSH2 0x892 PUSH2 0x69D JUMP JUMPDEST JUMPDEST PUSH2 0x89F DUP9 DUP3 DUP10 ADD PUSH2 0x6B1 JUMP JUMPDEST SWAP3 POP SWAP3 POP POP SWAP3 SWAP6 POP SWAP3 SWAP6 SWAP1 SWAP4 POP JUMP JUMPDEST PUSH1 0x0 DUP3 DUP3 MSTORE PUSH1 0x20 DUP3 ADD SWAP1 POP SWAP3 SWAP2 POP POP JUMP JUMPDEST PUSH32 0x796F752063616E206E6F7420616464206F6666696369616C0000000000000000 PUSH1 0x0 DUP3 ADD MSTORE POP JUMP JUMPDEST PUSH1 0x0 PUSH2 0x8F5 PUSH1 0x18 DUP4 PUSH2 0x8AE JUMP JUMPDEST SWAP2 POP PUSH2 0x900 DUP3 PUSH2 0x8BF JUMP JUMPDEST PUSH1 0x20 DUP3 ADD SWAP1 POP SWAP2 SWAP1 POP JUMP JUMPDEST PUSH1 0x0 PUSH1 0x20 DUP3 ADD SWAP1 POP DUP2 DUP2 SUB PUSH1 0x0 DUP4 ADD MSTORE PUSH2 0x924 DUP2 PUSH2 0x8E8 JUMP JUMPDEST SWAP1 POP SWAP2 SWAP1 POP JUMP JUMPDEST PUSH1 0x0 DUP2 SWAP1 POP SWAP3 SWAP2 POP POP JUMP JUMPDEST DUP3 DUP2 DUP4 CALLDATACOPY PUSH1 0x0 DUP4 DUP4 ADD MSTORE POP POP POP JUMP JUMPDEST PUSH1 0x0 PUSH2 0x951 DUP4 DUP6 PUSH2 0x92B JUMP JUMPDEST SWAP4 POP PUSH2 0x95E DUP4 DUP6 DUP5 PUSH2 0x936 JUMP JUMPDEST DUP3 DUP5 ADD SWAP1 POP SWAP4 SWAP3 POP POP POP JUMP JUMPDEST PUSH1 0x0 PUSH2 0x977 DUP3 DUP5 DUP7 PUSH2 0x945 JUMP JUMPDEST SWAP2 POP DUP2 SWAP1 POP SWAP4 SWAP3 POP POP POP JUMP JUMPDEST PUSH32 0x4E487B7100000000000000000000000000000000000000000000000000000000 PUSH1 0x0 MSTORE PUSH1 0x22 PUSH1 0x4 MSTORE PUSH1 0x24 PUSH1 0x0 REVERT JUMPDEST PUSH1 0x0 PUSH1 0x2 DUP3 DIV SWAP1 POP PUSH1 0x1 DUP3 AND DUP1 PUSH2 0x9CA JUMPI PUSH1 0x7F DUP3 AND SWAP2 POP JUMPDEST PUSH1 0x20 DUP3 LT DUP2 EQ ISZERO PUSH2 0x9DE JUMPI PUSH2 0x9DD PUSH2 0x983 JUMP JUMPDEST JUMPDEST POP SWAP2 SWAP1 POP JUMP JUMPDEST PUSH32 0x6C6F63616C20676F7665726E6D656E7420616C72656164792065786973740000 PUSH1 0x0 DUP3 ADD MSTORE POP JUMP JUMPDEST PUSH1 0x0 PUSH2 0xA1A PUSH1 0x1E DUP4 PUSH2 0x8AE JUMP JUMPDEST SWAP2 POP PUSH2 0xA25 DUP3 PUSH2 0x9E4 JUMP JUMPDEST PUSH1 0x20 DUP3 ADD SWAP1 POP SWAP2 SWAP1 POP JUMP JUMPDEST PUSH1 0x0 PUSH1 0x20 DUP3 ADD SWAP1 POP DUP2 DUP2 SUB PUSH1 0x0 DUP4 ADD MSTORE PUSH2 0xA49 DUP2 PUSH2 0xA0D JUMP JUMPDEST SWAP1 POP SWAP2 SWAP1 POP JUMP INVALID LOG2 PUSH5 0x6970667358 0x22 SLT KECCAK256 SUB PUSH27 0x77832E7ADE0D6F433C1F0316449455EC58402FC5D6D43575EBA203 LOG0 0x28 SWAP5 PUSH5 0x736F6C6343 STOP ADDMOD ADDMOD STOP CALLER "
				},
				"gasEstimates": {
					"creation": {
						"codeDepositCost": "538800",
						"executionCost": "24841",
						"totalCost": "563641"
					},
					"external": {
						"accredictedNewOfficial(address,string,string)": "infinite",
						"addZone(string,string,string)": "infinite"
					}
				},
				"methodIdentifiers": {
					"accredictedNewOfficial(address,string,string)": "b7a455e6",
					"addZone(string,string,string)": "6e12dc0e"
				}
			},
			"storageLayout": {
				"storage": [
					{
						"astId": 4,
						"contract": "contracts/EVote.sol:EVote",
						"label": "ownerAddr",
						"offset": 0,
						"slot": "0",
						"type": "t_address"
					},
					{
						"astId": 7,
						"contract": "contracts/EVote.sol:EVote",
						"label": "accredictedOfficialAddr",
						"offset": 0,
						"slot": "1",
						"type": "t_array(t_address)dyn_storage"
					},
					{
						"astId": 12,
						"contract": "contracts/EVote.sol:EVote",
						"label": "accredictedOfficialDetails",
						"offset": 0,
						"slot": "2",
						"type": "t_mapping(t_address,t_struct(Official)127_storage)"
					},
					{
						"astId": 17,
						"contract": "contracts/EVote.sol:EVote",
						"label": "accredictedZone",
						"offset": 0,
						"slot": "3",
						"type": "t_mapping(t_string_memory_ptr,t_struct(VoteZone)134_storage)"
					}
				],
				"types": {
					"t_address": {
						"encoding": "inplace",
						"label": "address",
						"numberOfBytes": "20"
					},
					"t_array(t_address)dyn_storage": {
						"base": "t_address",
						"encoding": "dynamic_array",
						"label": "address[]",
						"numberOfBytes": "32"
					},
					"t_bool": {
						"encoding": "inplace",
						"label": "bool",
						"numberOfBytes": "1"
					},
					"t_mapping(t_address,t_struct(Official)127_storage)": {
						"encoding": "mapping",
						"key": "t_address",
						"label": "mapping(address => struct Official)",
						"numberOfBytes": "32",
						"value": "t_struct(Official)127_storage"
					},
					"t_mapping(t_string_memory_ptr,t_struct(VoteZone)134_storage)": {
						"encoding": "mapping",
						"key": "t_string_memory_ptr",
						"label": "mapping(string => struct VoteZone)",
						"numberOfBytes": "32",
						"value": "t_struct(VoteZone)134_storage"
					},
					"t_string_memory_ptr": {
						"encoding": "bytes",
						"label": "string",
						"numberOfBytes": "32"
					},
					"t_string_storage": {
						"encoding": "bytes",
						"label": "string",
						"numberOfBytes": "32"
					},
					"t_struct(Official)127_storage": {
						"encoding": "inplace",
						"label": "struct Official",
						"members": [
							{
								"astId": 120,
								"contract": "contracts/EVote.sol:EVote",
								"label": "name",
								"offset": 0,
								"slot": "0",
								"type": "t_string_storage"
							},
							{
								"astId": 122,
								"contract": "contracts/EVote.sol:EVote",
								"label": "zoneCode",
								"offset": 0,
								"slot": "1",
								"type": "t_string_storage"
							},
							{
								"astId": 124,
								"contract": "contracts/EVote.sol:EVote",
								"label": "officialAddr",
								"offset": 0,
								"slot": "2",
								"type": "t_address"
							},
							{
								"astId": 126,
								"contract": "contracts/EVote.sol:EVote",
								"label": "isActive",
								"offset": 20,
								"slot": "2",
								"type": "t_bool"
							}
						],
						"numberOfBytes": "96"
					},
					"t_struct(VoteZone)134_storage": {
						"encoding": "inplace",
						"label": "struct VoteZone",
						"members": [
							{
								"astId": 129,
								"contract": "contracts/EVote.sol:EVote",
								"label": "lga",
								"offset": 0,
								"slot": "0",
								"type": "t_string_storage"
							},
							{
								"astId": 131,
								"contract": "contracts/EVote.sol:EVote",
								"label": "state",
								"offset": 0,
								"slot": "1",
								"type": "t_string_storage"
							},
							{
								"astId": 133,
								"contract": "contracts/EVote.sol:EVote",
								"label": "zoneCode",
								"offset": 0,
								"slot": "2",
								"type": "t_string_storage"
							}
						],
						"numberOfBytes": "96"
					}
				}
			},
			"userdoc": {
				"kind": "user",
				"methods": {},
				"version": 1
			}
		}
	}
}