{
	"contracts/EVote.sol": {
		"EVote": {
			"abi": [
				{
					"inputs": [],
					"stateMutability": "nonpayable",
					"type": "constructor"
				},
				{
					"inputs": [
						{
							"internalType": "address",
							"name": "officialAddress",
							"type": "address"
						},
						{
							"internalType": "string",
							"name": "officialName",
							"type": "string"
						},
						{
							"internalType": "string",
							"name": "lgaCode",
							"type": "string"
						}
					],
					"name": "accredictedNewOfficial",
					"outputs": [],
					"stateMutability": "nonpayable",
					"type": "function"
				},
				{
					"inputs": [
						{
							"internalType": "string",
							"name": "lga",
							"type": "string"
						},
						{
							"internalType": "string",
							"name": "lgaCode",
							"type": "string"
						},
						{
							"internalType": "uint256",
							"name": "stateCode",
							"type": "uint256"
						}
					],
					"name": "addLocalGovernment",
					"outputs": [
						{
							"components": [
								{
									"internalType": "string",
									"name": "lga",
									"type": "string"
								},
								{
									"internalType": "string",
									"name": "state",
									"type": "string"
								},
								{
									"internalType": "uint256",
									"name": "stateCode",
									"type": "uint256"
								},
								{
									"internalType": "string",
									"name": "lgaCode",
									"type": "string"
								}
							],
							"internalType": "struct VoteZone",
							"name": "_zone",
							"type": "tuple"
						}
					],
					"stateMutability": "nonpayable",
					"type": "function"
				},
				{
					"inputs": [
						{
							"internalType": "string",
							"name": "stateName",
							"type": "string"
						},
						{
							"internalType": "uint256",
							"name": "stateCode",
							"type": "uint256"
						}
					],
					"name": "addState",
					"outputs": [],
					"stateMutability": "nonpayable",
					"type": "function"
				},
				{
					"inputs": [],
					"name": "getLocalGovernment",
					"outputs": [
						{
							"components": [
								{
									"internalType": "string",
									"name": "lga",
									"type": "string"
								},
								{
									"internalType": "string",
									"name": "state",
									"type": "string"
								},
								{
									"internalType": "uint256",
									"name": "stateCode",
									"type": "uint256"
								},
								{
									"internalType": "string",
									"name": "lgaCode",
									"type": "string"
								}
							],
							"internalType": "struct VoteZone[]",
							"name": "",
							"type": "tuple[]"
						}
					],
					"stateMutability": "view",
					"type": "function"
				},
				{
					"inputs": [],
					"name": "getOwner",
					"outputs": [
						{
							"internalType": "address",
							"name": "",
							"type": "address"
						}
					],
					"stateMutability": "view",
					"type": "function"
				},
				{
					"inputs": [],
					"name": "getStates",
					"outputs": [
						{
							"internalType": "string[]",
							"name": "",
							"type": "string[]"
						}
					],
					"stateMutability": "view",
					"type": "function"
				}
			],
			"devdoc": {
				"kind": "dev",
				"methods": {},
				"version": 1
			},
			"evm": {
				"assembly": "    /* \"contracts/EVote.sol\":371:2565  contract EVote{... */\n  mstore(0x40, 0x80)\n    /* \"contracts/EVote.sol\":1113:1166  constructor (){... */\n  callvalue\n  dup1\n  iszero\n  tag_1\n  jumpi\n  0x00\n  dup1\n  revert\ntag_1:\n  pop\n    /* \"contracts/EVote.sol\":1149:1159  msg.sender */\n  caller\n    /* \"contracts/EVote.sol\":1137:1146  ownerAddr */\n  0x00\n  dup1\n    /* \"contracts/EVote.sol\":1137:1159  ownerAddr = msg.sender */\n  0x0100\n  exp\n  dup2\n  sload\n  dup2\n  0xffffffffffffffffffffffffffffffffffffffff\n  mul\n  not\n  and\n  swap1\n  dup4\n  0xffffffffffffffffffffffffffffffffffffffff\n  and\n  mul\n  or\n  swap1\n  sstore\n  pop\n    /* \"contracts/EVote.sol\":371:2565  contract EVote{... */\n  dataSize(sub_0)\n  dup1\n  dataOffset(sub_0)\n  0x00\n  codecopy\n  0x00\n  return\nstop\n\nsub_0: assembly {\n        /* \"contracts/EVote.sol\":371:2565  contract EVote{... */\n      mstore(0x40, 0x80)\n      callvalue\n      dup1\n      iszero\n      tag_1\n      jumpi\n      0x00\n      dup1\n      revert\n    tag_1:\n      pop\n      jumpi(tag_2, lt(calldatasize, 0x04))\n      shr(0xe0, calldataload(0x00))\n      dup1\n      0x5c060b79\n      eq\n      tag_3\n      jumpi\n      dup1\n      0x6b935b86\n      eq\n      tag_4\n      jumpi\n      dup1\n      0x78c338d7\n      eq\n      tag_5\n      jumpi\n      dup1\n      0x893d20e8\n      eq\n      tag_6\n      jumpi\n      dup1\n      0xb7a455e6\n      eq\n      tag_7\n      jumpi\n      dup1\n      0xd8ab8274\n      eq\n      tag_8\n      jumpi\n    tag_2:\n      0x00\n      dup1\n      revert\n        /* \"contracts/EVote.sol\":1358:1600  function addState(string calldata stateName, uint  stateCode) external isOwnerMod{... */\n    tag_3:\n      tag_9\n      0x04\n      dup1\n      calldatasize\n      sub\n      dup2\n      add\n      swap1\n      tag_10\n      swap2\n      swap1\n      tag_11\n      jump\t// in\n    tag_10:\n      tag_12\n      jump\t// in\n    tag_9:\n      stop\n        /* \"contracts/EVote.sol\":1997:2097  function getLocalGovernment() external view returns (VoteZone[] memory){... */\n    tag_4:\n      tag_13\n      tag_14\n      jump\t// in\n    tag_13:\n      mload(0x40)\n      tag_15\n      swap2\n      swap1\n      tag_16\n      jump\t// in\n    tag_15:\n      mload(0x40)\n      dup1\n      swap2\n      sub\n      swap1\n      return\n        /* \"contracts/EVote.sol\":1606:1991  function addLocalGovernment(string calldata lga, string calldata lgaCode, uint stateCode)  external isOwnerMod checkState(stateCode) checkLocalGovtCode(lgaCode) returns (VoteZone memory _zone){... */\n    tag_5:\n      tag_17\n      0x04\n      dup1\n      calldatasize\n      sub\n      dup2\n      add\n      swap1\n      tag_18\n      swap2\n      swap1\n      tag_19\n      jump\t// in\n    tag_18:\n      tag_20\n      jump\t// in\n    tag_17:\n      mload(0x40)\n      tag_21\n      swap2\n      swap1\n      tag_22\n      jump\t// in\n    tag_21:\n      mload(0x40)\n      dup1\n      swap2\n      sub\n      swap1\n      return\n        /* \"contracts/EVote.sol\":1172:1256  function getOwner() external view returns (address){... */\n    tag_6:\n      tag_23\n      tag_24\n      jump\t// in\n    tag_23:\n      mload(0x40)\n      tag_25\n      swap2\n      swap1\n      tag_26\n      jump\t// in\n    tag_25:\n      mload(0x40)\n      dup1\n      swap2\n      sub\n      swap1\n      return\n        /* \"contracts/EVote.sol\":2103:2560  function accredictedNewOfficial(address officialAddress, string calldata officialName, string calldata lgaCode) external isOwnerMod checkLocalGovtCode(lgaCode){... */\n    tag_7:\n      tag_27\n      0x04\n      dup1\n      calldatasize\n      sub\n      dup2\n      add\n      swap1\n      tag_28\n      swap2\n      swap1\n      tag_29\n      jump\t// in\n    tag_28:\n      tag_30\n      jump\t// in\n    tag_27:\n      stop\n        /* \"contracts/EVote.sol\":1262:1352  function getStates() external view returns(string[] memory) {... */\n    tag_8:\n      tag_31\n      tag_32\n      jump\t// in\n    tag_31:\n      mload(0x40)\n      tag_33\n      swap2\n      swap1\n      tag_34\n      jump\t// in\n    tag_33:\n      mload(0x40)\n      dup1\n      swap2\n      sub\n      swap1\n      return\n        /* \"contracts/EVote.sol\":1358:1600  function addState(string calldata stateName, uint  stateCode) external isOwnerMod{... */\n    tag_12:\n        /* \"contracts/EVote.sol\":737:747  msg.sender */\n      caller\n        /* \"contracts/EVote.sol\":724:747  ownerAddr != msg.sender */\n      0xffffffffffffffffffffffffffffffffffffffff\n      and\n        /* \"contracts/EVote.sol\":724:733  ownerAddr */\n      0x00\n      dup1\n      sload\n      swap1\n      0x0100\n      exp\n      swap1\n      div\n      0xffffffffffffffffffffffffffffffffffffffff\n      and\n        /* \"contracts/EVote.sol\":724:747  ownerAddr != msg.sender */\n      0xffffffffffffffffffffffffffffffffffffffff\n      and\n      eq\n      iszero\n        /* \"contracts/EVote.sol\":716:775  require(ownerAddr != msg.sender,\"you can not add official\") */\n      tag_36\n      jumpi\n      mload(0x40)\n      0x08c379a000000000000000000000000000000000000000000000000000000000\n      dup2\n      mstore\n      0x04\n      add\n      tag_37\n      swap1\n      tag_38\n      jump\t// in\n    tag_37:\n      mload(0x40)\n      dup1\n      swap2\n      sub\n      swap1\n      revert\n    tag_36:\n        /* \"contracts/EVote.sol\":1494:1495  0 */\n      0x00\n        /* \"contracts/EVote.sol\":1463:1472  statesMap */\n      0x05\n        /* \"contracts/EVote.sol\":1463:1483  statesMap[stateCode] */\n      0x00\n        /* \"contracts/EVote.sol\":1473:1482  stateCode */\n      dup4\n        /* \"contracts/EVote.sol\":1463:1483  statesMap[stateCode] */\n      dup2\n      mstore\n      0x20\n      add\n      swap1\n      dup2\n      mstore\n      0x20\n      add\n      0x00\n      keccak256\n        /* \"contracts/EVote.sol\":1457:1491  bytes(statesMap[stateCode]).length */\n      dup1\n      sload\n      tag_40\n      swap1\n      tag_41\n      jump\t// in\n    tag_40:\n      swap1\n      pop\n        /* \"contracts/EVote.sol\":1457:1495  bytes(statesMap[stateCode]).length > 0 */\n      gt\n        /* \"contracts/EVote.sol\":1449:1519  require(bytes(statesMap[stateCode]).length > 0, \"state already exist\") */\n      tag_42\n      jumpi\n      mload(0x40)\n      0x08c379a000000000000000000000000000000000000000000000000000000000\n      dup2\n      mstore\n      0x04\n      add\n      tag_43\n      swap1\n      tag_44\n      jump\t// in\n    tag_43:\n      mload(0x40)\n      dup1\n      swap2\n      sub\n      swap1\n      revert\n    tag_42:\n        /* \"contracts/EVote.sol\":1552:1561  stateName */\n      dup3\n      dup3\n        /* \"contracts/EVote.sol\":1529:1538  statesMap */\n      0x05\n        /* \"contracts/EVote.sol\":1529:1549  statesMap[stateCode] */\n      0x00\n        /* \"contracts/EVote.sol\":1539:1548  stateCode */\n      dup5\n        /* \"contracts/EVote.sol\":1529:1549  statesMap[stateCode] */\n      dup2\n      mstore\n      0x20\n      add\n      swap1\n      dup2\n      mstore\n      0x20\n      add\n      0x00\n      keccak256\n        /* \"contracts/EVote.sol\":1529:1561  statesMap[stateCode] = stateName */\n      swap2\n      swap1\n      tag_45\n      swap3\n      swap2\n      swap1\n      tag_46\n      jump\t// in\n    tag_45:\n      pop\n        /* \"contracts/EVote.sol\":1571:1577  states */\n      0x06\n        /* \"contracts/EVote.sol\":1583:1592  stateName */\n      dup4\n      dup4\n        /* \"contracts/EVote.sol\":1571:1593  states.push(stateName) */\n      swap1\n      swap2\n      dup1\n      0x01\n      dup2\n      sload\n      add\n      dup1\n      dup3\n      sstore\n      dup1\n      swap2\n      pop\n      pop\n      0x01\n      swap1\n      sub\n      swap1\n      0x00\n      mstore\n      keccak256(0x00, 0x20)\n      add\n      0x00\n      swap1\n      swap2\n      swap3\n      swap1\n      swap2\n      swap3\n      swap1\n      swap2\n      swap3\n      swap1\n      swap2\n      swap3\n      pop\n      swap2\n      swap1\n      tag_48\n      swap3\n      swap2\n      swap1\n      tag_46\n      jump\t// in\n    tag_48:\n      pop\n        /* \"contracts/EVote.sol\":1358:1600  function addState(string calldata stateName, uint  stateCode) external isOwnerMod{... */\n      pop\n      pop\n      pop\n      jump\t// out\n        /* \"contracts/EVote.sol\":1997:2097  function getLocalGovernment() external view returns (VoteZone[] memory){... */\n    tag_14:\n        /* \"contracts/EVote.sol\":2050:2067  VoteZone[] memory */\n      0x60\n        /* \"contracts/EVote.sol\":2084:2089  zones */\n      0x04\n        /* \"contracts/EVote.sol\":2077:2089  return zones */\n      dup1\n      sload\n      dup1\n      0x20\n      mul\n      0x20\n      add\n      mload(0x40)\n      swap1\n      dup2\n      add\n      0x40\n      mstore\n      dup1\n      swap3\n      swap2\n      swap1\n      dup2\n      dup2\n      mstore\n      0x20\n      add\n      0x00\n      swap1\n    tag_50:\n      dup3\n      dup3\n      lt\n      iszero\n      tag_51\n      jumpi\n      dup4\n      dup3\n      swap1\n      0x00\n      mstore\n      keccak256(0x00, 0x20)\n      swap1\n      0x04\n      mul\n      add\n      mload(0x40)\n      dup1\n      0x80\n      add\n      0x40\n      mstore\n      swap1\n      dup2\n      0x00\n      dup3\n      add\n      dup1\n      sload\n      tag_53\n      swap1\n      tag_41\n      jump\t// in\n    tag_53:\n      dup1\n      0x1f\n      add\n      0x20\n      dup1\n      swap2\n      div\n      mul\n      0x20\n      add\n      mload(0x40)\n      swap1\n      dup2\n      add\n      0x40\n      mstore\n      dup1\n      swap3\n      swap2\n      swap1\n      dup2\n      dup2\n      mstore\n      0x20\n      add\n      dup3\n      dup1\n      sload\n      tag_54\n      swap1\n      tag_41\n      jump\t// in\n    tag_54:\n      dup1\n      iszero\n      tag_55\n      jumpi\n      dup1\n      0x1f\n      lt\n      tag_56\n      jumpi\n      0x0100\n      dup1\n      dup4\n      sload\n      div\n      mul\n      dup4\n      mstore\n      swap2\n      0x20\n      add\n      swap2\n      jump(tag_55)\n    tag_56:\n      dup3\n      add\n      swap2\n      swap1\n      0x00\n      mstore\n      keccak256(0x00, 0x20)\n      swap1\n    tag_57:\n      dup2\n      sload\n      dup2\n      mstore\n      swap1\n      0x01\n      add\n      swap1\n      0x20\n      add\n      dup1\n      dup4\n      gt\n      tag_57\n      jumpi\n      dup3\n      swap1\n      sub\n      0x1f\n      and\n      dup3\n      add\n      swap2\n    tag_55:\n      pop\n      pop\n      pop\n      pop\n      pop\n      dup2\n      mstore\n      0x20\n      add\n      0x01\n      dup3\n      add\n      dup1\n      sload\n      tag_58\n      swap1\n      tag_41\n      jump\t// in\n    tag_58:\n      dup1\n      0x1f\n      add\n      0x20\n      dup1\n      swap2\n      div\n      mul\n      0x20\n      add\n      mload(0x40)\n      swap1\n      dup2\n      add\n      0x40\n      mstore\n      dup1\n      swap3\n      swap2\n      swap1\n      dup2\n      dup2\n      mstore\n      0x20\n      add\n      dup3\n      dup1\n      sload\n      tag_59\n      swap1\n      tag_41\n      jump\t// in\n    tag_59:\n      dup1\n      iszero\n      tag_60\n      jumpi\n      dup1\n      0x1f\n      lt\n      tag_61\n      jumpi\n      0x0100\n      dup1\n      dup4\n      sload\n      div\n      mul\n      dup4\n      mstore\n      swap2\n      0x20\n      add\n      swap2\n      jump(tag_60)\n    tag_61:\n      dup3\n      add\n      swap2\n      swap1\n      0x00\n      mstore\n      keccak256(0x00, 0x20)\n      swap1\n    tag_62:\n      dup2\n      sload\n      dup2\n      mstore\n      swap1\n      0x01\n      add\n      swap1\n      0x20\n      add\n      dup1\n      dup4\n      gt\n      tag_62\n      jumpi\n      dup3\n      swap1\n      sub\n      0x1f\n      and\n      dup3\n      add\n      swap2\n    tag_60:\n      pop\n      pop\n      pop\n      pop\n      pop\n      dup2\n      mstore\n      0x20\n      add\n      0x02\n      dup3\n      add\n      sload\n      dup2\n      mstore\n      0x20\n      add\n      0x03\n      dup3\n      add\n      dup1\n      sload\n      tag_63\n      swap1\n      tag_41\n      jump\t// in\n    tag_63:\n      dup1\n      0x1f\n      add\n      0x20\n      dup1\n      swap2\n      div\n      mul\n      0x20\n      add\n      mload(0x40)\n      swap1\n      dup2\n      add\n      0x40\n      mstore\n      dup1\n      swap3\n      swap2\n      swap1\n      dup2\n      dup2\n      mstore\n      0x20\n      add\n      dup3\n      dup1\n      sload\n      tag_64\n      swap1\n      tag_41\n      jump\t// in\n    tag_64:\n      dup1\n      iszero\n      tag_65\n      jumpi\n      dup1\n      0x1f\n      lt\n      tag_66\n      jumpi\n      0x0100\n      dup1\n      dup4\n      sload\n      div\n      mul\n      dup4\n      mstore\n      swap2\n      0x20\n      add\n      swap2\n      jump(tag_65)\n    tag_66:\n      dup3\n      add\n      swap2\n      swap1\n      0x00\n      mstore\n      keccak256(0x00, 0x20)\n      swap1\n    tag_67:\n      dup2\n      sload\n      dup2\n      mstore\n      swap1\n      0x01\n      add\n      swap1\n      0x20\n      add\n      dup1\n      dup4\n      gt\n      tag_67\n      jumpi\n      dup3\n      swap1\n      sub\n      0x1f\n      and\n      dup3\n      add\n      swap2\n    tag_65:\n      pop\n      pop\n      pop\n      pop\n      pop\n      dup2\n      mstore\n      pop\n      pop\n      dup2\n      mstore\n      0x20\n      add\n      swap1\n      0x01\n      add\n      swap1\n      jump(tag_50)\n    tag_51:\n      pop\n      pop\n      pop\n      pop\n      swap1\n      pop\n        /* \"contracts/EVote.sol\":1997:2097  function getLocalGovernment() external view returns (VoteZone[] memory){... */\n      swap1\n      jump\t// out\n        /* \"contracts/EVote.sol\":1606:1991  function addLocalGovernment(string calldata lga, string calldata lgaCode, uint stateCode)  external isOwnerMod checkState(stateCode) checkLocalGovtCode(lgaCode) returns (VoteZone memory _zone){... */\n    tag_20:\n        /* \"contracts/EVote.sol\":1776:1797  VoteZone memory _zone */\n      tag_68\n      tag_69\n      jump\t// in\n    tag_68:\n        /* \"contracts/EVote.sol\":737:747  msg.sender */\n      caller\n        /* \"contracts/EVote.sol\":724:747  ownerAddr != msg.sender */\n      0xffffffffffffffffffffffffffffffffffffffff\n      and\n        /* \"contracts/EVote.sol\":724:733  ownerAddr */\n      0x00\n      dup1\n      sload\n      swap1\n      0x0100\n      exp\n      swap1\n      div\n      0xffffffffffffffffffffffffffffffffffffffff\n      and\n        /* \"contracts/EVote.sol\":724:747  ownerAddr != msg.sender */\n      0xffffffffffffffffffffffffffffffffffffffff\n      and\n      eq\n      iszero\n        /* \"contracts/EVote.sol\":716:775  require(ownerAddr != msg.sender,\"you can not add official\") */\n      tag_71\n      jumpi\n      mload(0x40)\n      0x08c379a000000000000000000000000000000000000000000000000000000000\n      dup2\n      mstore\n      0x04\n      add\n      tag_72\n      swap1\n      tag_38\n      jump\t// in\n    tag_72:\n      mload(0x40)\n      dup1\n      swap2\n      sub\n      swap1\n      revert\n    tag_71:\n        /* \"contracts/EVote.sol\":1728:1737  stateCode */\n      dup2\n        /* \"contracts/EVote.sol\":1059:1060  0 */\n      0x00\n        /* \"contracts/EVote.sol\":1028:1037  statesMap */\n      0x05\n        /* \"contracts/EVote.sol\":1028:1048  statesMap[stateCode] */\n      0x00\n        /* \"contracts/EVote.sol\":1038:1047  stateCode */\n      dup4\n        /* \"contracts/EVote.sol\":1028:1048  statesMap[stateCode] */\n      dup2\n      mstore\n      0x20\n      add\n      swap1\n      dup2\n      mstore\n      0x20\n      add\n      0x00\n      keccak256\n        /* \"contracts/EVote.sol\":1022:1056  bytes(statesMap[stateCode]).length */\n      dup1\n      sload\n      tag_74\n      swap1\n      tag_41\n      jump\t// in\n    tag_74:\n      swap1\n      pop\n        /* \"contracts/EVote.sol\":1022:1060  bytes(statesMap[stateCode]).length < 0 */\n      lt\n        /* \"contracts/EVote.sol\":1014:1085  require(bytes(statesMap[stateCode]).length < 0, \"state does not exist\") */\n      tag_75\n      jumpi\n      mload(0x40)\n      0x08c379a000000000000000000000000000000000000000000000000000000000\n      dup2\n      mstore\n      0x04\n      add\n      tag_76\n      swap1\n      tag_77\n      jump\t// in\n    tag_76:\n      mload(0x40)\n      dup1\n      swap2\n      sub\n      swap1\n      revert\n    tag_75:\n        /* \"contracts/EVote.sol\":1758:1765  lgaCode */\n      dup5\n      dup5\n        /* \"contracts/EVote.sol\":908:909  0 */\n      0x00\n        /* \"contracts/EVote.sol\":872:887  accredictedZone */\n      0x03\n        /* \"contracts/EVote.sol\":888:892  code */\n      dup4\n      dup4\n        /* \"contracts/EVote.sol\":872:893  accredictedZone[code] */\n      mload(0x40)\n      tag_79\n      swap3\n      swap2\n      swap1\n      tag_80\n      jump\t// in\n    tag_79:\n      swap1\n      dup2\n      mstore\n      0x20\n      add\n      mload(0x40)\n      dup1\n      swap2\n      sub\n      swap1\n      keccak256\n        /* \"contracts/EVote.sol\":872:897  accredictedZone[code].lga */\n      0x00\n      add\n        /* \"contracts/EVote.sol\":866:905  bytes(accredictedZone[code].lga).length */\n      dup1\n      sload\n      tag_81\n      swap1\n      tag_41\n      jump\t// in\n    tag_81:\n      swap1\n      pop\n        /* \"contracts/EVote.sol\":866:909  bytes(accredictedZone[code].lga).length > 0 */\n      gt\n        /* \"contracts/EVote.sol\":858:945  require(bytes(accredictedZone[code].lga).length > 0 , \"local government already exist\") */\n      tag_82\n      jumpi\n      mload(0x40)\n      0x08c379a000000000000000000000000000000000000000000000000000000000\n      dup2\n      mstore\n      0x04\n      add\n      tag_83\n      swap1\n      tag_84\n      jump\t// in\n    tag_83:\n      mload(0x40)\n      dup1\n      swap2\n      sub\n      swap1\n      revert\n    tag_82:\n        /* \"contracts/EVote.sol\":1808:1832  string memory _stateName */\n      0x00\n        /* \"contracts/EVote.sol\":1835:1844  statesMap */\n      0x05\n        /* \"contracts/EVote.sol\":1835:1855  statesMap[stateCode] */\n      0x00\n        /* \"contracts/EVote.sol\":1845:1854  stateCode */\n      dup8\n        /* \"contracts/EVote.sol\":1835:1855  statesMap[stateCode] */\n      dup2\n      mstore\n      0x20\n      add\n      swap1\n      dup2\n      mstore\n      0x20\n      add\n      0x00\n      keccak256\n        /* \"contracts/EVote.sol\":1808:1855  string memory _stateName = statesMap[stateCode] */\n      dup1\n      sload\n      tag_86\n      swap1\n      tag_41\n      jump\t// in\n    tag_86:\n      dup1\n      0x1f\n      add\n      0x20\n      dup1\n      swap2\n      div\n      mul\n      0x20\n      add\n      mload(0x40)\n      swap1\n      dup2\n      add\n      0x40\n      mstore\n      dup1\n      swap3\n      swap2\n      swap1\n      dup2\n      dup2\n      mstore\n      0x20\n      add\n      dup3\n      dup1\n      sload\n      tag_87\n      swap1\n      tag_41\n      jump\t// in\n    tag_87:\n      dup1\n      iszero\n      tag_88\n      jumpi\n      dup1\n      0x1f\n      lt\n      tag_89\n      jumpi\n      0x0100\n      dup1\n      dup4\n      sload\n      div\n      mul\n      dup4\n      mstore\n      swap2\n      0x20\n      add\n      swap2\n      jump(tag_88)\n    tag_89:\n      dup3\n      add\n      swap2\n      swap1\n      0x00\n      mstore\n      keccak256(0x00, 0x20)\n      swap1\n    tag_90:\n      dup2\n      sload\n      dup2\n      mstore\n      swap1\n      0x01\n      add\n      swap1\n      0x20\n      add\n      dup1\n      dup4\n      gt\n      tag_90\n      jumpi\n      dup3\n      swap1\n      sub\n      0x1f\n      and\n      dup3\n      add\n      swap2\n    tag_88:\n      pop\n      pop\n      pop\n      pop\n      pop\n      swap1\n      pop\n        /* \"contracts/EVote.sol\":1873:1915  VoteZone(lga,_stateName,stateCode,lgaCode) */\n      mload(0x40)\n      dup1\n      0x80\n      add\n      0x40\n      mstore\n      dup1\n        /* \"contracts/EVote.sol\":1882:1885  lga */\n      dup12\n      dup12\n        /* \"contracts/EVote.sol\":1873:1915  VoteZone(lga,_stateName,stateCode,lgaCode) */\n      dup1\n      dup1\n      0x1f\n      add\n      0x20\n      dup1\n      swap2\n      div\n      mul\n      0x20\n      add\n      mload(0x40)\n      swap1\n      dup2\n      add\n      0x40\n      mstore\n      dup1\n      swap4\n      swap3\n      swap2\n      swap1\n      dup2\n      dup2\n      mstore\n      0x20\n      add\n      dup4\n      dup4\n      dup1\n      dup3\n      dup5\n      calldatacopy\n      0x00\n      dup2\n      dup5\n      add\n      mstore\n      not(0x1f)\n      0x1f\n      dup3\n      add\n      and\n      swap1\n      pop\n      dup1\n      dup4\n      add\n      swap3\n      pop\n      pop\n      pop\n      pop\n      pop\n      pop\n      pop\n      dup2\n      mstore\n      0x20\n      add\n        /* \"contracts/EVote.sol\":1886:1896  _stateName */\n      dup3\n        /* \"contracts/EVote.sol\":1873:1915  VoteZone(lga,_stateName,stateCode,lgaCode) */\n      dup2\n      mstore\n      0x20\n      add\n        /* \"contracts/EVote.sol\":1897:1906  stateCode */\n      dup8\n        /* \"contracts/EVote.sol\":1873:1915  VoteZone(lga,_stateName,stateCode,lgaCode) */\n      dup2\n      mstore\n      0x20\n      add\n        /* \"contracts/EVote.sol\":1907:1914  lgaCode */\n      dup10\n      dup10\n        /* \"contracts/EVote.sol\":1873:1915  VoteZone(lga,_stateName,stateCode,lgaCode) */\n      dup1\n      dup1\n      0x1f\n      add\n      0x20\n      dup1\n      swap2\n      div\n      mul\n      0x20\n      add\n      mload(0x40)\n      swap1\n      dup2\n      add\n      0x40\n      mstore\n      dup1\n      swap4\n      swap3\n      swap2\n      swap1\n      dup2\n      dup2\n      mstore\n      0x20\n      add\n      dup4\n      dup4\n      dup1\n      dup3\n      dup5\n      calldatacopy\n      0x00\n      dup2\n      dup5\n      add\n      mstore\n      not(0x1f)\n      0x1f\n      dup3\n      add\n      and\n      swap1\n      pop\n      dup1\n      dup4\n      add\n      swap3\n      pop\n      pop\n      pop\n      pop\n      pop\n      pop\n      pop\n      dup2\n      mstore\n      pop\n        /* \"contracts/EVote.sol\":1865:1915  _zone = VoteZone(lga,_stateName,stateCode,lgaCode) */\n      swap5\n      pop\n        /* \"contracts/EVote.sol\":1952:1957  _zone */\n      dup5\n        /* \"contracts/EVote.sol\":1925:1940  accredictedZone */\n      0x03\n        /* \"contracts/EVote.sol\":1941:1948  lgaCode */\n      dup10\n      dup10\n        /* \"contracts/EVote.sol\":1925:1949  accredictedZone[lgaCode] */\n      mload(0x40)\n      tag_91\n      swap3\n      swap2\n      swap1\n      tag_80\n      jump\t// in\n    tag_91:\n      swap1\n      dup2\n      mstore\n      0x20\n      add\n      mload(0x40)\n      dup1\n      swap2\n      sub\n      swap1\n      keccak256\n        /* \"contracts/EVote.sol\":1925:1957  accredictedZone[lgaCode] = _zone */\n      0x00\n      dup3\n      add\n      mload\n      dup2\n      0x00\n      add\n      swap1\n      dup1\n      mload\n      swap1\n      0x20\n      add\n      swap1\n      tag_92\n      swap3\n      swap2\n      swap1\n      tag_93\n      jump\t// in\n    tag_92:\n      pop\n      0x20\n      dup3\n      add\n      mload\n      dup2\n      0x01\n      add\n      swap1\n      dup1\n      mload\n      swap1\n      0x20\n      add\n      swap1\n      tag_94\n      swap3\n      swap2\n      swap1\n      tag_93\n      jump\t// in\n    tag_94:\n      pop\n      0x40\n      dup3\n      add\n      mload\n      dup2\n      0x02\n      add\n      sstore\n      0x60\n      dup3\n      add\n      mload\n      dup2\n      0x03\n      add\n      swap1\n      dup1\n      mload\n      swap1\n      0x20\n      add\n      swap1\n      tag_95\n      swap3\n      swap2\n      swap1\n      tag_93\n      jump\t// in\n    tag_95:\n      pop\n      swap1\n      pop\n      pop\n        /* \"contracts/EVote.sol\":1967:1972  zones */\n      0x04\n        /* \"contracts/EVote.sol\":1978:1983  _zone */\n      dup6\n        /* \"contracts/EVote.sol\":1967:1984  zones.push(_zone) */\n      swap1\n      dup1\n      0x01\n      dup2\n      sload\n      add\n      dup1\n      dup3\n      sstore\n      dup1\n      swap2\n      pop\n      pop\n      0x01\n      swap1\n      sub\n      swap1\n      0x00\n      mstore\n      keccak256(0x00, 0x20)\n      swap1\n      0x04\n      mul\n      add\n      0x00\n      swap1\n      swap2\n      swap1\n      swap2\n      swap1\n      swap2\n      pop\n      0x00\n      dup3\n      add\n      mload\n      dup2\n      0x00\n      add\n      swap1\n      dup1\n      mload\n      swap1\n      0x20\n      add\n      swap1\n      tag_97\n      swap3\n      swap2\n      swap1\n      tag_93\n      jump\t// in\n    tag_97:\n      pop\n      0x20\n      dup3\n      add\n      mload\n      dup2\n      0x01\n      add\n      swap1\n      dup1\n      mload\n      swap1\n      0x20\n      add\n      swap1\n      tag_98\n      swap3\n      swap2\n      swap1\n      tag_93\n      jump\t// in\n    tag_98:\n      pop\n      0x40\n      dup3\n      add\n      mload\n      dup2\n      0x02\n      add\n      sstore\n      0x60\n      dup3\n      add\n      mload\n      dup2\n      0x03\n      add\n      swap1\n      dup1\n      mload\n      swap1\n      0x20\n      add\n      swap1\n      tag_99\n      swap3\n      swap2\n      swap1\n      tag_93\n      jump\t// in\n    tag_99:\n      pop\n      pop\n      pop\n        /* \"contracts/EVote.sol\":1798:1991  {... */\n      pop\n        /* \"contracts/EVote.sol\":1095:1096  _ */\n      pop\n      pop\n        /* \"contracts/EVote.sol\":785:786  _ */\n      pop\n        /* \"contracts/EVote.sol\":1606:1991  function addLocalGovernment(string calldata lga, string calldata lgaCode, uint stateCode)  external isOwnerMod checkState(stateCode) checkLocalGovtCode(lgaCode) returns (VoteZone memory _zone){... */\n      swap6\n      swap5\n      pop\n      pop\n      pop\n      pop\n      pop\n      jump\t// out\n        /* \"contracts/EVote.sol\":1172:1256  function getOwner() external view returns (address){... */\n    tag_24:\n        /* \"contracts/EVote.sol\":1215:1222  address */\n      0x00\n        /* \"contracts/EVote.sol\":1240:1249  ownerAddr */\n      dup1\n      0x00\n      swap1\n      sload\n      swap1\n      0x0100\n      exp\n      swap1\n      div\n      0xffffffffffffffffffffffffffffffffffffffff\n      and\n        /* \"contracts/EVote.sol\":1233:1249  return ownerAddr */\n      swap1\n      pop\n        /* \"contracts/EVote.sol\":1172:1256  function getOwner() external view returns (address){... */\n      swap1\n      jump\t// out\n        /* \"contracts/EVote.sol\":2103:2560  function accredictedNewOfficial(address officialAddress, string calldata officialName, string calldata lgaCode) external isOwnerMod checkLocalGovtCode(lgaCode){... */\n    tag_30:\n        /* \"contracts/EVote.sol\":737:747  msg.sender */\n      caller\n        /* \"contracts/EVote.sol\":724:747  ownerAddr != msg.sender */\n      0xffffffffffffffffffffffffffffffffffffffff\n      and\n        /* \"contracts/EVote.sol\":724:733  ownerAddr */\n      0x00\n      dup1\n      sload\n      swap1\n      0x0100\n      exp\n      swap1\n      div\n      0xffffffffffffffffffffffffffffffffffffffff\n      and\n        /* \"contracts/EVote.sol\":724:747  ownerAddr != msg.sender */\n      0xffffffffffffffffffffffffffffffffffffffff\n      and\n      eq\n      iszero\n        /* \"contracts/EVote.sol\":716:775  require(ownerAddr != msg.sender,\"you can not add official\") */\n      tag_102\n      jumpi\n      mload(0x40)\n      0x08c379a000000000000000000000000000000000000000000000000000000000\n      dup2\n      mstore\n      0x04\n      add\n      tag_103\n      swap1\n      tag_38\n      jump\t// in\n    tag_103:\n      mload(0x40)\n      dup1\n      swap2\n      sub\n      swap1\n      revert\n    tag_102:\n        /* \"contracts/EVote.sol\":2254:2261  lgaCode */\n      dup2\n      dup2\n        /* \"contracts/EVote.sol\":908:909  0 */\n      0x00\n        /* \"contracts/EVote.sol\":872:887  accredictedZone */\n      0x03\n        /* \"contracts/EVote.sol\":888:892  code */\n      dup4\n      dup4\n        /* \"contracts/EVote.sol\":872:893  accredictedZone[code] */\n      mload(0x40)\n      tag_105\n      swap3\n      swap2\n      swap1\n      tag_80\n      jump\t// in\n    tag_105:\n      swap1\n      dup2\n      mstore\n      0x20\n      add\n      mload(0x40)\n      dup1\n      swap2\n      sub\n      swap1\n      keccak256\n        /* \"contracts/EVote.sol\":872:897  accredictedZone[code].lga */\n      0x00\n      add\n        /* \"contracts/EVote.sol\":866:905  bytes(accredictedZone[code].lga).length */\n      dup1\n      sload\n      tag_106\n      swap1\n      tag_41\n      jump\t// in\n    tag_106:\n      swap1\n      pop\n        /* \"contracts/EVote.sol\":866:909  bytes(accredictedZone[code].lga).length > 0 */\n      gt\n        /* \"contracts/EVote.sol\":858:945  require(bytes(accredictedZone[code].lga).length > 0 , \"local government already exist\") */\n      tag_107\n      jumpi\n      mload(0x40)\n      0x08c379a000000000000000000000000000000000000000000000000000000000\n      dup2\n      mstore\n      0x04\n      add\n      tag_108\n      swap1\n      tag_84\n      jump\t// in\n    tag_108:\n      mload(0x40)\n      dup1\n      swap2\n      sub\n      swap1\n      revert\n    tag_107:\n        /* \"contracts/EVote.sol\":2281:2304  accredictedOfficialAddr */\n      0x01\n        /* \"contracts/EVote.sol\":2310:2325  officialAddress */\n      dup8\n        /* \"contracts/EVote.sol\":2281:2326  accredictedOfficialAddr.push(officialAddress) */\n      swap1\n      dup1\n      0x01\n      dup2\n      sload\n      add\n      dup1\n      dup3\n      sstore\n      dup1\n      swap2\n      pop\n      pop\n      0x01\n      swap1\n      sub\n      swap1\n      0x00\n      mstore\n      keccak256(0x00, 0x20)\n      add\n      0x00\n      swap1\n      swap2\n      swap1\n      swap2\n      swap1\n      swap2\n      0x0100\n      exp\n      dup2\n      sload\n      dup2\n      0xffffffffffffffffffffffffffffffffffffffff\n      mul\n      not\n      and\n      swap1\n      dup4\n      0xffffffffffffffffffffffffffffffffffffffff\n      and\n      mul\n      or\n      swap1\n      sstore\n      pop\n        /* \"contracts/EVote.sol\":2382:2503  Official({... */\n      mload(0x40)\n      dup1\n      0x80\n      add\n      0x40\n      mstore\n      dup1\n        /* \"contracts/EVote.sol\":2408:2420  officialName */\n      dup8\n      dup8\n        /* \"contracts/EVote.sol\":2382:2503  Official({... */\n      dup1\n      dup1\n      0x1f\n      add\n      0x20\n      dup1\n      swap2\n      div\n      mul\n      0x20\n      add\n      mload(0x40)\n      swap1\n      dup2\n      add\n      0x40\n      mstore\n      dup1\n      swap4\n      swap3\n      swap2\n      swap1\n      dup2\n      dup2\n      mstore\n      0x20\n      add\n      dup4\n      dup4\n      dup1\n      dup3\n      dup5\n      calldatacopy\n      0x00\n      dup2\n      dup5\n      add\n      mstore\n      not(0x1f)\n      0x1f\n      dup3\n      add\n      and\n      swap1\n      pop\n      dup1\n      dup4\n      add\n      swap3\n      pop\n      pop\n      pop\n      pop\n      pop\n      pop\n      pop\n      dup2\n      mstore\n      0x20\n      add\n        /* \"contracts/EVote.sol\":2431:2438  lgaCode */\n      dup6\n      dup6\n        /* \"contracts/EVote.sol\":2382:2503  Official({... */\n      dup1\n      dup1\n      0x1f\n      add\n      0x20\n      dup1\n      swap2\n      div\n      mul\n      0x20\n      add\n      mload(0x40)\n      swap1\n      dup2\n      add\n      0x40\n      mstore\n      dup1\n      swap4\n      swap3\n      swap2\n      swap1\n      dup2\n      dup2\n      mstore\n      0x20\n      add\n      dup4\n      dup4\n      dup1\n      dup3\n      dup5\n      calldatacopy\n      0x00\n      dup2\n      dup5\n      add\n      mstore\n      not(0x1f)\n      0x1f\n      dup3\n      add\n      and\n      swap1\n      pop\n      dup1\n      dup4\n      add\n      swap3\n      pop\n      pop\n      pop\n      pop\n      pop\n      pop\n      pop\n      dup2\n      mstore\n      0x20\n      add\n        /* \"contracts/EVote.sol\":2462:2477  officialAddress */\n      dup9\n        /* \"contracts/EVote.sol\":2382:2503  Official({... */\n      0xffffffffffffffffffffffffffffffffffffffff\n      and\n      dup2\n      mstore\n      0x20\n      add\n        /* \"contracts/EVote.sol\":2497:2501  true */\n      0x01\n        /* \"contracts/EVote.sol\":2382:2503  Official({... */\n      iszero\n      iszero\n      dup2\n      mstore\n      pop\n        /* \"contracts/EVote.sol\":2336:2362  accredictedOfficialDetails */\n      0x02\n        /* \"contracts/EVote.sol\":2336:2379  accredictedOfficialDetails[officialAddress] */\n      0x00\n        /* \"contracts/EVote.sol\":2363:2378  officialAddress */\n      dup10\n        /* \"contracts/EVote.sol\":2336:2379  accredictedOfficialDetails[officialAddress] */\n      0xffffffffffffffffffffffffffffffffffffffff\n      and\n      0xffffffffffffffffffffffffffffffffffffffff\n      and\n      dup2\n      mstore\n      0x20\n      add\n      swap1\n      dup2\n      mstore\n      0x20\n      add\n      0x00\n      keccak256\n        /* \"contracts/EVote.sol\":2336:2503  accredictedOfficialDetails[officialAddress] = Official({... */\n      0x00\n      dup3\n      add\n      mload\n      dup2\n      0x00\n      add\n      swap1\n      dup1\n      mload\n      swap1\n      0x20\n      add\n      swap1\n      tag_111\n      swap3\n      swap2\n      swap1\n      tag_93\n      jump\t// in\n    tag_111:\n      pop\n      0x20\n      dup3\n      add\n      mload\n      dup2\n      0x01\n      add\n      swap1\n      dup1\n      mload\n      swap1\n      0x20\n      add\n      swap1\n      tag_112\n      swap3\n      swap2\n      swap1\n      tag_93\n      jump\t// in\n    tag_112:\n      pop\n      0x40\n      dup3\n      add\n      mload\n      dup2\n      0x02\n      add\n      exp(0x0100, 0x00)\n      dup2\n      sload\n      dup2\n      0xffffffffffffffffffffffffffffffffffffffff\n      mul\n      not\n      and\n      swap1\n      dup4\n      0xffffffffffffffffffffffffffffffffffffffff\n      and\n      mul\n      or\n      swap1\n      sstore\n      pop\n      0x60\n      dup3\n      add\n      mload\n      dup2\n      0x02\n      add\n      exp(0x0100, 0x14)\n      dup2\n      sload\n      dup2\n      0xff\n      mul\n      not\n      and\n      swap1\n      dup4\n      iszero\n      iszero\n      mul\n      or\n      swap1\n      sstore\n      pop\n      swap1\n      pop\n      pop\n        /* \"contracts/EVote.sol\":785:786  _ */\n      pop\n      pop\n        /* \"contracts/EVote.sol\":2103:2560  function accredictedNewOfficial(address officialAddress, string calldata officialName, string calldata lgaCode) external isOwnerMod checkLocalGovtCode(lgaCode){... */\n      pop\n      pop\n      pop\n      pop\n      pop\n      jump\t// out\n        /* \"contracts/EVote.sol\":1262:1352  function getStates() external view returns(string[] memory) {... */\n    tag_32:\n        /* \"contracts/EVote.sol\":1305:1320  string[] memory */\n      0x60\n        /* \"contracts/EVote.sol\":1339:1345  states */\n      0x06\n        /* \"contracts/EVote.sol\":1332:1345  return states */\n      dup1\n      sload\n      dup1\n      0x20\n      mul\n      0x20\n      add\n      mload(0x40)\n      swap1\n      dup2\n      add\n      0x40\n      mstore\n      dup1\n      swap3\n      swap2\n      swap1\n      dup2\n      dup2\n      mstore\n      0x20\n      add\n      0x00\n      swap1\n    tag_114:\n      dup3\n      dup3\n      lt\n      iszero\n      tag_115\n      jumpi\n      dup4\n      dup3\n      swap1\n      0x00\n      mstore\n      keccak256(0x00, 0x20)\n      add\n      dup1\n      sload\n      tag_117\n      swap1\n      tag_41\n      jump\t// in\n    tag_117:\n      dup1\n      0x1f\n      add\n      0x20\n      dup1\n      swap2\n      div\n      mul\n      0x20\n      add\n      mload(0x40)\n      swap1\n      dup2\n      add\n      0x40\n      mstore\n      dup1\n      swap3\n      swap2\n      swap1\n      dup2\n      dup2\n      mstore\n      0x20\n      add\n      dup3\n      dup1\n      sload\n      tag_118\n      swap1\n      tag_41\n      jump\t// in\n    tag_118:\n      dup1\n      iszero\n      tag_119\n      jumpi\n      dup1\n      0x1f\n      lt\n      tag_120\n      jumpi\n      0x0100\n      dup1\n      dup4\n      sload\n      div\n      mul\n      dup4\n      mstore\n      swap2\n      0x20\n      add\n      swap2\n      jump(tag_119)\n    tag_120:\n      dup3\n      add\n      swap2\n      swap1\n      0x00\n      mstore\n      keccak256(0x00, 0x20)\n      swap1\n    tag_121:\n      dup2\n      sload\n      dup2\n      mstore\n      swap1\n      0x01\n      add\n      swap1\n      0x20\n      add\n      dup1\n      dup4\n      gt\n      tag_121\n      jumpi\n      dup3\n      swap1\n      sub\n      0x1f\n      and\n      dup3\n      add\n      swap2\n    tag_119:\n      pop\n      pop\n      pop\n      pop\n      pop\n      dup2\n      mstore\n      0x20\n      add\n      swap1\n      0x01\n      add\n      swap1\n      jump(tag_114)\n    tag_115:\n      pop\n      pop\n      pop\n      pop\n      swap1\n      pop\n        /* \"contracts/EVote.sol\":1262:1352  function getStates() external view returns(string[] memory) {... */\n      swap1\n      jump\t// out\n    tag_46:\n      dup3\n      dup1\n      sload\n      tag_122\n      swap1\n      tag_41\n      jump\t// in\n    tag_122:\n      swap1\n      0x00\n      mstore\n      keccak256(0x00, 0x20)\n      swap1\n      0x1f\n      add\n      0x20\n      swap1\n      div\n      dup2\n      add\n      swap3\n      dup3\n      tag_124\n      jumpi\n      0x00\n      dup6\n      sstore\n      jump(tag_123)\n    tag_124:\n      dup3\n      0x1f\n      lt\n      tag_125\n      jumpi\n      dup1\n      calldataload\n      not(0xff)\n      and\n      dup4\n      dup1\n      add\n      or\n      dup6\n      sstore\n      jump(tag_123)\n    tag_125:\n      dup3\n      dup1\n      add\n      0x01\n      add\n      dup6\n      sstore\n      dup3\n      iszero\n      tag_123\n      jumpi\n      swap2\n      dup3\n      add\n    tag_126:\n      dup3\n      dup2\n      gt\n      iszero\n      tag_127\n      jumpi\n      dup3\n      calldataload\n      dup3\n      sstore\n      swap2\n      0x20\n      add\n      swap2\n      swap1\n      0x01\n      add\n      swap1\n      jump(tag_126)\n    tag_127:\n    tag_123:\n      pop\n      swap1\n      pop\n      tag_128\n      swap2\n      swap1\n      tag_129\n      jump\t// in\n    tag_128:\n      pop\n      swap1\n      jump\t// out\n    tag_69:\n      mload(0x40)\n      dup1\n      0x80\n      add\n      0x40\n      mstore\n      dup1\n      0x60\n      dup2\n      mstore\n      0x20\n      add\n      0x60\n      dup2\n      mstore\n      0x20\n      add\n      0x00\n      dup2\n      mstore\n      0x20\n      add\n      0x60\n      dup2\n      mstore\n      pop\n      swap1\n      jump\t// out\n    tag_93:\n      dup3\n      dup1\n      sload\n      tag_130\n      swap1\n      tag_41\n      jump\t// in\n    tag_130:\n      swap1\n      0x00\n      mstore\n      keccak256(0x00, 0x20)\n      swap1\n      0x1f\n      add\n      0x20\n      swap1\n      div\n      dup2\n      add\n      swap3\n      dup3\n      tag_132\n      jumpi\n      0x00\n      dup6\n      sstore\n      jump(tag_131)\n    tag_132:\n      dup3\n      0x1f\n      lt\n      tag_133\n      jumpi\n      dup1\n      mload\n      not(0xff)\n      and\n      dup4\n      dup1\n      add\n      or\n      dup6\n      sstore\n      jump(tag_131)\n    tag_133:\n      dup3\n      dup1\n      add\n      0x01\n      add\n      dup6\n      sstore\n      dup3\n      iszero\n      tag_131\n      jumpi\n      swap2\n      dup3\n      add\n    tag_134:\n      dup3\n      dup2\n      gt\n      iszero\n      tag_135\n      jumpi\n      dup3\n      mload\n      dup3\n      sstore\n      swap2\n      0x20\n      add\n      swap2\n      swap1\n      0x01\n      add\n      swap1\n      jump(tag_134)\n    tag_135:\n    tag_131:\n      pop\n      swap1\n      pop\n      tag_136\n      swap2\n      swap1\n      tag_129\n      jump\t// in\n    tag_136:\n      pop\n      swap1\n      jump\t// out\n    tag_129:\n    tag_137:\n      dup1\n      dup3\n      gt\n      iszero\n      tag_138\n      jumpi\n      0x00\n      dup2\n      0x00\n      swap1\n      sstore\n      pop\n      0x01\n      add\n      jump(tag_137)\n    tag_138:\n      pop\n      swap1\n      jump\t// out\n        /* \"#utility.yul\":88:205   */\n    tag_140:\n        /* \"#utility.yul\":197:198   */\n      0x00\n        /* \"#utility.yul\":194:195   */\n      dup1\n        /* \"#utility.yul\":187:199   */\n      revert\n        /* \"#utility.yul\":211:328   */\n    tag_141:\n        /* \"#utility.yul\":320:321   */\n      0x00\n        /* \"#utility.yul\":317:318   */\n      dup1\n        /* \"#utility.yul\":310:322   */\n      revert\n        /* \"#utility.yul\":334:451   */\n    tag_142:\n        /* \"#utility.yul\":443:444   */\n      0x00\n        /* \"#utility.yul\":440:441   */\n      dup1\n        /* \"#utility.yul\":433:445   */\n      revert\n        /* \"#utility.yul\":457:574   */\n    tag_143:\n        /* \"#utility.yul\":566:567   */\n      0x00\n        /* \"#utility.yul\":563:564   */\n      dup1\n        /* \"#utility.yul\":556:568   */\n      revert\n        /* \"#utility.yul\":580:697   */\n    tag_144:\n        /* \"#utility.yul\":689:690   */\n      0x00\n        /* \"#utility.yul\":686:687   */\n      dup1\n        /* \"#utility.yul\":679:691   */\n      revert\n        /* \"#utility.yul\":717:1270   */\n    tag_145:\n        /* \"#utility.yul\":775:783   */\n      0x00\n        /* \"#utility.yul\":785:791   */\n      dup1\n        /* \"#utility.yul\":835:838   */\n      dup4\n        /* \"#utility.yul\":828:832   */\n      0x1f\n        /* \"#utility.yul\":820:826   */\n      dup5\n        /* \"#utility.yul\":816:833   */\n      add\n        /* \"#utility.yul\":812:839   */\n      slt\n        /* \"#utility.yul\":802:924   */\n      tag_195\n      jumpi\n        /* \"#utility.yul\":843:922   */\n      tag_196\n      tag_142\n      jump\t// in\n    tag_196:\n        /* \"#utility.yul\":802:924   */\n    tag_195:\n        /* \"#utility.yul\":956:962   */\n      dup3\n        /* \"#utility.yul\":943:963   */\n      calldataload\n        /* \"#utility.yul\":933:963   */\n      swap1\n      pop\n        /* \"#utility.yul\":986:1004   */\n      0xffffffffffffffff\n        /* \"#utility.yul\":978:984   */\n      dup2\n        /* \"#utility.yul\":975:1005   */\n      gt\n        /* \"#utility.yul\":972:1089   */\n      iszero\n      tag_197\n      jumpi\n        /* \"#utility.yul\":1008:1087   */\n      tag_198\n      tag_143\n      jump\t// in\n    tag_198:\n        /* \"#utility.yul\":972:1089   */\n    tag_197:\n        /* \"#utility.yul\":1122:1126   */\n      0x20\n        /* \"#utility.yul\":1114:1120   */\n      dup4\n        /* \"#utility.yul\":1110:1127   */\n      add\n        /* \"#utility.yul\":1098:1127   */\n      swap2\n      pop\n        /* \"#utility.yul\":1176:1179   */\n      dup4\n        /* \"#utility.yul\":1168:1172   */\n      0x01\n        /* \"#utility.yul\":1160:1166   */\n      dup3\n        /* \"#utility.yul\":1156:1173   */\n      mul\n        /* \"#utility.yul\":1146:1154   */\n      dup4\n        /* \"#utility.yul\":1142:1174   */\n      add\n        /* \"#utility.yul\":1139:1180   */\n      gt\n        /* \"#utility.yul\":1136:1264   */\n      iszero\n      tag_199\n      jumpi\n        /* \"#utility.yul\":1183:1262   */\n      tag_200\n      tag_144\n      jump\t// in\n    tag_200:\n        /* \"#utility.yul\":1136:1264   */\n    tag_199:\n        /* \"#utility.yul\":717:1270   */\n      swap3\n      pop\n      swap3\n      swap1\n      pop\n      jump\t// out\n        /* \"#utility.yul\":1276:1353   */\n    tag_146:\n        /* \"#utility.yul\":1313:1320   */\n      0x00\n        /* \"#utility.yul\":1342:1347   */\n      dup2\n        /* \"#utility.yul\":1331:1347   */\n      swap1\n      pop\n        /* \"#utility.yul\":1276:1353   */\n      swap2\n      swap1\n      pop\n      jump\t// out\n        /* \"#utility.yul\":1359:1481   */\n    tag_147:\n        /* \"#utility.yul\":1432:1456   */\n      tag_203\n        /* \"#utility.yul\":1450:1455   */\n      dup2\n        /* \"#utility.yul\":1432:1456   */\n      tag_146\n      jump\t// in\n    tag_203:\n        /* \"#utility.yul\":1425:1430   */\n      dup2\n        /* \"#utility.yul\":1422:1457   */\n      eq\n        /* \"#utility.yul\":1412:1475   */\n      tag_204\n      jumpi\n        /* \"#utility.yul\":1471:1472   */\n      0x00\n        /* \"#utility.yul\":1468:1469   */\n      dup1\n        /* \"#utility.yul\":1461:1473   */\n      revert\n        /* \"#utility.yul\":1412:1475   */\n    tag_204:\n        /* \"#utility.yul\":1359:1481   */\n      pop\n      jump\t// out\n        /* \"#utility.yul\":1487:1626   */\n    tag_148:\n        /* \"#utility.yul\":1533:1538   */\n      0x00\n        /* \"#utility.yul\":1571:1577   */\n      dup2\n        /* \"#utility.yul\":1558:1578   */\n      calldataload\n        /* \"#utility.yul\":1549:1578   */\n      swap1\n      pop\n        /* \"#utility.yul\":1587:1620   */\n      tag_206\n        /* \"#utility.yul\":1614:1619   */\n      dup2\n        /* \"#utility.yul\":1587:1620   */\n      tag_147\n      jump\t// in\n    tag_206:\n        /* \"#utility.yul\":1487:1626   */\n      swap3\n      swap2\n      pop\n      pop\n      jump\t// out\n        /* \"#utility.yul\":1632:2306   */\n    tag_11:\n        /* \"#utility.yul\":1712:1718   */\n      0x00\n        /* \"#utility.yul\":1720:1726   */\n      dup1\n        /* \"#utility.yul\":1728:1734   */\n      0x00\n        /* \"#utility.yul\":1777:1779   */\n      0x40\n        /* \"#utility.yul\":1765:1774   */\n      dup5\n        /* \"#utility.yul\":1756:1763   */\n      dup7\n        /* \"#utility.yul\":1752:1775   */\n      sub\n        /* \"#utility.yul\":1748:1780   */\n      slt\n        /* \"#utility.yul\":1745:1864   */\n      iszero\n      tag_208\n      jumpi\n        /* \"#utility.yul\":1783:1862   */\n      tag_209\n      tag_140\n      jump\t// in\n    tag_209:\n        /* \"#utility.yul\":1745:1864   */\n    tag_208:\n        /* \"#utility.yul\":1931:1932   */\n      0x00\n        /* \"#utility.yul\":1920:1929   */\n      dup5\n        /* \"#utility.yul\":1916:1933   */\n      add\n        /* \"#utility.yul\":1903:1934   */\n      calldataload\n        /* \"#utility.yul\":1961:1979   */\n      0xffffffffffffffff\n        /* \"#utility.yul\":1953:1959   */\n      dup2\n        /* \"#utility.yul\":1950:1980   */\n      gt\n        /* \"#utility.yul\":1947:2064   */\n      iszero\n      tag_210\n      jumpi\n        /* \"#utility.yul\":1983:2062   */\n      tag_211\n      tag_141\n      jump\t// in\n    tag_211:\n        /* \"#utility.yul\":1947:2064   */\n    tag_210:\n        /* \"#utility.yul\":2096:2161   */\n      tag_212\n        /* \"#utility.yul\":2153:2160   */\n      dup7\n        /* \"#utility.yul\":2144:2150   */\n      dup3\n        /* \"#utility.yul\":2133:2142   */\n      dup8\n        /* \"#utility.yul\":2129:2151   */\n      add\n        /* \"#utility.yul\":2096:2161   */\n      tag_145\n      jump\t// in\n    tag_212:\n        /* \"#utility.yul\":2078:2161   */\n      swap4\n      pop\n      swap4\n      pop\n        /* \"#utility.yul\":1874:2171   */\n      pop\n        /* \"#utility.yul\":2210:2212   */\n      0x20\n        /* \"#utility.yul\":2236:2289   */\n      tag_213\n        /* \"#utility.yul\":2281:2288   */\n      dup7\n        /* \"#utility.yul\":2272:2278   */\n      dup3\n        /* \"#utility.yul\":2261:2270   */\n      dup8\n        /* \"#utility.yul\":2257:2279   */\n      add\n        /* \"#utility.yul\":2236:2289   */\n      tag_148\n      jump\t// in\n    tag_213:\n        /* \"#utility.yul\":2226:2289   */\n      swap2\n      pop\n        /* \"#utility.yul\":2181:2299   */\n      pop\n        /* \"#utility.yul\":1632:2306   */\n      swap3\n      pop\n      swap3\n      pop\n      swap3\n      jump\t// out\n        /* \"#utility.yul\":2312:2451   */\n    tag_149:\n        /* \"#utility.yul\":2404:2410   */\n      0x00\n        /* \"#utility.yul\":2438:2443   */\n      dup2\n        /* \"#utility.yul\":2432:2444   */\n      mload\n        /* \"#utility.yul\":2422:2444   */\n      swap1\n      pop\n        /* \"#utility.yul\":2312:2451   */\n      swap2\n      swap1\n      pop\n      jump\t// out\n        /* \"#utility.yul\":2457:2666   */\n    tag_150:\n        /* \"#utility.yul\":2581:2592   */\n      0x00\n        /* \"#utility.yul\":2615:2621   */\n      dup3\n        /* \"#utility.yul\":2610:2613   */\n      dup3\n        /* \"#utility.yul\":2603:2622   */\n      mstore\n        /* \"#utility.yul\":2655:2659   */\n      0x20\n        /* \"#utility.yul\":2650:2653   */\n      dup3\n        /* \"#utility.yul\":2646:2660   */\n      add\n        /* \"#utility.yul\":2631:2660   */\n      swap1\n      pop\n        /* \"#utility.yul\":2457:2666   */\n      swap3\n      swap2\n      pop\n      pop\n      jump\t// out\n        /* \"#utility.yul\":2672:2829   */\n    tag_151:\n        /* \"#utility.yul\":2764:2768   */\n      0x00\n        /* \"#utility.yul\":2787:2790   */\n      dup2\n        /* \"#utility.yul\":2779:2790   */\n      swap1\n      pop\n        /* \"#utility.yul\":2817:2821   */\n      0x20\n        /* \"#utility.yul\":2812:2815   */\n      dup3\n        /* \"#utility.yul\":2808:2822   */\n      add\n        /* \"#utility.yul\":2800:2822   */\n      swap1\n      pop\n        /* \"#utility.yul\":2672:2829   */\n      swap2\n      swap1\n      pop\n      jump\t// out\n        /* \"#utility.yul\":2835:2934   */\n    tag_152:\n        /* \"#utility.yul\":2887:2893   */\n      0x00\n        /* \"#utility.yul\":2921:2926   */\n      dup2\n        /* \"#utility.yul\":2915:2927   */\n      mload\n        /* \"#utility.yul\":2905:2927   */\n      swap1\n      pop\n        /* \"#utility.yul\":2835:2934   */\n      swap2\n      swap1\n      pop\n      jump\t// out\n        /* \"#utility.yul\":2940:3099   */\n    tag_153:\n        /* \"#utility.yul\":3014:3025   */\n      0x00\n        /* \"#utility.yul\":3048:3054   */\n      dup3\n        /* \"#utility.yul\":3043:3046   */\n      dup3\n        /* \"#utility.yul\":3036:3055   */\n      mstore\n        /* \"#utility.yul\":3088:3092   */\n      0x20\n        /* \"#utility.yul\":3083:3086   */\n      dup3\n        /* \"#utility.yul\":3079:3093   */\n      add\n        /* \"#utility.yul\":3064:3093   */\n      swap1\n      pop\n        /* \"#utility.yul\":2940:3099   */\n      swap3\n      swap2\n      pop\n      pop\n      jump\t// out\n        /* \"#utility.yul\":3105:3412   */\n    tag_154:\n        /* \"#utility.yul\":3173:3174   */\n      0x00\n        /* \"#utility.yul\":3183:3296   */\n    tag_220:\n        /* \"#utility.yul\":3197:3203   */\n      dup4\n        /* \"#utility.yul\":3194:3195   */\n      dup2\n        /* \"#utility.yul\":3191:3204   */\n      lt\n        /* \"#utility.yul\":3183:3296   */\n      iszero\n      tag_222\n      jumpi\n        /* \"#utility.yul\":3282:3283   */\n      dup1\n        /* \"#utility.yul\":3277:3280   */\n      dup3\n        /* \"#utility.yul\":3273:3284   */\n      add\n        /* \"#utility.yul\":3267:3285   */\n      mload\n        /* \"#utility.yul\":3263:3264   */\n      dup2\n        /* \"#utility.yul\":3258:3261   */\n      dup5\n        /* \"#utility.yul\":3254:3265   */\n      add\n        /* \"#utility.yul\":3247:3286   */\n      mstore\n        /* \"#utility.yul\":3219:3221   */\n      0x20\n        /* \"#utility.yul\":3216:3217   */\n      dup2\n        /* \"#utility.yul\":3212:3222   */\n      add\n        /* \"#utility.yul\":3207:3222   */\n      swap1\n      pop\n        /* \"#utility.yul\":3183:3296   */\n      jump(tag_220)\n    tag_222:\n        /* \"#utility.yul\":3314:3320   */\n      dup4\n        /* \"#utility.yul\":3311:3312   */\n      dup2\n        /* \"#utility.yul\":3308:3321   */\n      gt\n        /* \"#utility.yul\":3305:3406   */\n      iszero\n      tag_223\n      jumpi\n        /* \"#utility.yul\":3394:3395   */\n      0x00\n        /* \"#utility.yul\":3385:3391   */\n      dup5\n        /* \"#utility.yul\":3380:3383   */\n      dup5\n        /* \"#utility.yul\":3376:3392   */\n      add\n        /* \"#utility.yul\":3369:3396   */\n      mstore\n        /* \"#utility.yul\":3305:3406   */\n    tag_223:\n        /* \"#utility.yul\":3154:3412   */\n      pop\n        /* \"#utility.yul\":3105:3412   */\n      pop\n      pop\n      pop\n      jump\t// out\n        /* \"#utility.yul\":3418:3520   */\n    tag_155:\n        /* \"#utility.yul\":3459:3465   */\n      0x00\n        /* \"#utility.yul\":3510:3512   */\n      0x1f\n        /* \"#utility.yul\":3506:3513   */\n      not\n        /* \"#utility.yul\":3501:3503   */\n      0x1f\n        /* \"#utility.yul\":3494:3499   */\n      dup4\n        /* \"#utility.yul\":3490:3504   */\n      add\n        /* \"#utility.yul\":3486:3514   */\n      and\n        /* \"#utility.yul\":3476:3514   */\n      swap1\n      pop\n        /* \"#utility.yul\":3418:3520   */\n      swap2\n      swap1\n      pop\n      jump\t// out\n        /* \"#utility.yul\":3526:3870   */\n    tag_156:\n        /* \"#utility.yul\":3604:3607   */\n      0x00\n        /* \"#utility.yul\":3632:3671   */\n      tag_226\n        /* \"#utility.yul\":3665:3670   */\n      dup3\n        /* \"#utility.yul\":3632:3671   */\n      tag_152\n      jump\t// in\n    tag_226:\n        /* \"#utility.yul\":3687:3748   */\n      tag_227\n        /* \"#utility.yul\":3741:3747   */\n      dup2\n        /* \"#utility.yul\":3736:3739   */\n      dup6\n        /* \"#utility.yul\":3687:3748   */\n      tag_153\n      jump\t// in\n    tag_227:\n        /* \"#utility.yul\":3680:3748   */\n      swap4\n      pop\n        /* \"#utility.yul\":3757:3809   */\n      tag_228\n        /* \"#utility.yul\":3802:3808   */\n      dup2\n        /* \"#utility.yul\":3797:3800   */\n      dup6\n        /* \"#utility.yul\":3790:3794   */\n      0x20\n        /* \"#utility.yul\":3783:3788   */\n      dup7\n        /* \"#utility.yul\":3779:3795   */\n      add\n        /* \"#utility.yul\":3757:3809   */\n      tag_154\n      jump\t// in\n    tag_228:\n        /* \"#utility.yul\":3834:3863   */\n      tag_229\n        /* \"#utility.yul\":3856:3862   */\n      dup2\n        /* \"#utility.yul\":3834:3863   */\n      tag_155\n      jump\t// in\n    tag_229:\n        /* \"#utility.yul\":3829:3832   */\n      dup5\n        /* \"#utility.yul\":3825:3864   */\n      add\n        /* \"#utility.yul\":3818:3864   */\n      swap2\n      pop\n        /* \"#utility.yul\":3608:3870   */\n      pop\n        /* \"#utility.yul\":3526:3870   */\n      swap3\n      swap2\n      pop\n      pop\n      jump\t// out\n        /* \"#utility.yul\":3876:3984   */\n    tag_157:\n        /* \"#utility.yul\":3953:3977   */\n      tag_231\n        /* \"#utility.yul\":3971:3976   */\n      dup2\n        /* \"#utility.yul\":3953:3977   */\n      tag_146\n      jump\t// in\n    tag_231:\n        /* \"#utility.yul\":3948:3951   */\n      dup3\n        /* \"#utility.yul\":3941:3978   */\n      mstore\n        /* \"#utility.yul\":3876:3984   */\n      pop\n      pop\n      jump\t// out\n        /* \"#utility.yul\":4032:5126   */\n    tag_158:\n        /* \"#utility.yul\":4141:4144   */\n      0x00\n        /* \"#utility.yul\":4177:4181   */\n      0x80\n        /* \"#utility.yul\":4172:4175   */\n      dup4\n        /* \"#utility.yul\":4168:4182   */\n      add\n        /* \"#utility.yul\":4263:4267   */\n      0x00\n        /* \"#utility.yul\":4256:4261   */\n      dup4\n        /* \"#utility.yul\":4252:4268   */\n      add\n        /* \"#utility.yul\":4246:4269   */\n      mload\n        /* \"#utility.yul\":4316:4319   */\n      dup5\n        /* \"#utility.yul\":4310:4314   */\n      dup3\n        /* \"#utility.yul\":4306:4320   */\n      sub\n        /* \"#utility.yul\":4299:4303   */\n      0x00\n        /* \"#utility.yul\":4294:4297   */\n      dup7\n        /* \"#utility.yul\":4290:4304   */\n      add\n        /* \"#utility.yul\":4283:4321   */\n      mstore\n        /* \"#utility.yul\":4342:4415   */\n      tag_233\n        /* \"#utility.yul\":4410:4414   */\n      dup3\n        /* \"#utility.yul\":4396:4408   */\n      dup3\n        /* \"#utility.yul\":4342:4415   */\n      tag_156\n      jump\t// in\n    tag_233:\n        /* \"#utility.yul\":4334:4415   */\n      swap2\n      pop\n        /* \"#utility.yul\":4192:4426   */\n      pop\n        /* \"#utility.yul\":4509:4513   */\n      0x20\n        /* \"#utility.yul\":4502:4507   */\n      dup4\n        /* \"#utility.yul\":4498:4514   */\n      add\n        /* \"#utility.yul\":4492:4515   */\n      mload\n        /* \"#utility.yul\":4562:4565   */\n      dup5\n        /* \"#utility.yul\":4556:4560   */\n      dup3\n        /* \"#utility.yul\":4552:4566   */\n      sub\n        /* \"#utility.yul\":4545:4549   */\n      0x20\n        /* \"#utility.yul\":4540:4543   */\n      dup7\n        /* \"#utility.yul\":4536:4550   */\n      add\n        /* \"#utility.yul\":4529:4567   */\n      mstore\n        /* \"#utility.yul\":4588:4661   */\n      tag_234\n        /* \"#utility.yul\":4656:4660   */\n      dup3\n        /* \"#utility.yul\":4642:4654   */\n      dup3\n        /* \"#utility.yul\":4588:4661   */\n      tag_156\n      jump\t// in\n    tag_234:\n        /* \"#utility.yul\":4580:4661   */\n      swap2\n      pop\n        /* \"#utility.yul\":4436:4672   */\n      pop\n        /* \"#utility.yul\":4759:4763   */\n      0x40\n        /* \"#utility.yul\":4752:4757   */\n      dup4\n        /* \"#utility.yul\":4748:4764   */\n      add\n        /* \"#utility.yul\":4742:4765   */\n      mload\n        /* \"#utility.yul\":4778:4841   */\n      tag_235\n        /* \"#utility.yul\":4835:4839   */\n      0x40\n        /* \"#utility.yul\":4830:4833   */\n      dup7\n        /* \"#utility.yul\":4826:4840   */\n      add\n        /* \"#utility.yul\":4812:4824   */\n      dup3\n        /* \"#utility.yul\":4778:4841   */\n      tag_157\n      jump\t// in\n    tag_235:\n        /* \"#utility.yul\":4682:4851   */\n      pop\n        /* \"#utility.yul\":4936:4940   */\n      0x60\n        /* \"#utility.yul\":4929:4934   */\n      dup4\n        /* \"#utility.yul\":4925:4941   */\n      add\n        /* \"#utility.yul\":4919:4942   */\n      mload\n        /* \"#utility.yul\":4989:4992   */\n      dup5\n        /* \"#utility.yul\":4983:4987   */\n      dup3\n        /* \"#utility.yul\":4979:4993   */\n      sub\n        /* \"#utility.yul\":4972:4976   */\n      0x60\n        /* \"#utility.yul\":4967:4970   */\n      dup7\n        /* \"#utility.yul\":4963:4977   */\n      add\n        /* \"#utility.yul\":4956:4994   */\n      mstore\n        /* \"#utility.yul\":5015:5088   */\n      tag_236\n        /* \"#utility.yul\":5083:5087   */\n      dup3\n        /* \"#utility.yul\":5069:5081   */\n      dup3\n        /* \"#utility.yul\":5015:5088   */\n      tag_156\n      jump\t// in\n    tag_236:\n        /* \"#utility.yul\":5007:5088   */\n      swap2\n      pop\n        /* \"#utility.yul\":4861:5099   */\n      pop\n        /* \"#utility.yul\":5116:5120   */\n      dup1\n        /* \"#utility.yul\":5109:5120   */\n      swap2\n      pop\n        /* \"#utility.yul\":4146:5126   */\n      pop\n        /* \"#utility.yul\":4032:5126   */\n      swap3\n      swap2\n      pop\n      pop\n      jump\t// out\n        /* \"#utility.yul\":5132:5388   */\n    tag_159:\n        /* \"#utility.yul\":5251:5261   */\n      0x00\n        /* \"#utility.yul\":5286:5382   */\n      tag_238\n        /* \"#utility.yul\":5378:5381   */\n      dup4\n        /* \"#utility.yul\":5370:5376   */\n      dup4\n        /* \"#utility.yul\":5286:5382   */\n      tag_158\n      jump\t// in\n    tag_238:\n        /* \"#utility.yul\":5272:5382   */\n      swap1\n      pop\n        /* \"#utility.yul\":5132:5388   */\n      swap3\n      swap2\n      pop\n      pop\n      jump\t// out\n        /* \"#utility.yul\":5394:5532   */\n    tag_160:\n        /* \"#utility.yul\":5489:5493   */\n      0x00\n        /* \"#utility.yul\":5521:5525   */\n      0x20\n        /* \"#utility.yul\":5516:5519   */\n      dup3\n        /* \"#utility.yul\":5512:5526   */\n      add\n        /* \"#utility.yul\":5504:5526   */\n      swap1\n      pop\n        /* \"#utility.yul\":5394:5532   */\n      swap2\n      swap1\n      pop\n      jump\t// out\n        /* \"#utility.yul\":5584:6695   */\n    tag_161:\n        /* \"#utility.yul\":5753:5756   */\n      0x00\n        /* \"#utility.yul\":5782:5861   */\n      tag_241\n        /* \"#utility.yul\":5855:5860   */\n      dup3\n        /* \"#utility.yul\":5782:5861   */\n      tag_149\n      jump\t// in\n    tag_241:\n        /* \"#utility.yul\":5877:5988   */\n      tag_242\n        /* \"#utility.yul\":5981:5987   */\n      dup2\n        /* \"#utility.yul\":5976:5979   */\n      dup6\n        /* \"#utility.yul\":5877:5988   */\n      tag_150\n      jump\t// in\n    tag_242:\n        /* \"#utility.yul\":5870:5988   */\n      swap4\n      pop\n        /* \"#utility.yul\":6014:6017   */\n      dup4\n        /* \"#utility.yul\":6059:6063   */\n      0x20\n        /* \"#utility.yul\":6051:6057   */\n      dup3\n        /* \"#utility.yul\":6047:6064   */\n      mul\n        /* \"#utility.yul\":6042:6045   */\n      dup6\n        /* \"#utility.yul\":6038:6065   */\n      add\n        /* \"#utility.yul\":6089:6170   */\n      tag_243\n        /* \"#utility.yul\":6164:6169   */\n      dup6\n        /* \"#utility.yul\":6089:6170   */\n      tag_151\n      jump\t// in\n    tag_243:\n        /* \"#utility.yul\":6193:6200   */\n      dup1\n        /* \"#utility.yul\":6224:6225   */\n      0x00\n        /* \"#utility.yul\":6209:6650   */\n    tag_244:\n        /* \"#utility.yul\":6234:6240   */\n      dup6\n        /* \"#utility.yul\":6231:6232   */\n      dup2\n        /* \"#utility.yul\":6228:6241   */\n      lt\n        /* \"#utility.yul\":6209:6650   */\n      iszero\n      tag_246\n      jumpi\n        /* \"#utility.yul\":6305:6314   */\n      dup5\n        /* \"#utility.yul\":6299:6303   */\n      dup5\n        /* \"#utility.yul\":6295:6315   */\n      sub\n        /* \"#utility.yul\":6290:6293   */\n      dup10\n        /* \"#utility.yul\":6283:6316   */\n      mstore\n        /* \"#utility.yul\":6356:6362   */\n      dup2\n        /* \"#utility.yul\":6350:6363   */\n      mload\n        /* \"#utility.yul\":6384:6498   */\n      tag_247\n        /* \"#utility.yul\":6493:6497   */\n      dup6\n        /* \"#utility.yul\":6478:6491   */\n      dup3\n        /* \"#utility.yul\":6384:6498   */\n      tag_159\n      jump\t// in\n    tag_247:\n        /* \"#utility.yul\":6376:6498   */\n      swap5\n      pop\n        /* \"#utility.yul\":6521:6606   */\n      tag_248\n        /* \"#utility.yul\":6599:6605   */\n      dup4\n        /* \"#utility.yul\":6521:6606   */\n      tag_160\n      jump\t// in\n    tag_248:\n        /* \"#utility.yul\":6511:6606   */\n      swap3\n      pop\n        /* \"#utility.yul\":6635:6639   */\n      0x20\n        /* \"#utility.yul\":6630:6633   */\n      dup11\n        /* \"#utility.yul\":6626:6640   */\n      add\n        /* \"#utility.yul\":6619:6640   */\n      swap10\n      pop\n        /* \"#utility.yul\":6269:6650   */\n      pop\n        /* \"#utility.yul\":6256:6257   */\n      0x01\n        /* \"#utility.yul\":6253:6254   */\n      dup2\n        /* \"#utility.yul\":6249:6258   */\n      add\n        /* \"#utility.yul\":6244:6258   */\n      swap1\n      pop\n        /* \"#utility.yul\":6209:6650   */\n      jump(tag_244)\n    tag_246:\n        /* \"#utility.yul\":6213:6227   */\n      pop\n        /* \"#utility.yul\":6666:6670   */\n      dup3\n        /* \"#utility.yul\":6659:6670   */\n      swap8\n      pop\n        /* \"#utility.yul\":6686:6689   */\n      dup8\n        /* \"#utility.yul\":6679:6689   */\n      swap6\n      pop\n        /* \"#utility.yul\":5758:6695   */\n      pop\n      pop\n      pop\n      pop\n      pop\n        /* \"#utility.yul\":5584:6695   */\n      swap3\n      swap2\n      pop\n      pop\n      jump\t// out\n        /* \"#utility.yul\":6701:7174   */\n    tag_16:\n        /* \"#utility.yul\":6894:6898   */\n      0x00\n        /* \"#utility.yul\":6932:6934   */\n      0x20\n        /* \"#utility.yul\":6921:6930   */\n      dup3\n        /* \"#utility.yul\":6917:6935   */\n      add\n        /* \"#utility.yul\":6909:6935   */\n      swap1\n      pop\n        /* \"#utility.yul\":6981:6990   */\n      dup2\n        /* \"#utility.yul\":6975:6979   */\n      dup2\n        /* \"#utility.yul\":6971:6991   */\n      sub\n        /* \"#utility.yul\":6967:6968   */\n      0x00\n        /* \"#utility.yul\":6956:6965   */\n      dup4\n        /* \"#utility.yul\":6952:6969   */\n      add\n        /* \"#utility.yul\":6945:6992   */\n      mstore\n        /* \"#utility.yul\":7009:7167   */\n      tag_250\n        /* \"#utility.yul\":7162:7166   */\n      dup2\n        /* \"#utility.yul\":7153:7159   */\n      dup5\n        /* \"#utility.yul\":7009:7167   */\n      tag_161\n      jump\t// in\n    tag_250:\n        /* \"#utility.yul\":7001:7167   */\n      swap1\n      pop\n        /* \"#utility.yul\":6701:7174   */\n      swap3\n      swap2\n      pop\n      pop\n      jump\t// out\n        /* \"#utility.yul\":7180:8199   */\n    tag_19:\n        /* \"#utility.yul\":7281:7287   */\n      0x00\n        /* \"#utility.yul\":7289:7295   */\n      dup1\n        /* \"#utility.yul\":7297:7303   */\n      0x00\n        /* \"#utility.yul\":7305:7311   */\n      dup1\n        /* \"#utility.yul\":7313:7319   */\n      0x00\n        /* \"#utility.yul\":7362:7364   */\n      0x60\n        /* \"#utility.yul\":7350:7359   */\n      dup7\n        /* \"#utility.yul\":7341:7348   */\n      dup9\n        /* \"#utility.yul\":7337:7360   */\n      sub\n        /* \"#utility.yul\":7333:7365   */\n      slt\n        /* \"#utility.yul\":7330:7449   */\n      iszero\n      tag_252\n      jumpi\n        /* \"#utility.yul\":7368:7447   */\n      tag_253\n      tag_140\n      jump\t// in\n    tag_253:\n        /* \"#utility.yul\":7330:7449   */\n    tag_252:\n        /* \"#utility.yul\":7516:7517   */\n      0x00\n        /* \"#utility.yul\":7505:7514   */\n      dup7\n        /* \"#utility.yul\":7501:7518   */\n      add\n        /* \"#utility.yul\":7488:7519   */\n      calldataload\n        /* \"#utility.yul\":7546:7564   */\n      0xffffffffffffffff\n        /* \"#utility.yul\":7538:7544   */\n      dup2\n        /* \"#utility.yul\":7535:7565   */\n      gt\n        /* \"#utility.yul\":7532:7649   */\n      iszero\n      tag_254\n      jumpi\n        /* \"#utility.yul\":7568:7647   */\n      tag_255\n      tag_141\n      jump\t// in\n    tag_255:\n        /* \"#utility.yul\":7532:7649   */\n    tag_254:\n        /* \"#utility.yul\":7681:7746   */\n      tag_256\n        /* \"#utility.yul\":7738:7745   */\n      dup9\n        /* \"#utility.yul\":7729:7735   */\n      dup3\n        /* \"#utility.yul\":7718:7727   */\n      dup10\n        /* \"#utility.yul\":7714:7736   */\n      add\n        /* \"#utility.yul\":7681:7746   */\n      tag_145\n      jump\t// in\n    tag_256:\n        /* \"#utility.yul\":7663:7746   */\n      swap6\n      pop\n      swap6\n      pop\n        /* \"#utility.yul\":7459:7756   */\n      pop\n        /* \"#utility.yul\":7823:7825   */\n      0x20\n        /* \"#utility.yul\":7812:7821   */\n      dup7\n        /* \"#utility.yul\":7808:7826   */\n      add\n        /* \"#utility.yul\":7795:7827   */\n      calldataload\n        /* \"#utility.yul\":7854:7872   */\n      0xffffffffffffffff\n        /* \"#utility.yul\":7846:7852   */\n      dup2\n        /* \"#utility.yul\":7843:7873   */\n      gt\n        /* \"#utility.yul\":7840:7957   */\n      iszero\n      tag_257\n      jumpi\n        /* \"#utility.yul\":7876:7955   */\n      tag_258\n      tag_141\n      jump\t// in\n    tag_258:\n        /* \"#utility.yul\":7840:7957   */\n    tag_257:\n        /* \"#utility.yul\":7989:8054   */\n      tag_259\n        /* \"#utility.yul\":8046:8053   */\n      dup9\n        /* \"#utility.yul\":8037:8043   */\n      dup3\n        /* \"#utility.yul\":8026:8035   */\n      dup10\n        /* \"#utility.yul\":8022:8044   */\n      add\n        /* \"#utility.yul\":7989:8054   */\n      tag_145\n      jump\t// in\n    tag_259:\n        /* \"#utility.yul\":7971:8054   */\n      swap4\n      pop\n      swap4\n      pop\n        /* \"#utility.yul\":7766:8064   */\n      pop\n        /* \"#utility.yul\":8103:8105   */\n      0x40\n        /* \"#utility.yul\":8129:8182   */\n      tag_260\n        /* \"#utility.yul\":8174:8181   */\n      dup9\n        /* \"#utility.yul\":8165:8171   */\n      dup3\n        /* \"#utility.yul\":8154:8163   */\n      dup10\n        /* \"#utility.yul\":8150:8172   */\n      add\n        /* \"#utility.yul\":8129:8182   */\n      tag_148\n      jump\t// in\n    tag_260:\n        /* \"#utility.yul\":8119:8182   */\n      swap2\n      pop\n        /* \"#utility.yul\":8074:8192   */\n      pop\n        /* \"#utility.yul\":7180:8199   */\n      swap3\n      swap6\n      pop\n      swap3\n      swap6\n      swap1\n      swap4\n      pop\n      jump\t// out\n        /* \"#utility.yul\":8247:9351   */\n    tag_162:\n        /* \"#utility.yul\":8366:8369   */\n      0x00\n        /* \"#utility.yul\":8402:8406   */\n      0x80\n        /* \"#utility.yul\":8397:8400   */\n      dup4\n        /* \"#utility.yul\":8393:8407   */\n      add\n        /* \"#utility.yul\":8488:8492   */\n      0x00\n        /* \"#utility.yul\":8481:8486   */\n      dup4\n        /* \"#utility.yul\":8477:8493   */\n      add\n        /* \"#utility.yul\":8471:8494   */\n      mload\n        /* \"#utility.yul\":8541:8544   */\n      dup5\n        /* \"#utility.yul\":8535:8539   */\n      dup3\n        /* \"#utility.yul\":8531:8545   */\n      sub\n        /* \"#utility.yul\":8524:8528   */\n      0x00\n        /* \"#utility.yul\":8519:8522   */\n      dup7\n        /* \"#utility.yul\":8515:8529   */\n      add\n        /* \"#utility.yul\":8508:8546   */\n      mstore\n        /* \"#utility.yul\":8567:8640   */\n      tag_262\n        /* \"#utility.yul\":8635:8639   */\n      dup3\n        /* \"#utility.yul\":8621:8633   */\n      dup3\n        /* \"#utility.yul\":8567:8640   */\n      tag_156\n      jump\t// in\n    tag_262:\n        /* \"#utility.yul\":8559:8640   */\n      swap2\n      pop\n        /* \"#utility.yul\":8417:8651   */\n      pop\n        /* \"#utility.yul\":8734:8738   */\n      0x20\n        /* \"#utility.yul\":8727:8732   */\n      dup4\n        /* \"#utility.yul\":8723:8739   */\n      add\n        /* \"#utility.yul\":8717:8740   */\n      mload\n        /* \"#utility.yul\":8787:8790   */\n      dup5\n        /* \"#utility.yul\":8781:8785   */\n      dup3\n        /* \"#utility.yul\":8777:8791   */\n      sub\n        /* \"#utility.yul\":8770:8774   */\n      0x20\n        /* \"#utility.yul\":8765:8768   */\n      dup7\n        /* \"#utility.yul\":8761:8775   */\n      add\n        /* \"#utility.yul\":8754:8792   */\n      mstore\n        /* \"#utility.yul\":8813:8886   */\n      tag_263\n        /* \"#utility.yul\":8881:8885   */\n      dup3\n        /* \"#utility.yul\":8867:8879   */\n      dup3\n        /* \"#utility.yul\":8813:8886   */\n      tag_156\n      jump\t// in\n    tag_263:\n        /* \"#utility.yul\":8805:8886   */\n      swap2\n      pop\n        /* \"#utility.yul\":8661:8897   */\n      pop\n        /* \"#utility.yul\":8984:8988   */\n      0x40\n        /* \"#utility.yul\":8977:8982   */\n      dup4\n        /* \"#utility.yul\":8973:8989   */\n      add\n        /* \"#utility.yul\":8967:8990   */\n      mload\n        /* \"#utility.yul\":9003:9066   */\n      tag_264\n        /* \"#utility.yul\":9060:9064   */\n      0x40\n        /* \"#utility.yul\":9055:9058   */\n      dup7\n        /* \"#utility.yul\":9051:9065   */\n      add\n        /* \"#utility.yul\":9037:9049   */\n      dup3\n        /* \"#utility.yul\":9003:9066   */\n      tag_157\n      jump\t// in\n    tag_264:\n        /* \"#utility.yul\":8907:9076   */\n      pop\n        /* \"#utility.yul\":9161:9165   */\n      0x60\n        /* \"#utility.yul\":9154:9159   */\n      dup4\n        /* \"#utility.yul\":9150:9166   */\n      add\n        /* \"#utility.yul\":9144:9167   */\n      mload\n        /* \"#utility.yul\":9214:9217   */\n      dup5\n        /* \"#utility.yul\":9208:9212   */\n      dup3\n        /* \"#utility.yul\":9204:9218   */\n      sub\n        /* \"#utility.yul\":9197:9201   */\n      0x60\n        /* \"#utility.yul\":9192:9195   */\n      dup7\n        /* \"#utility.yul\":9188:9202   */\n      add\n        /* \"#utility.yul\":9181:9219   */\n      mstore\n        /* \"#utility.yul\":9240:9313   */\n      tag_265\n        /* \"#utility.yul\":9308:9312   */\n      dup3\n        /* \"#utility.yul\":9294:9306   */\n      dup3\n        /* \"#utility.yul\":9240:9313   */\n      tag_156\n      jump\t// in\n    tag_265:\n        /* \"#utility.yul\":9232:9313   */\n      swap2\n      pop\n        /* \"#utility.yul\":9086:9324   */\n      pop\n        /* \"#utility.yul\":9341:9345   */\n      dup1\n        /* \"#utility.yul\":9334:9345   */\n      swap2\n      pop\n        /* \"#utility.yul\":8371:9351   */\n      pop\n        /* \"#utility.yul\":8247:9351   */\n      swap3\n      swap2\n      pop\n      pop\n      jump\t// out\n        /* \"#utility.yul\":9357:9730   */\n    tag_22:\n        /* \"#utility.yul\":9500:9504   */\n      0x00\n        /* \"#utility.yul\":9538:9540   */\n      0x20\n        /* \"#utility.yul\":9527:9536   */\n      dup3\n        /* \"#utility.yul\":9523:9541   */\n      add\n        /* \"#utility.yul\":9515:9541   */\n      swap1\n      pop\n        /* \"#utility.yul\":9587:9596   */\n      dup2\n        /* \"#utility.yul\":9581:9585   */\n      dup2\n        /* \"#utility.yul\":9577:9597   */\n      sub\n        /* \"#utility.yul\":9573:9574   */\n      0x00\n        /* \"#utility.yul\":9562:9571   */\n      dup4\n        /* \"#utility.yul\":9558:9575   */\n      add\n        /* \"#utility.yul\":9551:9598   */\n      mstore\n        /* \"#utility.yul\":9615:9723   */\n      tag_267\n        /* \"#utility.yul\":9718:9722   */\n      dup2\n        /* \"#utility.yul\":9709:9715   */\n      dup5\n        /* \"#utility.yul\":9615:9723   */\n      tag_162\n      jump\t// in\n    tag_267:\n        /* \"#utility.yul\":9607:9723   */\n      swap1\n      pop\n        /* \"#utility.yul\":9357:9730   */\n      swap3\n      swap2\n      pop\n      pop\n      jump\t// out\n        /* \"#utility.yul\":9736:9862   */\n    tag_163:\n        /* \"#utility.yul\":9773:9780   */\n      0x00\n        /* \"#utility.yul\":9813:9855   */\n      0xffffffffffffffffffffffffffffffffffffffff\n        /* \"#utility.yul\":9806:9811   */\n      dup3\n        /* \"#utility.yul\":9802:9856   */\n      and\n        /* \"#utility.yul\":9791:9856   */\n      swap1\n      pop\n        /* \"#utility.yul\":9736:9862   */\n      swap2\n      swap1\n      pop\n      jump\t// out\n        /* \"#utility.yul\":9868:9964   */\n    tag_164:\n        /* \"#utility.yul\":9905:9912   */\n      0x00\n        /* \"#utility.yul\":9934:9958   */\n      tag_270\n        /* \"#utility.yul\":9952:9957   */\n      dup3\n        /* \"#utility.yul\":9934:9958   */\n      tag_163\n      jump\t// in\n    tag_270:\n        /* \"#utility.yul\":9923:9958   */\n      swap1\n      pop\n        /* \"#utility.yul\":9868:9964   */\n      swap2\n      swap1\n      pop\n      jump\t// out\n        /* \"#utility.yul\":9970:10088   */\n    tag_165:\n        /* \"#utility.yul\":10057:10081   */\n      tag_272\n        /* \"#utility.yul\":10075:10080   */\n      dup2\n        /* \"#utility.yul\":10057:10081   */\n      tag_164\n      jump\t// in\n    tag_272:\n        /* \"#utility.yul\":10052:10055   */\n      dup3\n        /* \"#utility.yul\":10045:10082   */\n      mstore\n        /* \"#utility.yul\":9970:10088   */\n      pop\n      pop\n      jump\t// out\n        /* \"#utility.yul\":10094:10316   */\n    tag_26:\n        /* \"#utility.yul\":10187:10191   */\n      0x00\n        /* \"#utility.yul\":10225:10227   */\n      0x20\n        /* \"#utility.yul\":10214:10223   */\n      dup3\n        /* \"#utility.yul\":10210:10228   */\n      add\n        /* \"#utility.yul\":10202:10228   */\n      swap1\n      pop\n        /* \"#utility.yul\":10238:10309   */\n      tag_274\n        /* \"#utility.yul\":10306:10307   */\n      0x00\n        /* \"#utility.yul\":10295:10304   */\n      dup4\n        /* \"#utility.yul\":10291:10308   */\n      add\n        /* \"#utility.yul\":10282:10288   */\n      dup5\n        /* \"#utility.yul\":10238:10309   */\n      tag_165\n      jump\t// in\n    tag_274:\n        /* \"#utility.yul\":10094:10316   */\n      swap3\n      swap2\n      pop\n      pop\n      jump\t// out\n        /* \"#utility.yul\":10322:10444   */\n    tag_166:\n        /* \"#utility.yul\":10395:10419   */\n      tag_276\n        /* \"#utility.yul\":10413:10418   */\n      dup2\n        /* \"#utility.yul\":10395:10419   */\n      tag_164\n      jump\t// in\n    tag_276:\n        /* \"#utility.yul\":10388:10393   */\n      dup2\n        /* \"#utility.yul\":10385:10420   */\n      eq\n        /* \"#utility.yul\":10375:10438   */\n      tag_277\n      jumpi\n        /* \"#utility.yul\":10434:10435   */\n      0x00\n        /* \"#utility.yul\":10431:10432   */\n      dup1\n        /* \"#utility.yul\":10424:10436   */\n      revert\n        /* \"#utility.yul\":10375:10438   */\n    tag_277:\n        /* \"#utility.yul\":10322:10444   */\n      pop\n      jump\t// out\n        /* \"#utility.yul\":10450:10589   */\n    tag_167:\n        /* \"#utility.yul\":10496:10501   */\n      0x00\n        /* \"#utility.yul\":10534:10540   */\n      dup2\n        /* \"#utility.yul\":10521:10541   */\n      calldataload\n        /* \"#utility.yul\":10512:10541   */\n      swap1\n      pop\n        /* \"#utility.yul\":10550:10583   */\n      tag_279\n        /* \"#utility.yul\":10577:10582   */\n      dup2\n        /* \"#utility.yul\":10550:10583   */\n      tag_166\n      jump\t// in\n    tag_279:\n        /* \"#utility.yul\":10450:10589   */\n      swap3\n      swap2\n      pop\n      pop\n      jump\t// out\n        /* \"#utility.yul\":10595:11614   */\n    tag_29:\n        /* \"#utility.yul\":10696:10702   */\n      0x00\n        /* \"#utility.yul\":10704:10710   */\n      dup1\n        /* \"#utility.yul\":10712:10718   */\n      0x00\n        /* \"#utility.yul\":10720:10726   */\n      dup1\n        /* \"#utility.yul\":10728:10734   */\n      0x00\n        /* \"#utility.yul\":10777:10779   */\n      0x60\n        /* \"#utility.yul\":10765:10774   */\n      dup7\n        /* \"#utility.yul\":10756:10763   */\n      dup9\n        /* \"#utility.yul\":10752:10775   */\n      sub\n        /* \"#utility.yul\":10748:10780   */\n      slt\n        /* \"#utility.yul\":10745:10864   */\n      iszero\n      tag_281\n      jumpi\n        /* \"#utility.yul\":10783:10862   */\n      tag_282\n      tag_140\n      jump\t// in\n    tag_282:\n        /* \"#utility.yul\":10745:10864   */\n    tag_281:\n        /* \"#utility.yul\":10903:10904   */\n      0x00\n        /* \"#utility.yul\":10928:10981   */\n      tag_283\n        /* \"#utility.yul\":10973:10980   */\n      dup9\n        /* \"#utility.yul\":10964:10970   */\n      dup3\n        /* \"#utility.yul\":10953:10962   */\n      dup10\n        /* \"#utility.yul\":10949:10971   */\n      add\n        /* \"#utility.yul\":10928:10981   */\n      tag_167\n      jump\t// in\n    tag_283:\n        /* \"#utility.yul\":10918:10981   */\n      swap6\n      pop\n        /* \"#utility.yul\":10874:10991   */\n      pop\n        /* \"#utility.yul\":11058:11060   */\n      0x20\n        /* \"#utility.yul\":11047:11056   */\n      dup7\n        /* \"#utility.yul\":11043:11061   */\n      add\n        /* \"#utility.yul\":11030:11062   */\n      calldataload\n        /* \"#utility.yul\":11089:11107   */\n      0xffffffffffffffff\n        /* \"#utility.yul\":11081:11087   */\n      dup2\n        /* \"#utility.yul\":11078:11108   */\n      gt\n        /* \"#utility.yul\":11075:11192   */\n      iszero\n      tag_284\n      jumpi\n        /* \"#utility.yul\":11111:11190   */\n      tag_285\n      tag_141\n      jump\t// in\n    tag_285:\n        /* \"#utility.yul\":11075:11192   */\n    tag_284:\n        /* \"#utility.yul\":11224:11289   */\n      tag_286\n        /* \"#utility.yul\":11281:11288   */\n      dup9\n        /* \"#utility.yul\":11272:11278   */\n      dup3\n        /* \"#utility.yul\":11261:11270   */\n      dup10\n        /* \"#utility.yul\":11257:11279   */\n      add\n        /* \"#utility.yul\":11224:11289   */\n      tag_145\n      jump\t// in\n    tag_286:\n        /* \"#utility.yul\":11206:11289   */\n      swap5\n      pop\n      swap5\n      pop\n        /* \"#utility.yul\":11001:11299   */\n      pop\n        /* \"#utility.yul\":11366:11368   */\n      0x40\n        /* \"#utility.yul\":11355:11364   */\n      dup7\n        /* \"#utility.yul\":11351:11369   */\n      add\n        /* \"#utility.yul\":11338:11370   */\n      calldataload\n        /* \"#utility.yul\":11397:11415   */\n      0xffffffffffffffff\n        /* \"#utility.yul\":11389:11395   */\n      dup2\n        /* \"#utility.yul\":11386:11416   */\n      gt\n        /* \"#utility.yul\":11383:11500   */\n      iszero\n      tag_287\n      jumpi\n        /* \"#utility.yul\":11419:11498   */\n      tag_288\n      tag_141\n      jump\t// in\n    tag_288:\n        /* \"#utility.yul\":11383:11500   */\n    tag_287:\n        /* \"#utility.yul\":11532:11597   */\n      tag_289\n        /* \"#utility.yul\":11589:11596   */\n      dup9\n        /* \"#utility.yul\":11580:11586   */\n      dup3\n        /* \"#utility.yul\":11569:11578   */\n      dup10\n        /* \"#utility.yul\":11565:11587   */\n      add\n        /* \"#utility.yul\":11532:11597   */\n      tag_145\n      jump\t// in\n    tag_289:\n        /* \"#utility.yul\":11514:11597   */\n      swap3\n      pop\n      swap3\n      pop\n        /* \"#utility.yul\":11309:11607   */\n      pop\n        /* \"#utility.yul\":10595:11614   */\n      swap3\n      swap6\n      pop\n      swap3\n      swap6\n      swap1\n      swap4\n      pop\n      jump\t// out\n        /* \"#utility.yul\":11620:11744   */\n    tag_168:\n        /* \"#utility.yul\":11697:11703   */\n      0x00\n        /* \"#utility.yul\":11731:11736   */\n      dup2\n        /* \"#utility.yul\":11725:11737   */\n      mload\n        /* \"#utility.yul\":11715:11737   */\n      swap1\n      pop\n        /* \"#utility.yul\":11620:11744   */\n      swap2\n      swap1\n      pop\n      jump\t// out\n        /* \"#utility.yul\":11750:11944   */\n    tag_169:\n        /* \"#utility.yul\":11859:11870   */\n      0x00\n        /* \"#utility.yul\":11893:11899   */\n      dup3\n        /* \"#utility.yul\":11888:11891   */\n      dup3\n        /* \"#utility.yul\":11881:11900   */\n      mstore\n        /* \"#utility.yul\":11933:11937   */\n      0x20\n        /* \"#utility.yul\":11928:11931   */\n      dup3\n        /* \"#utility.yul\":11924:11938   */\n      add\n        /* \"#utility.yul\":11909:11938   */\n      swap1\n      pop\n        /* \"#utility.yul\":11750:11944   */\n      swap3\n      swap2\n      pop\n      pop\n      jump\t// out\n        /* \"#utility.yul\":11950:12092   */\n    tag_170:\n        /* \"#utility.yul\":12027:12031   */\n      0x00\n        /* \"#utility.yul\":12050:12053   */\n      dup2\n        /* \"#utility.yul\":12042:12053   */\n      swap1\n      pop\n        /* \"#utility.yul\":12080:12084   */\n      0x20\n        /* \"#utility.yul\":12075:12078   */\n      dup3\n        /* \"#utility.yul\":12071:12085   */\n      add\n        /* \"#utility.yul\":12063:12085   */\n      swap1\n      pop\n        /* \"#utility.yul\":11950:12092   */\n      swap2\n      swap1\n      pop\n      jump\t// out\n        /* \"#utility.yul\":12098:12294   */\n    tag_171:\n        /* \"#utility.yul\":12187:12197   */\n      0x00\n        /* \"#utility.yul\":12222:12288   */\n      tag_294\n        /* \"#utility.yul\":12284:12287   */\n      dup4\n        /* \"#utility.yul\":12276:12282   */\n      dup4\n        /* \"#utility.yul\":12222:12288   */\n      tag_156\n      jump\t// in\n    tag_294:\n        /* \"#utility.yul\":12208:12288   */\n      swap1\n      pop\n        /* \"#utility.yul\":12098:12294   */\n      swap3\n      swap2\n      pop\n      pop\n      jump\t// out\n        /* \"#utility.yul\":12300:12423   */\n    tag_172:\n        /* \"#utility.yul\":12380:12384   */\n      0x00\n        /* \"#utility.yul\":12412:12416   */\n      0x20\n        /* \"#utility.yul\":12407:12410   */\n      dup3\n        /* \"#utility.yul\":12403:12417   */\n      add\n        /* \"#utility.yul\":12395:12417   */\n      swap1\n      pop\n        /* \"#utility.yul\":12300:12423   */\n      swap2\n      swap1\n      pop\n      jump\t// out\n        /* \"#utility.yul\":12457:13448   */\n    tag_173:\n        /* \"#utility.yul\":12596:12599   */\n      0x00\n        /* \"#utility.yul\":12625:12689   */\n      tag_297\n        /* \"#utility.yul\":12683:12688   */\n      dup3\n        /* \"#utility.yul\":12625:12689   */\n      tag_168\n      jump\t// in\n    tag_297:\n        /* \"#utility.yul\":12705:12801   */\n      tag_298\n        /* \"#utility.yul\":12794:12800   */\n      dup2\n        /* \"#utility.yul\":12789:12792   */\n      dup6\n        /* \"#utility.yul\":12705:12801   */\n      tag_169\n      jump\t// in\n    tag_298:\n        /* \"#utility.yul\":12698:12801   */\n      swap4\n      pop\n        /* \"#utility.yul\":12827:12830   */\n      dup4\n        /* \"#utility.yul\":12872:12876   */\n      0x20\n        /* \"#utility.yul\":12864:12870   */\n      dup3\n        /* \"#utility.yul\":12860:12877   */\n      mul\n        /* \"#utility.yul\":12855:12858   */\n      dup6\n        /* \"#utility.yul\":12851:12878   */\n      add\n        /* \"#utility.yul\":12902:12968   */\n      tag_299\n        /* \"#utility.yul\":12962:12967   */\n      dup6\n        /* \"#utility.yul\":12902:12968   */\n      tag_170\n      jump\t// in\n    tag_299:\n        /* \"#utility.yul\":12991:12998   */\n      dup1\n        /* \"#utility.yul\":13022:13023   */\n      0x00\n        /* \"#utility.yul\":13007:13403   */\n    tag_300:\n        /* \"#utility.yul\":13032:13038   */\n      dup6\n        /* \"#utility.yul\":13029:13030   */\n      dup2\n        /* \"#utility.yul\":13026:13039   */\n      lt\n        /* \"#utility.yul\":13007:13403   */\n      iszero\n      tag_302\n      jumpi\n        /* \"#utility.yul\":13103:13112   */\n      dup5\n        /* \"#utility.yul\":13097:13101   */\n      dup5\n        /* \"#utility.yul\":13093:13113   */\n      sub\n        /* \"#utility.yul\":13088:13091   */\n      dup10\n        /* \"#utility.yul\":13081:13114   */\n      mstore\n        /* \"#utility.yul\":13154:13160   */\n      dup2\n        /* \"#utility.yul\":13148:13161   */\n      mload\n        /* \"#utility.yul\":13182:13266   */\n      tag_303\n        /* \"#utility.yul\":13261:13265   */\n      dup6\n        /* \"#utility.yul\":13246:13259   */\n      dup3\n        /* \"#utility.yul\":13182:13266   */\n      tag_171\n      jump\t// in\n    tag_303:\n        /* \"#utility.yul\":13174:13266   */\n      swap5\n      pop\n        /* \"#utility.yul\":13289:13359   */\n      tag_304\n        /* \"#utility.yul\":13352:13358   */\n      dup4\n        /* \"#utility.yul\":13289:13359   */\n      tag_172\n      jump\t// in\n    tag_304:\n        /* \"#utility.yul\":13279:13359   */\n      swap3\n      pop\n        /* \"#utility.yul\":13388:13392   */\n      0x20\n        /* \"#utility.yul\":13383:13386   */\n      dup11\n        /* \"#utility.yul\":13379:13393   */\n      add\n        /* \"#utility.yul\":13372:13393   */\n      swap10\n      pop\n        /* \"#utility.yul\":13067:13403   */\n      pop\n        /* \"#utility.yul\":13054:13055   */\n      0x01\n        /* \"#utility.yul\":13051:13052   */\n      dup2\n        /* \"#utility.yul\":13047:13056   */\n      add\n        /* \"#utility.yul\":13042:13056   */\n      swap1\n      pop\n        /* \"#utility.yul\":13007:13403   */\n      jump(tag_300)\n    tag_302:\n        /* \"#utility.yul\":13011:13025   */\n      pop\n        /* \"#utility.yul\":13419:13423   */\n      dup3\n        /* \"#utility.yul\":13412:13423   */\n      swap8\n      pop\n        /* \"#utility.yul\":13439:13442   */\n      dup8\n        /* \"#utility.yul\":13432:13442   */\n      swap6\n      pop\n        /* \"#utility.yul\":12601:13448   */\n      pop\n      pop\n      pop\n      pop\n      pop\n        /* \"#utility.yul\":12457:13448   */\n      swap3\n      swap2\n      pop\n      pop\n      jump\t// out\n        /* \"#utility.yul\":13454:13867   */\n    tag_34:\n        /* \"#utility.yul\":13617:13621   */\n      0x00\n        /* \"#utility.yul\":13655:13657   */\n      0x20\n        /* \"#utility.yul\":13644:13653   */\n      dup3\n        /* \"#utility.yul\":13640:13658   */\n      add\n        /* \"#utility.yul\":13632:13658   */\n      swap1\n      pop\n        /* \"#utility.yul\":13704:13713   */\n      dup2\n        /* \"#utility.yul\":13698:13702   */\n      dup2\n        /* \"#utility.yul\":13694:13714   */\n      sub\n        /* \"#utility.yul\":13690:13691   */\n      0x00\n        /* \"#utility.yul\":13679:13688   */\n      dup4\n        /* \"#utility.yul\":13675:13692   */\n      add\n        /* \"#utility.yul\":13668:13715   */\n      mstore\n        /* \"#utility.yul\":13732:13860   */\n      tag_306\n        /* \"#utility.yul\":13855:13859   */\n      dup2\n        /* \"#utility.yul\":13846:13852   */\n      dup5\n        /* \"#utility.yul\":13732:13860   */\n      tag_173\n      jump\t// in\n    tag_306:\n        /* \"#utility.yul\":13724:13860   */\n      swap1\n      pop\n        /* \"#utility.yul\":13454:13867   */\n      swap3\n      swap2\n      pop\n      pop\n      jump\t// out\n        /* \"#utility.yul\":13873:14042   */\n    tag_174:\n        /* \"#utility.yul\":13957:13968   */\n      0x00\n        /* \"#utility.yul\":13991:13997   */\n      dup3\n        /* \"#utility.yul\":13986:13989   */\n      dup3\n        /* \"#utility.yul\":13979:13998   */\n      mstore\n        /* \"#utility.yul\":14031:14035   */\n      0x20\n        /* \"#utility.yul\":14026:14029   */\n      dup3\n        /* \"#utility.yul\":14022:14036   */\n      add\n        /* \"#utility.yul\":14007:14036   */\n      swap1\n      pop\n        /* \"#utility.yul\":13873:14042   */\n      swap3\n      swap2\n      pop\n      pop\n      jump\t// out\n        /* \"#utility.yul\":14048:14222   */\n    tag_175:\n        /* \"#utility.yul\":14188:14214   */\n      0x796f752063616e206e6f7420616464206f6666696369616c0000000000000000\n        /* \"#utility.yul\":14184:14185   */\n      0x00\n        /* \"#utility.yul\":14176:14182   */\n      dup3\n        /* \"#utility.yul\":14172:14186   */\n      add\n        /* \"#utility.yul\":14165:14215   */\n      mstore\n        /* \"#utility.yul\":14048:14222   */\n      pop\n      jump\t// out\n        /* \"#utility.yul\":14228:14594   */\n    tag_176:\n        /* \"#utility.yul\":14370:14373   */\n      0x00\n        /* \"#utility.yul\":14391:14458   */\n      tag_310\n        /* \"#utility.yul\":14455:14457   */\n      0x18\n        /* \"#utility.yul\":14450:14453   */\n      dup4\n        /* \"#utility.yul\":14391:14458   */\n      tag_174\n      jump\t// in\n    tag_310:\n        /* \"#utility.yul\":14384:14458   */\n      swap2\n      pop\n        /* \"#utility.yul\":14467:14560   */\n      tag_311\n        /* \"#utility.yul\":14556:14559   */\n      dup3\n        /* \"#utility.yul\":14467:14560   */\n      tag_175\n      jump\t// in\n    tag_311:\n        /* \"#utility.yul\":14585:14587   */\n      0x20\n        /* \"#utility.yul\":14580:14583   */\n      dup3\n        /* \"#utility.yul\":14576:14588   */\n      add\n        /* \"#utility.yul\":14569:14588   */\n      swap1\n      pop\n        /* \"#utility.yul\":14228:14594   */\n      swap2\n      swap1\n      pop\n      jump\t// out\n        /* \"#utility.yul\":14600:15019   */\n    tag_38:\n        /* \"#utility.yul\":14766:14770   */\n      0x00\n        /* \"#utility.yul\":14804:14806   */\n      0x20\n        /* \"#utility.yul\":14793:14802   */\n      dup3\n        /* \"#utility.yul\":14789:14807   */\n      add\n        /* \"#utility.yul\":14781:14807   */\n      swap1\n      pop\n        /* \"#utility.yul\":14853:14862   */\n      dup2\n        /* \"#utility.yul\":14847:14851   */\n      dup2\n        /* \"#utility.yul\":14843:14863   */\n      sub\n        /* \"#utility.yul\":14839:14840   */\n      0x00\n        /* \"#utility.yul\":14828:14837   */\n      dup4\n        /* \"#utility.yul\":14824:14841   */\n      add\n        /* \"#utility.yul\":14817:14864   */\n      mstore\n        /* \"#utility.yul\":14881:15012   */\n      tag_313\n        /* \"#utility.yul\":15007:15011   */\n      dup2\n        /* \"#utility.yul\":14881:15012   */\n      tag_176\n      jump\t// in\n    tag_313:\n        /* \"#utility.yul\":14873:15012   */\n      swap1\n      pop\n        /* \"#utility.yul\":14600:15019   */\n      swap2\n      swap1\n      pop\n      jump\t// out\n        /* \"#utility.yul\":15025:15205   */\n    tag_177:\n        /* \"#utility.yul\":15073:15150   */\n      0x4e487b7100000000000000000000000000000000000000000000000000000000\n        /* \"#utility.yul\":15070:15071   */\n      0x00\n        /* \"#utility.yul\":15063:15151   */\n      mstore\n        /* \"#utility.yul\":15170:15174   */\n      0x22\n        /* \"#utility.yul\":15167:15168   */\n      0x04\n        /* \"#utility.yul\":15160:15175   */\n      mstore\n        /* \"#utility.yul\":15194:15198   */\n      0x24\n        /* \"#utility.yul\":15191:15192   */\n      0x00\n        /* \"#utility.yul\":15184:15199   */\n      revert\n        /* \"#utility.yul\":15211:15531   */\n    tag_41:\n        /* \"#utility.yul\":15255:15261   */\n      0x00\n        /* \"#utility.yul\":15292:15293   */\n      0x02\n        /* \"#utility.yul\":15286:15290   */\n      dup3\n        /* \"#utility.yul\":15282:15294   */\n      div\n        /* \"#utility.yul\":15272:15294   */\n      swap1\n      pop\n        /* \"#utility.yul\":15339:15340   */\n      0x01\n        /* \"#utility.yul\":15333:15337   */\n      dup3\n        /* \"#utility.yul\":15329:15341   */\n      and\n        /* \"#utility.yul\":15360:15378   */\n      dup1\n        /* \"#utility.yul\":15350:15431   */\n      tag_316\n      jumpi\n        /* \"#utility.yul\":15416:15420   */\n      0x7f\n        /* \"#utility.yul\":15408:15414   */\n      dup3\n        /* \"#utility.yul\":15404:15421   */\n      and\n        /* \"#utility.yul\":15394:15421   */\n      swap2\n      pop\n        /* \"#utility.yul\":15350:15431   */\n    tag_316:\n        /* \"#utility.yul\":15478:15480   */\n      0x20\n        /* \"#utility.yul\":15470:15476   */\n      dup3\n        /* \"#utility.yul\":15467:15481   */\n      lt\n        /* \"#utility.yul\":15447:15465   */\n      dup2\n        /* \"#utility.yul\":15444:15482   */\n      eq\n        /* \"#utility.yul\":15441:15525   */\n      iszero\n      tag_317\n      jumpi\n        /* \"#utility.yul\":15497:15515   */\n      tag_318\n      tag_177\n      jump\t// in\n    tag_318:\n        /* \"#utility.yul\":15441:15525   */\n    tag_317:\n        /* \"#utility.yul\":15262:15531   */\n      pop\n        /* \"#utility.yul\":15211:15531   */\n      swap2\n      swap1\n      pop\n      jump\t// out\n        /* \"#utility.yul\":15537:15706   */\n    tag_178:\n        /* \"#utility.yul\":15677:15698   */\n      0x737461746520616c726561647920657869737400000000000000000000000000\n        /* \"#utility.yul\":15673:15674   */\n      0x00\n        /* \"#utility.yul\":15665:15671   */\n      dup3\n        /* \"#utility.yul\":15661:15675   */\n      add\n        /* \"#utility.yul\":15654:15699   */\n      mstore\n        /* \"#utility.yul\":15537:15706   */\n      pop\n      jump\t// out\n        /* \"#utility.yul\":15712:16078   */\n    tag_179:\n        /* \"#utility.yul\":15854:15857   */\n      0x00\n        /* \"#utility.yul\":15875:15942   */\n      tag_321\n        /* \"#utility.yul\":15939:15941   */\n      0x13\n        /* \"#utility.yul\":15934:15937   */\n      dup4\n        /* \"#utility.yul\":15875:15942   */\n      tag_174\n      jump\t// in\n    tag_321:\n        /* \"#utility.yul\":15868:15942   */\n      swap2\n      pop\n        /* \"#utility.yul\":15951:16044   */\n      tag_322\n        /* \"#utility.yul\":16040:16043   */\n      dup3\n        /* \"#utility.yul\":15951:16044   */\n      tag_178\n      jump\t// in\n    tag_322:\n        /* \"#utility.yul\":16069:16071   */\n      0x20\n        /* \"#utility.yul\":16064:16067   */\n      dup3\n        /* \"#utility.yul\":16060:16072   */\n      add\n        /* \"#utility.yul\":16053:16072   */\n      swap1\n      pop\n        /* \"#utility.yul\":15712:16078   */\n      swap2\n      swap1\n      pop\n      jump\t// out\n        /* \"#utility.yul\":16084:16503   */\n    tag_44:\n        /* \"#utility.yul\":16250:16254   */\n      0x00\n        /* \"#utility.yul\":16288:16290   */\n      0x20\n        /* \"#utility.yul\":16277:16286   */\n      dup3\n        /* \"#utility.yul\":16273:16291   */\n      add\n        /* \"#utility.yul\":16265:16291   */\n      swap1\n      pop\n        /* \"#utility.yul\":16337:16346   */\n      dup2\n        /* \"#utility.yul\":16331:16335   */\n      dup2\n        /* \"#utility.yul\":16327:16347   */\n      sub\n        /* \"#utility.yul\":16323:16324   */\n      0x00\n        /* \"#utility.yul\":16312:16321   */\n      dup4\n        /* \"#utility.yul\":16308:16325   */\n      add\n        /* \"#utility.yul\":16301:16348   */\n      mstore\n        /* \"#utility.yul\":16365:16496   */\n      tag_324\n        /* \"#utility.yul\":16491:16495   */\n      dup2\n        /* \"#utility.yul\":16365:16496   */\n      tag_179\n      jump\t// in\n    tag_324:\n        /* \"#utility.yul\":16357:16496   */\n      swap1\n      pop\n        /* \"#utility.yul\":16084:16503   */\n      swap2\n      swap1\n      pop\n      jump\t// out\n        /* \"#utility.yul\":16509:16679   */\n    tag_180:\n        /* \"#utility.yul\":16649:16671   */\n      0x737461746520646f6573206e6f74206578697374000000000000000000000000\n        /* \"#utility.yul\":16645:16646   */\n      0x00\n        /* \"#utility.yul\":16637:16643   */\n      dup3\n        /* \"#utility.yul\":16633:16647   */\n      add\n        /* \"#utility.yul\":16626:16672   */\n      mstore\n        /* \"#utility.yul\":16509:16679   */\n      pop\n      jump\t// out\n        /* \"#utility.yul\":16685:17051   */\n    tag_181:\n        /* \"#utility.yul\":16827:16830   */\n      0x00\n        /* \"#utility.yul\":16848:16915   */\n      tag_327\n        /* \"#utility.yul\":16912:16914   */\n      0x14\n        /* \"#utility.yul\":16907:16910   */\n      dup4\n        /* \"#utility.yul\":16848:16915   */\n      tag_174\n      jump\t// in\n    tag_327:\n        /* \"#utility.yul\":16841:16915   */\n      swap2\n      pop\n        /* \"#utility.yul\":16924:17017   */\n      tag_328\n        /* \"#utility.yul\":17013:17016   */\n      dup3\n        /* \"#utility.yul\":16924:17017   */\n      tag_180\n      jump\t// in\n    tag_328:\n        /* \"#utility.yul\":17042:17044   */\n      0x20\n        /* \"#utility.yul\":17037:17040   */\n      dup3\n        /* \"#utility.yul\":17033:17045   */\n      add\n        /* \"#utility.yul\":17026:17045   */\n      swap1\n      pop\n        /* \"#utility.yul\":16685:17051   */\n      swap2\n      swap1\n      pop\n      jump\t// out\n        /* \"#utility.yul\":17057:17476   */\n    tag_77:\n        /* \"#utility.yul\":17223:17227   */\n      0x00\n        /* \"#utility.yul\":17261:17263   */\n      0x20\n        /* \"#utility.yul\":17250:17259   */\n      dup3\n        /* \"#utility.yul\":17246:17264   */\n      add\n        /* \"#utility.yul\":17238:17264   */\n      swap1\n      pop\n        /* \"#utility.yul\":17310:17319   */\n      dup2\n        /* \"#utility.yul\":17304:17308   */\n      dup2\n        /* \"#utility.yul\":17300:17320   */\n      sub\n        /* \"#utility.yul\":17296:17297   */\n      0x00\n        /* \"#utility.yul\":17285:17294   */\n      dup4\n        /* \"#utility.yul\":17281:17298   */\n      add\n        /* \"#utility.yul\":17274:17321   */\n      mstore\n        /* \"#utility.yul\":17338:17469   */\n      tag_330\n        /* \"#utility.yul\":17464:17468   */\n      dup2\n        /* \"#utility.yul\":17338:17469   */\n      tag_181\n      jump\t// in\n    tag_330:\n        /* \"#utility.yul\":17330:17469   */\n      swap1\n      pop\n        /* \"#utility.yul\":17057:17476   */\n      swap2\n      swap1\n      pop\n      jump\t// out\n        /* \"#utility.yul\":17482:17630   */\n    tag_182:\n        /* \"#utility.yul\":17584:17595   */\n      0x00\n        /* \"#utility.yul\":17621:17624   */\n      dup2\n        /* \"#utility.yul\":17606:17624   */\n      swap1\n      pop\n        /* \"#utility.yul\":17482:17630   */\n      swap3\n      swap2\n      pop\n      pop\n      jump\t// out\n        /* \"#utility.yul\":17636:17790   */\n    tag_183:\n        /* \"#utility.yul\":17720:17726   */\n      dup3\n        /* \"#utility.yul\":17715:17718   */\n      dup2\n        /* \"#utility.yul\":17710:17713   */\n      dup4\n        /* \"#utility.yul\":17697:17727   */\n      calldatacopy\n        /* \"#utility.yul\":17782:17783   */\n      0x00\n        /* \"#utility.yul\":17773:17779   */\n      dup4\n        /* \"#utility.yul\":17768:17771   */\n      dup4\n        /* \"#utility.yul\":17764:17780   */\n      add\n        /* \"#utility.yul\":17757:17784   */\n      mstore\n        /* \"#utility.yul\":17636:17790   */\n      pop\n      pop\n      pop\n      jump\t// out\n        /* \"#utility.yul\":17820:18137   */\n    tag_184:\n        /* \"#utility.yul\":17936:17939   */\n      0x00\n        /* \"#utility.yul\":17957:18046   */\n      tag_334\n        /* \"#utility.yul\":18039:18045   */\n      dup4\n        /* \"#utility.yul\":18034:18037   */\n      dup6\n        /* \"#utility.yul\":17957:18046   */\n      tag_182\n      jump\t// in\n    tag_334:\n        /* \"#utility.yul\":17950:18046   */\n      swap4\n      pop\n        /* \"#utility.yul\":18056:18099   */\n      tag_335\n        /* \"#utility.yul\":18092:18098   */\n      dup4\n        /* \"#utility.yul\":18087:18090   */\n      dup6\n        /* \"#utility.yul\":18080:18085   */\n      dup5\n        /* \"#utility.yul\":18056:18099   */\n      tag_183\n      jump\t// in\n    tag_335:\n        /* \"#utility.yul\":18124:18130   */\n      dup3\n        /* \"#utility.yul\":18119:18122   */\n      dup5\n        /* \"#utility.yul\":18115:18131   */\n      add\n        /* \"#utility.yul\":18108:18131   */\n      swap1\n      pop\n        /* \"#utility.yul\":17820:18137   */\n      swap4\n      swap3\n      pop\n      pop\n      pop\n      jump\t// out\n        /* \"#utility.yul\":18143:18438   */\n    tag_80:\n        /* \"#utility.yul\":18285:18288   */\n      0x00\n        /* \"#utility.yul\":18307:18412   */\n      tag_337\n        /* \"#utility.yul\":18408:18411   */\n      dup3\n        /* \"#utility.yul\":18399:18405   */\n      dup5\n        /* \"#utility.yul\":18391:18397   */\n      dup7\n        /* \"#utility.yul\":18307:18412   */\n      tag_184\n      jump\t// in\n    tag_337:\n        /* \"#utility.yul\":18300:18412   */\n      swap2\n      pop\n        /* \"#utility.yul\":18429:18432   */\n      dup2\n        /* \"#utility.yul\":18422:18432   */\n      swap1\n      pop\n        /* \"#utility.yul\":18143:18438   */\n      swap4\n      swap3\n      pop\n      pop\n      pop\n      jump\t// out\n        /* \"#utility.yul\":18444:18624   */\n    tag_185:\n        /* \"#utility.yul\":18584:18616   */\n      0x6c6f63616c20676f7665726e6d656e7420616c72656164792065786973740000\n        /* \"#utility.yul\":18580:18581   */\n      0x00\n        /* \"#utility.yul\":18572:18578   */\n      dup3\n        /* \"#utility.yul\":18568:18582   */\n      add\n        /* \"#utility.yul\":18561:18617   */\n      mstore\n        /* \"#utility.yul\":18444:18624   */\n      pop\n      jump\t// out\n        /* \"#utility.yul\":18630:18996   */\n    tag_186:\n        /* \"#utility.yul\":18772:18775   */\n      0x00\n        /* \"#utility.yul\":18793:18860   */\n      tag_340\n        /* \"#utility.yul\":18857:18859   */\n      0x1e\n        /* \"#utility.yul\":18852:18855   */\n      dup4\n        /* \"#utility.yul\":18793:18860   */\n      tag_174\n      jump\t// in\n    tag_340:\n        /* \"#utility.yul\":18786:18860   */\n      swap2\n      pop\n        /* \"#utility.yul\":18869:18962   */\n      tag_341\n        /* \"#utility.yul\":18958:18961   */\n      dup3\n        /* \"#utility.yul\":18869:18962   */\n      tag_185\n      jump\t// in\n    tag_341:\n        /* \"#utility.yul\":18987:18989   */\n      0x20\n        /* \"#utility.yul\":18982:18985   */\n      dup3\n        /* \"#utility.yul\":18978:18990   */\n      add\n        /* \"#utility.yul\":18971:18990   */\n      swap1\n      pop\n        /* \"#utility.yul\":18630:18996   */\n      swap2\n      swap1\n      pop\n      jump\t// out\n        /* \"#utility.yul\":19002:19421   */\n    tag_84:\n        /* \"#utility.yul\":19168:19172   */\n      0x00\n        /* \"#utility.yul\":19206:19208   */\n      0x20\n        /* \"#utility.yul\":19195:19204   */\n      dup3\n        /* \"#utility.yul\":19191:19209   */\n      add\n        /* \"#utility.yul\":19183:19209   */\n      swap1\n      pop\n        /* \"#utility.yul\":19255:19264   */\n      dup2\n        /* \"#utility.yul\":19249:19253   */\n      dup2\n        /* \"#utility.yul\":19245:19265   */\n      sub\n        /* \"#utility.yul\":19241:19242   */\n      0x00\n        /* \"#utility.yul\":19230:19239   */\n      dup4\n        /* \"#utility.yul\":19226:19243   */\n      add\n        /* \"#utility.yul\":19219:19266   */\n      mstore\n        /* \"#utility.yul\":19283:19414   */\n      tag_343\n        /* \"#utility.yul\":19409:19413   */\n      dup2\n        /* \"#utility.yul\":19283:19414   */\n      tag_186\n      jump\t// in\n    tag_343:\n        /* \"#utility.yul\":19275:19414   */\n      swap1\n      pop\n        /* \"#utility.yul\":19002:19421   */\n      swap2\n      swap1\n      pop\n      jump\t// out\n\n    auxdata: 0xa2646970667358221220b6c6e843177b187f3710e8cd9dca208a7e89badac442a7de8c2ecc426d3e62a364736f6c63430008080033\n}\n",
				"bytecode": {
					"linkReferences": {},
					"object": "608060405234801561001057600080fd5b50336000806101000a81548173ffffffffffffffffffffffffffffffffffffffff021916908373ffffffffffffffffffffffffffffffffffffffff1602179055506116bb806100606000396000f3fe608060405234801561001057600080fd5b50600436106100625760003560e01c80635c060b79146100675780636b935b861461008357806378c338d7146100a1578063893d20e8146100d1578063b7a455e6146100ef578063d8ab82741461010b575b600080fd5b610081600480360381019061007c9190610e85565b610129565b005b61008b610280565b60405161009891906110c0565b60405180910390f35b6100bb60048036038101906100b691906110e2565b61049f565b6040516100c891906111e8565b60405180910390f35b6100d9610879565b6040516100e6919061124b565b60405180910390f35b61010960048036038101906101049190611292565b6108a2565b005b610113610bb6565b60405161012091906113e9565b60405180910390f35b3373ffffffffffffffffffffffffffffffffffffffff1660008054906101000a900473ffffffffffffffffffffffffffffffffffffffff1673ffffffffffffffffffffffffffffffffffffffff1614156101b8576040517f08c379a00000000000000000000000000000000000000000000000000000000081526004016101af90611468565b60405180910390fd5b60006005600083815260200190815260200160002080546101d8906114b7565b90501161021a576040517f08c379a000000000000000000000000000000000000000000000000000000000815260040161021190611535565b60405180910390fd5b828260056000848152602001908152602001600020919061023c929190610c8f565b50600683839091806001815401808255809150506001900390600052602060002001600090919290919290919290919250919061027a929190610c8f565b50505050565b60606004805480602002602001604051908101604052809291908181526020016000905b8282101561049657838290600052602060002090600402016040518060800160405290816000820180546102d7906114b7565b80601f0160208091040260200160405190810160405280929190818152602001828054610303906114b7565b80156103505780601f1061032557610100808354040283529160200191610350565b820191906000526020600020905b81548152906001019060200180831161033357829003601f168201915b50505050508152602001600182018054610369906114b7565b80601f0160208091040260200160405190810160405280929190818152602001828054610395906114b7565b80156103e25780601f106103b7576101008083540402835291602001916103e2565b820191906000526020600020905b8154815290600101906020018083116103c557829003601f168201915b5050505050815260200160028201548152602001600382018054610405906114b7565b80601f0160208091040260200160405190810160405280929190818152602001828054610431906114b7565b801561047e5780601f106104535761010080835404028352916020019161047e565b820191906000526020600020905b81548152906001019060200180831161046157829003601f168201915b505050505081525050815260200190600101906102a4565b50505050905090565b6104a7610d15565b3373ffffffffffffffffffffffffffffffffffffffff1660008054906101000a900473ffffffffffffffffffffffffffffffffffffffff1673ffffffffffffffffffffffffffffffffffffffff161415610536576040517f08c379a000000000000000000000000000000000000000000000000000000000815260040161052d90611468565b60405180910390fd5b816000600560008381526020019081526020016000208054610557906114b7565b905010610599576040517f08c379a0000000000000000000000000000000000000000000000000000000008152600401610590906115a1565b60405180910390fd5b84846000600383836040516105af929190611600565b908152602001604051809103902060000180546105cb906114b7565b90501161060d576040517f08c379a000000000000000000000000000000000000000000000000000000000815260040161060490611665565b60405180910390fd5b600060056000878152602001908152602001600020805461062d906114b7565b80601f0160208091040260200160405190810160405280929190818152602001828054610659906114b7565b80156106a65780601f1061067b576101008083540402835291602001916106a6565b820191906000526020600020905b81548152906001019060200180831161068957829003601f168201915b5050505050905060405180608001604052808b8b8080601f016020809104026020016040519081016040528093929190818152602001838380828437600081840152601f19601f82011690508083019250505050505050815260200182815260200187815260200189898080601f016020809104026020016040519081016040528093929190818152602001838380828437600081840152601f19601f820116905080830192505050505050508152509450846003898960405161076b929190611600565b90815260200160405180910390206000820151816000019080519060200190610795929190610d3d565b5060208201518160010190805190602001906107b2929190610d3d565b506040820151816002015560608201518160030190805190602001906107d9929190610d3d565b5090505060048590806001815401808255809150506001900390600052602060002090600402016000909190919091506000820151816000019080519060200190610825929190610d3d565b506020820151816001019080519060200190610842929190610d3d565b50604082015181600201556060820151816003019080519060200190610869929190610d3d565b5050505050505095945050505050565b60008060009054906101000a900473ffffffffffffffffffffffffffffffffffffffff16905090565b3373ffffffffffffffffffffffffffffffffffffffff1660008054906101000a900473ffffffffffffffffffffffffffffffffffffffff1673ffffffffffffffffffffffffffffffffffffffff161415610931576040517f08c379a000000000000000000000000000000000000000000000000000000000815260040161092890611468565b60405180910390fd5b8181600060038383604051610947929190611600565b90815260200160405180910390206000018054610963906114b7565b9050116109a5576040517f08c379a000000000000000000000000000000000000000000000000000000000815260040161099c90611665565b60405180910390fd5b6001879080600181540180825580915050600190039060005260206000200160009091909190916101000a81548173ffffffffffffffffffffffffffffffffffffffff021916908373ffffffffffffffffffffffffffffffffffffffff160217905550604051806080016040528087878080601f016020809104026020016040519081016040528093929190818152602001838380828437600081840152601f19601f82011690508083019250505050505050815260200185858080601f016020809104026020016040519081016040528093929190818152602001838380828437600081840152601f19601f8201169050808301925050505050505081526020018873ffffffffffffffffffffffffffffffffffffffff16815260200160011515815250600260008973ffffffffffffffffffffffffffffffffffffffff1673ffffffffffffffffffffffffffffffffffffffff1681526020019081526020016000206000820151816000019080519060200190610b25929190610d3d565b506020820151816001019080519060200190610b42929190610d3d565b5060408201518160020160006101000a81548173ffffffffffffffffffffffffffffffffffffffff021916908373ffffffffffffffffffffffffffffffffffffffff16021790555060608201518160020160146101000a81548160ff02191690831515021790555090505050505050505050565b60606006805480602002602001604051908101604052809291908181526020016000905b82821015610c86578382906000526020600020018054610bf9906114b7565b80601f0160208091040260200160405190810160405280929190818152602001828054610c25906114b7565b8015610c725780601f10610c4757610100808354040283529160200191610c72565b820191906000526020600020905b815481529060010190602001808311610c5557829003601f168201915b505050505081526020019060010190610bda565b50505050905090565b828054610c9b906114b7565b90600052602060002090601f016020900481019282610cbd5760008555610d04565b82601f10610cd657803560ff1916838001178555610d04565b82800160010185558215610d04579182015b82811115610d03578235825591602001919060010190610ce8565b5b509050610d119190610dc3565b5090565b6040518060800160405280606081526020016060815260200160008152602001606081525090565b828054610d49906114b7565b90600052602060002090601f016020900481019282610d6b5760008555610db2565b82601f10610d8457805160ff1916838001178555610db2565b82800160010185558215610db2579182015b82811115610db1578251825591602001919060010190610d96565b5b509050610dbf9190610dc3565b5090565b5b80821115610ddc576000816000905550600101610dc4565b5090565b600080fd5b600080fd5b600080fd5b600080fd5b600080fd5b60008083601f840112610e0f57610e0e610dea565b5b8235905067ffffffffffffffff811115610e2c57610e2b610def565b5b602083019150836001820283011115610e4857610e47610df4565b5b9250929050565b6000819050919050565b610e6281610e4f565b8114610e6d57600080fd5b50565b600081359050610e7f81610e59565b92915050565b600080600060408486031215610e9e57610e9d610de0565b5b600084013567ffffffffffffffff811115610ebc57610ebb610de5565b5b610ec886828701610df9565b93509350506020610edb86828701610e70565b9150509250925092565b600081519050919050565b600082825260208201905092915050565b6000819050602082019050919050565b600081519050919050565b600082825260208201905092915050565b60005b83811015610f4b578082015181840152602081019050610f30565b83811115610f5a576000848401525b50505050565b6000601f19601f8301169050919050565b6000610f7c82610f11565b610f868185610f1c565b9350610f96818560208601610f2d565b610f9f81610f60565b840191505092915050565b610fb381610e4f565b82525050565b60006080830160008301518482036000860152610fd68282610f71565b91505060208301518482036020860152610ff08282610f71565b91505060408301516110056040860182610faa565b506060830151848203606086015261101d8282610f71565b9150508091505092915050565b60006110368383610fb9565b905092915050565b6000602082019050919050565b600061105682610ee5565b6110608185610ef0565b93508360208202850161107285610f01565b8060005b858110156110ae578484038952815161108f858261102a565b945061109a8361103e565b925060208a01995050600181019050611076565b50829750879550505050505092915050565b600060208201905081810360008301526110da818461104b565b905092915050565b6000806000806000606086880312156110fe576110fd610de0565b5b600086013567ffffffffffffffff81111561111c5761111b610de5565b5b61112888828901610df9565b9550955050602086013567ffffffffffffffff81111561114b5761114a610de5565b5b61115788828901610df9565b9350935050604061116a88828901610e70565b9150509295509295909350565b600060808301600083015184820360008601526111948282610f71565b915050602083015184820360208601526111ae8282610f71565b91505060408301516111c36040860182610faa565b50606083015184820360608601526111db8282610f71565b9150508091505092915050565b600060208201905081810360008301526112028184611177565b905092915050565b600073ffffffffffffffffffffffffffffffffffffffff82169050919050565b60006112358261120a565b9050919050565b6112458161122a565b82525050565b6000602082019050611260600083018461123c565b92915050565b61126f8161122a565b811461127a57600080fd5b50565b60008135905061128c81611266565b92915050565b6000806000806000606086880312156112ae576112ad610de0565b5b60006112bc8882890161127d565b955050602086013567ffffffffffffffff8111156112dd576112dc610de5565b5b6112e988828901610df9565b9450945050604086013567ffffffffffffffff81111561130c5761130b610de5565b5b61131888828901610df9565b92509250509295509295909350565b600081519050919050565b600082825260208201905092915050565b6000819050602082019050919050565b600061135f8383610f71565b905092915050565b6000602082019050919050565b600061137f82611327565b6113898185611332565b93508360208202850161139b85611343565b8060005b858110156113d757848403895281516113b88582611353565b94506113c383611367565b925060208a0199505060018101905061139f565b50829750879550505050505092915050565b600060208201905081810360008301526114038184611374565b905092915050565b600082825260208201905092915050565b7f796f752063616e206e6f7420616464206f6666696369616c0000000000000000600082015250565b600061145260188361140b565b915061145d8261141c565b602082019050919050565b6000602082019050818103600083015261148181611445565b9050919050565b7f4e487b7100000000000000000000000000000000000000000000000000000000600052602260045260246000fd5b600060028204905060018216806114cf57607f821691505b602082108114156114e3576114e2611488565b5b50919050565b7f737461746520616c726561647920657869737400000000000000000000000000600082015250565b600061151f60138361140b565b915061152a826114e9565b602082019050919050565b6000602082019050818103600083015261154e81611512565b9050919050565b7f737461746520646f6573206e6f74206578697374000000000000000000000000600082015250565b600061158b60148361140b565b915061159682611555565b602082019050919050565b600060208201905081810360008301526115ba8161157e565b9050919050565b600081905092915050565b82818337600083830152505050565b60006115e783856115c1565b93506115f48385846115cc565b82840190509392505050565b600061160d8284866115db565b91508190509392505050565b7f6c6f63616c20676f7665726e6d656e7420616c72656164792065786973740000600082015250565b600061164f601e8361140b565b915061165a82611619565b602082019050919050565b6000602082019050818103600083015261167e81611642565b905091905056fea2646970667358221220b6c6e843177b187f3710e8cd9dca208a7e89badac442a7de8c2ecc426d3e62a364736f6c63430008080033",
					"opcodes": "PUSH1 0x80 PUSH1 0x40 MSTORE CALLVALUE DUP1 ISZERO PUSH2 0x10 JUMPI PUSH1 0x0 DUP1 REVERT JUMPDEST POP CALLER PUSH1 0x0 DUP1 PUSH2 0x100 EXP DUP2 SLOAD DUP2 PUSH20 0xFFFFFFFFFFFFFFFFFFFFFFFFFFFFFFFFFFFFFFFF MUL NOT AND SWAP1 DUP4 PUSH20 0xFFFFFFFFFFFFFFFFFFFFFFFFFFFFFFFFFFFFFFFF AND MUL OR SWAP1 SSTORE POP PUSH2 0x16BB DUP1 PUSH2 0x60 PUSH1 0x0 CODECOPY PUSH1 0x0 RETURN INVALID PUSH1 0x80 PUSH1 0x40 MSTORE CALLVALUE DUP1 ISZERO PUSH2 0x10 JUMPI PUSH1 0x0 DUP1 REVERT JUMPDEST POP PUSH1 0x4 CALLDATASIZE LT PUSH2 0x62 JUMPI PUSH1 0x0 CALLDATALOAD PUSH1 0xE0 SHR DUP1 PUSH4 0x5C060B79 EQ PUSH2 0x67 JUMPI DUP1 PUSH4 0x6B935B86 EQ PUSH2 0x83 JUMPI DUP1 PUSH4 0x78C338D7 EQ PUSH2 0xA1 JUMPI DUP1 PUSH4 0x893D20E8 EQ PUSH2 0xD1 JUMPI DUP1 PUSH4 0xB7A455E6 EQ PUSH2 0xEF JUMPI DUP1 PUSH4 0xD8AB8274 EQ PUSH2 0x10B JUMPI JUMPDEST PUSH1 0x0 DUP1 REVERT JUMPDEST PUSH2 0x81 PUSH1 0x4 DUP1 CALLDATASIZE SUB DUP2 ADD SWAP1 PUSH2 0x7C SWAP2 SWAP1 PUSH2 0xE85 JUMP JUMPDEST PUSH2 0x129 JUMP JUMPDEST STOP JUMPDEST PUSH2 0x8B PUSH2 0x280 JUMP JUMPDEST PUSH1 0x40 MLOAD PUSH2 0x98 SWAP2 SWAP1 PUSH2 0x10C0 JUMP JUMPDEST PUSH1 0x40 MLOAD DUP1 SWAP2 SUB SWAP1 RETURN JUMPDEST PUSH2 0xBB PUSH1 0x4 DUP1 CALLDATASIZE SUB DUP2 ADD SWAP1 PUSH2 0xB6 SWAP2 SWAP1 PUSH2 0x10E2 JUMP JUMPDEST PUSH2 0x49F JUMP JUMPDEST PUSH1 0x40 MLOAD PUSH2 0xC8 SWAP2 SWAP1 PUSH2 0x11E8 JUMP JUMPDEST PUSH1 0x40 MLOAD DUP1 SWAP2 SUB SWAP1 RETURN JUMPDEST PUSH2 0xD9 PUSH2 0x879 JUMP JUMPDEST PUSH1 0x40 MLOAD PUSH2 0xE6 SWAP2 SWAP1 PUSH2 0x124B JUMP JUMPDEST PUSH1 0x40 MLOAD DUP1 SWAP2 SUB SWAP1 RETURN JUMPDEST PUSH2 0x109 PUSH1 0x4 DUP1 CALLDATASIZE SUB DUP2 ADD SWAP1 PUSH2 0x104 SWAP2 SWAP1 PUSH2 0x1292 JUMP JUMPDEST PUSH2 0x8A2 JUMP JUMPDEST STOP JUMPDEST PUSH2 0x113 PUSH2 0xBB6 JUMP JUMPDEST PUSH1 0x40 MLOAD PUSH2 0x120 SWAP2 SWAP1 PUSH2 0x13E9 JUMP JUMPDEST PUSH1 0x40 MLOAD DUP1 SWAP2 SUB SWAP1 RETURN JUMPDEST CALLER PUSH20 0xFFFFFFFFFFFFFFFFFFFFFFFFFFFFFFFFFFFFFFFF AND PUSH1 0x0 DUP1 SLOAD SWAP1 PUSH2 0x100 EXP SWAP1 DIV PUSH20 0xFFFFFFFFFFFFFFFFFFFFFFFFFFFFFFFFFFFFFFFF AND PUSH20 0xFFFFFFFFFFFFFFFFFFFFFFFFFFFFFFFFFFFFFFFF AND EQ ISZERO PUSH2 0x1B8 JUMPI PUSH1 0x40 MLOAD PUSH32 0x8C379A000000000000000000000000000000000000000000000000000000000 DUP2 MSTORE PUSH1 0x4 ADD PUSH2 0x1AF SWAP1 PUSH2 0x1468 JUMP JUMPDEST PUSH1 0x40 MLOAD DUP1 SWAP2 SUB SWAP1 REVERT JUMPDEST PUSH1 0x0 PUSH1 0x5 PUSH1 0x0 DUP4 DUP2 MSTORE PUSH1 0x20 ADD SWAP1 DUP2 MSTORE PUSH1 0x20 ADD PUSH1 0x0 KECCAK256 DUP1 SLOAD PUSH2 0x1D8 SWAP1 PUSH2 0x14B7 JUMP JUMPDEST SWAP1 POP GT PUSH2 0x21A JUMPI PUSH1 0x40 MLOAD PUSH32 0x8C379A000000000000000000000000000000000000000000000000000000000 DUP2 MSTORE PUSH1 0x4 ADD PUSH2 0x211 SWAP1 PUSH2 0x1535 JUMP JUMPDEST PUSH1 0x40 MLOAD DUP1 SWAP2 SUB SWAP1 REVERT JUMPDEST DUP3 DUP3 PUSH1 0x5 PUSH1 0x0 DUP5 DUP2 MSTORE PUSH1 0x20 ADD SWAP1 DUP2 MSTORE PUSH1 0x20 ADD PUSH1 0x0 KECCAK256 SWAP2 SWAP1 PUSH2 0x23C SWAP3 SWAP2 SWAP1 PUSH2 0xC8F JUMP JUMPDEST POP PUSH1 0x6 DUP4 DUP4 SWAP1 SWAP2 DUP1 PUSH1 0x1 DUP2 SLOAD ADD DUP1 DUP3 SSTORE DUP1 SWAP2 POP POP PUSH1 0x1 SWAP1 SUB SWAP1 PUSH1 0x0 MSTORE PUSH1 0x20 PUSH1 0x0 KECCAK256 ADD PUSH1 0x0 SWAP1 SWAP2 SWAP3 SWAP1 SWAP2 SWAP3 SWAP1 SWAP2 SWAP3 SWAP1 SWAP2 SWAP3 POP SWAP2 SWAP1 PUSH2 0x27A SWAP3 SWAP2 SWAP1 PUSH2 0xC8F JUMP JUMPDEST POP POP POP POP JUMP JUMPDEST PUSH1 0x60 PUSH1 0x4 DUP1 SLOAD DUP1 PUSH1 0x20 MUL PUSH1 0x20 ADD PUSH1 0x40 MLOAD SWAP1 DUP2 ADD PUSH1 0x40 MSTORE DUP1 SWAP3 SWAP2 SWAP1 DUP2 DUP2 MSTORE PUSH1 0x20 ADD PUSH1 0x0 SWAP1 JUMPDEST DUP3 DUP3 LT ISZERO PUSH2 0x496 JUMPI DUP4 DUP3 SWAP1 PUSH1 0x0 MSTORE PUSH1 0x20 PUSH1 0x0 KECCAK256 SWAP1 PUSH1 0x4 MUL ADD PUSH1 0x40 MLOAD DUP1 PUSH1 0x80 ADD PUSH1 0x40 MSTORE SWAP1 DUP2 PUSH1 0x0 DUP3 ADD DUP1 SLOAD PUSH2 0x2D7 SWAP1 PUSH2 0x14B7 JUMP JUMPDEST DUP1 PUSH1 0x1F ADD PUSH1 0x20 DUP1 SWAP2 DIV MUL PUSH1 0x20 ADD PUSH1 0x40 MLOAD SWAP1 DUP2 ADD PUSH1 0x40 MSTORE DUP1 SWAP3 SWAP2 SWAP1 DUP2 DUP2 MSTORE PUSH1 0x20 ADD DUP3 DUP1 SLOAD PUSH2 0x303 SWAP1 PUSH2 0x14B7 JUMP JUMPDEST DUP1 ISZERO PUSH2 0x350 JUMPI DUP1 PUSH1 0x1F LT PUSH2 0x325 JUMPI PUSH2 0x100 DUP1 DUP4 SLOAD DIV MUL DUP4 MSTORE SWAP2 PUSH1 0x20 ADD SWAP2 PUSH2 0x350 JUMP JUMPDEST DUP3 ADD SWAP2 SWAP1 PUSH1 0x0 MSTORE PUSH1 0x20 PUSH1 0x0 KECCAK256 SWAP1 JUMPDEST DUP2 SLOAD DUP2 MSTORE SWAP1 PUSH1 0x1 ADD SWAP1 PUSH1 0x20 ADD DUP1 DUP4 GT PUSH2 0x333 JUMPI DUP3 SWAP1 SUB PUSH1 0x1F AND DUP3 ADD SWAP2 JUMPDEST POP POP POP POP POP DUP2 MSTORE PUSH1 0x20 ADD PUSH1 0x1 DUP3 ADD DUP1 SLOAD PUSH2 0x369 SWAP1 PUSH2 0x14B7 JUMP JUMPDEST DUP1 PUSH1 0x1F ADD PUSH1 0x20 DUP1 SWAP2 DIV MUL PUSH1 0x20 ADD PUSH1 0x40 MLOAD SWAP1 DUP2 ADD PUSH1 0x40 MSTORE DUP1 SWAP3 SWAP2 SWAP1 DUP2 DUP2 MSTORE PUSH1 0x20 ADD DUP3 DUP1 SLOAD PUSH2 0x395 SWAP1 PUSH2 0x14B7 JUMP JUMPDEST DUP1 ISZERO PUSH2 0x3E2 JUMPI DUP1 PUSH1 0x1F LT PUSH2 0x3B7 JUMPI PUSH2 0x100 DUP1 DUP4 SLOAD DIV MUL DUP4 MSTORE SWAP2 PUSH1 0x20 ADD SWAP2 PUSH2 0x3E2 JUMP JUMPDEST DUP3 ADD SWAP2 SWAP1 PUSH1 0x0 MSTORE PUSH1 0x20 PUSH1 0x0 KECCAK256 SWAP1 JUMPDEST DUP2 SLOAD DUP2 MSTORE SWAP1 PUSH1 0x1 ADD SWAP1 PUSH1 0x20 ADD DUP1 DUP4 GT PUSH2 0x3C5 JUMPI DUP3 SWAP1 SUB PUSH1 0x1F AND DUP3 ADD SWAP2 JUMPDEST POP POP POP POP POP DUP2 MSTORE PUSH1 0x20 ADD PUSH1 0x2 DUP3 ADD SLOAD DUP2 MSTORE PUSH1 0x20 ADD PUSH1 0x3 DUP3 ADD DUP1 SLOAD PUSH2 0x405 SWAP1 PUSH2 0x14B7 JUMP JUMPDEST DUP1 PUSH1 0x1F ADD PUSH1 0x20 DUP1 SWAP2 DIV MUL PUSH1 0x20 ADD PUSH1 0x40 MLOAD SWAP1 DUP2 ADD PUSH1 0x40 MSTORE DUP1 SWAP3 SWAP2 SWAP1 DUP2 DUP2 MSTORE PUSH1 0x20 ADD DUP3 DUP1 SLOAD PUSH2 0x431 SWAP1 PUSH2 0x14B7 JUMP JUMPDEST DUP1 ISZERO PUSH2 0x47E JUMPI DUP1 PUSH1 0x1F LT PUSH2 0x453 JUMPI PUSH2 0x100 DUP1 DUP4 SLOAD DIV MUL DUP4 MSTORE SWAP2 PUSH1 0x20 ADD SWAP2 PUSH2 0x47E JUMP JUMPDEST DUP3 ADD SWAP2 SWAP1 PUSH1 0x0 MSTORE PUSH1 0x20 PUSH1 0x0 KECCAK256 SWAP1 JUMPDEST DUP2 SLOAD DUP2 MSTORE SWAP1 PUSH1 0x1 ADD SWAP1 PUSH1 0x20 ADD DUP1 DUP4 GT PUSH2 0x461 JUMPI DUP3 SWAP1 SUB PUSH1 0x1F AND DUP3 ADD SWAP2 JUMPDEST POP POP POP POP POP DUP2 MSTORE POP POP DUP2 MSTORE PUSH1 0x20 ADD SWAP1 PUSH1 0x1 ADD SWAP1 PUSH2 0x2A4 JUMP JUMPDEST POP POP POP POP SWAP1 POP SWAP1 JUMP JUMPDEST PUSH2 0x4A7 PUSH2 0xD15 JUMP JUMPDEST CALLER PUSH20 0xFFFFFFFFFFFFFFFFFFFFFFFFFFFFFFFFFFFFFFFF AND PUSH1 0x0 DUP1 SLOAD SWAP1 PUSH2 0x100 EXP SWAP1 DIV PUSH20 0xFFFFFFFFFFFFFFFFFFFFFFFFFFFFFFFFFFFFFFFF AND PUSH20 0xFFFFFFFFFFFFFFFFFFFFFFFFFFFFFFFFFFFFFFFF AND EQ ISZERO PUSH2 0x536 JUMPI PUSH1 0x40 MLOAD PUSH32 0x8C379A000000000000000000000000000000000000000000000000000000000 DUP2 MSTORE PUSH1 0x4 ADD PUSH2 0x52D SWAP1 PUSH2 0x1468 JUMP JUMPDEST PUSH1 0x40 MLOAD DUP1 SWAP2 SUB SWAP1 REVERT JUMPDEST DUP2 PUSH1 0x0 PUSH1 0x5 PUSH1 0x0 DUP4 DUP2 MSTORE PUSH1 0x20 ADD SWAP1 DUP2 MSTORE PUSH1 0x20 ADD PUSH1 0x0 KECCAK256 DUP1 SLOAD PUSH2 0x557 SWAP1 PUSH2 0x14B7 JUMP JUMPDEST SWAP1 POP LT PUSH2 0x599 JUMPI PUSH1 0x40 MLOAD PUSH32 0x8C379A000000000000000000000000000000000000000000000000000000000 DUP2 MSTORE PUSH1 0x4 ADD PUSH2 0x590 SWAP1 PUSH2 0x15A1 JUMP JUMPDEST PUSH1 0x40 MLOAD DUP1 SWAP2 SUB SWAP1 REVERT JUMPDEST DUP5 DUP5 PUSH1 0x0 PUSH1 0x3 DUP4 DUP4 PUSH1 0x40 MLOAD PUSH2 0x5AF SWAP3 SWAP2 SWAP1 PUSH2 0x1600 JUMP JUMPDEST SWAP1 DUP2 MSTORE PUSH1 0x20 ADD PUSH1 0x40 MLOAD DUP1 SWAP2 SUB SWAP1 KECCAK256 PUSH1 0x0 ADD DUP1 SLOAD PUSH2 0x5CB SWAP1 PUSH2 0x14B7 JUMP JUMPDEST SWAP1 POP GT PUSH2 0x60D JUMPI PUSH1 0x40 MLOAD PUSH32 0x8C379A000000000000000000000000000000000000000000000000000000000 DUP2 MSTORE PUSH1 0x4 ADD PUSH2 0x604 SWAP1 PUSH2 0x1665 JUMP JUMPDEST PUSH1 0x40 MLOAD DUP1 SWAP2 SUB SWAP1 REVERT JUMPDEST PUSH1 0x0 PUSH1 0x5 PUSH1 0x0 DUP8 DUP2 MSTORE PUSH1 0x20 ADD SWAP1 DUP2 MSTORE PUSH1 0x20 ADD PUSH1 0x0 KECCAK256 DUP1 SLOAD PUSH2 0x62D SWAP1 PUSH2 0x14B7 JUMP JUMPDEST DUP1 PUSH1 0x1F ADD PUSH1 0x20 DUP1 SWAP2 DIV MUL PUSH1 0x20 ADD PUSH1 0x40 MLOAD SWAP1 DUP2 ADD PUSH1 0x40 MSTORE DUP1 SWAP3 SWAP2 SWAP1 DUP2 DUP2 MSTORE PUSH1 0x20 ADD DUP3 DUP1 SLOAD PUSH2 0x659 SWAP1 PUSH2 0x14B7 JUMP JUMPDEST DUP1 ISZERO PUSH2 0x6A6 JUMPI DUP1 PUSH1 0x1F LT PUSH2 0x67B JUMPI PUSH2 0x100 DUP1 DUP4 SLOAD DIV MUL DUP4 MSTORE SWAP2 PUSH1 0x20 ADD SWAP2 PUSH2 0x6A6 JUMP JUMPDEST DUP3 ADD SWAP2 SWAP1 PUSH1 0x0 MSTORE PUSH1 0x20 PUSH1 0x0 KECCAK256 SWAP1 JUMPDEST DUP2 SLOAD DUP2 MSTORE SWAP1 PUSH1 0x1 ADD SWAP1 PUSH1 0x20 ADD DUP1 DUP4 GT PUSH2 0x689 JUMPI DUP3 SWAP1 SUB PUSH1 0x1F AND DUP3 ADD SWAP2 JUMPDEST POP POP POP POP POP SWAP1 POP PUSH1 0x40 MLOAD DUP1 PUSH1 0x80 ADD PUSH1 0x40 MSTORE DUP1 DUP12 DUP12 DUP1 DUP1 PUSH1 0x1F ADD PUSH1 0x20 DUP1 SWAP2 DIV MUL PUSH1 0x20 ADD PUSH1 0x40 MLOAD SWAP1 DUP2 ADD PUSH1 0x40 MSTORE DUP1 SWAP4 SWAP3 SWAP2 SWAP1 DUP2 DUP2 MSTORE PUSH1 0x20 ADD DUP4 DUP4 DUP1 DUP3 DUP5 CALLDATACOPY PUSH1 0x0 DUP2 DUP5 ADD MSTORE PUSH1 0x1F NOT PUSH1 0x1F DUP3 ADD AND SWAP1 POP DUP1 DUP4 ADD SWAP3 POP POP POP POP POP POP POP DUP2 MSTORE PUSH1 0x20 ADD DUP3 DUP2 MSTORE PUSH1 0x20 ADD DUP8 DUP2 MSTORE PUSH1 0x20 ADD DUP10 DUP10 DUP1 DUP1 PUSH1 0x1F ADD PUSH1 0x20 DUP1 SWAP2 DIV MUL PUSH1 0x20 ADD PUSH1 0x40 MLOAD SWAP1 DUP2 ADD PUSH1 0x40 MSTORE DUP1 SWAP4 SWAP3 SWAP2 SWAP1 DUP2 DUP2 MSTORE PUSH1 0x20 ADD DUP4 DUP4 DUP1 DUP3 DUP5 CALLDATACOPY PUSH1 0x0 DUP2 DUP5 ADD MSTORE PUSH1 0x1F NOT PUSH1 0x1F DUP3 ADD AND SWAP1 POP DUP1 DUP4 ADD SWAP3 POP POP POP POP POP POP POP DUP2 MSTORE POP SWAP5 POP DUP5 PUSH1 0x3 DUP10 DUP10 PUSH1 0x40 MLOAD PUSH2 0x76B SWAP3 SWAP2 SWAP1 PUSH2 0x1600 JUMP JUMPDEST SWAP1 DUP2 MSTORE PUSH1 0x20 ADD PUSH1 0x40 MLOAD DUP1 SWAP2 SUB SWAP1 KECCAK256 PUSH1 0x0 DUP3 ADD MLOAD DUP2 PUSH1 0x0 ADD SWAP1 DUP1 MLOAD SWAP1 PUSH1 0x20 ADD SWAP1 PUSH2 0x795 SWAP3 SWAP2 SWAP1 PUSH2 0xD3D JUMP JUMPDEST POP PUSH1 0x20 DUP3 ADD MLOAD DUP2 PUSH1 0x1 ADD SWAP1 DUP1 MLOAD SWAP1 PUSH1 0x20 ADD SWAP1 PUSH2 0x7B2 SWAP3 SWAP2 SWAP1 PUSH2 0xD3D JUMP JUMPDEST POP PUSH1 0x40 DUP3 ADD MLOAD DUP2 PUSH1 0x2 ADD SSTORE PUSH1 0x60 DUP3 ADD MLOAD DUP2 PUSH1 0x3 ADD SWAP1 DUP1 MLOAD SWAP1 PUSH1 0x20 ADD SWAP1 PUSH2 0x7D9 SWAP3 SWAP2 SWAP1 PUSH2 0xD3D JUMP JUMPDEST POP SWAP1 POP POP PUSH1 0x4 DUP6 SWAP1 DUP1 PUSH1 0x1 DUP2 SLOAD ADD DUP1 DUP3 SSTORE DUP1 SWAP2 POP POP PUSH1 0x1 SWAP1 SUB SWAP1 PUSH1 0x0 MSTORE PUSH1 0x20 PUSH1 0x0 KECCAK256 SWAP1 PUSH1 0x4 MUL ADD PUSH1 0x0 SWAP1 SWAP2 SWAP1 SWAP2 SWAP1 SWAP2 POP PUSH1 0x0 DUP3 ADD MLOAD DUP2 PUSH1 0x0 ADD SWAP1 DUP1 MLOAD SWAP1 PUSH1 0x20 ADD SWAP1 PUSH2 0x825 SWAP3 SWAP2 SWAP1 PUSH2 0xD3D JUMP JUMPDEST POP PUSH1 0x20 DUP3 ADD MLOAD DUP2 PUSH1 0x1 ADD SWAP1 DUP1 MLOAD SWAP1 PUSH1 0x20 ADD SWAP1 PUSH2 0x842 SWAP3 SWAP2 SWAP1 PUSH2 0xD3D JUMP JUMPDEST POP PUSH1 0x40 DUP3 ADD MLOAD DUP2 PUSH1 0x2 ADD SSTORE PUSH1 0x60 DUP3 ADD MLOAD DUP2 PUSH1 0x3 ADD SWAP1 DUP1 MLOAD SWAP1 PUSH1 0x20 ADD SWAP1 PUSH2 0x869 SWAP3 SWAP2 SWAP1 PUSH2 0xD3D JUMP JUMPDEST POP POP POP POP POP POP POP SWAP6 SWAP5 POP POP POP POP POP JUMP JUMPDEST PUSH1 0x0 DUP1 PUSH1 0x0 SWAP1 SLOAD SWAP1 PUSH2 0x100 EXP SWAP1 DIV PUSH20 0xFFFFFFFFFFFFFFFFFFFFFFFFFFFFFFFFFFFFFFFF AND SWAP1 POP SWAP1 JUMP JUMPDEST CALLER PUSH20 0xFFFFFFFFFFFFFFFFFFFFFFFFFFFFFFFFFFFFFFFF AND PUSH1 0x0 DUP1 SLOAD SWAP1 PUSH2 0x100 EXP SWAP1 DIV PUSH20 0xFFFFFFFFFFFFFFFFFFFFFFFFFFFFFFFFFFFFFFFF AND PUSH20 0xFFFFFFFFFFFFFFFFFFFFFFFFFFFFFFFFFFFFFFFF AND EQ ISZERO PUSH2 0x931 JUMPI PUSH1 0x40 MLOAD PUSH32 0x8C379A000000000000000000000000000000000000000000000000000000000 DUP2 MSTORE PUSH1 0x4 ADD PUSH2 0x928 SWAP1 PUSH2 0x1468 JUMP JUMPDEST PUSH1 0x40 MLOAD DUP1 SWAP2 SUB SWAP1 REVERT JUMPDEST DUP2 DUP2 PUSH1 0x0 PUSH1 0x3 DUP4 DUP4 PUSH1 0x40 MLOAD PUSH2 0x947 SWAP3 SWAP2 SWAP1 PUSH2 0x1600 JUMP JUMPDEST SWAP1 DUP2 MSTORE PUSH1 0x20 ADD PUSH1 0x40 MLOAD DUP1 SWAP2 SUB SWAP1 KECCAK256 PUSH1 0x0 ADD DUP1 SLOAD PUSH2 0x963 SWAP1 PUSH2 0x14B7 JUMP JUMPDEST SWAP1 POP GT PUSH2 0x9A5 JUMPI PUSH1 0x40 MLOAD PUSH32 0x8C379A000000000000000000000000000000000000000000000000000000000 DUP2 MSTORE PUSH1 0x4 ADD PUSH2 0x99C SWAP1 PUSH2 0x1665 JUMP JUMPDEST PUSH1 0x40 MLOAD DUP1 SWAP2 SUB SWAP1 REVERT JUMPDEST PUSH1 0x1 DUP8 SWAP1 DUP1 PUSH1 0x1 DUP2 SLOAD ADD DUP1 DUP3 SSTORE DUP1 SWAP2 POP POP PUSH1 0x1 SWAP1 SUB SWAP1 PUSH1 0x0 MSTORE PUSH1 0x20 PUSH1 0x0 KECCAK256 ADD PUSH1 0x0 SWAP1 SWAP2 SWAP1 SWAP2 SWAP1 SWAP2 PUSH2 0x100 EXP DUP2 SLOAD DUP2 PUSH20 0xFFFFFFFFFFFFFFFFFFFFFFFFFFFFFFFFFFFFFFFF MUL NOT AND SWAP1 DUP4 PUSH20 0xFFFFFFFFFFFFFFFFFFFFFFFFFFFFFFFFFFFFFFFF AND MUL OR SWAP1 SSTORE POP PUSH1 0x40 MLOAD DUP1 PUSH1 0x80 ADD PUSH1 0x40 MSTORE DUP1 DUP8 DUP8 DUP1 DUP1 PUSH1 0x1F ADD PUSH1 0x20 DUP1 SWAP2 DIV MUL PUSH1 0x20 ADD PUSH1 0x40 MLOAD SWAP1 DUP2 ADD PUSH1 0x40 MSTORE DUP1 SWAP4 SWAP3 SWAP2 SWAP1 DUP2 DUP2 MSTORE PUSH1 0x20 ADD DUP4 DUP4 DUP1 DUP3 DUP5 CALLDATACOPY PUSH1 0x0 DUP2 DUP5 ADD MSTORE PUSH1 0x1F NOT PUSH1 0x1F DUP3 ADD AND SWAP1 POP DUP1 DUP4 ADD SWAP3 POP POP POP POP POP POP POP DUP2 MSTORE PUSH1 0x20 ADD DUP6 DUP6 DUP1 DUP1 PUSH1 0x1F ADD PUSH1 0x20 DUP1 SWAP2 DIV MUL PUSH1 0x20 ADD PUSH1 0x40 MLOAD SWAP1 DUP2 ADD PUSH1 0x40 MSTORE DUP1 SWAP4 SWAP3 SWAP2 SWAP1 DUP2 DUP2 MSTORE PUSH1 0x20 ADD DUP4 DUP4 DUP1 DUP3 DUP5 CALLDATACOPY PUSH1 0x0 DUP2 DUP5 ADD MSTORE PUSH1 0x1F NOT PUSH1 0x1F DUP3 ADD AND SWAP1 POP DUP1 DUP4 ADD SWAP3 POP POP POP POP POP POP POP DUP2 MSTORE PUSH1 0x20 ADD DUP9 PUSH20 0xFFFFFFFFFFFFFFFFFFFFFFFFFFFFFFFFFFFFFFFF AND DUP2 MSTORE PUSH1 0x20 ADD PUSH1 0x1 ISZERO ISZERO DUP2 MSTORE POP PUSH1 0x2 PUSH1 0x0 DUP10 PUSH20 0xFFFFFFFFFFFFFFFFFFFFFFFFFFFFFFFFFFFFFFFF AND PUSH20 0xFFFFFFFFFFFFFFFFFFFFFFFFFFFFFFFFFFFFFFFF AND DUP2 MSTORE PUSH1 0x20 ADD SWAP1 DUP2 MSTORE PUSH1 0x20 ADD PUSH1 0x0 KECCAK256 PUSH1 0x0 DUP3 ADD MLOAD DUP2 PUSH1 0x0 ADD SWAP1 DUP1 MLOAD SWAP1 PUSH1 0x20 ADD SWAP1 PUSH2 0xB25 SWAP3 SWAP2 SWAP1 PUSH2 0xD3D JUMP JUMPDEST POP PUSH1 0x20 DUP3 ADD MLOAD DUP2 PUSH1 0x1 ADD SWAP1 DUP1 MLOAD SWAP1 PUSH1 0x20 ADD SWAP1 PUSH2 0xB42 SWAP3 SWAP2 SWAP1 PUSH2 0xD3D JUMP JUMPDEST POP PUSH1 0x40 DUP3 ADD MLOAD DUP2 PUSH1 0x2 ADD PUSH1 0x0 PUSH2 0x100 EXP DUP2 SLOAD DUP2 PUSH20 0xFFFFFFFFFFFFFFFFFFFFFFFFFFFFFFFFFFFFFFFF MUL NOT AND SWAP1 DUP4 PUSH20 0xFFFFFFFFFFFFFFFFFFFFFFFFFFFFFFFFFFFFFFFF AND MUL OR SWAP1 SSTORE POP PUSH1 0x60 DUP3 ADD MLOAD DUP2 PUSH1 0x2 ADD PUSH1 0x14 PUSH2 0x100 EXP DUP2 SLOAD DUP2 PUSH1 0xFF MUL NOT AND SWAP1 DUP4 ISZERO ISZERO MUL OR SWAP1 SSTORE POP SWAP1 POP POP POP POP POP POP POP POP POP JUMP JUMPDEST PUSH1 0x60 PUSH1 0x6 DUP1 SLOAD DUP1 PUSH1 0x20 MUL PUSH1 0x20 ADD PUSH1 0x40 MLOAD SWAP1 DUP2 ADD PUSH1 0x40 MSTORE DUP1 SWAP3 SWAP2 SWAP1 DUP2 DUP2 MSTORE PUSH1 0x20 ADD PUSH1 0x0 SWAP1 JUMPDEST DUP3 DUP3 LT ISZERO PUSH2 0xC86 JUMPI DUP4 DUP3 SWAP1 PUSH1 0x0 MSTORE PUSH1 0x20 PUSH1 0x0 KECCAK256 ADD DUP1 SLOAD PUSH2 0xBF9 SWAP1 PUSH2 0x14B7 JUMP JUMPDEST DUP1 PUSH1 0x1F ADD PUSH1 0x20 DUP1 SWAP2 DIV MUL PUSH1 0x20 ADD PUSH1 0x40 MLOAD SWAP1 DUP2 ADD PUSH1 0x40 MSTORE DUP1 SWAP3 SWAP2 SWAP1 DUP2 DUP2 MSTORE PUSH1 0x20 ADD DUP3 DUP1 SLOAD PUSH2 0xC25 SWAP1 PUSH2 0x14B7 JUMP JUMPDEST DUP1 ISZERO PUSH2 0xC72 JUMPI DUP1 PUSH1 0x1F LT PUSH2 0xC47 JUMPI PUSH2 0x100 DUP1 DUP4 SLOAD DIV MUL DUP4 MSTORE SWAP2 PUSH1 0x20 ADD SWAP2 PUSH2 0xC72 JUMP JUMPDEST DUP3 ADD SWAP2 SWAP1 PUSH1 0x0 MSTORE PUSH1 0x20 PUSH1 0x0 KECCAK256 SWAP1 JUMPDEST DUP2 SLOAD DUP2 MSTORE SWAP1 PUSH1 0x1 ADD SWAP1 PUSH1 0x20 ADD DUP1 DUP4 GT PUSH2 0xC55 JUMPI DUP3 SWAP1 SUB PUSH1 0x1F AND DUP3 ADD SWAP2 JUMPDEST POP POP POP POP POP DUP2 MSTORE PUSH1 0x20 ADD SWAP1 PUSH1 0x1 ADD SWAP1 PUSH2 0xBDA JUMP JUMPDEST POP POP POP POP SWAP1 POP SWAP1 JUMP JUMPDEST DUP3 DUP1 SLOAD PUSH2 0xC9B SWAP1 PUSH2 0x14B7 JUMP JUMPDEST SWAP1 PUSH1 0x0 MSTORE PUSH1 0x20 PUSH1 0x0 KECCAK256 SWAP1 PUSH1 0x1F ADD PUSH1 0x20 SWAP1 DIV DUP2 ADD SWAP3 DUP3 PUSH2 0xCBD JUMPI PUSH1 0x0 DUP6 SSTORE PUSH2 0xD04 JUMP JUMPDEST DUP3 PUSH1 0x1F LT PUSH2 0xCD6 JUMPI DUP1 CALLDATALOAD PUSH1 0xFF NOT AND DUP4 DUP1 ADD OR DUP6 SSTORE PUSH2 0xD04 JUMP JUMPDEST DUP3 DUP1 ADD PUSH1 0x1 ADD DUP6 SSTORE DUP3 ISZERO PUSH2 0xD04 JUMPI SWAP2 DUP3 ADD JUMPDEST DUP3 DUP2 GT ISZERO PUSH2 0xD03 JUMPI DUP3 CALLDATALOAD DUP3 SSTORE SWAP2 PUSH1 0x20 ADD SWAP2 SWAP1 PUSH1 0x1 ADD SWAP1 PUSH2 0xCE8 JUMP JUMPDEST JUMPDEST POP SWAP1 POP PUSH2 0xD11 SWAP2 SWAP1 PUSH2 0xDC3 JUMP JUMPDEST POP SWAP1 JUMP JUMPDEST PUSH1 0x40 MLOAD DUP1 PUSH1 0x80 ADD PUSH1 0x40 MSTORE DUP1 PUSH1 0x60 DUP2 MSTORE PUSH1 0x20 ADD PUSH1 0x60 DUP2 MSTORE PUSH1 0x20 ADD PUSH1 0x0 DUP2 MSTORE PUSH1 0x20 ADD PUSH1 0x60 DUP2 MSTORE POP SWAP1 JUMP JUMPDEST DUP3 DUP1 SLOAD PUSH2 0xD49 SWAP1 PUSH2 0x14B7 JUMP JUMPDEST SWAP1 PUSH1 0x0 MSTORE PUSH1 0x20 PUSH1 0x0 KECCAK256 SWAP1 PUSH1 0x1F ADD PUSH1 0x20 SWAP1 DIV DUP2 ADD SWAP3 DUP3 PUSH2 0xD6B JUMPI PUSH1 0x0 DUP6 SSTORE PUSH2 0xDB2 JUMP JUMPDEST DUP3 PUSH1 0x1F LT PUSH2 0xD84 JUMPI DUP1 MLOAD PUSH1 0xFF NOT AND DUP4 DUP1 ADD OR DUP6 SSTORE PUSH2 0xDB2 JUMP JUMPDEST DUP3 DUP1 ADD PUSH1 0x1 ADD DUP6 SSTORE DUP3 ISZERO PUSH2 0xDB2 JUMPI SWAP2 DUP3 ADD JUMPDEST DUP3 DUP2 GT ISZERO PUSH2 0xDB1 JUMPI DUP3 MLOAD DUP3 SSTORE SWAP2 PUSH1 0x20 ADD SWAP2 SWAP1 PUSH1 0x1 ADD SWAP1 PUSH2 0xD96 JUMP JUMPDEST JUMPDEST POP SWAP1 POP PUSH2 0xDBF SWAP2 SWAP1 PUSH2 0xDC3 JUMP JUMPDEST POP SWAP1 JUMP JUMPDEST JUMPDEST DUP1 DUP3 GT ISZERO PUSH2 0xDDC JUMPI PUSH1 0x0 DUP2 PUSH1 0x0 SWAP1 SSTORE POP PUSH1 0x1 ADD PUSH2 0xDC4 JUMP JUMPDEST POP SWAP1 JUMP JUMPDEST PUSH1 0x0 DUP1 REVERT JUMPDEST PUSH1 0x0 DUP1 REVERT JUMPDEST PUSH1 0x0 DUP1 REVERT JUMPDEST PUSH1 0x0 DUP1 REVERT JUMPDEST PUSH1 0x0 DUP1 REVERT JUMPDEST PUSH1 0x0 DUP1 DUP4 PUSH1 0x1F DUP5 ADD SLT PUSH2 0xE0F JUMPI PUSH2 0xE0E PUSH2 0xDEA JUMP JUMPDEST JUMPDEST DUP3 CALLDATALOAD SWAP1 POP PUSH8 0xFFFFFFFFFFFFFFFF DUP2 GT ISZERO PUSH2 0xE2C JUMPI PUSH2 0xE2B PUSH2 0xDEF JUMP JUMPDEST JUMPDEST PUSH1 0x20 DUP4 ADD SWAP2 POP DUP4 PUSH1 0x1 DUP3 MUL DUP4 ADD GT ISZERO PUSH2 0xE48 JUMPI PUSH2 0xE47 PUSH2 0xDF4 JUMP JUMPDEST JUMPDEST SWAP3 POP SWAP3 SWAP1 POP JUMP JUMPDEST PUSH1 0x0 DUP2 SWAP1 POP SWAP2 SWAP1 POP JUMP JUMPDEST PUSH2 0xE62 DUP2 PUSH2 0xE4F JUMP JUMPDEST DUP2 EQ PUSH2 0xE6D JUMPI PUSH1 0x0 DUP1 REVERT JUMPDEST POP JUMP JUMPDEST PUSH1 0x0 DUP2 CALLDATALOAD SWAP1 POP PUSH2 0xE7F DUP2 PUSH2 0xE59 JUMP JUMPDEST SWAP3 SWAP2 POP POP JUMP JUMPDEST PUSH1 0x0 DUP1 PUSH1 0x0 PUSH1 0x40 DUP5 DUP7 SUB SLT ISZERO PUSH2 0xE9E JUMPI PUSH2 0xE9D PUSH2 0xDE0 JUMP JUMPDEST JUMPDEST PUSH1 0x0 DUP5 ADD CALLDATALOAD PUSH8 0xFFFFFFFFFFFFFFFF DUP2 GT ISZERO PUSH2 0xEBC JUMPI PUSH2 0xEBB PUSH2 0xDE5 JUMP JUMPDEST JUMPDEST PUSH2 0xEC8 DUP7 DUP3 DUP8 ADD PUSH2 0xDF9 JUMP JUMPDEST SWAP4 POP SWAP4 POP POP PUSH1 0x20 PUSH2 0xEDB DUP7 DUP3 DUP8 ADD PUSH2 0xE70 JUMP JUMPDEST SWAP2 POP POP SWAP3 POP SWAP3 POP SWAP3 JUMP JUMPDEST PUSH1 0x0 DUP2 MLOAD SWAP1 POP SWAP2 SWAP1 POP JUMP JUMPDEST PUSH1 0x0 DUP3 DUP3 MSTORE PUSH1 0x20 DUP3 ADD SWAP1 POP SWAP3 SWAP2 POP POP JUMP JUMPDEST PUSH1 0x0 DUP2 SWAP1 POP PUSH1 0x20 DUP3 ADD SWAP1 POP SWAP2 SWAP1 POP JUMP JUMPDEST PUSH1 0x0 DUP2 MLOAD SWAP1 POP SWAP2 SWAP1 POP JUMP JUMPDEST PUSH1 0x0 DUP3 DUP3 MSTORE PUSH1 0x20 DUP3 ADD SWAP1 POP SWAP3 SWAP2 POP POP JUMP JUMPDEST PUSH1 0x0 JUMPDEST DUP4 DUP2 LT ISZERO PUSH2 0xF4B JUMPI DUP1 DUP3 ADD MLOAD DUP2 DUP5 ADD MSTORE PUSH1 0x20 DUP2 ADD SWAP1 POP PUSH2 0xF30 JUMP JUMPDEST DUP4 DUP2 GT ISZERO PUSH2 0xF5A JUMPI PUSH1 0x0 DUP5 DUP5 ADD MSTORE JUMPDEST POP POP POP POP JUMP JUMPDEST PUSH1 0x0 PUSH1 0x1F NOT PUSH1 0x1F DUP4 ADD AND SWAP1 POP SWAP2 SWAP1 POP JUMP JUMPDEST PUSH1 0x0 PUSH2 0xF7C DUP3 PUSH2 0xF11 JUMP JUMPDEST PUSH2 0xF86 DUP2 DUP6 PUSH2 0xF1C JUMP JUMPDEST SWAP4 POP PUSH2 0xF96 DUP2 DUP6 PUSH1 0x20 DUP7 ADD PUSH2 0xF2D JUMP JUMPDEST PUSH2 0xF9F DUP2 PUSH2 0xF60 JUMP JUMPDEST DUP5 ADD SWAP2 POP POP SWAP3 SWAP2 POP POP JUMP JUMPDEST PUSH2 0xFB3 DUP2 PUSH2 0xE4F JUMP JUMPDEST DUP3 MSTORE POP POP JUMP JUMPDEST PUSH1 0x0 PUSH1 0x80 DUP4 ADD PUSH1 0x0 DUP4 ADD MLOAD DUP5 DUP3 SUB PUSH1 0x0 DUP7 ADD MSTORE PUSH2 0xFD6 DUP3 DUP3 PUSH2 0xF71 JUMP JUMPDEST SWAP2 POP POP PUSH1 0x20 DUP4 ADD MLOAD DUP5 DUP3 SUB PUSH1 0x20 DUP7 ADD MSTORE PUSH2 0xFF0 DUP3 DUP3 PUSH2 0xF71 JUMP JUMPDEST SWAP2 POP POP PUSH1 0x40 DUP4 ADD MLOAD PUSH2 0x1005 PUSH1 0x40 DUP7 ADD DUP3 PUSH2 0xFAA JUMP JUMPDEST POP PUSH1 0x60 DUP4 ADD MLOAD DUP5 DUP3 SUB PUSH1 0x60 DUP7 ADD MSTORE PUSH2 0x101D DUP3 DUP3 PUSH2 0xF71 JUMP JUMPDEST SWAP2 POP POP DUP1 SWAP2 POP POP SWAP3 SWAP2 POP POP JUMP JUMPDEST PUSH1 0x0 PUSH2 0x1036 DUP4 DUP4 PUSH2 0xFB9 JUMP JUMPDEST SWAP1 POP SWAP3 SWAP2 POP POP JUMP JUMPDEST PUSH1 0x0 PUSH1 0x20 DUP3 ADD SWAP1 POP SWAP2 SWAP1 POP JUMP JUMPDEST PUSH1 0x0 PUSH2 0x1056 DUP3 PUSH2 0xEE5 JUMP JUMPDEST PUSH2 0x1060 DUP2 DUP6 PUSH2 0xEF0 JUMP JUMPDEST SWAP4 POP DUP4 PUSH1 0x20 DUP3 MUL DUP6 ADD PUSH2 0x1072 DUP6 PUSH2 0xF01 JUMP JUMPDEST DUP1 PUSH1 0x0 JUMPDEST DUP6 DUP2 LT ISZERO PUSH2 0x10AE JUMPI DUP5 DUP5 SUB DUP10 MSTORE DUP2 MLOAD PUSH2 0x108F DUP6 DUP3 PUSH2 0x102A JUMP JUMPDEST SWAP5 POP PUSH2 0x109A DUP4 PUSH2 0x103E JUMP JUMPDEST SWAP3 POP PUSH1 0x20 DUP11 ADD SWAP10 POP POP PUSH1 0x1 DUP2 ADD SWAP1 POP PUSH2 0x1076 JUMP JUMPDEST POP DUP3 SWAP8 POP DUP8 SWAP6 POP POP POP POP POP POP SWAP3 SWAP2 POP POP JUMP JUMPDEST PUSH1 0x0 PUSH1 0x20 DUP3 ADD SWAP1 POP DUP2 DUP2 SUB PUSH1 0x0 DUP4 ADD MSTORE PUSH2 0x10DA DUP2 DUP5 PUSH2 0x104B JUMP JUMPDEST SWAP1 POP SWAP3 SWAP2 POP POP JUMP JUMPDEST PUSH1 0x0 DUP1 PUSH1 0x0 DUP1 PUSH1 0x0 PUSH1 0x60 DUP7 DUP9 SUB SLT ISZERO PUSH2 0x10FE JUMPI PUSH2 0x10FD PUSH2 0xDE0 JUMP JUMPDEST JUMPDEST PUSH1 0x0 DUP7 ADD CALLDATALOAD PUSH8 0xFFFFFFFFFFFFFFFF DUP2 GT ISZERO PUSH2 0x111C JUMPI PUSH2 0x111B PUSH2 0xDE5 JUMP JUMPDEST JUMPDEST PUSH2 0x1128 DUP9 DUP3 DUP10 ADD PUSH2 0xDF9 JUMP JUMPDEST SWAP6 POP SWAP6 POP POP PUSH1 0x20 DUP7 ADD CALLDATALOAD PUSH8 0xFFFFFFFFFFFFFFFF DUP2 GT ISZERO PUSH2 0x114B JUMPI PUSH2 0x114A PUSH2 0xDE5 JUMP JUMPDEST JUMPDEST PUSH2 0x1157 DUP9 DUP3 DUP10 ADD PUSH2 0xDF9 JUMP JUMPDEST SWAP4 POP SWAP4 POP POP PUSH1 0x40 PUSH2 0x116A DUP9 DUP3 DUP10 ADD PUSH2 0xE70 JUMP JUMPDEST SWAP2 POP POP SWAP3 SWAP6 POP SWAP3 SWAP6 SWAP1 SWAP4 POP JUMP JUMPDEST PUSH1 0x0 PUSH1 0x80 DUP4 ADD PUSH1 0x0 DUP4 ADD MLOAD DUP5 DUP3 SUB PUSH1 0x0 DUP7 ADD MSTORE PUSH2 0x1194 DUP3 DUP3 PUSH2 0xF71 JUMP JUMPDEST SWAP2 POP POP PUSH1 0x20 DUP4 ADD MLOAD DUP5 DUP3 SUB PUSH1 0x20 DUP7 ADD MSTORE PUSH2 0x11AE DUP3 DUP3 PUSH2 0xF71 JUMP JUMPDEST SWAP2 POP POP PUSH1 0x40 DUP4 ADD MLOAD PUSH2 0x11C3 PUSH1 0x40 DUP7 ADD DUP3 PUSH2 0xFAA JUMP JUMPDEST POP PUSH1 0x60 DUP4 ADD MLOAD DUP5 DUP3 SUB PUSH1 0x60 DUP7 ADD MSTORE PUSH2 0x11DB DUP3 DUP3 PUSH2 0xF71 JUMP JUMPDEST SWAP2 POP POP DUP1 SWAP2 POP POP SWAP3 SWAP2 POP POP JUMP JUMPDEST PUSH1 0x0 PUSH1 0x20 DUP3 ADD SWAP1 POP DUP2 DUP2 SUB PUSH1 0x0 DUP4 ADD MSTORE PUSH2 0x1202 DUP2 DUP5 PUSH2 0x1177 JUMP JUMPDEST SWAP1 POP SWAP3 SWAP2 POP POP JUMP JUMPDEST PUSH1 0x0 PUSH20 0xFFFFFFFFFFFFFFFFFFFFFFFFFFFFFFFFFFFFFFFF DUP3 AND SWAP1 POP SWAP2 SWAP1 POP JUMP JUMPDEST PUSH1 0x0 PUSH2 0x1235 DUP3 PUSH2 0x120A JUMP JUMPDEST SWAP1 POP SWAP2 SWAP1 POP JUMP JUMPDEST PUSH2 0x1245 DUP2 PUSH2 0x122A JUMP JUMPDEST DUP3 MSTORE POP POP JUMP JUMPDEST PUSH1 0x0 PUSH1 0x20 DUP3 ADD SWAP1 POP PUSH2 0x1260 PUSH1 0x0 DUP4 ADD DUP5 PUSH2 0x123C JUMP JUMPDEST SWAP3 SWAP2 POP POP JUMP JUMPDEST PUSH2 0x126F DUP2 PUSH2 0x122A JUMP JUMPDEST DUP2 EQ PUSH2 0x127A JUMPI PUSH1 0x0 DUP1 REVERT JUMPDEST POP JUMP JUMPDEST PUSH1 0x0 DUP2 CALLDATALOAD SWAP1 POP PUSH2 0x128C DUP2 PUSH2 0x1266 JUMP JUMPDEST SWAP3 SWAP2 POP POP JUMP JUMPDEST PUSH1 0x0 DUP1 PUSH1 0x0 DUP1 PUSH1 0x0 PUSH1 0x60 DUP7 DUP9 SUB SLT ISZERO PUSH2 0x12AE JUMPI PUSH2 0x12AD PUSH2 0xDE0 JUMP JUMPDEST JUMPDEST PUSH1 0x0 PUSH2 0x12BC DUP9 DUP3 DUP10 ADD PUSH2 0x127D JUMP JUMPDEST SWAP6 POP POP PUSH1 0x20 DUP7 ADD CALLDATALOAD PUSH8 0xFFFFFFFFFFFFFFFF DUP2 GT ISZERO PUSH2 0x12DD JUMPI PUSH2 0x12DC PUSH2 0xDE5 JUMP JUMPDEST JUMPDEST PUSH2 0x12E9 DUP9 DUP3 DUP10 ADD PUSH2 0xDF9 JUMP JUMPDEST SWAP5 POP SWAP5 POP POP PUSH1 0x40 DUP7 ADD CALLDATALOAD PUSH8 0xFFFFFFFFFFFFFFFF DUP2 GT ISZERO PUSH2 0x130C JUMPI PUSH2 0x130B PUSH2 0xDE5 JUMP JUMPDEST JUMPDEST PUSH2 0x1318 DUP9 DUP3 DUP10 ADD PUSH2 0xDF9 JUMP JUMPDEST SWAP3 POP SWAP3 POP POP SWAP3 SWAP6 POP SWAP3 SWAP6 SWAP1 SWAP4 POP JUMP JUMPDEST PUSH1 0x0 DUP2 MLOAD SWAP1 POP SWAP2 SWAP1 POP JUMP JUMPDEST PUSH1 0x0 DUP3 DUP3 MSTORE PUSH1 0x20 DUP3 ADD SWAP1 POP SWAP3 SWAP2 POP POP JUMP JUMPDEST PUSH1 0x0 DUP2 SWAP1 POP PUSH1 0x20 DUP3 ADD SWAP1 POP SWAP2 SWAP1 POP JUMP JUMPDEST PUSH1 0x0 PUSH2 0x135F DUP4 DUP4 PUSH2 0xF71 JUMP JUMPDEST SWAP1 POP SWAP3 SWAP2 POP POP JUMP JUMPDEST PUSH1 0x0 PUSH1 0x20 DUP3 ADD SWAP1 POP SWAP2 SWAP1 POP JUMP JUMPDEST PUSH1 0x0 PUSH2 0x137F DUP3 PUSH2 0x1327 JUMP JUMPDEST PUSH2 0x1389 DUP2 DUP6 PUSH2 0x1332 JUMP JUMPDEST SWAP4 POP DUP4 PUSH1 0x20 DUP3 MUL DUP6 ADD PUSH2 0x139B DUP6 PUSH2 0x1343 JUMP JUMPDEST DUP1 PUSH1 0x0 JUMPDEST DUP6 DUP2 LT ISZERO PUSH2 0x13D7 JUMPI DUP5 DUP5 SUB DUP10 MSTORE DUP2 MLOAD PUSH2 0x13B8 DUP6 DUP3 PUSH2 0x1353 JUMP JUMPDEST SWAP5 POP PUSH2 0x13C3 DUP4 PUSH2 0x1367 JUMP JUMPDEST SWAP3 POP PUSH1 0x20 DUP11 ADD SWAP10 POP POP PUSH1 0x1 DUP2 ADD SWAP1 POP PUSH2 0x139F JUMP JUMPDEST POP DUP3 SWAP8 POP DUP8 SWAP6 POP POP POP POP POP POP SWAP3 SWAP2 POP POP JUMP JUMPDEST PUSH1 0x0 PUSH1 0x20 DUP3 ADD SWAP1 POP DUP2 DUP2 SUB PUSH1 0x0 DUP4 ADD MSTORE PUSH2 0x1403 DUP2 DUP5 PUSH2 0x1374 JUMP JUMPDEST SWAP1 POP SWAP3 SWAP2 POP POP JUMP JUMPDEST PUSH1 0x0 DUP3 DUP3 MSTORE PUSH1 0x20 DUP3 ADD SWAP1 POP SWAP3 SWAP2 POP POP JUMP JUMPDEST PUSH32 0x796F752063616E206E6F7420616464206F6666696369616C0000000000000000 PUSH1 0x0 DUP3 ADD MSTORE POP JUMP JUMPDEST PUSH1 0x0 PUSH2 0x1452 PUSH1 0x18 DUP4 PUSH2 0x140B JUMP JUMPDEST SWAP2 POP PUSH2 0x145D DUP3 PUSH2 0x141C JUMP JUMPDEST PUSH1 0x20 DUP3 ADD SWAP1 POP SWAP2 SWAP1 POP JUMP JUMPDEST PUSH1 0x0 PUSH1 0x20 DUP3 ADD SWAP1 POP DUP2 DUP2 SUB PUSH1 0x0 DUP4 ADD MSTORE PUSH2 0x1481 DUP2 PUSH2 0x1445 JUMP JUMPDEST SWAP1 POP SWAP2 SWAP1 POP JUMP JUMPDEST PUSH32 0x4E487B7100000000000000000000000000000000000000000000000000000000 PUSH1 0x0 MSTORE PUSH1 0x22 PUSH1 0x4 MSTORE PUSH1 0x24 PUSH1 0x0 REVERT JUMPDEST PUSH1 0x0 PUSH1 0x2 DUP3 DIV SWAP1 POP PUSH1 0x1 DUP3 AND DUP1 PUSH2 0x14CF JUMPI PUSH1 0x7F DUP3 AND SWAP2 POP JUMPDEST PUSH1 0x20 DUP3 LT DUP2 EQ ISZERO PUSH2 0x14E3 JUMPI PUSH2 0x14E2 PUSH2 0x1488 JUMP JUMPDEST JUMPDEST POP SWAP2 SWAP1 POP JUMP JUMPDEST PUSH32 0x737461746520616C726561647920657869737400000000000000000000000000 PUSH1 0x0 DUP3 ADD MSTORE POP JUMP JUMPDEST PUSH1 0x0 PUSH2 0x151F PUSH1 0x13 DUP4 PUSH2 0x140B JUMP JUMPDEST SWAP2 POP PUSH2 0x152A DUP3 PUSH2 0x14E9 JUMP JUMPDEST PUSH1 0x20 DUP3 ADD SWAP1 POP SWAP2 SWAP1 POP JUMP JUMPDEST PUSH1 0x0 PUSH1 0x20 DUP3 ADD SWAP1 POP DUP2 DUP2 SUB PUSH1 0x0 DUP4 ADD MSTORE PUSH2 0x154E DUP2 PUSH2 0x1512 JUMP JUMPDEST SWAP1 POP SWAP2 SWAP1 POP JUMP JUMPDEST PUSH32 0x737461746520646F6573206E6F74206578697374000000000000000000000000 PUSH1 0x0 DUP3 ADD MSTORE POP JUMP JUMPDEST PUSH1 0x0 PUSH2 0x158B PUSH1 0x14 DUP4 PUSH2 0x140B JUMP JUMPDEST SWAP2 POP PUSH2 0x1596 DUP3 PUSH2 0x1555 JUMP JUMPDEST PUSH1 0x20 DUP3 ADD SWAP1 POP SWAP2 SWAP1 POP JUMP JUMPDEST PUSH1 0x0 PUSH1 0x20 DUP3 ADD SWAP1 POP DUP2 DUP2 SUB PUSH1 0x0 DUP4 ADD MSTORE PUSH2 0x15BA DUP2 PUSH2 0x157E JUMP JUMPDEST SWAP1 POP SWAP2 SWAP1 POP JUMP JUMPDEST PUSH1 0x0 DUP2 SWAP1 POP SWAP3 SWAP2 POP POP JUMP JUMPDEST DUP3 DUP2 DUP4 CALLDATACOPY PUSH1 0x0 DUP4 DUP4 ADD MSTORE POP POP POP JUMP JUMPDEST PUSH1 0x0 PUSH2 0x15E7 DUP4 DUP6 PUSH2 0x15C1 JUMP JUMPDEST SWAP4 POP PUSH2 0x15F4 DUP4 DUP6 DUP5 PUSH2 0x15CC JUMP JUMPDEST DUP3 DUP5 ADD SWAP1 POP SWAP4 SWAP3 POP POP POP JUMP JUMPDEST PUSH1 0x0 PUSH2 0x160D DUP3 DUP5 DUP7 PUSH2 0x15DB JUMP JUMPDEST SWAP2 POP DUP2 SWAP1 POP SWAP4 SWAP3 POP POP POP JUMP JUMPDEST PUSH32 0x6C6F63616C20676F7665726E6D656E7420616C72656164792065786973740000 PUSH1 0x0 DUP3 ADD MSTORE POP JUMP JUMPDEST PUSH1 0x0 PUSH2 0x164F PUSH1 0x1E DUP4 PUSH2 0x140B JUMP JUMPDEST SWAP2 POP PUSH2 0x165A DUP3 PUSH2 0x1619 JUMP JUMPDEST PUSH1 0x20 DUP3 ADD SWAP1 POP SWAP2 SWAP1 POP JUMP JUMPDEST PUSH1 0x0 PUSH1 0x20 DUP3 ADD SWAP1 POP DUP2 DUP2 SUB PUSH1 0x0 DUP4 ADD MSTORE PUSH2 0x167E DUP2 PUSH2 0x1642 JUMP JUMPDEST SWAP1 POP SWAP2 SWAP1 POP JUMP INVALID LOG2 PUSH5 0x6970667358 0x22 SLT KECCAK256 0xB6 0xC6 0xE8 NUMBER OR PUSH28 0x187F3710E8CD9DCA208A7E89BADAC442A7DE8C2ECC426D3E62A36473 PUSH16 0x6C634300080800330000000000000000 "
				},
				"gasEstimates": {
					"creation": {
						"codeDepositCost": "1163800",
						"executionCost": "25473",
						"totalCost": "1189273"
					},
					"external": {
						"accredictedNewOfficial(address,string,string)": "infinite",
						"addLocalGovernment(string,string,uint256)": "infinite",
						"addState(string,uint256)": "infinite",
						"getLocalGovernment()": "infinite",
						"getOwner()": "2566",
						"getStates()": "infinite"
					}
				},
				"methodIdentifiers": {
					"accredictedNewOfficial(address,string,string)": "b7a455e6",
					"addLocalGovernment(string,string,uint256)": "78c338d7",
					"addState(string,uint256)": "5c060b79",
					"getLocalGovernment()": "6b935b86",
					"getOwner()": "893d20e8",
					"getStates()": "d8ab8274"
				}
			},
			"storageLayout": {
				"storage": [
					{
						"astId": 4,
						"contract": "contracts/EVote.sol:EVote",
						"label": "ownerAddr",
						"offset": 0,
						"slot": "0",
						"type": "t_address"
					},
					{
						"astId": 7,
						"contract": "contracts/EVote.sol:EVote",
						"label": "accredictedOfficialAddr",
						"offset": 0,
						"slot": "1",
						"type": "t_array(t_address)dyn_storage"
					},
					{
						"astId": 12,
						"contract": "contracts/EVote.sol:EVote",
						"label": "accredictedOfficialDetails",
						"offset": 0,
						"slot": "2",
						"type": "t_mapping(t_address,t_struct(Official)242_storage)"
					},
					{
						"astId": 17,
						"contract": "contracts/EVote.sol:EVote",
						"label": "accredictedZone",
						"offset": 0,
						"slot": "3",
						"type": "t_mapping(t_string_memory_ptr,t_struct(VoteZone)251_storage)"
					},
					{
						"astId": 21,
						"contract": "contracts/EVote.sol:EVote",
						"label": "zones",
						"offset": 0,
						"slot": "4",
						"type": "t_array(t_struct(VoteZone)251_storage)dyn_storage"
					},
					{
						"astId": 25,
						"contract": "contracts/EVote.sol:EVote",
						"label": "statesMap",
						"offset": 0,
						"slot": "5",
						"type": "t_mapping(t_uint256,t_string_storage)"
					},
					{
						"astId": 28,
						"contract": "contracts/EVote.sol:EVote",
						"label": "states",
						"offset": 0,
						"slot": "6",
						"type": "t_array(t_string_storage)dyn_storage"
					}
				],
				"types": {
					"t_address": {
						"encoding": "inplace",
						"label": "address",
						"numberOfBytes": "20"
					},
					"t_array(t_address)dyn_storage": {
						"base": "t_address",
						"encoding": "dynamic_array",
						"label": "address[]",
						"numberOfBytes": "32"
					},
					"t_array(t_string_storage)dyn_storage": {
						"base": "t_string_storage",
						"encoding": "dynamic_array",
						"label": "string[]",
						"numberOfBytes": "32"
					},
					"t_array(t_struct(VoteZone)251_storage)dyn_storage": {
						"base": "t_struct(VoteZone)251_storage",
						"encoding": "dynamic_array",
						"label": "struct VoteZone[]",
						"numberOfBytes": "32"
					},
					"t_bool": {
						"encoding": "inplace",
						"label": "bool",
						"numberOfBytes": "1"
					},
					"t_mapping(t_address,t_struct(Official)242_storage)": {
						"encoding": "mapping",
						"key": "t_address",
						"label": "mapping(address => struct Official)",
						"numberOfBytes": "32",
						"value": "t_struct(Official)242_storage"
					},
					"t_mapping(t_string_memory_ptr,t_struct(VoteZone)251_storage)": {
						"encoding": "mapping",
						"key": "t_string_memory_ptr",
						"label": "mapping(string => struct VoteZone)",
						"numberOfBytes": "32",
						"value": "t_struct(VoteZone)251_storage"
					},
					"t_mapping(t_uint256,t_string_storage)": {
						"encoding": "mapping",
						"key": "t_uint256",
						"label": "mapping(uint256 => string)",
						"numberOfBytes": "32",
						"value": "t_string_storage"
					},
					"t_string_memory_ptr": {
						"encoding": "bytes",
						"label": "string",
						"numberOfBytes": "32"
					},
					"t_string_storage": {
						"encoding": "bytes",
						"label": "string",
						"numberOfBytes": "32"
					},
					"t_struct(Official)242_storage": {
						"encoding": "inplace",
						"label": "struct Official",
						"members": [
							{
								"astId": 235,
								"contract": "contracts/EVote.sol:EVote",
								"label": "name",
								"offset": 0,
								"slot": "0",
								"type": "t_string_storage"
							},
							{
								"astId": 237,
								"contract": "contracts/EVote.sol:EVote",
								"label": "lgaCode",
								"offset": 0,
								"slot": "1",
								"type": "t_string_storage"
							},
							{
								"astId": 239,
								"contract": "contracts/EVote.sol:EVote",
								"label": "officialAddr",
								"offset": 0,
								"slot": "2",
								"type": "t_address"
							},
							{
								"astId": 241,
								"contract": "contracts/EVote.sol:EVote",
								"label": "isActive",
								"offset": 20,
								"slot": "2",
								"type": "t_bool"
							}
						],
						"numberOfBytes": "96"
					},
					"t_struct(VoteZone)251_storage": {
						"encoding": "inplace",
						"label": "struct VoteZone",
						"members": [
							{
								"astId": 244,
								"contract": "contracts/EVote.sol:EVote",
								"label": "lga",
								"offset": 0,
								"slot": "0",
								"type": "t_string_storage"
							},
							{
								"astId": 246,
								"contract": "contracts/EVote.sol:EVote",
								"label": "state",
								"offset": 0,
								"slot": "1",
								"type": "t_string_storage"
							},
							{
								"astId": 248,
								"contract": "contracts/EVote.sol:EVote",
								"label": "stateCode",
								"offset": 0,
								"slot": "2",
								"type": "t_uint256"
							},
							{
								"astId": 250,
								"contract": "contracts/EVote.sol:EVote",
								"label": "lgaCode",
								"offset": 0,
								"slot": "3",
								"type": "t_string_storage"
							}
						],
						"numberOfBytes": "128"
					},
					"t_uint256": {
						"encoding": "inplace",
						"label": "uint256",
						"numberOfBytes": "32"
					}
				}
			},
			"userdoc": {
				"kind": "user",
				"methods": {},
				"version": 1
			}
		}
	}
}