{
	"contracts/EVote.sol": {
		"EVote": {
			"abi": [
				{
					"inputs": [],
					"stateMutability": "nonpayable",
					"type": "constructor"
				},
				{
					"inputs": [
						{
							"internalType": "address",
							"name": "officialAddress",
							"type": "address"
						},
						{
							"internalType": "string",
							"name": "officialName",
							"type": "string"
						},
						{
							"internalType": "uint256",
							"name": "lgaCode",
							"type": "uint256"
						}
					],
					"name": "accredictedNewOfficial",
					"outputs": [],
					"stateMutability": "nonpayable",
					"type": "function"
				},
				{
					"inputs": [
						{
							"internalType": "string",
							"name": "lga",
							"type": "string"
						},
						{
							"internalType": "uint256",
							"name": "lgaCode",
							"type": "uint256"
						},
						{
							"internalType": "uint256",
							"name": "stateCode",
							"type": "uint256"
						}
					],
					"name": "addLocalGovernment",
					"outputs": [
						{
							"components": [
								{
									"internalType": "string",
									"name": "lga",
									"type": "string"
								},
								{
									"internalType": "string",
									"name": "state",
									"type": "string"
								},
								{
									"internalType": "uint256",
									"name": "stateCode",
									"type": "uint256"
								},
								{
									"internalType": "uint256",
									"name": "lgaCode",
									"type": "uint256"
								}
							],
							"internalType": "struct VoteZone",
							"name": "_zone",
							"type": "tuple"
						}
					],
					"stateMutability": "nonpayable",
					"type": "function"
				},
				{
					"inputs": [
						{
							"internalType": "string",
							"name": "stateName",
							"type": "string"
						},
						{
							"internalType": "uint256",
							"name": "stateCode",
							"type": "uint256"
						}
					],
					"name": "addState",
					"outputs": [],
					"stateMutability": "nonpayable",
					"type": "function"
				},
				{
					"inputs": [],
					"name": "getLocalGovernment",
					"outputs": [
						{
							"components": [
								{
									"internalType": "string",
									"name": "lga",
									"type": "string"
								},
								{
									"internalType": "string",
									"name": "state",
									"type": "string"
								},
								{
									"internalType": "uint256",
									"name": "stateCode",
									"type": "uint256"
								},
								{
									"internalType": "uint256",
									"name": "lgaCode",
									"type": "uint256"
								}
							],
							"internalType": "struct VoteZone[]",
							"name": "",
							"type": "tuple[]"
						}
					],
					"stateMutability": "view",
					"type": "function"
				},
				{
					"inputs": [],
					"name": "getOwner",
					"outputs": [
						{
							"internalType": "address",
							"name": "",
							"type": "address"
						}
					],
					"stateMutability": "view",
					"type": "function"
				},
				{
					"inputs": [],
					"name": "getStates",
					"outputs": [
						{
							"internalType": "string[]",
							"name": "",
							"type": "string[]"
						}
					],
					"stateMutability": "view",
					"type": "function"
				}
			],
			"devdoc": {
				"kind": "dev",
				"methods": {},
				"version": 1
			},
			"evm": {
				"assembly": "    /* \"contracts/EVote.sol\":371:2520  contract EVote{... */\n  mstore(0x40, 0x80)\n    /* \"contracts/EVote.sol\":1090:1143  constructor (){... */\n  callvalue\n  dup1\n  iszero\n  tag_1\n  jumpi\n  0x00\n  dup1\n  revert\ntag_1:\n  pop\n    /* \"contracts/EVote.sol\":1126:1136  msg.sender */\n  caller\n    /* \"contracts/EVote.sol\":1114:1123  ownerAddr */\n  0x00\n  dup1\n    /* \"contracts/EVote.sol\":1114:1136  ownerAddr = msg.sender */\n  0x0100\n  exp\n  dup2\n  sload\n  dup2\n  0xffffffffffffffffffffffffffffffffffffffff\n  mul\n  not\n  and\n  swap1\n  dup4\n  0xffffffffffffffffffffffffffffffffffffffff\n  and\n  mul\n  or\n  swap1\n  sstore\n  pop\n    /* \"contracts/EVote.sol\":371:2520  contract EVote{... */\n  dataSize(sub_0)\n  dup1\n  dataOffset(sub_0)\n  0x00\n  codecopy\n  0x00\n  return\nstop\n\nsub_0: assembly {\n        /* \"contracts/EVote.sol\":371:2520  contract EVote{... */\n      mstore(0x40, 0x80)\n      callvalue\n      dup1\n      iszero\n      tag_1\n      jumpi\n      0x00\n      dup1\n      revert\n    tag_1:\n      pop\n      jumpi(tag_2, lt(calldatasize, 0x04))\n      shr(0xe0, calldataload(0x00))\n      dup1\n      0x5c060b79\n      eq\n      tag_3\n      jumpi\n      dup1\n      0x6b935b86\n      eq\n      tag_4\n      jumpi\n      dup1\n      0x893d20e8\n      eq\n      tag_5\n      jumpi\n      dup1\n      0xaa709075\n      eq\n      tag_6\n      jumpi\n      dup1\n      0xc86b6c6b\n      eq\n      tag_7\n      jumpi\n      dup1\n      0xd8ab8274\n      eq\n      tag_8\n      jumpi\n    tag_2:\n      0x00\n      dup1\n      revert\n        /* \"contracts/EVote.sol\":1335:1577  function addState(string calldata stateName, uint  stateCode) external isOwnerMod{... */\n    tag_3:\n      tag_9\n      0x04\n      dup1\n      calldatasize\n      sub\n      dup2\n      add\n      swap1\n      tag_10\n      swap2\n      swap1\n      tag_11\n      jump\t// in\n    tag_10:\n      tag_12\n      jump\t// in\n    tag_9:\n      stop\n        /* \"contracts/EVote.sol\":1963:2063  function getLocalGovernment() external view returns (VoteZone[] memory){... */\n    tag_4:\n      tag_13\n      tag_14\n      jump\t// in\n    tag_13:\n      mload(0x40)\n      tag_15\n      swap2\n      swap1\n      tag_16\n      jump\t// in\n    tag_15:\n      mload(0x40)\n      dup1\n      swap2\n      sub\n      swap1\n      return\n        /* \"contracts/EVote.sol\":1149:1233  function getOwner() external view returns (address){... */\n    tag_5:\n      tag_17\n      tag_18\n      jump\t// in\n    tag_17:\n      mload(0x40)\n      tag_19\n      swap2\n      swap1\n      tag_20\n      jump\t// in\n    tag_19:\n      mload(0x40)\n      dup1\n      swap2\n      sub\n      swap1\n      return\n        /* \"contracts/EVote.sol\":2069:2515  function accredictedNewOfficial(address officialAddress, string calldata officialName, uint lgaCode) external isOwnerMod checkLocalGovtCode(lgaCode){... */\n    tag_6:\n      tag_21\n      0x04\n      dup1\n      calldatasize\n      sub\n      dup2\n      add\n      swap1\n      tag_22\n      swap2\n      swap1\n      tag_23\n      jump\t// in\n    tag_22:\n      tag_24\n      jump\t// in\n    tag_21:\n      stop\n        /* \"contracts/EVote.sol\":1583:1957  function addLocalGovernment(string calldata lga, uint lgaCode, uint stateCode)  external isOwnerMod checkState(stateCode) checkLocalGovtCode(lgaCode) returns (VoteZone memory _zone){... */\n    tag_7:\n      tag_25\n      0x04\n      dup1\n      calldatasize\n      sub\n      dup2\n      add\n      swap1\n      tag_26\n      swap2\n      swap1\n      tag_27\n      jump\t// in\n    tag_26:\n      tag_28\n      jump\t// in\n    tag_25:\n      mload(0x40)\n      tag_29\n      swap2\n      swap1\n      tag_30\n      jump\t// in\n    tag_29:\n      mload(0x40)\n      dup1\n      swap2\n      sub\n      swap1\n      return\n        /* \"contracts/EVote.sol\":1239:1329  function getStates() external view returns(string[] memory) {... */\n    tag_8:\n      tag_31\n      tag_32\n      jump\t// in\n    tag_31:\n      mload(0x40)\n      tag_33\n      swap2\n      swap1\n      tag_34\n      jump\t// in\n    tag_33:\n      mload(0x40)\n      dup1\n      swap2\n      sub\n      swap1\n      return\n        /* \"contracts/EVote.sol\":1335:1577  function addState(string calldata stateName, uint  stateCode) external isOwnerMod{... */\n    tag_12:\n        /* \"contracts/EVote.sol\":735:745  msg.sender */\n      caller\n        /* \"contracts/EVote.sol\":722:745  ownerAddr != msg.sender */\n      0xffffffffffffffffffffffffffffffffffffffff\n      and\n        /* \"contracts/EVote.sol\":722:731  ownerAddr */\n      0x00\n      dup1\n      sload\n      swap1\n      0x0100\n      exp\n      swap1\n      div\n      0xffffffffffffffffffffffffffffffffffffffff\n      and\n        /* \"contracts/EVote.sol\":722:745  ownerAddr != msg.sender */\n      0xffffffffffffffffffffffffffffffffffffffff\n      and\n      eq\n      iszero\n        /* \"contracts/EVote.sol\":714:773  require(ownerAddr != msg.sender,\"you can not add official\") */\n      tag_36\n      jumpi\n      mload(0x40)\n      0x08c379a000000000000000000000000000000000000000000000000000000000\n      dup2\n      mstore\n      0x04\n      add\n      tag_37\n      swap1\n      tag_38\n      jump\t// in\n    tag_37:\n      mload(0x40)\n      dup1\n      swap2\n      sub\n      swap1\n      revert\n    tag_36:\n        /* \"contracts/EVote.sol\":1471:1472  0 */\n      0x00\n        /* \"contracts/EVote.sol\":1440:1449  statesMap */\n      0x05\n        /* \"contracts/EVote.sol\":1440:1460  statesMap[stateCode] */\n      0x00\n        /* \"contracts/EVote.sol\":1450:1459  stateCode */\n      dup4\n        /* \"contracts/EVote.sol\":1440:1460  statesMap[stateCode] */\n      dup2\n      mstore\n      0x20\n      add\n      swap1\n      dup2\n      mstore\n      0x20\n      add\n      0x00\n      keccak256\n        /* \"contracts/EVote.sol\":1434:1468  bytes(statesMap[stateCode]).length */\n      dup1\n      sload\n      tag_40\n      swap1\n      tag_41\n      jump\t// in\n    tag_40:\n      swap1\n      pop\n        /* \"contracts/EVote.sol\":1434:1472  bytes(statesMap[stateCode]).length > 0 */\n      gt\n        /* \"contracts/EVote.sol\":1426:1496  require(bytes(statesMap[stateCode]).length > 0, \"state already exist\") */\n      tag_42\n      jumpi\n      mload(0x40)\n      0x08c379a000000000000000000000000000000000000000000000000000000000\n      dup2\n      mstore\n      0x04\n      add\n      tag_43\n      swap1\n      tag_44\n      jump\t// in\n    tag_43:\n      mload(0x40)\n      dup1\n      swap2\n      sub\n      swap1\n      revert\n    tag_42:\n        /* \"contracts/EVote.sol\":1529:1538  stateName */\n      dup3\n      dup3\n        /* \"contracts/EVote.sol\":1506:1515  statesMap */\n      0x05\n        /* \"contracts/EVote.sol\":1506:1526  statesMap[stateCode] */\n      0x00\n        /* \"contracts/EVote.sol\":1516:1525  stateCode */\n      dup5\n        /* \"contracts/EVote.sol\":1506:1526  statesMap[stateCode] */\n      dup2\n      mstore\n      0x20\n      add\n      swap1\n      dup2\n      mstore\n      0x20\n      add\n      0x00\n      keccak256\n        /* \"contracts/EVote.sol\":1506:1538  statesMap[stateCode] = stateName */\n      swap2\n      swap1\n      tag_45\n      swap3\n      swap2\n      swap1\n      tag_46\n      jump\t// in\n    tag_45:\n      pop\n        /* \"contracts/EVote.sol\":1548:1554  states */\n      0x06\n        /* \"contracts/EVote.sol\":1560:1569  stateName */\n      dup4\n      dup4\n        /* \"contracts/EVote.sol\":1548:1570  states.push(stateName) */\n      swap1\n      swap2\n      dup1\n      0x01\n      dup2\n      sload\n      add\n      dup1\n      dup3\n      sstore\n      dup1\n      swap2\n      pop\n      pop\n      0x01\n      swap1\n      sub\n      swap1\n      0x00\n      mstore\n      keccak256(0x00, 0x20)\n      add\n      0x00\n      swap1\n      swap2\n      swap3\n      swap1\n      swap2\n      swap3\n      swap1\n      swap2\n      swap3\n      swap1\n      swap2\n      swap3\n      pop\n      swap2\n      swap1\n      tag_48\n      swap3\n      swap2\n      swap1\n      tag_46\n      jump\t// in\n    tag_48:\n      pop\n        /* \"contracts/EVote.sol\":1335:1577  function addState(string calldata stateName, uint  stateCode) external isOwnerMod{... */\n      pop\n      pop\n      pop\n      jump\t// out\n        /* \"contracts/EVote.sol\":1963:2063  function getLocalGovernment() external view returns (VoteZone[] memory){... */\n    tag_14:\n        /* \"contracts/EVote.sol\":2016:2033  VoteZone[] memory */\n      0x60\n        /* \"contracts/EVote.sol\":2050:2055  zones */\n      0x04\n        /* \"contracts/EVote.sol\":2043:2055  return zones */\n      dup1\n      sload\n      dup1\n      0x20\n      mul\n      0x20\n      add\n      mload(0x40)\n      swap1\n      dup2\n      add\n      0x40\n      mstore\n      dup1\n      swap3\n      swap2\n      swap1\n      dup2\n      dup2\n      mstore\n      0x20\n      add\n      0x00\n      swap1\n    tag_50:\n      dup3\n      dup3\n      lt\n      iszero\n      tag_51\n      jumpi\n      dup4\n      dup3\n      swap1\n      0x00\n      mstore\n      keccak256(0x00, 0x20)\n      swap1\n      0x04\n      mul\n      add\n      mload(0x40)\n      dup1\n      0x80\n      add\n      0x40\n      mstore\n      swap1\n      dup2\n      0x00\n      dup3\n      add\n      dup1\n      sload\n      tag_53\n      swap1\n      tag_41\n      jump\t// in\n    tag_53:\n      dup1\n      0x1f\n      add\n      0x20\n      dup1\n      swap2\n      div\n      mul\n      0x20\n      add\n      mload(0x40)\n      swap1\n      dup2\n      add\n      0x40\n      mstore\n      dup1\n      swap3\n      swap2\n      swap1\n      dup2\n      dup2\n      mstore\n      0x20\n      add\n      dup3\n      dup1\n      sload\n      tag_54\n      swap1\n      tag_41\n      jump\t// in\n    tag_54:\n      dup1\n      iszero\n      tag_55\n      jumpi\n      dup1\n      0x1f\n      lt\n      tag_56\n      jumpi\n      0x0100\n      dup1\n      dup4\n      sload\n      div\n      mul\n      dup4\n      mstore\n      swap2\n      0x20\n      add\n      swap2\n      jump(tag_55)\n    tag_56:\n      dup3\n      add\n      swap2\n      swap1\n      0x00\n      mstore\n      keccak256(0x00, 0x20)\n      swap1\n    tag_57:\n      dup2\n      sload\n      dup2\n      mstore\n      swap1\n      0x01\n      add\n      swap1\n      0x20\n      add\n      dup1\n      dup4\n      gt\n      tag_57\n      jumpi\n      dup3\n      swap1\n      sub\n      0x1f\n      and\n      dup3\n      add\n      swap2\n    tag_55:\n      pop\n      pop\n      pop\n      pop\n      pop\n      dup2\n      mstore\n      0x20\n      add\n      0x01\n      dup3\n      add\n      dup1\n      sload\n      tag_58\n      swap1\n      tag_41\n      jump\t// in\n    tag_58:\n      dup1\n      0x1f\n      add\n      0x20\n      dup1\n      swap2\n      div\n      mul\n      0x20\n      add\n      mload(0x40)\n      swap1\n      dup2\n      add\n      0x40\n      mstore\n      dup1\n      swap3\n      swap2\n      swap1\n      dup2\n      dup2\n      mstore\n      0x20\n      add\n      dup3\n      dup1\n      sload\n      tag_59\n      swap1\n      tag_41\n      jump\t// in\n    tag_59:\n      dup1\n      iszero\n      tag_60\n      jumpi\n      dup1\n      0x1f\n      lt\n      tag_61\n      jumpi\n      0x0100\n      dup1\n      dup4\n      sload\n      div\n      mul\n      dup4\n      mstore\n      swap2\n      0x20\n      add\n      swap2\n      jump(tag_60)\n    tag_61:\n      dup3\n      add\n      swap2\n      swap1\n      0x00\n      mstore\n      keccak256(0x00, 0x20)\n      swap1\n    tag_62:\n      dup2\n      sload\n      dup2\n      mstore\n      swap1\n      0x01\n      add\n      swap1\n      0x20\n      add\n      dup1\n      dup4\n      gt\n      tag_62\n      jumpi\n      dup3\n      swap1\n      sub\n      0x1f\n      and\n      dup3\n      add\n      swap2\n    tag_60:\n      pop\n      pop\n      pop\n      pop\n      pop\n      dup2\n      mstore\n      0x20\n      add\n      0x02\n      dup3\n      add\n      sload\n      dup2\n      mstore\n      0x20\n      add\n      0x03\n      dup3\n      add\n      sload\n      dup2\n      mstore\n      pop\n      pop\n      dup2\n      mstore\n      0x20\n      add\n      swap1\n      0x01\n      add\n      swap1\n      jump(tag_50)\n    tag_51:\n      pop\n      pop\n      pop\n      pop\n      swap1\n      pop\n        /* \"contracts/EVote.sol\":1963:2063  function getLocalGovernment() external view returns (VoteZone[] memory){... */\n      swap1\n      jump\t// out\n        /* \"contracts/EVote.sol\":1149:1233  function getOwner() external view returns (address){... */\n    tag_18:\n        /* \"contracts/EVote.sol\":1192:1199  address */\n      0x00\n        /* \"contracts/EVote.sol\":1217:1226  ownerAddr */\n      dup1\n      0x00\n      swap1\n      sload\n      swap1\n      0x0100\n      exp\n      swap1\n      div\n      0xffffffffffffffffffffffffffffffffffffffff\n      and\n        /* \"contracts/EVote.sol\":1210:1226  return ownerAddr */\n      swap1\n      pop\n        /* \"contracts/EVote.sol\":1149:1233  function getOwner() external view returns (address){... */\n      swap1\n      jump\t// out\n        /* \"contracts/EVote.sol\":2069:2515  function accredictedNewOfficial(address officialAddress, string calldata officialName, uint lgaCode) external isOwnerMod checkLocalGovtCode(lgaCode){... */\n    tag_24:\n        /* \"contracts/EVote.sol\":735:745  msg.sender */\n      caller\n        /* \"contracts/EVote.sol\":722:745  ownerAddr != msg.sender */\n      0xffffffffffffffffffffffffffffffffffffffff\n      and\n        /* \"contracts/EVote.sol\":722:731  ownerAddr */\n      0x00\n      dup1\n      sload\n      swap1\n      0x0100\n      exp\n      swap1\n      div\n      0xffffffffffffffffffffffffffffffffffffffff\n      and\n        /* \"contracts/EVote.sol\":722:745  ownerAddr != msg.sender */\n      0xffffffffffffffffffffffffffffffffffffffff\n      and\n      eq\n      iszero\n        /* \"contracts/EVote.sol\":714:773  require(ownerAddr != msg.sender,\"you can not add official\") */\n      tag_65\n      jumpi\n      mload(0x40)\n      0x08c379a000000000000000000000000000000000000000000000000000000000\n      dup2\n      mstore\n      0x04\n      add\n      tag_66\n      swap1\n      tag_38\n      jump\t// in\n    tag_66:\n      mload(0x40)\n      dup1\n      swap2\n      sub\n      swap1\n      revert\n    tag_65:\n        /* \"contracts/EVote.sol\":2209:2216  lgaCode */\n      dup1\n        /* \"contracts/EVote.sol\":885:886  0 */\n      0x00\n        /* \"contracts/EVote.sol\":853:868  accredictedZone */\n      0x03\n        /* \"contracts/EVote.sol\":853:874  accredictedZone[code] */\n      0x00\n        /* \"contracts/EVote.sol\":869:873  code */\n      dup4\n        /* \"contracts/EVote.sol\":853:874  accredictedZone[code] */\n      dup2\n      mstore\n      0x20\n      add\n      swap1\n      dup2\n      mstore\n      0x20\n      add\n      0x00\n      keccak256\n        /* \"contracts/EVote.sol\":853:882  accredictedZone[code].lgaCode */\n      0x03\n      add\n      sload\n        /* \"contracts/EVote.sol\":853:886  accredictedZone[code].lgaCode > 0 */\n      gt\n        /* \"contracts/EVote.sol\":845:922  require(accredictedZone[code].lgaCode > 0 , \"local government already exist\") */\n      tag_68\n      jumpi\n      mload(0x40)\n      0x08c379a000000000000000000000000000000000000000000000000000000000\n      dup2\n      mstore\n      0x04\n      add\n      tag_69\n      swap1\n      tag_70\n      jump\t// in\n    tag_69:\n      mload(0x40)\n      dup1\n      swap2\n      sub\n      swap1\n      revert\n    tag_68:\n        /* \"contracts/EVote.sol\":2236:2259  accredictedOfficialAddr */\n      0x01\n        /* \"contracts/EVote.sol\":2265:2280  officialAddress */\n      dup6\n        /* \"contracts/EVote.sol\":2236:2281  accredictedOfficialAddr.push(officialAddress) */\n      swap1\n      dup1\n      0x01\n      dup2\n      sload\n      add\n      dup1\n      dup3\n      sstore\n      dup1\n      swap2\n      pop\n      pop\n      0x01\n      swap1\n      sub\n      swap1\n      0x00\n      mstore\n      keccak256(0x00, 0x20)\n      add\n      0x00\n      swap1\n      swap2\n      swap1\n      swap2\n      swap1\n      swap2\n      0x0100\n      exp\n      dup2\n      sload\n      dup2\n      0xffffffffffffffffffffffffffffffffffffffff\n      mul\n      not\n      and\n      swap1\n      dup4\n      0xffffffffffffffffffffffffffffffffffffffff\n      and\n      mul\n      or\n      swap1\n      sstore\n      pop\n        /* \"contracts/EVote.sol\":2337:2458  Official({... */\n      mload(0x40)\n      dup1\n      0x80\n      add\n      0x40\n      mstore\n      dup1\n        /* \"contracts/EVote.sol\":2363:2375  officialName */\n      dup6\n      dup6\n        /* \"contracts/EVote.sol\":2337:2458  Official({... */\n      dup1\n      dup1\n      0x1f\n      add\n      0x20\n      dup1\n      swap2\n      div\n      mul\n      0x20\n      add\n      mload(0x40)\n      swap1\n      dup2\n      add\n      0x40\n      mstore\n      dup1\n      swap4\n      swap3\n      swap2\n      swap1\n      dup2\n      dup2\n      mstore\n      0x20\n      add\n      dup4\n      dup4\n      dup1\n      dup3\n      dup5\n      calldatacopy\n      0x00\n      dup2\n      dup5\n      add\n      mstore\n      not(0x1f)\n      0x1f\n      dup3\n      add\n      and\n      swap1\n      pop\n      dup1\n      dup4\n      add\n      swap3\n      pop\n      pop\n      pop\n      pop\n      pop\n      pop\n      pop\n      dup2\n      mstore\n      0x20\n      add\n        /* \"contracts/EVote.sol\":2386:2393  lgaCode */\n      dup4\n        /* \"contracts/EVote.sol\":2337:2458  Official({... */\n      dup2\n      mstore\n      0x20\n      add\n        /* \"contracts/EVote.sol\":2417:2432  officialAddress */\n      dup7\n        /* \"contracts/EVote.sol\":2337:2458  Official({... */\n      0xffffffffffffffffffffffffffffffffffffffff\n      and\n      dup2\n      mstore\n      0x20\n      add\n        /* \"contracts/EVote.sol\":2452:2456  true */\n      0x01\n        /* \"contracts/EVote.sol\":2337:2458  Official({... */\n      iszero\n      iszero\n      dup2\n      mstore\n      pop\n        /* \"contracts/EVote.sol\":2291:2317  accredictedOfficialDetails */\n      0x02\n        /* \"contracts/EVote.sol\":2291:2334  accredictedOfficialDetails[officialAddress] */\n      0x00\n        /* \"contracts/EVote.sol\":2318:2333  officialAddress */\n      dup8\n        /* \"contracts/EVote.sol\":2291:2334  accredictedOfficialDetails[officialAddress] */\n      0xffffffffffffffffffffffffffffffffffffffff\n      and\n      0xffffffffffffffffffffffffffffffffffffffff\n      and\n      dup2\n      mstore\n      0x20\n      add\n      swap1\n      dup2\n      mstore\n      0x20\n      add\n      0x00\n      keccak256\n        /* \"contracts/EVote.sol\":2291:2458  accredictedOfficialDetails[officialAddress] = Official({... */\n      0x00\n      dup3\n      add\n      mload\n      dup2\n      0x00\n      add\n      swap1\n      dup1\n      mload\n      swap1\n      0x20\n      add\n      swap1\n      tag_73\n      swap3\n      swap2\n      swap1\n      tag_74\n      jump\t// in\n    tag_73:\n      pop\n      0x20\n      dup3\n      add\n      mload\n      dup2\n      0x01\n      add\n      sstore\n      0x40\n      dup3\n      add\n      mload\n      dup2\n      0x02\n      add\n      exp(0x0100, 0x00)\n      dup2\n      sload\n      dup2\n      0xffffffffffffffffffffffffffffffffffffffff\n      mul\n      not\n      and\n      swap1\n      dup4\n      0xffffffffffffffffffffffffffffffffffffffff\n      and\n      mul\n      or\n      swap1\n      sstore\n      pop\n      0x60\n      dup3\n      add\n      mload\n      dup2\n      0x02\n      add\n      exp(0x0100, 0x14)\n      dup2\n      sload\n      dup2\n      0xff\n      mul\n      not\n      and\n      swap1\n      dup4\n      iszero\n      iszero\n      mul\n      or\n      swap1\n      sstore\n      pop\n      swap1\n      pop\n      pop\n        /* \"contracts/EVote.sol\":783:784  _ */\n      pop\n        /* \"contracts/EVote.sol\":2069:2515  function accredictedNewOfficial(address officialAddress, string calldata officialName, uint lgaCode) external isOwnerMod checkLocalGovtCode(lgaCode){... */\n      pop\n      pop\n      pop\n      pop\n      jump\t// out\n        /* \"contracts/EVote.sol\":1583:1957  function addLocalGovernment(string calldata lga, uint lgaCode, uint stateCode)  external isOwnerMod checkState(stateCode) checkLocalGovtCode(lgaCode) returns (VoteZone memory _zone){... */\n    tag_28:\n        /* \"contracts/EVote.sol\":1742:1763  VoteZone memory _zone */\n      tag_75\n      tag_76\n      jump\t// in\n    tag_75:\n        /* \"contracts/EVote.sol\":735:745  msg.sender */\n      caller\n        /* \"contracts/EVote.sol\":722:745  ownerAddr != msg.sender */\n      0xffffffffffffffffffffffffffffffffffffffff\n      and\n        /* \"contracts/EVote.sol\":722:731  ownerAddr */\n      0x00\n      dup1\n      sload\n      swap1\n      0x0100\n      exp\n      swap1\n      div\n      0xffffffffffffffffffffffffffffffffffffffff\n      and\n        /* \"contracts/EVote.sol\":722:745  ownerAddr != msg.sender */\n      0xffffffffffffffffffffffffffffffffffffffff\n      and\n      eq\n      iszero\n        /* \"contracts/EVote.sol\":714:773  require(ownerAddr != msg.sender,\"you can not add official\") */\n      tag_78\n      jumpi\n      mload(0x40)\n      0x08c379a000000000000000000000000000000000000000000000000000000000\n      dup2\n      mstore\n      0x04\n      add\n      tag_79\n      swap1\n      tag_38\n      jump\t// in\n    tag_79:\n      mload(0x40)\n      dup1\n      swap2\n      sub\n      swap1\n      revert\n    tag_78:\n        /* \"contracts/EVote.sol\":1694:1703  stateCode */\n      dup2\n        /* \"contracts/EVote.sol\":1036:1037  0 */\n      0x00\n        /* \"contracts/EVote.sol\":1005:1014  statesMap */\n      0x05\n        /* \"contracts/EVote.sol\":1005:1025  statesMap[stateCode] */\n      0x00\n        /* \"contracts/EVote.sol\":1015:1024  stateCode */\n      dup4\n        /* \"contracts/EVote.sol\":1005:1025  statesMap[stateCode] */\n      dup2\n      mstore\n      0x20\n      add\n      swap1\n      dup2\n      mstore\n      0x20\n      add\n      0x00\n      keccak256\n        /* \"contracts/EVote.sol\":999:1033  bytes(statesMap[stateCode]).length */\n      dup1\n      sload\n      tag_81\n      swap1\n      tag_41\n      jump\t// in\n    tag_81:\n      swap1\n      pop\n        /* \"contracts/EVote.sol\":999:1037  bytes(statesMap[stateCode]).length < 0 */\n      lt\n        /* \"contracts/EVote.sol\":991:1062  require(bytes(statesMap[stateCode]).length < 0, \"state does not exist\") */\n      tag_82\n      jumpi\n      mload(0x40)\n      0x08c379a000000000000000000000000000000000000000000000000000000000\n      dup2\n      mstore\n      0x04\n      add\n      tag_83\n      swap1\n      tag_84\n      jump\t// in\n    tag_83:\n      mload(0x40)\n      dup1\n      swap2\n      sub\n      swap1\n      revert\n    tag_82:\n        /* \"contracts/EVote.sol\":1724:1731  lgaCode */\n      dup4\n        /* \"contracts/EVote.sol\":885:886  0 */\n      0x00\n        /* \"contracts/EVote.sol\":853:868  accredictedZone */\n      0x03\n        /* \"contracts/EVote.sol\":853:874  accredictedZone[code] */\n      0x00\n        /* \"contracts/EVote.sol\":869:873  code */\n      dup4\n        /* \"contracts/EVote.sol\":853:874  accredictedZone[code] */\n      dup2\n      mstore\n      0x20\n      add\n      swap1\n      dup2\n      mstore\n      0x20\n      add\n      0x00\n      keccak256\n        /* \"contracts/EVote.sol\":853:882  accredictedZone[code].lgaCode */\n      0x03\n      add\n      sload\n        /* \"contracts/EVote.sol\":853:886  accredictedZone[code].lgaCode > 0 */\n      gt\n        /* \"contracts/EVote.sol\":845:922  require(accredictedZone[code].lgaCode > 0 , \"local government already exist\") */\n      tag_86\n      jumpi\n      mload(0x40)\n      0x08c379a000000000000000000000000000000000000000000000000000000000\n      dup2\n      mstore\n      0x04\n      add\n      tag_87\n      swap1\n      tag_70\n      jump\t// in\n    tag_87:\n      mload(0x40)\n      dup1\n      swap2\n      sub\n      swap1\n      revert\n    tag_86:\n        /* \"contracts/EVote.sol\":1774:1798  string memory _stateName */\n      0x00\n        /* \"contracts/EVote.sol\":1801:1810  statesMap */\n      0x05\n        /* \"contracts/EVote.sol\":1801:1821  statesMap[stateCode] */\n      0x00\n        /* \"contracts/EVote.sol\":1811:1820  stateCode */\n      dup7\n        /* \"contracts/EVote.sol\":1801:1821  statesMap[stateCode] */\n      dup2\n      mstore\n      0x20\n      add\n      swap1\n      dup2\n      mstore\n      0x20\n      add\n      0x00\n      keccak256\n        /* \"contracts/EVote.sol\":1774:1821  string memory _stateName = statesMap[stateCode] */\n      dup1\n      sload\n      tag_89\n      swap1\n      tag_41\n      jump\t// in\n    tag_89:\n      dup1\n      0x1f\n      add\n      0x20\n      dup1\n      swap2\n      div\n      mul\n      0x20\n      add\n      mload(0x40)\n      swap1\n      dup2\n      add\n      0x40\n      mstore\n      dup1\n      swap3\n      swap2\n      swap1\n      dup2\n      dup2\n      mstore\n      0x20\n      add\n      dup3\n      dup1\n      sload\n      tag_90\n      swap1\n      tag_41\n      jump\t// in\n    tag_90:\n      dup1\n      iszero\n      tag_91\n      jumpi\n      dup1\n      0x1f\n      lt\n      tag_92\n      jumpi\n      0x0100\n      dup1\n      dup4\n      sload\n      div\n      mul\n      dup4\n      mstore\n      swap2\n      0x20\n      add\n      swap2\n      jump(tag_91)\n    tag_92:\n      dup3\n      add\n      swap2\n      swap1\n      0x00\n      mstore\n      keccak256(0x00, 0x20)\n      swap1\n    tag_93:\n      dup2\n      sload\n      dup2\n      mstore\n      swap1\n      0x01\n      add\n      swap1\n      0x20\n      add\n      dup1\n      dup4\n      gt\n      tag_93\n      jumpi\n      dup3\n      swap1\n      sub\n      0x1f\n      and\n      dup3\n      add\n      swap2\n    tag_91:\n      pop\n      pop\n      pop\n      pop\n      pop\n      swap1\n      pop\n        /* \"contracts/EVote.sol\":1839:1881  VoteZone(lga,_stateName,stateCode,lgaCode) */\n      mload(0x40)\n      dup1\n      0x80\n      add\n      0x40\n      mstore\n      dup1\n        /* \"contracts/EVote.sol\":1848:1851  lga */\n      dup10\n      dup10\n        /* \"contracts/EVote.sol\":1839:1881  VoteZone(lga,_stateName,stateCode,lgaCode) */\n      dup1\n      dup1\n      0x1f\n      add\n      0x20\n      dup1\n      swap2\n      div\n      mul\n      0x20\n      add\n      mload(0x40)\n      swap1\n      dup2\n      add\n      0x40\n      mstore\n      dup1\n      swap4\n      swap3\n      swap2\n      swap1\n      dup2\n      dup2\n      mstore\n      0x20\n      add\n      dup4\n      dup4\n      dup1\n      dup3\n      dup5\n      calldatacopy\n      0x00\n      dup2\n      dup5\n      add\n      mstore\n      not(0x1f)\n      0x1f\n      dup3\n      add\n      and\n      swap1\n      pop\n      dup1\n      dup4\n      add\n      swap3\n      pop\n      pop\n      pop\n      pop\n      pop\n      pop\n      pop\n      dup2\n      mstore\n      0x20\n      add\n        /* \"contracts/EVote.sol\":1852:1862  _stateName */\n      dup3\n        /* \"contracts/EVote.sol\":1839:1881  VoteZone(lga,_stateName,stateCode,lgaCode) */\n      dup2\n      mstore\n      0x20\n      add\n        /* \"contracts/EVote.sol\":1863:1872  stateCode */\n      dup7\n        /* \"contracts/EVote.sol\":1839:1881  VoteZone(lga,_stateName,stateCode,lgaCode) */\n      dup2\n      mstore\n      0x20\n      add\n        /* \"contracts/EVote.sol\":1873:1880  lgaCode */\n      dup8\n        /* \"contracts/EVote.sol\":1839:1881  VoteZone(lga,_stateName,stateCode,lgaCode) */\n      dup2\n      mstore\n      pop\n        /* \"contracts/EVote.sol\":1831:1881  _zone = VoteZone(lga,_stateName,stateCode,lgaCode) */\n      swap4\n      pop\n        /* \"contracts/EVote.sol\":1918:1923  _zone */\n      dup4\n        /* \"contracts/EVote.sol\":1891:1906  accredictedZone */\n      0x03\n        /* \"contracts/EVote.sol\":1891:1915  accredictedZone[lgaCode] */\n      0x00\n        /* \"contracts/EVote.sol\":1907:1914  lgaCode */\n      dup9\n        /* \"contracts/EVote.sol\":1891:1915  accredictedZone[lgaCode] */\n      dup2\n      mstore\n      0x20\n      add\n      swap1\n      dup2\n      mstore\n      0x20\n      add\n      0x00\n      keccak256\n        /* \"contracts/EVote.sol\":1891:1923  accredictedZone[lgaCode] = _zone */\n      0x00\n      dup3\n      add\n      mload\n      dup2\n      0x00\n      add\n      swap1\n      dup1\n      mload\n      swap1\n      0x20\n      add\n      swap1\n      tag_94\n      swap3\n      swap2\n      swap1\n      tag_74\n      jump\t// in\n    tag_94:\n      pop\n      0x20\n      dup3\n      add\n      mload\n      dup2\n      0x01\n      add\n      swap1\n      dup1\n      mload\n      swap1\n      0x20\n      add\n      swap1\n      tag_95\n      swap3\n      swap2\n      swap1\n      tag_74\n      jump\t// in\n    tag_95:\n      pop\n      0x40\n      dup3\n      add\n      mload\n      dup2\n      0x02\n      add\n      sstore\n      0x60\n      dup3\n      add\n      mload\n      dup2\n      0x03\n      add\n      sstore\n      swap1\n      pop\n      pop\n        /* \"contracts/EVote.sol\":1933:1938  zones */\n      0x04\n        /* \"contracts/EVote.sol\":1944:1949  _zone */\n      dup5\n        /* \"contracts/EVote.sol\":1933:1950  zones.push(_zone) */\n      swap1\n      dup1\n      0x01\n      dup2\n      sload\n      add\n      dup1\n      dup3\n      sstore\n      dup1\n      swap2\n      pop\n      pop\n      0x01\n      swap1\n      sub\n      swap1\n      0x00\n      mstore\n      keccak256(0x00, 0x20)\n      swap1\n      0x04\n      mul\n      add\n      0x00\n      swap1\n      swap2\n      swap1\n      swap2\n      swap1\n      swap2\n      pop\n      0x00\n      dup3\n      add\n      mload\n      dup2\n      0x00\n      add\n      swap1\n      dup1\n      mload\n      swap1\n      0x20\n      add\n      swap1\n      tag_97\n      swap3\n      swap2\n      swap1\n      tag_74\n      jump\t// in\n    tag_97:\n      pop\n      0x20\n      dup3\n      add\n      mload\n      dup2\n      0x01\n      add\n      swap1\n      dup1\n      mload\n      swap1\n      0x20\n      add\n      swap1\n      tag_98\n      swap3\n      swap2\n      swap1\n      tag_74\n      jump\t// in\n    tag_98:\n      pop\n      0x40\n      dup3\n      add\n      mload\n      dup2\n      0x02\n      add\n      sstore\n      0x60\n      dup3\n      add\n      mload\n      dup2\n      0x03\n      add\n      sstore\n      pop\n      pop\n        /* \"contracts/EVote.sol\":1764:1957  {... */\n      pop\n        /* \"contracts/EVote.sol\":1072:1073  _ */\n      pop\n        /* \"contracts/EVote.sol\":783:784  _ */\n      pop\n        /* \"contracts/EVote.sol\":1583:1957  function addLocalGovernment(string calldata lga, uint lgaCode, uint stateCode)  external isOwnerMod checkState(stateCode) checkLocalGovtCode(lgaCode) returns (VoteZone memory _zone){... */\n      swap5\n      swap4\n      pop\n      pop\n      pop\n      pop\n      jump\t// out\n        /* \"contracts/EVote.sol\":1239:1329  function getStates() external view returns(string[] memory) {... */\n    tag_32:\n        /* \"contracts/EVote.sol\":1282:1297  string[] memory */\n      0x60\n        /* \"contracts/EVote.sol\":1316:1322  states */\n      0x06\n        /* \"contracts/EVote.sol\":1309:1322  return states */\n      dup1\n      sload\n      dup1\n      0x20\n      mul\n      0x20\n      add\n      mload(0x40)\n      swap1\n      dup2\n      add\n      0x40\n      mstore\n      dup1\n      swap3\n      swap2\n      swap1\n      dup2\n      dup2\n      mstore\n      0x20\n      add\n      0x00\n      swap1\n    tag_100:\n      dup3\n      dup3\n      lt\n      iszero\n      tag_101\n      jumpi\n      dup4\n      dup3\n      swap1\n      0x00\n      mstore\n      keccak256(0x00, 0x20)\n      add\n      dup1\n      sload\n      tag_103\n      swap1\n      tag_41\n      jump\t// in\n    tag_103:\n      dup1\n      0x1f\n      add\n      0x20\n      dup1\n      swap2\n      div\n      mul\n      0x20\n      add\n      mload(0x40)\n      swap1\n      dup2\n      add\n      0x40\n      mstore\n      dup1\n      swap3\n      swap2\n      swap1\n      dup2\n      dup2\n      mstore\n      0x20\n      add\n      dup3\n      dup1\n      sload\n      tag_104\n      swap1\n      tag_41\n      jump\t// in\n    tag_104:\n      dup1\n      iszero\n      tag_105\n      jumpi\n      dup1\n      0x1f\n      lt\n      tag_106\n      jumpi\n      0x0100\n      dup1\n      dup4\n      sload\n      div\n      mul\n      dup4\n      mstore\n      swap2\n      0x20\n      add\n      swap2\n      jump(tag_105)\n    tag_106:\n      dup3\n      add\n      swap2\n      swap1\n      0x00\n      mstore\n      keccak256(0x00, 0x20)\n      swap1\n    tag_107:\n      dup2\n      sload\n      dup2\n      mstore\n      swap1\n      0x01\n      add\n      swap1\n      0x20\n      add\n      dup1\n      dup4\n      gt\n      tag_107\n      jumpi\n      dup3\n      swap1\n      sub\n      0x1f\n      and\n      dup3\n      add\n      swap2\n    tag_105:\n      pop\n      pop\n      pop\n      pop\n      pop\n      dup2\n      mstore\n      0x20\n      add\n      swap1\n      0x01\n      add\n      swap1\n      jump(tag_100)\n    tag_101:\n      pop\n      pop\n      pop\n      pop\n      swap1\n      pop\n        /* \"contracts/EVote.sol\":1239:1329  function getStates() external view returns(string[] memory) {... */\n      swap1\n      jump\t// out\n    tag_46:\n      dup3\n      dup1\n      sload\n      tag_108\n      swap1\n      tag_41\n      jump\t// in\n    tag_108:\n      swap1\n      0x00\n      mstore\n      keccak256(0x00, 0x20)\n      swap1\n      0x1f\n      add\n      0x20\n      swap1\n      div\n      dup2\n      add\n      swap3\n      dup3\n      tag_110\n      jumpi\n      0x00\n      dup6\n      sstore\n      jump(tag_109)\n    tag_110:\n      dup3\n      0x1f\n      lt\n      tag_111\n      jumpi\n      dup1\n      calldataload\n      not(0xff)\n      and\n      dup4\n      dup1\n      add\n      or\n      dup6\n      sstore\n      jump(tag_109)\n    tag_111:\n      dup3\n      dup1\n      add\n      0x01\n      add\n      dup6\n      sstore\n      dup3\n      iszero\n      tag_109\n      jumpi\n      swap2\n      dup3\n      add\n    tag_112:\n      dup3\n      dup2\n      gt\n      iszero\n      tag_113\n      jumpi\n      dup3\n      calldataload\n      dup3\n      sstore\n      swap2\n      0x20\n      add\n      swap2\n      swap1\n      0x01\n      add\n      swap1\n      jump(tag_112)\n    tag_113:\n    tag_109:\n      pop\n      swap1\n      pop\n      tag_114\n      swap2\n      swap1\n      tag_115\n      jump\t// in\n    tag_114:\n      pop\n      swap1\n      jump\t// out\n    tag_74:\n      dup3\n      dup1\n      sload\n      tag_116\n      swap1\n      tag_41\n      jump\t// in\n    tag_116:\n      swap1\n      0x00\n      mstore\n      keccak256(0x00, 0x20)\n      swap1\n      0x1f\n      add\n      0x20\n      swap1\n      div\n      dup2\n      add\n      swap3\n      dup3\n      tag_118\n      jumpi\n      0x00\n      dup6\n      sstore\n      jump(tag_117)\n    tag_118:\n      dup3\n      0x1f\n      lt\n      tag_119\n      jumpi\n      dup1\n      mload\n      not(0xff)\n      and\n      dup4\n      dup1\n      add\n      or\n      dup6\n      sstore\n      jump(tag_117)\n    tag_119:\n      dup3\n      dup1\n      add\n      0x01\n      add\n      dup6\n      sstore\n      dup3\n      iszero\n      tag_117\n      jumpi\n      swap2\n      dup3\n      add\n    tag_120:\n      dup3\n      dup2\n      gt\n      iszero\n      tag_121\n      jumpi\n      dup3\n      mload\n      dup3\n      sstore\n      swap2\n      0x20\n      add\n      swap2\n      swap1\n      0x01\n      add\n      swap1\n      jump(tag_120)\n    tag_121:\n    tag_117:\n      pop\n      swap1\n      pop\n      tag_122\n      swap2\n      swap1\n      tag_115\n      jump\t// in\n    tag_122:\n      pop\n      swap1\n      jump\t// out\n    tag_76:\n      mload(0x40)\n      dup1\n      0x80\n      add\n      0x40\n      mstore\n      dup1\n      0x60\n      dup2\n      mstore\n      0x20\n      add\n      0x60\n      dup2\n      mstore\n      0x20\n      add\n      0x00\n      dup2\n      mstore\n      0x20\n      add\n      0x00\n      dup2\n      mstore\n      pop\n      swap1\n      jump\t// out\n    tag_115:\n    tag_123:\n      dup1\n      dup3\n      gt\n      iszero\n      tag_124\n      jumpi\n      0x00\n      dup2\n      0x00\n      swap1\n      sstore\n      pop\n      0x01\n      add\n      jump(tag_123)\n    tag_124:\n      pop\n      swap1\n      jump\t// out\n        /* \"#utility.yul\":88:205   */\n    tag_126:\n        /* \"#utility.yul\":197:198   */\n      0x00\n        /* \"#utility.yul\":194:195   */\n      dup1\n        /* \"#utility.yul\":187:199   */\n      revert\n        /* \"#utility.yul\":211:328   */\n    tag_127:\n        /* \"#utility.yul\":320:321   */\n      0x00\n        /* \"#utility.yul\":317:318   */\n      dup1\n        /* \"#utility.yul\":310:322   */\n      revert\n        /* \"#utility.yul\":334:451   */\n    tag_128:\n        /* \"#utility.yul\":443:444   */\n      0x00\n        /* \"#utility.yul\":440:441   */\n      dup1\n        /* \"#utility.yul\":433:445   */\n      revert\n        /* \"#utility.yul\":457:574   */\n    tag_129:\n        /* \"#utility.yul\":566:567   */\n      0x00\n        /* \"#utility.yul\":563:564   */\n      dup1\n        /* \"#utility.yul\":556:568   */\n      revert\n        /* \"#utility.yul\":580:697   */\n    tag_130:\n        /* \"#utility.yul\":689:690   */\n      0x00\n        /* \"#utility.yul\":686:687   */\n      dup1\n        /* \"#utility.yul\":679:691   */\n      revert\n        /* \"#utility.yul\":717:1270   */\n    tag_131:\n        /* \"#utility.yul\":775:783   */\n      0x00\n        /* \"#utility.yul\":785:791   */\n      dup1\n        /* \"#utility.yul\":835:838   */\n      dup4\n        /* \"#utility.yul\":828:832   */\n      0x1f\n        /* \"#utility.yul\":820:826   */\n      dup5\n        /* \"#utility.yul\":816:833   */\n      add\n        /* \"#utility.yul\":812:839   */\n      slt\n        /* \"#utility.yul\":802:924   */\n      tag_178\n      jumpi\n        /* \"#utility.yul\":843:922   */\n      tag_179\n      tag_128\n      jump\t// in\n    tag_179:\n        /* \"#utility.yul\":802:924   */\n    tag_178:\n        /* \"#utility.yul\":956:962   */\n      dup3\n        /* \"#utility.yul\":943:963   */\n      calldataload\n        /* \"#utility.yul\":933:963   */\n      swap1\n      pop\n        /* \"#utility.yul\":986:1004   */\n      0xffffffffffffffff\n        /* \"#utility.yul\":978:984   */\n      dup2\n        /* \"#utility.yul\":975:1005   */\n      gt\n        /* \"#utility.yul\":972:1089   */\n      iszero\n      tag_180\n      jumpi\n        /* \"#utility.yul\":1008:1087   */\n      tag_181\n      tag_129\n      jump\t// in\n    tag_181:\n        /* \"#utility.yul\":972:1089   */\n    tag_180:\n        /* \"#utility.yul\":1122:1126   */\n      0x20\n        /* \"#utility.yul\":1114:1120   */\n      dup4\n        /* \"#utility.yul\":1110:1127   */\n      add\n        /* \"#utility.yul\":1098:1127   */\n      swap2\n      pop\n        /* \"#utility.yul\":1176:1179   */\n      dup4\n        /* \"#utility.yul\":1168:1172   */\n      0x01\n        /* \"#utility.yul\":1160:1166   */\n      dup3\n        /* \"#utility.yul\":1156:1173   */\n      mul\n        /* \"#utility.yul\":1146:1154   */\n      dup4\n        /* \"#utility.yul\":1142:1174   */\n      add\n        /* \"#utility.yul\":1139:1180   */\n      gt\n        /* \"#utility.yul\":1136:1264   */\n      iszero\n      tag_182\n      jumpi\n        /* \"#utility.yul\":1183:1262   */\n      tag_183\n      tag_130\n      jump\t// in\n    tag_183:\n        /* \"#utility.yul\":1136:1264   */\n    tag_182:\n        /* \"#utility.yul\":717:1270   */\n      swap3\n      pop\n      swap3\n      swap1\n      pop\n      jump\t// out\n        /* \"#utility.yul\":1276:1353   */\n    tag_132:\n        /* \"#utility.yul\":1313:1320   */\n      0x00\n        /* \"#utility.yul\":1342:1347   */\n      dup2\n        /* \"#utility.yul\":1331:1347   */\n      swap1\n      pop\n        /* \"#utility.yul\":1276:1353   */\n      swap2\n      swap1\n      pop\n      jump\t// out\n        /* \"#utility.yul\":1359:1481   */\n    tag_133:\n        /* \"#utility.yul\":1432:1456   */\n      tag_186\n        /* \"#utility.yul\":1450:1455   */\n      dup2\n        /* \"#utility.yul\":1432:1456   */\n      tag_132\n      jump\t// in\n    tag_186:\n        /* \"#utility.yul\":1425:1430   */\n      dup2\n        /* \"#utility.yul\":1422:1457   */\n      eq\n        /* \"#utility.yul\":1412:1475   */\n      tag_187\n      jumpi\n        /* \"#utility.yul\":1471:1472   */\n      0x00\n        /* \"#utility.yul\":1468:1469   */\n      dup1\n        /* \"#utility.yul\":1461:1473   */\n      revert\n        /* \"#utility.yul\":1412:1475   */\n    tag_187:\n        /* \"#utility.yul\":1359:1481   */\n      pop\n      jump\t// out\n        /* \"#utility.yul\":1487:1626   */\n    tag_134:\n        /* \"#utility.yul\":1533:1538   */\n      0x00\n        /* \"#utility.yul\":1571:1577   */\n      dup2\n        /* \"#utility.yul\":1558:1578   */\n      calldataload\n        /* \"#utility.yul\":1549:1578   */\n      swap1\n      pop\n        /* \"#utility.yul\":1587:1620   */\n      tag_189\n        /* \"#utility.yul\":1614:1619   */\n      dup2\n        /* \"#utility.yul\":1587:1620   */\n      tag_133\n      jump\t// in\n    tag_189:\n        /* \"#utility.yul\":1487:1626   */\n      swap3\n      swap2\n      pop\n      pop\n      jump\t// out\n        /* \"#utility.yul\":1632:2306   */\n    tag_11:\n        /* \"#utility.yul\":1712:1718   */\n      0x00\n        /* \"#utility.yul\":1720:1726   */\n      dup1\n        /* \"#utility.yul\":1728:1734   */\n      0x00\n        /* \"#utility.yul\":1777:1779   */\n      0x40\n        /* \"#utility.yul\":1765:1774   */\n      dup5\n        /* \"#utility.yul\":1756:1763   */\n      dup7\n        /* \"#utility.yul\":1752:1775   */\n      sub\n        /* \"#utility.yul\":1748:1780   */\n      slt\n        /* \"#utility.yul\":1745:1864   */\n      iszero\n      tag_191\n      jumpi\n        /* \"#utility.yul\":1783:1862   */\n      tag_192\n      tag_126\n      jump\t// in\n    tag_192:\n        /* \"#utility.yul\":1745:1864   */\n    tag_191:\n        /* \"#utility.yul\":1931:1932   */\n      0x00\n        /* \"#utility.yul\":1920:1929   */\n      dup5\n        /* \"#utility.yul\":1916:1933   */\n      add\n        /* \"#utility.yul\":1903:1934   */\n      calldataload\n        /* \"#utility.yul\":1961:1979   */\n      0xffffffffffffffff\n        /* \"#utility.yul\":1953:1959   */\n      dup2\n        /* \"#utility.yul\":1950:1980   */\n      gt\n        /* \"#utility.yul\":1947:2064   */\n      iszero\n      tag_193\n      jumpi\n        /* \"#utility.yul\":1983:2062   */\n      tag_194\n      tag_127\n      jump\t// in\n    tag_194:\n        /* \"#utility.yul\":1947:2064   */\n    tag_193:\n        /* \"#utility.yul\":2096:2161   */\n      tag_195\n        /* \"#utility.yul\":2153:2160   */\n      dup7\n        /* \"#utility.yul\":2144:2150   */\n      dup3\n        /* \"#utility.yul\":2133:2142   */\n      dup8\n        /* \"#utility.yul\":2129:2151   */\n      add\n        /* \"#utility.yul\":2096:2161   */\n      tag_131\n      jump\t// in\n    tag_195:\n        /* \"#utility.yul\":2078:2161   */\n      swap4\n      pop\n      swap4\n      pop\n        /* \"#utility.yul\":1874:2171   */\n      pop\n        /* \"#utility.yul\":2210:2212   */\n      0x20\n        /* \"#utility.yul\":2236:2289   */\n      tag_196\n        /* \"#utility.yul\":2281:2288   */\n      dup7\n        /* \"#utility.yul\":2272:2278   */\n      dup3\n        /* \"#utility.yul\":2261:2270   */\n      dup8\n        /* \"#utility.yul\":2257:2279   */\n      add\n        /* \"#utility.yul\":2236:2289   */\n      tag_134\n      jump\t// in\n    tag_196:\n        /* \"#utility.yul\":2226:2289   */\n      swap2\n      pop\n        /* \"#utility.yul\":2181:2299   */\n      pop\n        /* \"#utility.yul\":1632:2306   */\n      swap3\n      pop\n      swap3\n      pop\n      swap3\n      jump\t// out\n        /* \"#utility.yul\":2312:2451   */\n    tag_135:\n        /* \"#utility.yul\":2404:2410   */\n      0x00\n        /* \"#utility.yul\":2438:2443   */\n      dup2\n        /* \"#utility.yul\":2432:2444   */\n      mload\n        /* \"#utility.yul\":2422:2444   */\n      swap1\n      pop\n        /* \"#utility.yul\":2312:2451   */\n      swap2\n      swap1\n      pop\n      jump\t// out\n        /* \"#utility.yul\":2457:2666   */\n    tag_136:\n        /* \"#utility.yul\":2581:2592   */\n      0x00\n        /* \"#utility.yul\":2615:2621   */\n      dup3\n        /* \"#utility.yul\":2610:2613   */\n      dup3\n        /* \"#utility.yul\":2603:2622   */\n      mstore\n        /* \"#utility.yul\":2655:2659   */\n      0x20\n        /* \"#utility.yul\":2650:2653   */\n      dup3\n        /* \"#utility.yul\":2646:2660   */\n      add\n        /* \"#utility.yul\":2631:2660   */\n      swap1\n      pop\n        /* \"#utility.yul\":2457:2666   */\n      swap3\n      swap2\n      pop\n      pop\n      jump\t// out\n        /* \"#utility.yul\":2672:2829   */\n    tag_137:\n        /* \"#utility.yul\":2764:2768   */\n      0x00\n        /* \"#utility.yul\":2787:2790   */\n      dup2\n        /* \"#utility.yul\":2779:2790   */\n      swap1\n      pop\n        /* \"#utility.yul\":2817:2821   */\n      0x20\n        /* \"#utility.yul\":2812:2815   */\n      dup3\n        /* \"#utility.yul\":2808:2822   */\n      add\n        /* \"#utility.yul\":2800:2822   */\n      swap1\n      pop\n        /* \"#utility.yul\":2672:2829   */\n      swap2\n      swap1\n      pop\n      jump\t// out\n        /* \"#utility.yul\":2835:2934   */\n    tag_138:\n        /* \"#utility.yul\":2887:2893   */\n      0x00\n        /* \"#utility.yul\":2921:2926   */\n      dup2\n        /* \"#utility.yul\":2915:2927   */\n      mload\n        /* \"#utility.yul\":2905:2927   */\n      swap1\n      pop\n        /* \"#utility.yul\":2835:2934   */\n      swap2\n      swap1\n      pop\n      jump\t// out\n        /* \"#utility.yul\":2940:3099   */\n    tag_139:\n        /* \"#utility.yul\":3014:3025   */\n      0x00\n        /* \"#utility.yul\":3048:3054   */\n      dup3\n        /* \"#utility.yul\":3043:3046   */\n      dup3\n        /* \"#utility.yul\":3036:3055   */\n      mstore\n        /* \"#utility.yul\":3088:3092   */\n      0x20\n        /* \"#utility.yul\":3083:3086   */\n      dup3\n        /* \"#utility.yul\":3079:3093   */\n      add\n        /* \"#utility.yul\":3064:3093   */\n      swap1\n      pop\n        /* \"#utility.yul\":2940:3099   */\n      swap3\n      swap2\n      pop\n      pop\n      jump\t// out\n        /* \"#utility.yul\":3105:3412   */\n    tag_140:\n        /* \"#utility.yul\":3173:3174   */\n      0x00\n        /* \"#utility.yul\":3183:3296   */\n    tag_203:\n        /* \"#utility.yul\":3197:3203   */\n      dup4\n        /* \"#utility.yul\":3194:3195   */\n      dup2\n        /* \"#utility.yul\":3191:3204   */\n      lt\n        /* \"#utility.yul\":3183:3296   */\n      iszero\n      tag_205\n      jumpi\n        /* \"#utility.yul\":3282:3283   */\n      dup1\n        /* \"#utility.yul\":3277:3280   */\n      dup3\n        /* \"#utility.yul\":3273:3284   */\n      add\n        /* \"#utility.yul\":3267:3285   */\n      mload\n        /* \"#utility.yul\":3263:3264   */\n      dup2\n        /* \"#utility.yul\":3258:3261   */\n      dup5\n        /* \"#utility.yul\":3254:3265   */\n      add\n        /* \"#utility.yul\":3247:3286   */\n      mstore\n        /* \"#utility.yul\":3219:3221   */\n      0x20\n        /* \"#utility.yul\":3216:3217   */\n      dup2\n        /* \"#utility.yul\":3212:3222   */\n      add\n        /* \"#utility.yul\":3207:3222   */\n      swap1\n      pop\n        /* \"#utility.yul\":3183:3296   */\n      jump(tag_203)\n    tag_205:\n        /* \"#utility.yul\":3314:3320   */\n      dup4\n        /* \"#utility.yul\":3311:3312   */\n      dup2\n        /* \"#utility.yul\":3308:3321   */\n      gt\n        /* \"#utility.yul\":3305:3406   */\n      iszero\n      tag_206\n      jumpi\n        /* \"#utility.yul\":3394:3395   */\n      0x00\n        /* \"#utility.yul\":3385:3391   */\n      dup5\n        /* \"#utility.yul\":3380:3383   */\n      dup5\n        /* \"#utility.yul\":3376:3392   */\n      add\n        /* \"#utility.yul\":3369:3396   */\n      mstore\n        /* \"#utility.yul\":3305:3406   */\n    tag_206:\n        /* \"#utility.yul\":3154:3412   */\n      pop\n        /* \"#utility.yul\":3105:3412   */\n      pop\n      pop\n      pop\n      jump\t// out\n        /* \"#utility.yul\":3418:3520   */\n    tag_141:\n        /* \"#utility.yul\":3459:3465   */\n      0x00\n        /* \"#utility.yul\":3510:3512   */\n      0x1f\n        /* \"#utility.yul\":3506:3513   */\n      not\n        /* \"#utility.yul\":3501:3503   */\n      0x1f\n        /* \"#utility.yul\":3494:3499   */\n      dup4\n        /* \"#utility.yul\":3490:3504   */\n      add\n        /* \"#utility.yul\":3486:3514   */\n      and\n        /* \"#utility.yul\":3476:3514   */\n      swap1\n      pop\n        /* \"#utility.yul\":3418:3520   */\n      swap2\n      swap1\n      pop\n      jump\t// out\n        /* \"#utility.yul\":3526:3870   */\n    tag_142:\n        /* \"#utility.yul\":3604:3607   */\n      0x00\n        /* \"#utility.yul\":3632:3671   */\n      tag_209\n        /* \"#utility.yul\":3665:3670   */\n      dup3\n        /* \"#utility.yul\":3632:3671   */\n      tag_138\n      jump\t// in\n    tag_209:\n        /* \"#utility.yul\":3687:3748   */\n      tag_210\n        /* \"#utility.yul\":3741:3747   */\n      dup2\n        /* \"#utility.yul\":3736:3739   */\n      dup6\n        /* \"#utility.yul\":3687:3748   */\n      tag_139\n      jump\t// in\n    tag_210:\n        /* \"#utility.yul\":3680:3748   */\n      swap4\n      pop\n        /* \"#utility.yul\":3757:3809   */\n      tag_211\n        /* \"#utility.yul\":3802:3808   */\n      dup2\n        /* \"#utility.yul\":3797:3800   */\n      dup6\n        /* \"#utility.yul\":3790:3794   */\n      0x20\n        /* \"#utility.yul\":3783:3788   */\n      dup7\n        /* \"#utility.yul\":3779:3795   */\n      add\n        /* \"#utility.yul\":3757:3809   */\n      tag_140\n      jump\t// in\n    tag_211:\n        /* \"#utility.yul\":3834:3863   */\n      tag_212\n        /* \"#utility.yul\":3856:3862   */\n      dup2\n        /* \"#utility.yul\":3834:3863   */\n      tag_141\n      jump\t// in\n    tag_212:\n        /* \"#utility.yul\":3829:3832   */\n      dup5\n        /* \"#utility.yul\":3825:3864   */\n      add\n        /* \"#utility.yul\":3818:3864   */\n      swap2\n      pop\n        /* \"#utility.yul\":3608:3870   */\n      pop\n        /* \"#utility.yul\":3526:3870   */\n      swap3\n      swap2\n      pop\n      pop\n      jump\t// out\n        /* \"#utility.yul\":3876:3984   */\n    tag_143:\n        /* \"#utility.yul\":3953:3977   */\n      tag_214\n        /* \"#utility.yul\":3971:3976   */\n      dup2\n        /* \"#utility.yul\":3953:3977   */\n      tag_132\n      jump\t// in\n    tag_214:\n        /* \"#utility.yul\":3948:3951   */\n      dup3\n        /* \"#utility.yul\":3941:3978   */\n      mstore\n        /* \"#utility.yul\":3876:3984   */\n      pop\n      pop\n      jump\t// out\n        /* \"#utility.yul\":4032:5055   */\n    tag_144:\n        /* \"#utility.yul\":4141:4144   */\n      0x00\n        /* \"#utility.yul\":4177:4181   */\n      0x80\n        /* \"#utility.yul\":4172:4175   */\n      dup4\n        /* \"#utility.yul\":4168:4182   */\n      add\n        /* \"#utility.yul\":4263:4267   */\n      0x00\n        /* \"#utility.yul\":4256:4261   */\n      dup4\n        /* \"#utility.yul\":4252:4268   */\n      add\n        /* \"#utility.yul\":4246:4269   */\n      mload\n        /* \"#utility.yul\":4316:4319   */\n      dup5\n        /* \"#utility.yul\":4310:4314   */\n      dup3\n        /* \"#utility.yul\":4306:4320   */\n      sub\n        /* \"#utility.yul\":4299:4303   */\n      0x00\n        /* \"#utility.yul\":4294:4297   */\n      dup7\n        /* \"#utility.yul\":4290:4304   */\n      add\n        /* \"#utility.yul\":4283:4321   */\n      mstore\n        /* \"#utility.yul\":4342:4415   */\n      tag_216\n        /* \"#utility.yul\":4410:4414   */\n      dup3\n        /* \"#utility.yul\":4396:4408   */\n      dup3\n        /* \"#utility.yul\":4342:4415   */\n      tag_142\n      jump\t// in\n    tag_216:\n        /* \"#utility.yul\":4334:4415   */\n      swap2\n      pop\n        /* \"#utility.yul\":4192:4426   */\n      pop\n        /* \"#utility.yul\":4509:4513   */\n      0x20\n        /* \"#utility.yul\":4502:4507   */\n      dup4\n        /* \"#utility.yul\":4498:4514   */\n      add\n        /* \"#utility.yul\":4492:4515   */\n      mload\n        /* \"#utility.yul\":4562:4565   */\n      dup5\n        /* \"#utility.yul\":4556:4560   */\n      dup3\n        /* \"#utility.yul\":4552:4566   */\n      sub\n        /* \"#utility.yul\":4545:4549   */\n      0x20\n        /* \"#utility.yul\":4540:4543   */\n      dup7\n        /* \"#utility.yul\":4536:4550   */\n      add\n        /* \"#utility.yul\":4529:4567   */\n      mstore\n        /* \"#utility.yul\":4588:4661   */\n      tag_217\n        /* \"#utility.yul\":4656:4660   */\n      dup3\n        /* \"#utility.yul\":4642:4654   */\n      dup3\n        /* \"#utility.yul\":4588:4661   */\n      tag_142\n      jump\t// in\n    tag_217:\n        /* \"#utility.yul\":4580:4661   */\n      swap2\n      pop\n        /* \"#utility.yul\":4436:4672   */\n      pop\n        /* \"#utility.yul\":4759:4763   */\n      0x40\n        /* \"#utility.yul\":4752:4757   */\n      dup4\n        /* \"#utility.yul\":4748:4764   */\n      add\n        /* \"#utility.yul\":4742:4765   */\n      mload\n        /* \"#utility.yul\":4778:4841   */\n      tag_218\n        /* \"#utility.yul\":4835:4839   */\n      0x40\n        /* \"#utility.yul\":4830:4833   */\n      dup7\n        /* \"#utility.yul\":4826:4840   */\n      add\n        /* \"#utility.yul\":4812:4824   */\n      dup3\n        /* \"#utility.yul\":4778:4841   */\n      tag_143\n      jump\t// in\n    tag_218:\n        /* \"#utility.yul\":4682:4851   */\n      pop\n        /* \"#utility.yul\":4936:4940   */\n      0x60\n        /* \"#utility.yul\":4929:4934   */\n      dup4\n        /* \"#utility.yul\":4925:4941   */\n      add\n        /* \"#utility.yul\":4919:4942   */\n      mload\n        /* \"#utility.yul\":4955:5018   */\n      tag_219\n        /* \"#utility.yul\":5012:5016   */\n      0x60\n        /* \"#utility.yul\":5007:5010   */\n      dup7\n        /* \"#utility.yul\":5003:5017   */\n      add\n        /* \"#utility.yul\":4989:5001   */\n      dup3\n        /* \"#utility.yul\":4955:5018   */\n      tag_143\n      jump\t// in\n    tag_219:\n        /* \"#utility.yul\":4861:5028   */\n      pop\n        /* \"#utility.yul\":5045:5049   */\n      dup1\n        /* \"#utility.yul\":5038:5049   */\n      swap2\n      pop\n        /* \"#utility.yul\":4146:5055   */\n      pop\n        /* \"#utility.yul\":4032:5055   */\n      swap3\n      swap2\n      pop\n      pop\n      jump\t// out\n        /* \"#utility.yul\":5061:5317   */\n    tag_145:\n        /* \"#utility.yul\":5180:5190   */\n      0x00\n        /* \"#utility.yul\":5215:5311   */\n      tag_221\n        /* \"#utility.yul\":5307:5310   */\n      dup4\n        /* \"#utility.yul\":5299:5305   */\n      dup4\n        /* \"#utility.yul\":5215:5311   */\n      tag_144\n      jump\t// in\n    tag_221:\n        /* \"#utility.yul\":5201:5311   */\n      swap1\n      pop\n        /* \"#utility.yul\":5061:5317   */\n      swap3\n      swap2\n      pop\n      pop\n      jump\t// out\n        /* \"#utility.yul\":5323:5461   */\n    tag_146:\n        /* \"#utility.yul\":5418:5422   */\n      0x00\n        /* \"#utility.yul\":5450:5454   */\n      0x20\n        /* \"#utility.yul\":5445:5448   */\n      dup3\n        /* \"#utility.yul\":5441:5455   */\n      add\n        /* \"#utility.yul\":5433:5455   */\n      swap1\n      pop\n        /* \"#utility.yul\":5323:5461   */\n      swap2\n      swap1\n      pop\n      jump\t// out\n        /* \"#utility.yul\":5513:6624   */\n    tag_147:\n        /* \"#utility.yul\":5682:5685   */\n      0x00\n        /* \"#utility.yul\":5711:5790   */\n      tag_224\n        /* \"#utility.yul\":5784:5789   */\n      dup3\n        /* \"#utility.yul\":5711:5790   */\n      tag_135\n      jump\t// in\n    tag_224:\n        /* \"#utility.yul\":5806:5917   */\n      tag_225\n        /* \"#utility.yul\":5910:5916   */\n      dup2\n        /* \"#utility.yul\":5905:5908   */\n      dup6\n        /* \"#utility.yul\":5806:5917   */\n      tag_136\n      jump\t// in\n    tag_225:\n        /* \"#utility.yul\":5799:5917   */\n      swap4\n      pop\n        /* \"#utility.yul\":5943:5946   */\n      dup4\n        /* \"#utility.yul\":5988:5992   */\n      0x20\n        /* \"#utility.yul\":5980:5986   */\n      dup3\n        /* \"#utility.yul\":5976:5993   */\n      mul\n        /* \"#utility.yul\":5971:5974   */\n      dup6\n        /* \"#utility.yul\":5967:5994   */\n      add\n        /* \"#utility.yul\":6018:6099   */\n      tag_226\n        /* \"#utility.yul\":6093:6098   */\n      dup6\n        /* \"#utility.yul\":6018:6099   */\n      tag_137\n      jump\t// in\n    tag_226:\n        /* \"#utility.yul\":6122:6129   */\n      dup1\n        /* \"#utility.yul\":6153:6154   */\n      0x00\n        /* \"#utility.yul\":6138:6579   */\n    tag_227:\n        /* \"#utility.yul\":6163:6169   */\n      dup6\n        /* \"#utility.yul\":6160:6161   */\n      dup2\n        /* \"#utility.yul\":6157:6170   */\n      lt\n        /* \"#utility.yul\":6138:6579   */\n      iszero\n      tag_229\n      jumpi\n        /* \"#utility.yul\":6234:6243   */\n      dup5\n        /* \"#utility.yul\":6228:6232   */\n      dup5\n        /* \"#utility.yul\":6224:6244   */\n      sub\n        /* \"#utility.yul\":6219:6222   */\n      dup10\n        /* \"#utility.yul\":6212:6245   */\n      mstore\n        /* \"#utility.yul\":6285:6291   */\n      dup2\n        /* \"#utility.yul\":6279:6292   */\n      mload\n        /* \"#utility.yul\":6313:6427   */\n      tag_230\n        /* \"#utility.yul\":6422:6426   */\n      dup6\n        /* \"#utility.yul\":6407:6420   */\n      dup3\n        /* \"#utility.yul\":6313:6427   */\n      tag_145\n      jump\t// in\n    tag_230:\n        /* \"#utility.yul\":6305:6427   */\n      swap5\n      pop\n        /* \"#utility.yul\":6450:6535   */\n      tag_231\n        /* \"#utility.yul\":6528:6534   */\n      dup4\n        /* \"#utility.yul\":6450:6535   */\n      tag_146\n      jump\t// in\n    tag_231:\n        /* \"#utility.yul\":6440:6535   */\n      swap3\n      pop\n        /* \"#utility.yul\":6564:6568   */\n      0x20\n        /* \"#utility.yul\":6559:6562   */\n      dup11\n        /* \"#utility.yul\":6555:6569   */\n      add\n        /* \"#utility.yul\":6548:6569   */\n      swap10\n      pop\n        /* \"#utility.yul\":6198:6579   */\n      pop\n        /* \"#utility.yul\":6185:6186   */\n      0x01\n        /* \"#utility.yul\":6182:6183   */\n      dup2\n        /* \"#utility.yul\":6178:6187   */\n      add\n        /* \"#utility.yul\":6173:6187   */\n      swap1\n      pop\n        /* \"#utility.yul\":6138:6579   */\n      jump(tag_227)\n    tag_229:\n        /* \"#utility.yul\":6142:6156   */\n      pop\n        /* \"#utility.yul\":6595:6599   */\n      dup3\n        /* \"#utility.yul\":6588:6599   */\n      swap8\n      pop\n        /* \"#utility.yul\":6615:6618   */\n      dup8\n        /* \"#utility.yul\":6608:6618   */\n      swap6\n      pop\n        /* \"#utility.yul\":5687:6624   */\n      pop\n      pop\n      pop\n      pop\n      pop\n        /* \"#utility.yul\":5513:6624   */\n      swap3\n      swap2\n      pop\n      pop\n      jump\t// out\n        /* \"#utility.yul\":6630:7103   */\n    tag_16:\n        /* \"#utility.yul\":6823:6827   */\n      0x00\n        /* \"#utility.yul\":6861:6863   */\n      0x20\n        /* \"#utility.yul\":6850:6859   */\n      dup3\n        /* \"#utility.yul\":6846:6864   */\n      add\n        /* \"#utility.yul\":6838:6864   */\n      swap1\n      pop\n        /* \"#utility.yul\":6910:6919   */\n      dup2\n        /* \"#utility.yul\":6904:6908   */\n      dup2\n        /* \"#utility.yul\":6900:6920   */\n      sub\n        /* \"#utility.yul\":6896:6897   */\n      0x00\n        /* \"#utility.yul\":6885:6894   */\n      dup4\n        /* \"#utility.yul\":6881:6898   */\n      add\n        /* \"#utility.yul\":6874:6921   */\n      mstore\n        /* \"#utility.yul\":6938:7096   */\n      tag_233\n        /* \"#utility.yul\":7091:7095   */\n      dup2\n        /* \"#utility.yul\":7082:7088   */\n      dup5\n        /* \"#utility.yul\":6938:7096   */\n      tag_147\n      jump\t// in\n    tag_233:\n        /* \"#utility.yul\":6930:7096   */\n      swap1\n      pop\n        /* \"#utility.yul\":6630:7103   */\n      swap3\n      swap2\n      pop\n      pop\n      jump\t// out\n        /* \"#utility.yul\":7109:7235   */\n    tag_148:\n        /* \"#utility.yul\":7146:7153   */\n      0x00\n        /* \"#utility.yul\":7186:7228   */\n      0xffffffffffffffffffffffffffffffffffffffff\n        /* \"#utility.yul\":7179:7184   */\n      dup3\n        /* \"#utility.yul\":7175:7229   */\n      and\n        /* \"#utility.yul\":7164:7229   */\n      swap1\n      pop\n        /* \"#utility.yul\":7109:7235   */\n      swap2\n      swap1\n      pop\n      jump\t// out\n        /* \"#utility.yul\":7241:7337   */\n    tag_149:\n        /* \"#utility.yul\":7278:7285   */\n      0x00\n        /* \"#utility.yul\":7307:7331   */\n      tag_236\n        /* \"#utility.yul\":7325:7330   */\n      dup3\n        /* \"#utility.yul\":7307:7331   */\n      tag_148\n      jump\t// in\n    tag_236:\n        /* \"#utility.yul\":7296:7331   */\n      swap1\n      pop\n        /* \"#utility.yul\":7241:7337   */\n      swap2\n      swap1\n      pop\n      jump\t// out\n        /* \"#utility.yul\":7343:7461   */\n    tag_150:\n        /* \"#utility.yul\":7430:7454   */\n      tag_238\n        /* \"#utility.yul\":7448:7453   */\n      dup2\n        /* \"#utility.yul\":7430:7454   */\n      tag_149\n      jump\t// in\n    tag_238:\n        /* \"#utility.yul\":7425:7428   */\n      dup3\n        /* \"#utility.yul\":7418:7455   */\n      mstore\n        /* \"#utility.yul\":7343:7461   */\n      pop\n      pop\n      jump\t// out\n        /* \"#utility.yul\":7467:7689   */\n    tag_20:\n        /* \"#utility.yul\":7560:7564   */\n      0x00\n        /* \"#utility.yul\":7598:7600   */\n      0x20\n        /* \"#utility.yul\":7587:7596   */\n      dup3\n        /* \"#utility.yul\":7583:7601   */\n      add\n        /* \"#utility.yul\":7575:7601   */\n      swap1\n      pop\n        /* \"#utility.yul\":7611:7682   */\n      tag_240\n        /* \"#utility.yul\":7679:7680   */\n      0x00\n        /* \"#utility.yul\":7668:7677   */\n      dup4\n        /* \"#utility.yul\":7664:7681   */\n      add\n        /* \"#utility.yul\":7655:7661   */\n      dup5\n        /* \"#utility.yul\":7611:7682   */\n      tag_150\n      jump\t// in\n    tag_240:\n        /* \"#utility.yul\":7467:7689   */\n      swap3\n      swap2\n      pop\n      pop\n      jump\t// out\n        /* \"#utility.yul\":7695:7817   */\n    tag_151:\n        /* \"#utility.yul\":7768:7792   */\n      tag_242\n        /* \"#utility.yul\":7786:7791   */\n      dup2\n        /* \"#utility.yul\":7768:7792   */\n      tag_149\n      jump\t// in\n    tag_242:\n        /* \"#utility.yul\":7761:7766   */\n      dup2\n        /* \"#utility.yul\":7758:7793   */\n      eq\n        /* \"#utility.yul\":7748:7811   */\n      tag_243\n      jumpi\n        /* \"#utility.yul\":7807:7808   */\n      0x00\n        /* \"#utility.yul\":7804:7805   */\n      dup1\n        /* \"#utility.yul\":7797:7809   */\n      revert\n        /* \"#utility.yul\":7748:7811   */\n    tag_243:\n        /* \"#utility.yul\":7695:7817   */\n      pop\n      jump\t// out\n        /* \"#utility.yul\":7823:7962   */\n    tag_152:\n        /* \"#utility.yul\":7869:7874   */\n      0x00\n        /* \"#utility.yul\":7907:7913   */\n      dup2\n        /* \"#utility.yul\":7894:7914   */\n      calldataload\n        /* \"#utility.yul\":7885:7914   */\n      swap1\n      pop\n        /* \"#utility.yul\":7923:7956   */\n      tag_245\n        /* \"#utility.yul\":7950:7955   */\n      dup2\n        /* \"#utility.yul\":7923:7956   */\n      tag_151\n      jump\t// in\n    tag_245:\n        /* \"#utility.yul\":7823:7962   */\n      swap3\n      swap2\n      pop\n      pop\n      jump\t// out\n        /* \"#utility.yul\":7968:8787   */\n    tag_23:\n        /* \"#utility.yul\":8057:8063   */\n      0x00\n        /* \"#utility.yul\":8065:8071   */\n      dup1\n        /* \"#utility.yul\":8073:8079   */\n      0x00\n        /* \"#utility.yul\":8081:8087   */\n      dup1\n        /* \"#utility.yul\":8130:8132   */\n      0x60\n        /* \"#utility.yul\":8118:8127   */\n      dup6\n        /* \"#utility.yul\":8109:8116   */\n      dup8\n        /* \"#utility.yul\":8105:8128   */\n      sub\n        /* \"#utility.yul\":8101:8133   */\n      slt\n        /* \"#utility.yul\":8098:8217   */\n      iszero\n      tag_247\n      jumpi\n        /* \"#utility.yul\":8136:8215   */\n      tag_248\n      tag_126\n      jump\t// in\n    tag_248:\n        /* \"#utility.yul\":8098:8217   */\n    tag_247:\n        /* \"#utility.yul\":8256:8257   */\n      0x00\n        /* \"#utility.yul\":8281:8334   */\n      tag_249\n        /* \"#utility.yul\":8326:8333   */\n      dup8\n        /* \"#utility.yul\":8317:8323   */\n      dup3\n        /* \"#utility.yul\":8306:8315   */\n      dup9\n        /* \"#utility.yul\":8302:8324   */\n      add\n        /* \"#utility.yul\":8281:8334   */\n      tag_152\n      jump\t// in\n    tag_249:\n        /* \"#utility.yul\":8271:8334   */\n      swap5\n      pop\n        /* \"#utility.yul\":8227:8344   */\n      pop\n        /* \"#utility.yul\":8411:8413   */\n      0x20\n        /* \"#utility.yul\":8400:8409   */\n      dup6\n        /* \"#utility.yul\":8396:8414   */\n      add\n        /* \"#utility.yul\":8383:8415   */\n      calldataload\n        /* \"#utility.yul\":8442:8460   */\n      0xffffffffffffffff\n        /* \"#utility.yul\":8434:8440   */\n      dup2\n        /* \"#utility.yul\":8431:8461   */\n      gt\n        /* \"#utility.yul\":8428:8545   */\n      iszero\n      tag_250\n      jumpi\n        /* \"#utility.yul\":8464:8543   */\n      tag_251\n      tag_127\n      jump\t// in\n    tag_251:\n        /* \"#utility.yul\":8428:8545   */\n    tag_250:\n        /* \"#utility.yul\":8577:8642   */\n      tag_252\n        /* \"#utility.yul\":8634:8641   */\n      dup8\n        /* \"#utility.yul\":8625:8631   */\n      dup3\n        /* \"#utility.yul\":8614:8623   */\n      dup9\n        /* \"#utility.yul\":8610:8632   */\n      add\n        /* \"#utility.yul\":8577:8642   */\n      tag_131\n      jump\t// in\n    tag_252:\n        /* \"#utility.yul\":8559:8642   */\n      swap4\n      pop\n      swap4\n      pop\n        /* \"#utility.yul\":8354:8652   */\n      pop\n        /* \"#utility.yul\":8691:8693   */\n      0x40\n        /* \"#utility.yul\":8717:8770   */\n      tag_253\n        /* \"#utility.yul\":8762:8769   */\n      dup8\n        /* \"#utility.yul\":8753:8759   */\n      dup3\n        /* \"#utility.yul\":8742:8751   */\n      dup9\n        /* \"#utility.yul\":8738:8760   */\n      add\n        /* \"#utility.yul\":8717:8770   */\n      tag_134\n      jump\t// in\n    tag_253:\n        /* \"#utility.yul\":8707:8770   */\n      swap2\n      pop\n        /* \"#utility.yul\":8662:8780   */\n      pop\n        /* \"#utility.yul\":7968:8787   */\n      swap3\n      swap6\n      swap2\n      swap5\n      pop\n      swap3\n      pop\n      jump\t// out\n        /* \"#utility.yul\":8793:9612   */\n    tag_27:\n        /* \"#utility.yul\":8882:8888   */\n      0x00\n        /* \"#utility.yul\":8890:8896   */\n      dup1\n        /* \"#utility.yul\":8898:8904   */\n      0x00\n        /* \"#utility.yul\":8906:8912   */\n      dup1\n        /* \"#utility.yul\":8955:8957   */\n      0x60\n        /* \"#utility.yul\":8943:8952   */\n      dup6\n        /* \"#utility.yul\":8934:8941   */\n      dup8\n        /* \"#utility.yul\":8930:8953   */\n      sub\n        /* \"#utility.yul\":8926:8958   */\n      slt\n        /* \"#utility.yul\":8923:9042   */\n      iszero\n      tag_255\n      jumpi\n        /* \"#utility.yul\":8961:9040   */\n      tag_256\n      tag_126\n      jump\t// in\n    tag_256:\n        /* \"#utility.yul\":8923:9042   */\n    tag_255:\n        /* \"#utility.yul\":9109:9110   */\n      0x00\n        /* \"#utility.yul\":9098:9107   */\n      dup6\n        /* \"#utility.yul\":9094:9111   */\n      add\n        /* \"#utility.yul\":9081:9112   */\n      calldataload\n        /* \"#utility.yul\":9139:9157   */\n      0xffffffffffffffff\n        /* \"#utility.yul\":9131:9137   */\n      dup2\n        /* \"#utility.yul\":9128:9158   */\n      gt\n        /* \"#utility.yul\":9125:9242   */\n      iszero\n      tag_257\n      jumpi\n        /* \"#utility.yul\":9161:9240   */\n      tag_258\n      tag_127\n      jump\t// in\n    tag_258:\n        /* \"#utility.yul\":9125:9242   */\n    tag_257:\n        /* \"#utility.yul\":9274:9339   */\n      tag_259\n        /* \"#utility.yul\":9331:9338   */\n      dup8\n        /* \"#utility.yul\":9322:9328   */\n      dup3\n        /* \"#utility.yul\":9311:9320   */\n      dup9\n        /* \"#utility.yul\":9307:9329   */\n      add\n        /* \"#utility.yul\":9274:9339   */\n      tag_131\n      jump\t// in\n    tag_259:\n        /* \"#utility.yul\":9256:9339   */\n      swap5\n      pop\n      swap5\n      pop\n        /* \"#utility.yul\":9052:9349   */\n      pop\n        /* \"#utility.yul\":9388:9390   */\n      0x20\n        /* \"#utility.yul\":9414:9467   */\n      tag_260\n        /* \"#utility.yul\":9459:9466   */\n      dup8\n        /* \"#utility.yul\":9450:9456   */\n      dup3\n        /* \"#utility.yul\":9439:9448   */\n      dup9\n        /* \"#utility.yul\":9435:9457   */\n      add\n        /* \"#utility.yul\":9414:9467   */\n      tag_134\n      jump\t// in\n    tag_260:\n        /* \"#utility.yul\":9404:9467   */\n      swap3\n      pop\n        /* \"#utility.yul\":9359:9477   */\n      pop\n        /* \"#utility.yul\":9516:9518   */\n      0x40\n        /* \"#utility.yul\":9542:9595   */\n      tag_261\n        /* \"#utility.yul\":9587:9594   */\n      dup8\n        /* \"#utility.yul\":9578:9584   */\n      dup3\n        /* \"#utility.yul\":9567:9576   */\n      dup9\n        /* \"#utility.yul\":9563:9585   */\n      add\n        /* \"#utility.yul\":9542:9595   */\n      tag_134\n      jump\t// in\n    tag_261:\n        /* \"#utility.yul\":9532:9595   */\n      swap2\n      pop\n        /* \"#utility.yul\":9487:9605   */\n      pop\n        /* \"#utility.yul\":8793:9612   */\n      swap3\n      swap6\n      swap2\n      swap5\n      pop\n      swap3\n      pop\n      jump\t// out\n        /* \"#utility.yul\":9660:10693   */\n    tag_153:\n        /* \"#utility.yul\":9779:9782   */\n      0x00\n        /* \"#utility.yul\":9815:9819   */\n      0x80\n        /* \"#utility.yul\":9810:9813   */\n      dup4\n        /* \"#utility.yul\":9806:9820   */\n      add\n        /* \"#utility.yul\":9901:9905   */\n      0x00\n        /* \"#utility.yul\":9894:9899   */\n      dup4\n        /* \"#utility.yul\":9890:9906   */\n      add\n        /* \"#utility.yul\":9884:9907   */\n      mload\n        /* \"#utility.yul\":9954:9957   */\n      dup5\n        /* \"#utility.yul\":9948:9952   */\n      dup3\n        /* \"#utility.yul\":9944:9958   */\n      sub\n        /* \"#utility.yul\":9937:9941   */\n      0x00\n        /* \"#utility.yul\":9932:9935   */\n      dup7\n        /* \"#utility.yul\":9928:9942   */\n      add\n        /* \"#utility.yul\":9921:9959   */\n      mstore\n        /* \"#utility.yul\":9980:10053   */\n      tag_263\n        /* \"#utility.yul\":10048:10052   */\n      dup3\n        /* \"#utility.yul\":10034:10046   */\n      dup3\n        /* \"#utility.yul\":9980:10053   */\n      tag_142\n      jump\t// in\n    tag_263:\n        /* \"#utility.yul\":9972:10053   */\n      swap2\n      pop\n        /* \"#utility.yul\":9830:10064   */\n      pop\n        /* \"#utility.yul\":10147:10151   */\n      0x20\n        /* \"#utility.yul\":10140:10145   */\n      dup4\n        /* \"#utility.yul\":10136:10152   */\n      add\n        /* \"#utility.yul\":10130:10153   */\n      mload\n        /* \"#utility.yul\":10200:10203   */\n      dup5\n        /* \"#utility.yul\":10194:10198   */\n      dup3\n        /* \"#utility.yul\":10190:10204   */\n      sub\n        /* \"#utility.yul\":10183:10187   */\n      0x20\n        /* \"#utility.yul\":10178:10181   */\n      dup7\n        /* \"#utility.yul\":10174:10188   */\n      add\n        /* \"#utility.yul\":10167:10205   */\n      mstore\n        /* \"#utility.yul\":10226:10299   */\n      tag_264\n        /* \"#utility.yul\":10294:10298   */\n      dup3\n        /* \"#utility.yul\":10280:10292   */\n      dup3\n        /* \"#utility.yul\":10226:10299   */\n      tag_142\n      jump\t// in\n    tag_264:\n        /* \"#utility.yul\":10218:10299   */\n      swap2\n      pop\n        /* \"#utility.yul\":10074:10310   */\n      pop\n        /* \"#utility.yul\":10397:10401   */\n      0x40\n        /* \"#utility.yul\":10390:10395   */\n      dup4\n        /* \"#utility.yul\":10386:10402   */\n      add\n        /* \"#utility.yul\":10380:10403   */\n      mload\n        /* \"#utility.yul\":10416:10479   */\n      tag_265\n        /* \"#utility.yul\":10473:10477   */\n      0x40\n        /* \"#utility.yul\":10468:10471   */\n      dup7\n        /* \"#utility.yul\":10464:10478   */\n      add\n        /* \"#utility.yul\":10450:10462   */\n      dup3\n        /* \"#utility.yul\":10416:10479   */\n      tag_143\n      jump\t// in\n    tag_265:\n        /* \"#utility.yul\":10320:10489   */\n      pop\n        /* \"#utility.yul\":10574:10578   */\n      0x60\n        /* \"#utility.yul\":10567:10572   */\n      dup4\n        /* \"#utility.yul\":10563:10579   */\n      add\n        /* \"#utility.yul\":10557:10580   */\n      mload\n        /* \"#utility.yul\":10593:10656   */\n      tag_266\n        /* \"#utility.yul\":10650:10654   */\n      0x60\n        /* \"#utility.yul\":10645:10648   */\n      dup7\n        /* \"#utility.yul\":10641:10655   */\n      add\n        /* \"#utility.yul\":10627:10639   */\n      dup3\n        /* \"#utility.yul\":10593:10656   */\n      tag_143\n      jump\t// in\n    tag_266:\n        /* \"#utility.yul\":10499:10666   */\n      pop\n        /* \"#utility.yul\":10683:10687   */\n      dup1\n        /* \"#utility.yul\":10676:10687   */\n      swap2\n      pop\n        /* \"#utility.yul\":9784:10693   */\n      pop\n        /* \"#utility.yul\":9660:10693   */\n      swap3\n      swap2\n      pop\n      pop\n      jump\t// out\n        /* \"#utility.yul\":10699:11072   */\n    tag_30:\n        /* \"#utility.yul\":10842:10846   */\n      0x00\n        /* \"#utility.yul\":10880:10882   */\n      0x20\n        /* \"#utility.yul\":10869:10878   */\n      dup3\n        /* \"#utility.yul\":10865:10883   */\n      add\n        /* \"#utility.yul\":10857:10883   */\n      swap1\n      pop\n        /* \"#utility.yul\":10929:10938   */\n      dup2\n        /* \"#utility.yul\":10923:10927   */\n      dup2\n        /* \"#utility.yul\":10919:10939   */\n      sub\n        /* \"#utility.yul\":10915:10916   */\n      0x00\n        /* \"#utility.yul\":10904:10913   */\n      dup4\n        /* \"#utility.yul\":10900:10917   */\n      add\n        /* \"#utility.yul\":10893:10940   */\n      mstore\n        /* \"#utility.yul\":10957:11065   */\n      tag_268\n        /* \"#utility.yul\":11060:11064   */\n      dup2\n        /* \"#utility.yul\":11051:11057   */\n      dup5\n        /* \"#utility.yul\":10957:11065   */\n      tag_153\n      jump\t// in\n    tag_268:\n        /* \"#utility.yul\":10949:11065   */\n      swap1\n      pop\n        /* \"#utility.yul\":10699:11072   */\n      swap3\n      swap2\n      pop\n      pop\n      jump\t// out\n        /* \"#utility.yul\":11078:11202   */\n    tag_154:\n        /* \"#utility.yul\":11155:11161   */\n      0x00\n        /* \"#utility.yul\":11189:11194   */\n      dup2\n        /* \"#utility.yul\":11183:11195   */\n      mload\n        /* \"#utility.yul\":11173:11195   */\n      swap1\n      pop\n        /* \"#utility.yul\":11078:11202   */\n      swap2\n      swap1\n      pop\n      jump\t// out\n        /* \"#utility.yul\":11208:11402   */\n    tag_155:\n        /* \"#utility.yul\":11317:11328   */\n      0x00\n        /* \"#utility.yul\":11351:11357   */\n      dup3\n        /* \"#utility.yul\":11346:11349   */\n      dup3\n        /* \"#utility.yul\":11339:11358   */\n      mstore\n        /* \"#utility.yul\":11391:11395   */\n      0x20\n        /* \"#utility.yul\":11386:11389   */\n      dup3\n        /* \"#utility.yul\":11382:11396   */\n      add\n        /* \"#utility.yul\":11367:11396   */\n      swap1\n      pop\n        /* \"#utility.yul\":11208:11402   */\n      swap3\n      swap2\n      pop\n      pop\n      jump\t// out\n        /* \"#utility.yul\":11408:11550   */\n    tag_156:\n        /* \"#utility.yul\":11485:11489   */\n      0x00\n        /* \"#utility.yul\":11508:11511   */\n      dup2\n        /* \"#utility.yul\":11500:11511   */\n      swap1\n      pop\n        /* \"#utility.yul\":11538:11542   */\n      0x20\n        /* \"#utility.yul\":11533:11536   */\n      dup3\n        /* \"#utility.yul\":11529:11543   */\n      add\n        /* \"#utility.yul\":11521:11543   */\n      swap1\n      pop\n        /* \"#utility.yul\":11408:11550   */\n      swap2\n      swap1\n      pop\n      jump\t// out\n        /* \"#utility.yul\":11556:11752   */\n    tag_157:\n        /* \"#utility.yul\":11645:11655   */\n      0x00\n        /* \"#utility.yul\":11680:11746   */\n      tag_273\n        /* \"#utility.yul\":11742:11745   */\n      dup4\n        /* \"#utility.yul\":11734:11740   */\n      dup4\n        /* \"#utility.yul\":11680:11746   */\n      tag_142\n      jump\t// in\n    tag_273:\n        /* \"#utility.yul\":11666:11746   */\n      swap1\n      pop\n        /* \"#utility.yul\":11556:11752   */\n      swap3\n      swap2\n      pop\n      pop\n      jump\t// out\n        /* \"#utility.yul\":11758:11881   */\n    tag_158:\n        /* \"#utility.yul\":11838:11842   */\n      0x00\n        /* \"#utility.yul\":11870:11874   */\n      0x20\n        /* \"#utility.yul\":11865:11868   */\n      dup3\n        /* \"#utility.yul\":11861:11875   */\n      add\n        /* \"#utility.yul\":11853:11875   */\n      swap1\n      pop\n        /* \"#utility.yul\":11758:11881   */\n      swap2\n      swap1\n      pop\n      jump\t// out\n        /* \"#utility.yul\":11915:12906   */\n    tag_159:\n        /* \"#utility.yul\":12054:12057   */\n      0x00\n        /* \"#utility.yul\":12083:12147   */\n      tag_276\n        /* \"#utility.yul\":12141:12146   */\n      dup3\n        /* \"#utility.yul\":12083:12147   */\n      tag_154\n      jump\t// in\n    tag_276:\n        /* \"#utility.yul\":12163:12259   */\n      tag_277\n        /* \"#utility.yul\":12252:12258   */\n      dup2\n        /* \"#utility.yul\":12247:12250   */\n      dup6\n        /* \"#utility.yul\":12163:12259   */\n      tag_155\n      jump\t// in\n    tag_277:\n        /* \"#utility.yul\":12156:12259   */\n      swap4\n      pop\n        /* \"#utility.yul\":12285:12288   */\n      dup4\n        /* \"#utility.yul\":12330:12334   */\n      0x20\n        /* \"#utility.yul\":12322:12328   */\n      dup3\n        /* \"#utility.yul\":12318:12335   */\n      mul\n        /* \"#utility.yul\":12313:12316   */\n      dup6\n        /* \"#utility.yul\":12309:12336   */\n      add\n        /* \"#utility.yul\":12360:12426   */\n      tag_278\n        /* \"#utility.yul\":12420:12425   */\n      dup6\n        /* \"#utility.yul\":12360:12426   */\n      tag_156\n      jump\t// in\n    tag_278:\n        /* \"#utility.yul\":12449:12456   */\n      dup1\n        /* \"#utility.yul\":12480:12481   */\n      0x00\n        /* \"#utility.yul\":12465:12861   */\n    tag_279:\n        /* \"#utility.yul\":12490:12496   */\n      dup6\n        /* \"#utility.yul\":12487:12488   */\n      dup2\n        /* \"#utility.yul\":12484:12497   */\n      lt\n        /* \"#utility.yul\":12465:12861   */\n      iszero\n      tag_281\n      jumpi\n        /* \"#utility.yul\":12561:12570   */\n      dup5\n        /* \"#utility.yul\":12555:12559   */\n      dup5\n        /* \"#utility.yul\":12551:12571   */\n      sub\n        /* \"#utility.yul\":12546:12549   */\n      dup10\n        /* \"#utility.yul\":12539:12572   */\n      mstore\n        /* \"#utility.yul\":12612:12618   */\n      dup2\n        /* \"#utility.yul\":12606:12619   */\n      mload\n        /* \"#utility.yul\":12640:12724   */\n      tag_282\n        /* \"#utility.yul\":12719:12723   */\n      dup6\n        /* \"#utility.yul\":12704:12717   */\n      dup3\n        /* \"#utility.yul\":12640:12724   */\n      tag_157\n      jump\t// in\n    tag_282:\n        /* \"#utility.yul\":12632:12724   */\n      swap5\n      pop\n        /* \"#utility.yul\":12747:12817   */\n      tag_283\n        /* \"#utility.yul\":12810:12816   */\n      dup4\n        /* \"#utility.yul\":12747:12817   */\n      tag_158\n      jump\t// in\n    tag_283:\n        /* \"#utility.yul\":12737:12817   */\n      swap3\n      pop\n        /* \"#utility.yul\":12846:12850   */\n      0x20\n        /* \"#utility.yul\":12841:12844   */\n      dup11\n        /* \"#utility.yul\":12837:12851   */\n      add\n        /* \"#utility.yul\":12830:12851   */\n      swap10\n      pop\n        /* \"#utility.yul\":12525:12861   */\n      pop\n        /* \"#utility.yul\":12512:12513   */\n      0x01\n        /* \"#utility.yul\":12509:12510   */\n      dup2\n        /* \"#utility.yul\":12505:12514   */\n      add\n        /* \"#utility.yul\":12500:12514   */\n      swap1\n      pop\n        /* \"#utility.yul\":12465:12861   */\n      jump(tag_279)\n    tag_281:\n        /* \"#utility.yul\":12469:12483   */\n      pop\n        /* \"#utility.yul\":12877:12881   */\n      dup3\n        /* \"#utility.yul\":12870:12881   */\n      swap8\n      pop\n        /* \"#utility.yul\":12897:12900   */\n      dup8\n        /* \"#utility.yul\":12890:12900   */\n      swap6\n      pop\n        /* \"#utility.yul\":12059:12906   */\n      pop\n      pop\n      pop\n      pop\n      pop\n        /* \"#utility.yul\":11915:12906   */\n      swap3\n      swap2\n      pop\n      pop\n      jump\t// out\n        /* \"#utility.yul\":12912:13325   */\n    tag_34:\n        /* \"#utility.yul\":13075:13079   */\n      0x00\n        /* \"#utility.yul\":13113:13115   */\n      0x20\n        /* \"#utility.yul\":13102:13111   */\n      dup3\n        /* \"#utility.yul\":13098:13116   */\n      add\n        /* \"#utility.yul\":13090:13116   */\n      swap1\n      pop\n        /* \"#utility.yul\":13162:13171   */\n      dup2\n        /* \"#utility.yul\":13156:13160   */\n      dup2\n        /* \"#utility.yul\":13152:13172   */\n      sub\n        /* \"#utility.yul\":13148:13149   */\n      0x00\n        /* \"#utility.yul\":13137:13146   */\n      dup4\n        /* \"#utility.yul\":13133:13150   */\n      add\n        /* \"#utility.yul\":13126:13173   */\n      mstore\n        /* \"#utility.yul\":13190:13318   */\n      tag_285\n        /* \"#utility.yul\":13313:13317   */\n      dup2\n        /* \"#utility.yul\":13304:13310   */\n      dup5\n        /* \"#utility.yul\":13190:13318   */\n      tag_159\n      jump\t// in\n    tag_285:\n        /* \"#utility.yul\":13182:13318   */\n      swap1\n      pop\n        /* \"#utility.yul\":12912:13325   */\n      swap3\n      swap2\n      pop\n      pop\n      jump\t// out\n        /* \"#utility.yul\":13331:13500   */\n    tag_160:\n        /* \"#utility.yul\":13415:13426   */\n      0x00\n        /* \"#utility.yul\":13449:13455   */\n      dup3\n        /* \"#utility.yul\":13444:13447   */\n      dup3\n        /* \"#utility.yul\":13437:13456   */\n      mstore\n        /* \"#utility.yul\":13489:13493   */\n      0x20\n        /* \"#utility.yul\":13484:13487   */\n      dup3\n        /* \"#utility.yul\":13480:13494   */\n      add\n        /* \"#utility.yul\":13465:13494   */\n      swap1\n      pop\n        /* \"#utility.yul\":13331:13500   */\n      swap3\n      swap2\n      pop\n      pop\n      jump\t// out\n        /* \"#utility.yul\":13506:13680   */\n    tag_161:\n        /* \"#utility.yul\":13646:13672   */\n      0x796f752063616e206e6f7420616464206f6666696369616c0000000000000000\n        /* \"#utility.yul\":13642:13643   */\n      0x00\n        /* \"#utility.yul\":13634:13640   */\n      dup3\n        /* \"#utility.yul\":13630:13644   */\n      add\n        /* \"#utility.yul\":13623:13673   */\n      mstore\n        /* \"#utility.yul\":13506:13680   */\n      pop\n      jump\t// out\n        /* \"#utility.yul\":13686:14052   */\n    tag_162:\n        /* \"#utility.yul\":13828:13831   */\n      0x00\n        /* \"#utility.yul\":13849:13916   */\n      tag_289\n        /* \"#utility.yul\":13913:13915   */\n      0x18\n        /* \"#utility.yul\":13908:13911   */\n      dup4\n        /* \"#utility.yul\":13849:13916   */\n      tag_160\n      jump\t// in\n    tag_289:\n        /* \"#utility.yul\":13842:13916   */\n      swap2\n      pop\n        /* \"#utility.yul\":13925:14018   */\n      tag_290\n        /* \"#utility.yul\":14014:14017   */\n      dup3\n        /* \"#utility.yul\":13925:14018   */\n      tag_161\n      jump\t// in\n    tag_290:\n        /* \"#utility.yul\":14043:14045   */\n      0x20\n        /* \"#utility.yul\":14038:14041   */\n      dup3\n        /* \"#utility.yul\":14034:14046   */\n      add\n        /* \"#utility.yul\":14027:14046   */\n      swap1\n      pop\n        /* \"#utility.yul\":13686:14052   */\n      swap2\n      swap1\n      pop\n      jump\t// out\n        /* \"#utility.yul\":14058:14477   */\n    tag_38:\n        /* \"#utility.yul\":14224:14228   */\n      0x00\n        /* \"#utility.yul\":14262:14264   */\n      0x20\n        /* \"#utility.yul\":14251:14260   */\n      dup3\n        /* \"#utility.yul\":14247:14265   */\n      add\n        /* \"#utility.yul\":14239:14265   */\n      swap1\n      pop\n        /* \"#utility.yul\":14311:14320   */\n      dup2\n        /* \"#utility.yul\":14305:14309   */\n      dup2\n        /* \"#utility.yul\":14301:14321   */\n      sub\n        /* \"#utility.yul\":14297:14298   */\n      0x00\n        /* \"#utility.yul\":14286:14295   */\n      dup4\n        /* \"#utility.yul\":14282:14299   */\n      add\n        /* \"#utility.yul\":14275:14322   */\n      mstore\n        /* \"#utility.yul\":14339:14470   */\n      tag_292\n        /* \"#utility.yul\":14465:14469   */\n      dup2\n        /* \"#utility.yul\":14339:14470   */\n      tag_162\n      jump\t// in\n    tag_292:\n        /* \"#utility.yul\":14331:14470   */\n      swap1\n      pop\n        /* \"#utility.yul\":14058:14477   */\n      swap2\n      swap1\n      pop\n      jump\t// out\n        /* \"#utility.yul\":14483:14663   */\n    tag_163:\n        /* \"#utility.yul\":14531:14608   */\n      0x4e487b7100000000000000000000000000000000000000000000000000000000\n        /* \"#utility.yul\":14528:14529   */\n      0x00\n        /* \"#utility.yul\":14521:14609   */\n      mstore\n        /* \"#utility.yul\":14628:14632   */\n      0x22\n        /* \"#utility.yul\":14625:14626   */\n      0x04\n        /* \"#utility.yul\":14618:14633   */\n      mstore\n        /* \"#utility.yul\":14652:14656   */\n      0x24\n        /* \"#utility.yul\":14649:14650   */\n      0x00\n        /* \"#utility.yul\":14642:14657   */\n      revert\n        /* \"#utility.yul\":14669:14989   */\n    tag_41:\n        /* \"#utility.yul\":14713:14719   */\n      0x00\n        /* \"#utility.yul\":14750:14751   */\n      0x02\n        /* \"#utility.yul\":14744:14748   */\n      dup3\n        /* \"#utility.yul\":14740:14752   */\n      div\n        /* \"#utility.yul\":14730:14752   */\n      swap1\n      pop\n        /* \"#utility.yul\":14797:14798   */\n      0x01\n        /* \"#utility.yul\":14791:14795   */\n      dup3\n        /* \"#utility.yul\":14787:14799   */\n      and\n        /* \"#utility.yul\":14818:14836   */\n      dup1\n        /* \"#utility.yul\":14808:14889   */\n      tag_295\n      jumpi\n        /* \"#utility.yul\":14874:14878   */\n      0x7f\n        /* \"#utility.yul\":14866:14872   */\n      dup3\n        /* \"#utility.yul\":14862:14879   */\n      and\n        /* \"#utility.yul\":14852:14879   */\n      swap2\n      pop\n        /* \"#utility.yul\":14808:14889   */\n    tag_295:\n        /* \"#utility.yul\":14936:14938   */\n      0x20\n        /* \"#utility.yul\":14928:14934   */\n      dup3\n        /* \"#utility.yul\":14925:14939   */\n      lt\n        /* \"#utility.yul\":14905:14923   */\n      dup2\n        /* \"#utility.yul\":14902:14940   */\n      eq\n        /* \"#utility.yul\":14899:14983   */\n      iszero\n      tag_296\n      jumpi\n        /* \"#utility.yul\":14955:14973   */\n      tag_297\n      tag_163\n      jump\t// in\n    tag_297:\n        /* \"#utility.yul\":14899:14983   */\n    tag_296:\n        /* \"#utility.yul\":14720:14989   */\n      pop\n        /* \"#utility.yul\":14669:14989   */\n      swap2\n      swap1\n      pop\n      jump\t// out\n        /* \"#utility.yul\":14995:15164   */\n    tag_164:\n        /* \"#utility.yul\":15135:15156   */\n      0x737461746520616c726561647920657869737400000000000000000000000000\n        /* \"#utility.yul\":15131:15132   */\n      0x00\n        /* \"#utility.yul\":15123:15129   */\n      dup3\n        /* \"#utility.yul\":15119:15133   */\n      add\n        /* \"#utility.yul\":15112:15157   */\n      mstore\n        /* \"#utility.yul\":14995:15164   */\n      pop\n      jump\t// out\n        /* \"#utility.yul\":15170:15536   */\n    tag_165:\n        /* \"#utility.yul\":15312:15315   */\n      0x00\n        /* \"#utility.yul\":15333:15400   */\n      tag_300\n        /* \"#utility.yul\":15397:15399   */\n      0x13\n        /* \"#utility.yul\":15392:15395   */\n      dup4\n        /* \"#utility.yul\":15333:15400   */\n      tag_160\n      jump\t// in\n    tag_300:\n        /* \"#utility.yul\":15326:15400   */\n      swap2\n      pop\n        /* \"#utility.yul\":15409:15502   */\n      tag_301\n        /* \"#utility.yul\":15498:15501   */\n      dup3\n        /* \"#utility.yul\":15409:15502   */\n      tag_164\n      jump\t// in\n    tag_301:\n        /* \"#utility.yul\":15527:15529   */\n      0x20\n        /* \"#utility.yul\":15522:15525   */\n      dup3\n        /* \"#utility.yul\":15518:15530   */\n      add\n        /* \"#utility.yul\":15511:15530   */\n      swap1\n      pop\n        /* \"#utility.yul\":15170:15536   */\n      swap2\n      swap1\n      pop\n      jump\t// out\n        /* \"#utility.yul\":15542:15961   */\n    tag_44:\n        /* \"#utility.yul\":15708:15712   */\n      0x00\n        /* \"#utility.yul\":15746:15748   */\n      0x20\n        /* \"#utility.yul\":15735:15744   */\n      dup3\n        /* \"#utility.yul\":15731:15749   */\n      add\n        /* \"#utility.yul\":15723:15749   */\n      swap1\n      pop\n        /* \"#utility.yul\":15795:15804   */\n      dup2\n        /* \"#utility.yul\":15789:15793   */\n      dup2\n        /* \"#utility.yul\":15785:15805   */\n      sub\n        /* \"#utility.yul\":15781:15782   */\n      0x00\n        /* \"#utility.yul\":15770:15779   */\n      dup4\n        /* \"#utility.yul\":15766:15783   */\n      add\n        /* \"#utility.yul\":15759:15806   */\n      mstore\n        /* \"#utility.yul\":15823:15954   */\n      tag_303\n        /* \"#utility.yul\":15949:15953   */\n      dup2\n        /* \"#utility.yul\":15823:15954   */\n      tag_165\n      jump\t// in\n    tag_303:\n        /* \"#utility.yul\":15815:15954   */\n      swap1\n      pop\n        /* \"#utility.yul\":15542:15961   */\n      swap2\n      swap1\n      pop\n      jump\t// out\n        /* \"#utility.yul\":15967:16147   */\n    tag_166:\n        /* \"#utility.yul\":16107:16139   */\n      0x6c6f63616c20676f7665726e6d656e7420616c72656164792065786973740000\n        /* \"#utility.yul\":16103:16104   */\n      0x00\n        /* \"#utility.yul\":16095:16101   */\n      dup3\n        /* \"#utility.yul\":16091:16105   */\n      add\n        /* \"#utility.yul\":16084:16140   */\n      mstore\n        /* \"#utility.yul\":15967:16147   */\n      pop\n      jump\t// out\n        /* \"#utility.yul\":16153:16519   */\n    tag_167:\n        /* \"#utility.yul\":16295:16298   */\n      0x00\n        /* \"#utility.yul\":16316:16383   */\n      tag_306\n        /* \"#utility.yul\":16380:16382   */\n      0x1e\n        /* \"#utility.yul\":16375:16378   */\n      dup4\n        /* \"#utility.yul\":16316:16383   */\n      tag_160\n      jump\t// in\n    tag_306:\n        /* \"#utility.yul\":16309:16383   */\n      swap2\n      pop\n        /* \"#utility.yul\":16392:16485   */\n      tag_307\n        /* \"#utility.yul\":16481:16484   */\n      dup3\n        /* \"#utility.yul\":16392:16485   */\n      tag_166\n      jump\t// in\n    tag_307:\n        /* \"#utility.yul\":16510:16512   */\n      0x20\n        /* \"#utility.yul\":16505:16508   */\n      dup3\n        /* \"#utility.yul\":16501:16513   */\n      add\n        /* \"#utility.yul\":16494:16513   */\n      swap1\n      pop\n        /* \"#utility.yul\":16153:16519   */\n      swap2\n      swap1\n      pop\n      jump\t// out\n        /* \"#utility.yul\":16525:16944   */\n    tag_70:\n        /* \"#utility.yul\":16691:16695   */\n      0x00\n        /* \"#utility.yul\":16729:16731   */\n      0x20\n        /* \"#utility.yul\":16718:16727   */\n      dup3\n        /* \"#utility.yul\":16714:16732   */\n      add\n        /* \"#utility.yul\":16706:16732   */\n      swap1\n      pop\n        /* \"#utility.yul\":16778:16787   */\n      dup2\n        /* \"#utility.yul\":16772:16776   */\n      dup2\n        /* \"#utility.yul\":16768:16788   */\n      sub\n        /* \"#utility.yul\":16764:16765   */\n      0x00\n        /* \"#utility.yul\":16753:16762   */\n      dup4\n        /* \"#utility.yul\":16749:16766   */\n      add\n        /* \"#utility.yul\":16742:16789   */\n      mstore\n        /* \"#utility.yul\":16806:16937   */\n      tag_309\n        /* \"#utility.yul\":16932:16936   */\n      dup2\n        /* \"#utility.yul\":16806:16937   */\n      tag_167\n      jump\t// in\n    tag_309:\n        /* \"#utility.yul\":16798:16937   */\n      swap1\n      pop\n        /* \"#utility.yul\":16525:16944   */\n      swap2\n      swap1\n      pop\n      jump\t// out\n        /* \"#utility.yul\":16950:17120   */\n    tag_168:\n        /* \"#utility.yul\":17090:17112   */\n      0x737461746520646f6573206e6f74206578697374000000000000000000000000\n        /* \"#utility.yul\":17086:17087   */\n      0x00\n        /* \"#utility.yul\":17078:17084   */\n      dup3\n        /* \"#utility.yul\":17074:17088   */\n      add\n        /* \"#utility.yul\":17067:17113   */\n      mstore\n        /* \"#utility.yul\":16950:17120   */\n      pop\n      jump\t// out\n        /* \"#utility.yul\":17126:17492   */\n    tag_169:\n        /* \"#utility.yul\":17268:17271   */\n      0x00\n        /* \"#utility.yul\":17289:17356   */\n      tag_312\n        /* \"#utility.yul\":17353:17355   */\n      0x14\n        /* \"#utility.yul\":17348:17351   */\n      dup4\n        /* \"#utility.yul\":17289:17356   */\n      tag_160\n      jump\t// in\n    tag_312:\n        /* \"#utility.yul\":17282:17356   */\n      swap2\n      pop\n        /* \"#utility.yul\":17365:17458   */\n      tag_313\n        /* \"#utility.yul\":17454:17457   */\n      dup3\n        /* \"#utility.yul\":17365:17458   */\n      tag_168\n      jump\t// in\n    tag_313:\n        /* \"#utility.yul\":17483:17485   */\n      0x20\n        /* \"#utility.yul\":17478:17481   */\n      dup3\n        /* \"#utility.yul\":17474:17486   */\n      add\n        /* \"#utility.yul\":17467:17486   */\n      swap1\n      pop\n        /* \"#utility.yul\":17126:17492   */\n      swap2\n      swap1\n      pop\n      jump\t// out\n        /* \"#utility.yul\":17498:17917   */\n    tag_84:\n        /* \"#utility.yul\":17664:17668   */\n      0x00\n        /* \"#utility.yul\":17702:17704   */\n      0x20\n        /* \"#utility.yul\":17691:17700   */\n      dup3\n        /* \"#utility.yul\":17687:17705   */\n      add\n        /* \"#utility.yul\":17679:17705   */\n      swap1\n      pop\n        /* \"#utility.yul\":17751:17760   */\n      dup2\n        /* \"#utility.yul\":17745:17749   */\n      dup2\n        /* \"#utility.yul\":17741:17761   */\n      sub\n        /* \"#utility.yul\":17737:17738   */\n      0x00\n        /* \"#utility.yul\":17726:17735   */\n      dup4\n        /* \"#utility.yul\":17722:17739   */\n      add\n        /* \"#utility.yul\":17715:17762   */\n      mstore\n        /* \"#utility.yul\":17779:17910   */\n      tag_315\n        /* \"#utility.yul\":17905:17909   */\n      dup2\n        /* \"#utility.yul\":17779:17910   */\n      tag_169\n      jump\t// in\n    tag_315:\n        /* \"#utility.yul\":17771:17910   */\n      swap1\n      pop\n        /* \"#utility.yul\":17498:17917   */\n      swap2\n      swap1\n      pop\n      jump\t// out\n\n    auxdata: 0xa2646970667358221220e1876aa8f1e03a913ae02fc5bcb34b3260711216dff9f91fe7a2e48b0b46473a64736f6c63430008080033\n}\n",
				"bytecode": {
					"linkReferences": {},
					"object": "608060405234801561001057600080fd5b50336000806101000a81548173ffffffffffffffffffffffffffffffffffffffff021916908373ffffffffffffffffffffffffffffffffffffffff160217905550611485806100606000396000f3fe608060405234801561001057600080fd5b50600436106100625760003560e01c80635c060b79146100675780636b935b8614610083578063893d20e8146100a1578063aa709075146100bf578063c86b6c6b146100db578063d8ab82741461010b575b600080fd5b610081600480360381019061007c9190610cf7565b610129565b005b61008b610280565b6040516100989190610f2b565b60405180910390f35b6100a9610417565b6040516100b69190610f8e565b60405180910390f35b6100d960048036038101906100d49190610fd5565b610440565b005b6100f560048036038101906100f09190611049565b6106e1565b6040516101029190611127565b60405180910390f35b610113610a28565b604051610120919061120b565b60405180910390f35b3373ffffffffffffffffffffffffffffffffffffffff1660008054906101000a900473ffffffffffffffffffffffffffffffffffffffff1673ffffffffffffffffffffffffffffffffffffffff1614156101b8576040517f08c379a00000000000000000000000000000000000000000000000000000000081526004016101af9061128a565b60405180910390fd5b60006005600083815260200190815260200160002080546101d8906112d9565b90501161021a576040517f08c379a000000000000000000000000000000000000000000000000000000000815260040161021190611357565b60405180910390fd5b828260056000848152602001908152602001600020919061023c929190610b01565b50600683839091806001815401808255809150506001900390600052602060002001600090919290919290919290919250919061027a929190610b01565b50505050565b60606004805480602002602001604051908101604052809291908181526020016000905b8282101561040e57838290600052602060002090600402016040518060800160405290816000820180546102d7906112d9565b80601f0160208091040260200160405190810160405280929190818152602001828054610303906112d9565b80156103505780601f1061032557610100808354040283529160200191610350565b820191906000526020600020905b81548152906001019060200180831161033357829003601f168201915b50505050508152602001600182018054610369906112d9565b80601f0160208091040260200160405190810160405280929190818152602001828054610395906112d9565b80156103e25780601f106103b7576101008083540402835291602001916103e2565b820191906000526020600020905b8154815290600101906020018083116103c557829003601f168201915b5050505050815260200160028201548152602001600382015481525050815260200190600101906102a4565b50505050905090565b60008060009054906101000a900473ffffffffffffffffffffffffffffffffffffffff16905090565b3373ffffffffffffffffffffffffffffffffffffffff1660008054906101000a900473ffffffffffffffffffffffffffffffffffffffff1673ffffffffffffffffffffffffffffffffffffffff1614156104cf576040517f08c379a00000000000000000000000000000000000000000000000000000000081526004016104c69061128a565b60405180910390fd5b806000600360008381526020019081526020016000206003015411610529576040517f08c379a0000000000000000000000000000000000000000000000000000000008152600401610520906113c3565b60405180910390fd5b6001859080600181540180825580915050600190039060005260206000200160009091909190916101000a81548173ffffffffffffffffffffffffffffffffffffffff021916908373ffffffffffffffffffffffffffffffffffffffff160217905550604051806080016040528085858080601f016020809104026020016040519081016040528093929190818152602001838380828437600081840152601f19601f8201169050808301925050505050505081526020018381526020018673ffffffffffffffffffffffffffffffffffffffff16815260200160011515815250600260008773ffffffffffffffffffffffffffffffffffffffff1673ffffffffffffffffffffffffffffffffffffffff1681526020019081526020016000206000820151816000019080519060200190610665929190610b87565b506020820151816001015560408201518160020160006101000a81548173ffffffffffffffffffffffffffffffffffffffff021916908373ffffffffffffffffffffffffffffffffffffffff16021790555060608201518160020160146101000a81548160ff0219169083151502179055509050505050505050565b6106e9610c0d565b3373ffffffffffffffffffffffffffffffffffffffff1660008054906101000a900473ffffffffffffffffffffffffffffffffffffffff1673ffffffffffffffffffffffffffffffffffffffff161415610778576040517f08c379a000000000000000000000000000000000000000000000000000000000815260040161076f9061128a565b60405180910390fd5b816000600560008381526020019081526020016000208054610799906112d9565b9050106107db576040517f08c379a00000000000000000000000000000000000000000000000000000000081526004016107d29061142f565b60405180910390fd5b836000600360008381526020019081526020016000206003015411610835576040517f08c379a000000000000000000000000000000000000000000000000000000000815260040161082c906113c3565b60405180910390fd5b6000600560008681526020019081526020016000208054610855906112d9565b80601f0160208091040260200160405190810160405280929190818152602001828054610881906112d9565b80156108ce5780601f106108a3576101008083540402835291602001916108ce565b820191906000526020600020905b8154815290600101906020018083116108b157829003601f168201915b50505050509050604051806080016040528089898080601f016020809104026020016040519081016040528093929190818152602001838380828437600081840152601f19601f8201169050808301925050505050505081526020018281526020018681526020018781525093508360036000888152602001908152602001600020600082015181600001908051906020019061096c929190610b87565b506020820151816001019080519060200190610989929190610b87565b506040820151816002015560608201518160030155905050600484908060018154018082558091505060019003906000526020600020906004020160009091909190915060008201518160000190805190602001906109e9929190610b87565b506020820151816001019080519060200190610a06929190610b87565b5060408201518160020155606082015181600301555050505050949350505050565b60606006805480602002602001604051908101604052809291908181526020016000905b82821015610af8578382906000526020600020018054610a6b906112d9565b80601f0160208091040260200160405190810160405280929190818152602001828054610a97906112d9565b8015610ae45780601f10610ab957610100808354040283529160200191610ae4565b820191906000526020600020905b815481529060010190602001808311610ac757829003601f168201915b505050505081526020019060010190610a4c565b50505050905090565b828054610b0d906112d9565b90600052602060002090601f016020900481019282610b2f5760008555610b76565b82601f10610b4857803560ff1916838001178555610b76565b82800160010185558215610b76579182015b82811115610b75578235825591602001919060010190610b5a565b5b509050610b839190610c35565b5090565b828054610b93906112d9565b90600052602060002090601f016020900481019282610bb55760008555610bfc565b82601f10610bce57805160ff1916838001178555610bfc565b82800160010185558215610bfc579182015b82811115610bfb578251825591602001919060010190610be0565b5b509050610c099190610c35565b5090565b6040518060800160405280606081526020016060815260200160008152602001600081525090565b5b80821115610c4e576000816000905550600101610c36565b5090565b600080fd5b600080fd5b600080fd5b600080fd5b600080fd5b60008083601f840112610c8157610c80610c5c565b5b8235905067ffffffffffffffff811115610c9e57610c9d610c61565b5b602083019150836001820283011115610cba57610cb9610c66565b5b9250929050565b6000819050919050565b610cd481610cc1565b8114610cdf57600080fd5b50565b600081359050610cf181610ccb565b92915050565b600080600060408486031215610d1057610d0f610c52565b5b600084013567ffffffffffffffff811115610d2e57610d2d610c57565b5b610d3a86828701610c6b565b93509350506020610d4d86828701610ce2565b9150509250925092565b600081519050919050565b600082825260208201905092915050565b6000819050602082019050919050565b600081519050919050565b600082825260208201905092915050565b60005b83811015610dbd578082015181840152602081019050610da2565b83811115610dcc576000848401525b50505050565b6000601f19601f8301169050919050565b6000610dee82610d83565b610df88185610d8e565b9350610e08818560208601610d9f565b610e1181610dd2565b840191505092915050565b610e2581610cc1565b82525050565b60006080830160008301518482036000860152610e488282610de3565b91505060208301518482036020860152610e628282610de3565b9150506040830151610e776040860182610e1c565b506060830151610e8a6060860182610e1c565b508091505092915050565b6000610ea18383610e2b565b905092915050565b6000602082019050919050565b6000610ec182610d57565b610ecb8185610d62565b935083602082028501610edd85610d73565b8060005b85811015610f195784840389528151610efa8582610e95565b9450610f0583610ea9565b925060208a01995050600181019050610ee1565b50829750879550505050505092915050565b60006020820190508181036000830152610f458184610eb6565b905092915050565b600073ffffffffffffffffffffffffffffffffffffffff82169050919050565b6000610f7882610f4d565b9050919050565b610f8881610f6d565b82525050565b6000602082019050610fa36000830184610f7f565b92915050565b610fb281610f6d565b8114610fbd57600080fd5b50565b600081359050610fcf81610fa9565b92915050565b60008060008060608587031215610fef57610fee610c52565b5b6000610ffd87828801610fc0565b945050602085013567ffffffffffffffff81111561101e5761101d610c57565b5b61102a87828801610c6b565b9350935050604061103d87828801610ce2565b91505092959194509250565b6000806000806060858703121561106357611062610c52565b5b600085013567ffffffffffffffff81111561108157611080610c57565b5b61108d87828801610c6b565b945094505060206110a087828801610ce2565b92505060406110b187828801610ce2565b91505092959194509250565b600060808301600083015184820360008601526110da8282610de3565b915050602083015184820360208601526110f48282610de3565b91505060408301516111096040860182610e1c565b50606083015161111c6060860182610e1c565b508091505092915050565b6000602082019050818103600083015261114181846110bd565b905092915050565b600081519050919050565b600082825260208201905092915050565b6000819050602082019050919050565b60006111818383610de3565b905092915050565b6000602082019050919050565b60006111a182611149565b6111ab8185611154565b9350836020820285016111bd85611165565b8060005b858110156111f957848403895281516111da8582611175565b94506111e583611189565b925060208a019950506001810190506111c1565b50829750879550505050505092915050565b600060208201905081810360008301526112258184611196565b905092915050565b600082825260208201905092915050565b7f796f752063616e206e6f7420616464206f6666696369616c0000000000000000600082015250565b600061127460188361122d565b915061127f8261123e565b602082019050919050565b600060208201905081810360008301526112a381611267565b9050919050565b7f4e487b7100000000000000000000000000000000000000000000000000000000600052602260045260246000fd5b600060028204905060018216806112f157607f821691505b60208210811415611305576113046112aa565b5b50919050565b7f737461746520616c726561647920657869737400000000000000000000000000600082015250565b600061134160138361122d565b915061134c8261130b565b602082019050919050565b6000602082019050818103600083015261137081611334565b9050919050565b7f6c6f63616c20676f7665726e6d656e7420616c72656164792065786973740000600082015250565b60006113ad601e8361122d565b91506113b882611377565b602082019050919050565b600060208201905081810360008301526113dc816113a0565b9050919050565b7f737461746520646f6573206e6f74206578697374000000000000000000000000600082015250565b600061141960148361122d565b9150611424826113e3565b602082019050919050565b600060208201905081810360008301526114488161140c565b905091905056fea2646970667358221220e1876aa8f1e03a913ae02fc5bcb34b3260711216dff9f91fe7a2e48b0b46473a64736f6c63430008080033",
					"opcodes": "PUSH1 0x80 PUSH1 0x40 MSTORE CALLVALUE DUP1 ISZERO PUSH2 0x10 JUMPI PUSH1 0x0 DUP1 REVERT JUMPDEST POP CALLER PUSH1 0x0 DUP1 PUSH2 0x100 EXP DUP2 SLOAD DUP2 PUSH20 0xFFFFFFFFFFFFFFFFFFFFFFFFFFFFFFFFFFFFFFFF MUL NOT AND SWAP1 DUP4 PUSH20 0xFFFFFFFFFFFFFFFFFFFFFFFFFFFFFFFFFFFFFFFF AND MUL OR SWAP1 SSTORE POP PUSH2 0x1485 DUP1 PUSH2 0x60 PUSH1 0x0 CODECOPY PUSH1 0x0 RETURN INVALID PUSH1 0x80 PUSH1 0x40 MSTORE CALLVALUE DUP1 ISZERO PUSH2 0x10 JUMPI PUSH1 0x0 DUP1 REVERT JUMPDEST POP PUSH1 0x4 CALLDATASIZE LT PUSH2 0x62 JUMPI PUSH1 0x0 CALLDATALOAD PUSH1 0xE0 SHR DUP1 PUSH4 0x5C060B79 EQ PUSH2 0x67 JUMPI DUP1 PUSH4 0x6B935B86 EQ PUSH2 0x83 JUMPI DUP1 PUSH4 0x893D20E8 EQ PUSH2 0xA1 JUMPI DUP1 PUSH4 0xAA709075 EQ PUSH2 0xBF JUMPI DUP1 PUSH4 0xC86B6C6B EQ PUSH2 0xDB JUMPI DUP1 PUSH4 0xD8AB8274 EQ PUSH2 0x10B JUMPI JUMPDEST PUSH1 0x0 DUP1 REVERT JUMPDEST PUSH2 0x81 PUSH1 0x4 DUP1 CALLDATASIZE SUB DUP2 ADD SWAP1 PUSH2 0x7C SWAP2 SWAP1 PUSH2 0xCF7 JUMP JUMPDEST PUSH2 0x129 JUMP JUMPDEST STOP JUMPDEST PUSH2 0x8B PUSH2 0x280 JUMP JUMPDEST PUSH1 0x40 MLOAD PUSH2 0x98 SWAP2 SWAP1 PUSH2 0xF2B JUMP JUMPDEST PUSH1 0x40 MLOAD DUP1 SWAP2 SUB SWAP1 RETURN JUMPDEST PUSH2 0xA9 PUSH2 0x417 JUMP JUMPDEST PUSH1 0x40 MLOAD PUSH2 0xB6 SWAP2 SWAP1 PUSH2 0xF8E JUMP JUMPDEST PUSH1 0x40 MLOAD DUP1 SWAP2 SUB SWAP1 RETURN JUMPDEST PUSH2 0xD9 PUSH1 0x4 DUP1 CALLDATASIZE SUB DUP2 ADD SWAP1 PUSH2 0xD4 SWAP2 SWAP1 PUSH2 0xFD5 JUMP JUMPDEST PUSH2 0x440 JUMP JUMPDEST STOP JUMPDEST PUSH2 0xF5 PUSH1 0x4 DUP1 CALLDATASIZE SUB DUP2 ADD SWAP1 PUSH2 0xF0 SWAP2 SWAP1 PUSH2 0x1049 JUMP JUMPDEST PUSH2 0x6E1 JUMP JUMPDEST PUSH1 0x40 MLOAD PUSH2 0x102 SWAP2 SWAP1 PUSH2 0x1127 JUMP JUMPDEST PUSH1 0x40 MLOAD DUP1 SWAP2 SUB SWAP1 RETURN JUMPDEST PUSH2 0x113 PUSH2 0xA28 JUMP JUMPDEST PUSH1 0x40 MLOAD PUSH2 0x120 SWAP2 SWAP1 PUSH2 0x120B JUMP JUMPDEST PUSH1 0x40 MLOAD DUP1 SWAP2 SUB SWAP1 RETURN JUMPDEST CALLER PUSH20 0xFFFFFFFFFFFFFFFFFFFFFFFFFFFFFFFFFFFFFFFF AND PUSH1 0x0 DUP1 SLOAD SWAP1 PUSH2 0x100 EXP SWAP1 DIV PUSH20 0xFFFFFFFFFFFFFFFFFFFFFFFFFFFFFFFFFFFFFFFF AND PUSH20 0xFFFFFFFFFFFFFFFFFFFFFFFFFFFFFFFFFFFFFFFF AND EQ ISZERO PUSH2 0x1B8 JUMPI PUSH1 0x40 MLOAD PUSH32 0x8C379A000000000000000000000000000000000000000000000000000000000 DUP2 MSTORE PUSH1 0x4 ADD PUSH2 0x1AF SWAP1 PUSH2 0x128A JUMP JUMPDEST PUSH1 0x40 MLOAD DUP1 SWAP2 SUB SWAP1 REVERT JUMPDEST PUSH1 0x0 PUSH1 0x5 PUSH1 0x0 DUP4 DUP2 MSTORE PUSH1 0x20 ADD SWAP1 DUP2 MSTORE PUSH1 0x20 ADD PUSH1 0x0 KECCAK256 DUP1 SLOAD PUSH2 0x1D8 SWAP1 PUSH2 0x12D9 JUMP JUMPDEST SWAP1 POP GT PUSH2 0x21A JUMPI PUSH1 0x40 MLOAD PUSH32 0x8C379A000000000000000000000000000000000000000000000000000000000 DUP2 MSTORE PUSH1 0x4 ADD PUSH2 0x211 SWAP1 PUSH2 0x1357 JUMP JUMPDEST PUSH1 0x40 MLOAD DUP1 SWAP2 SUB SWAP1 REVERT JUMPDEST DUP3 DUP3 PUSH1 0x5 PUSH1 0x0 DUP5 DUP2 MSTORE PUSH1 0x20 ADD SWAP1 DUP2 MSTORE PUSH1 0x20 ADD PUSH1 0x0 KECCAK256 SWAP2 SWAP1 PUSH2 0x23C SWAP3 SWAP2 SWAP1 PUSH2 0xB01 JUMP JUMPDEST POP PUSH1 0x6 DUP4 DUP4 SWAP1 SWAP2 DUP1 PUSH1 0x1 DUP2 SLOAD ADD DUP1 DUP3 SSTORE DUP1 SWAP2 POP POP PUSH1 0x1 SWAP1 SUB SWAP1 PUSH1 0x0 MSTORE PUSH1 0x20 PUSH1 0x0 KECCAK256 ADD PUSH1 0x0 SWAP1 SWAP2 SWAP3 SWAP1 SWAP2 SWAP3 SWAP1 SWAP2 SWAP3 SWAP1 SWAP2 SWAP3 POP SWAP2 SWAP1 PUSH2 0x27A SWAP3 SWAP2 SWAP1 PUSH2 0xB01 JUMP JUMPDEST POP POP POP POP JUMP JUMPDEST PUSH1 0x60 PUSH1 0x4 DUP1 SLOAD DUP1 PUSH1 0x20 MUL PUSH1 0x20 ADD PUSH1 0x40 MLOAD SWAP1 DUP2 ADD PUSH1 0x40 MSTORE DUP1 SWAP3 SWAP2 SWAP1 DUP2 DUP2 MSTORE PUSH1 0x20 ADD PUSH1 0x0 SWAP1 JUMPDEST DUP3 DUP3 LT ISZERO PUSH2 0x40E JUMPI DUP4 DUP3 SWAP1 PUSH1 0x0 MSTORE PUSH1 0x20 PUSH1 0x0 KECCAK256 SWAP1 PUSH1 0x4 MUL ADD PUSH1 0x40 MLOAD DUP1 PUSH1 0x80 ADD PUSH1 0x40 MSTORE SWAP1 DUP2 PUSH1 0x0 DUP3 ADD DUP1 SLOAD PUSH2 0x2D7 SWAP1 PUSH2 0x12D9 JUMP JUMPDEST DUP1 PUSH1 0x1F ADD PUSH1 0x20 DUP1 SWAP2 DIV MUL PUSH1 0x20 ADD PUSH1 0x40 MLOAD SWAP1 DUP2 ADD PUSH1 0x40 MSTORE DUP1 SWAP3 SWAP2 SWAP1 DUP2 DUP2 MSTORE PUSH1 0x20 ADD DUP3 DUP1 SLOAD PUSH2 0x303 SWAP1 PUSH2 0x12D9 JUMP JUMPDEST DUP1 ISZERO PUSH2 0x350 JUMPI DUP1 PUSH1 0x1F LT PUSH2 0x325 JUMPI PUSH2 0x100 DUP1 DUP4 SLOAD DIV MUL DUP4 MSTORE SWAP2 PUSH1 0x20 ADD SWAP2 PUSH2 0x350 JUMP JUMPDEST DUP3 ADD SWAP2 SWAP1 PUSH1 0x0 MSTORE PUSH1 0x20 PUSH1 0x0 KECCAK256 SWAP1 JUMPDEST DUP2 SLOAD DUP2 MSTORE SWAP1 PUSH1 0x1 ADD SWAP1 PUSH1 0x20 ADD DUP1 DUP4 GT PUSH2 0x333 JUMPI DUP3 SWAP1 SUB PUSH1 0x1F AND DUP3 ADD SWAP2 JUMPDEST POP POP POP POP POP DUP2 MSTORE PUSH1 0x20 ADD PUSH1 0x1 DUP3 ADD DUP1 SLOAD PUSH2 0x369 SWAP1 PUSH2 0x12D9 JUMP JUMPDEST DUP1 PUSH1 0x1F ADD PUSH1 0x20 DUP1 SWAP2 DIV MUL PUSH1 0x20 ADD PUSH1 0x40 MLOAD SWAP1 DUP2 ADD PUSH1 0x40 MSTORE DUP1 SWAP3 SWAP2 SWAP1 DUP2 DUP2 MSTORE PUSH1 0x20 ADD DUP3 DUP1 SLOAD PUSH2 0x395 SWAP1 PUSH2 0x12D9 JUMP JUMPDEST DUP1 ISZERO PUSH2 0x3E2 JUMPI DUP1 PUSH1 0x1F LT PUSH2 0x3B7 JUMPI PUSH2 0x100 DUP1 DUP4 SLOAD DIV MUL DUP4 MSTORE SWAP2 PUSH1 0x20 ADD SWAP2 PUSH2 0x3E2 JUMP JUMPDEST DUP3 ADD SWAP2 SWAP1 PUSH1 0x0 MSTORE PUSH1 0x20 PUSH1 0x0 KECCAK256 SWAP1 JUMPDEST DUP2 SLOAD DUP2 MSTORE SWAP1 PUSH1 0x1 ADD SWAP1 PUSH1 0x20 ADD DUP1 DUP4 GT PUSH2 0x3C5 JUMPI DUP3 SWAP1 SUB PUSH1 0x1F AND DUP3 ADD SWAP2 JUMPDEST POP POP POP POP POP DUP2 MSTORE PUSH1 0x20 ADD PUSH1 0x2 DUP3 ADD SLOAD DUP2 MSTORE PUSH1 0x20 ADD PUSH1 0x3 DUP3 ADD SLOAD DUP2 MSTORE POP POP DUP2 MSTORE PUSH1 0x20 ADD SWAP1 PUSH1 0x1 ADD SWAP1 PUSH2 0x2A4 JUMP JUMPDEST POP POP POP POP SWAP1 POP SWAP1 JUMP JUMPDEST PUSH1 0x0 DUP1 PUSH1 0x0 SWAP1 SLOAD SWAP1 PUSH2 0x100 EXP SWAP1 DIV PUSH20 0xFFFFFFFFFFFFFFFFFFFFFFFFFFFFFFFFFFFFFFFF AND SWAP1 POP SWAP1 JUMP JUMPDEST CALLER PUSH20 0xFFFFFFFFFFFFFFFFFFFFFFFFFFFFFFFFFFFFFFFF AND PUSH1 0x0 DUP1 SLOAD SWAP1 PUSH2 0x100 EXP SWAP1 DIV PUSH20 0xFFFFFFFFFFFFFFFFFFFFFFFFFFFFFFFFFFFFFFFF AND PUSH20 0xFFFFFFFFFFFFFFFFFFFFFFFFFFFFFFFFFFFFFFFF AND EQ ISZERO PUSH2 0x4CF JUMPI PUSH1 0x40 MLOAD PUSH32 0x8C379A000000000000000000000000000000000000000000000000000000000 DUP2 MSTORE PUSH1 0x4 ADD PUSH2 0x4C6 SWAP1 PUSH2 0x128A JUMP JUMPDEST PUSH1 0x40 MLOAD DUP1 SWAP2 SUB SWAP1 REVERT JUMPDEST DUP1 PUSH1 0x0 PUSH1 0x3 PUSH1 0x0 DUP4 DUP2 MSTORE PUSH1 0x20 ADD SWAP1 DUP2 MSTORE PUSH1 0x20 ADD PUSH1 0x0 KECCAK256 PUSH1 0x3 ADD SLOAD GT PUSH2 0x529 JUMPI PUSH1 0x40 MLOAD PUSH32 0x8C379A000000000000000000000000000000000000000000000000000000000 DUP2 MSTORE PUSH1 0x4 ADD PUSH2 0x520 SWAP1 PUSH2 0x13C3 JUMP JUMPDEST PUSH1 0x40 MLOAD DUP1 SWAP2 SUB SWAP1 REVERT JUMPDEST PUSH1 0x1 DUP6 SWAP1 DUP1 PUSH1 0x1 DUP2 SLOAD ADD DUP1 DUP3 SSTORE DUP1 SWAP2 POP POP PUSH1 0x1 SWAP1 SUB SWAP1 PUSH1 0x0 MSTORE PUSH1 0x20 PUSH1 0x0 KECCAK256 ADD PUSH1 0x0 SWAP1 SWAP2 SWAP1 SWAP2 SWAP1 SWAP2 PUSH2 0x100 EXP DUP2 SLOAD DUP2 PUSH20 0xFFFFFFFFFFFFFFFFFFFFFFFFFFFFFFFFFFFFFFFF MUL NOT AND SWAP1 DUP4 PUSH20 0xFFFFFFFFFFFFFFFFFFFFFFFFFFFFFFFFFFFFFFFF AND MUL OR SWAP1 SSTORE POP PUSH1 0x40 MLOAD DUP1 PUSH1 0x80 ADD PUSH1 0x40 MSTORE DUP1 DUP6 DUP6 DUP1 DUP1 PUSH1 0x1F ADD PUSH1 0x20 DUP1 SWAP2 DIV MUL PUSH1 0x20 ADD PUSH1 0x40 MLOAD SWAP1 DUP2 ADD PUSH1 0x40 MSTORE DUP1 SWAP4 SWAP3 SWAP2 SWAP1 DUP2 DUP2 MSTORE PUSH1 0x20 ADD DUP4 DUP4 DUP1 DUP3 DUP5 CALLDATACOPY PUSH1 0x0 DUP2 DUP5 ADD MSTORE PUSH1 0x1F NOT PUSH1 0x1F DUP3 ADD AND SWAP1 POP DUP1 DUP4 ADD SWAP3 POP POP POP POP POP POP POP DUP2 MSTORE PUSH1 0x20 ADD DUP4 DUP2 MSTORE PUSH1 0x20 ADD DUP7 PUSH20 0xFFFFFFFFFFFFFFFFFFFFFFFFFFFFFFFFFFFFFFFF AND DUP2 MSTORE PUSH1 0x20 ADD PUSH1 0x1 ISZERO ISZERO DUP2 MSTORE POP PUSH1 0x2 PUSH1 0x0 DUP8 PUSH20 0xFFFFFFFFFFFFFFFFFFFFFFFFFFFFFFFFFFFFFFFF AND PUSH20 0xFFFFFFFFFFFFFFFFFFFFFFFFFFFFFFFFFFFFFFFF AND DUP2 MSTORE PUSH1 0x20 ADD SWAP1 DUP2 MSTORE PUSH1 0x20 ADD PUSH1 0x0 KECCAK256 PUSH1 0x0 DUP3 ADD MLOAD DUP2 PUSH1 0x0 ADD SWAP1 DUP1 MLOAD SWAP1 PUSH1 0x20 ADD SWAP1 PUSH2 0x665 SWAP3 SWAP2 SWAP1 PUSH2 0xB87 JUMP JUMPDEST POP PUSH1 0x20 DUP3 ADD MLOAD DUP2 PUSH1 0x1 ADD SSTORE PUSH1 0x40 DUP3 ADD MLOAD DUP2 PUSH1 0x2 ADD PUSH1 0x0 PUSH2 0x100 EXP DUP2 SLOAD DUP2 PUSH20 0xFFFFFFFFFFFFFFFFFFFFFFFFFFFFFFFFFFFFFFFF MUL NOT AND SWAP1 DUP4 PUSH20 0xFFFFFFFFFFFFFFFFFFFFFFFFFFFFFFFFFFFFFFFF AND MUL OR SWAP1 SSTORE POP PUSH1 0x60 DUP3 ADD MLOAD DUP2 PUSH1 0x2 ADD PUSH1 0x14 PUSH2 0x100 EXP DUP2 SLOAD DUP2 PUSH1 0xFF MUL NOT AND SWAP1 DUP4 ISZERO ISZERO MUL OR SWAP1 SSTORE POP SWAP1 POP POP POP POP POP POP POP JUMP JUMPDEST PUSH2 0x6E9 PUSH2 0xC0D JUMP JUMPDEST CALLER PUSH20 0xFFFFFFFFFFFFFFFFFFFFFFFFFFFFFFFFFFFFFFFF AND PUSH1 0x0 DUP1 SLOAD SWAP1 PUSH2 0x100 EXP SWAP1 DIV PUSH20 0xFFFFFFFFFFFFFFFFFFFFFFFFFFFFFFFFFFFFFFFF AND PUSH20 0xFFFFFFFFFFFFFFFFFFFFFFFFFFFFFFFFFFFFFFFF AND EQ ISZERO PUSH2 0x778 JUMPI PUSH1 0x40 MLOAD PUSH32 0x8C379A000000000000000000000000000000000000000000000000000000000 DUP2 MSTORE PUSH1 0x4 ADD PUSH2 0x76F SWAP1 PUSH2 0x128A JUMP JUMPDEST PUSH1 0x40 MLOAD DUP1 SWAP2 SUB SWAP1 REVERT JUMPDEST DUP2 PUSH1 0x0 PUSH1 0x5 PUSH1 0x0 DUP4 DUP2 MSTORE PUSH1 0x20 ADD SWAP1 DUP2 MSTORE PUSH1 0x20 ADD PUSH1 0x0 KECCAK256 DUP1 SLOAD PUSH2 0x799 SWAP1 PUSH2 0x12D9 JUMP JUMPDEST SWAP1 POP LT PUSH2 0x7DB JUMPI PUSH1 0x40 MLOAD PUSH32 0x8C379A000000000000000000000000000000000000000000000000000000000 DUP2 MSTORE PUSH1 0x4 ADD PUSH2 0x7D2 SWAP1 PUSH2 0x142F JUMP JUMPDEST PUSH1 0x40 MLOAD DUP1 SWAP2 SUB SWAP1 REVERT JUMPDEST DUP4 PUSH1 0x0 PUSH1 0x3 PUSH1 0x0 DUP4 DUP2 MSTORE PUSH1 0x20 ADD SWAP1 DUP2 MSTORE PUSH1 0x20 ADD PUSH1 0x0 KECCAK256 PUSH1 0x3 ADD SLOAD GT PUSH2 0x835 JUMPI PUSH1 0x40 MLOAD PUSH32 0x8C379A000000000000000000000000000000000000000000000000000000000 DUP2 MSTORE PUSH1 0x4 ADD PUSH2 0x82C SWAP1 PUSH2 0x13C3 JUMP JUMPDEST PUSH1 0x40 MLOAD DUP1 SWAP2 SUB SWAP1 REVERT JUMPDEST PUSH1 0x0 PUSH1 0x5 PUSH1 0x0 DUP7 DUP2 MSTORE PUSH1 0x20 ADD SWAP1 DUP2 MSTORE PUSH1 0x20 ADD PUSH1 0x0 KECCAK256 DUP1 SLOAD PUSH2 0x855 SWAP1 PUSH2 0x12D9 JUMP JUMPDEST DUP1 PUSH1 0x1F ADD PUSH1 0x20 DUP1 SWAP2 DIV MUL PUSH1 0x20 ADD PUSH1 0x40 MLOAD SWAP1 DUP2 ADD PUSH1 0x40 MSTORE DUP1 SWAP3 SWAP2 SWAP1 DUP2 DUP2 MSTORE PUSH1 0x20 ADD DUP3 DUP1 SLOAD PUSH2 0x881 SWAP1 PUSH2 0x12D9 JUMP JUMPDEST DUP1 ISZERO PUSH2 0x8CE JUMPI DUP1 PUSH1 0x1F LT PUSH2 0x8A3 JUMPI PUSH2 0x100 DUP1 DUP4 SLOAD DIV MUL DUP4 MSTORE SWAP2 PUSH1 0x20 ADD SWAP2 PUSH2 0x8CE JUMP JUMPDEST DUP3 ADD SWAP2 SWAP1 PUSH1 0x0 MSTORE PUSH1 0x20 PUSH1 0x0 KECCAK256 SWAP1 JUMPDEST DUP2 SLOAD DUP2 MSTORE SWAP1 PUSH1 0x1 ADD SWAP1 PUSH1 0x20 ADD DUP1 DUP4 GT PUSH2 0x8B1 JUMPI DUP3 SWAP1 SUB PUSH1 0x1F AND DUP3 ADD SWAP2 JUMPDEST POP POP POP POP POP SWAP1 POP PUSH1 0x40 MLOAD DUP1 PUSH1 0x80 ADD PUSH1 0x40 MSTORE DUP1 DUP10 DUP10 DUP1 DUP1 PUSH1 0x1F ADD PUSH1 0x20 DUP1 SWAP2 DIV MUL PUSH1 0x20 ADD PUSH1 0x40 MLOAD SWAP1 DUP2 ADD PUSH1 0x40 MSTORE DUP1 SWAP4 SWAP3 SWAP2 SWAP1 DUP2 DUP2 MSTORE PUSH1 0x20 ADD DUP4 DUP4 DUP1 DUP3 DUP5 CALLDATACOPY PUSH1 0x0 DUP2 DUP5 ADD MSTORE PUSH1 0x1F NOT PUSH1 0x1F DUP3 ADD AND SWAP1 POP DUP1 DUP4 ADD SWAP3 POP POP POP POP POP POP POP DUP2 MSTORE PUSH1 0x20 ADD DUP3 DUP2 MSTORE PUSH1 0x20 ADD DUP7 DUP2 MSTORE PUSH1 0x20 ADD DUP8 DUP2 MSTORE POP SWAP4 POP DUP4 PUSH1 0x3 PUSH1 0x0 DUP9 DUP2 MSTORE PUSH1 0x20 ADD SWAP1 DUP2 MSTORE PUSH1 0x20 ADD PUSH1 0x0 KECCAK256 PUSH1 0x0 DUP3 ADD MLOAD DUP2 PUSH1 0x0 ADD SWAP1 DUP1 MLOAD SWAP1 PUSH1 0x20 ADD SWAP1 PUSH2 0x96C SWAP3 SWAP2 SWAP1 PUSH2 0xB87 JUMP JUMPDEST POP PUSH1 0x20 DUP3 ADD MLOAD DUP2 PUSH1 0x1 ADD SWAP1 DUP1 MLOAD SWAP1 PUSH1 0x20 ADD SWAP1 PUSH2 0x989 SWAP3 SWAP2 SWAP1 PUSH2 0xB87 JUMP JUMPDEST POP PUSH1 0x40 DUP3 ADD MLOAD DUP2 PUSH1 0x2 ADD SSTORE PUSH1 0x60 DUP3 ADD MLOAD DUP2 PUSH1 0x3 ADD SSTORE SWAP1 POP POP PUSH1 0x4 DUP5 SWAP1 DUP1 PUSH1 0x1 DUP2 SLOAD ADD DUP1 DUP3 SSTORE DUP1 SWAP2 POP POP PUSH1 0x1 SWAP1 SUB SWAP1 PUSH1 0x0 MSTORE PUSH1 0x20 PUSH1 0x0 KECCAK256 SWAP1 PUSH1 0x4 MUL ADD PUSH1 0x0 SWAP1 SWAP2 SWAP1 SWAP2 SWAP1 SWAP2 POP PUSH1 0x0 DUP3 ADD MLOAD DUP2 PUSH1 0x0 ADD SWAP1 DUP1 MLOAD SWAP1 PUSH1 0x20 ADD SWAP1 PUSH2 0x9E9 SWAP3 SWAP2 SWAP1 PUSH2 0xB87 JUMP JUMPDEST POP PUSH1 0x20 DUP3 ADD MLOAD DUP2 PUSH1 0x1 ADD SWAP1 DUP1 MLOAD SWAP1 PUSH1 0x20 ADD SWAP1 PUSH2 0xA06 SWAP3 SWAP2 SWAP1 PUSH2 0xB87 JUMP JUMPDEST POP PUSH1 0x40 DUP3 ADD MLOAD DUP2 PUSH1 0x2 ADD SSTORE PUSH1 0x60 DUP3 ADD MLOAD DUP2 PUSH1 0x3 ADD SSTORE POP POP POP POP POP SWAP5 SWAP4 POP POP POP POP JUMP JUMPDEST PUSH1 0x60 PUSH1 0x6 DUP1 SLOAD DUP1 PUSH1 0x20 MUL PUSH1 0x20 ADD PUSH1 0x40 MLOAD SWAP1 DUP2 ADD PUSH1 0x40 MSTORE DUP1 SWAP3 SWAP2 SWAP1 DUP2 DUP2 MSTORE PUSH1 0x20 ADD PUSH1 0x0 SWAP1 JUMPDEST DUP3 DUP3 LT ISZERO PUSH2 0xAF8 JUMPI DUP4 DUP3 SWAP1 PUSH1 0x0 MSTORE PUSH1 0x20 PUSH1 0x0 KECCAK256 ADD DUP1 SLOAD PUSH2 0xA6B SWAP1 PUSH2 0x12D9 JUMP JUMPDEST DUP1 PUSH1 0x1F ADD PUSH1 0x20 DUP1 SWAP2 DIV MUL PUSH1 0x20 ADD PUSH1 0x40 MLOAD SWAP1 DUP2 ADD PUSH1 0x40 MSTORE DUP1 SWAP3 SWAP2 SWAP1 DUP2 DUP2 MSTORE PUSH1 0x20 ADD DUP3 DUP1 SLOAD PUSH2 0xA97 SWAP1 PUSH2 0x12D9 JUMP JUMPDEST DUP1 ISZERO PUSH2 0xAE4 JUMPI DUP1 PUSH1 0x1F LT PUSH2 0xAB9 JUMPI PUSH2 0x100 DUP1 DUP4 SLOAD DIV MUL DUP4 MSTORE SWAP2 PUSH1 0x20 ADD SWAP2 PUSH2 0xAE4 JUMP JUMPDEST DUP3 ADD SWAP2 SWAP1 PUSH1 0x0 MSTORE PUSH1 0x20 PUSH1 0x0 KECCAK256 SWAP1 JUMPDEST DUP2 SLOAD DUP2 MSTORE SWAP1 PUSH1 0x1 ADD SWAP1 PUSH1 0x20 ADD DUP1 DUP4 GT PUSH2 0xAC7 JUMPI DUP3 SWAP1 SUB PUSH1 0x1F AND DUP3 ADD SWAP2 JUMPDEST POP POP POP POP POP DUP2 MSTORE PUSH1 0x20 ADD SWAP1 PUSH1 0x1 ADD SWAP1 PUSH2 0xA4C JUMP JUMPDEST POP POP POP POP SWAP1 POP SWAP1 JUMP JUMPDEST DUP3 DUP1 SLOAD PUSH2 0xB0D SWAP1 PUSH2 0x12D9 JUMP JUMPDEST SWAP1 PUSH1 0x0 MSTORE PUSH1 0x20 PUSH1 0x0 KECCAK256 SWAP1 PUSH1 0x1F ADD PUSH1 0x20 SWAP1 DIV DUP2 ADD SWAP3 DUP3 PUSH2 0xB2F JUMPI PUSH1 0x0 DUP6 SSTORE PUSH2 0xB76 JUMP JUMPDEST DUP3 PUSH1 0x1F LT PUSH2 0xB48 JUMPI DUP1 CALLDATALOAD PUSH1 0xFF NOT AND DUP4 DUP1 ADD OR DUP6 SSTORE PUSH2 0xB76 JUMP JUMPDEST DUP3 DUP1 ADD PUSH1 0x1 ADD DUP6 SSTORE DUP3 ISZERO PUSH2 0xB76 JUMPI SWAP2 DUP3 ADD JUMPDEST DUP3 DUP2 GT ISZERO PUSH2 0xB75 JUMPI DUP3 CALLDATALOAD DUP3 SSTORE SWAP2 PUSH1 0x20 ADD SWAP2 SWAP1 PUSH1 0x1 ADD SWAP1 PUSH2 0xB5A JUMP JUMPDEST JUMPDEST POP SWAP1 POP PUSH2 0xB83 SWAP2 SWAP1 PUSH2 0xC35 JUMP JUMPDEST POP SWAP1 JUMP JUMPDEST DUP3 DUP1 SLOAD PUSH2 0xB93 SWAP1 PUSH2 0x12D9 JUMP JUMPDEST SWAP1 PUSH1 0x0 MSTORE PUSH1 0x20 PUSH1 0x0 KECCAK256 SWAP1 PUSH1 0x1F ADD PUSH1 0x20 SWAP1 DIV DUP2 ADD SWAP3 DUP3 PUSH2 0xBB5 JUMPI PUSH1 0x0 DUP6 SSTORE PUSH2 0xBFC JUMP JUMPDEST DUP3 PUSH1 0x1F LT PUSH2 0xBCE JUMPI DUP1 MLOAD PUSH1 0xFF NOT AND DUP4 DUP1 ADD OR DUP6 SSTORE PUSH2 0xBFC JUMP JUMPDEST DUP3 DUP1 ADD PUSH1 0x1 ADD DUP6 SSTORE DUP3 ISZERO PUSH2 0xBFC JUMPI SWAP2 DUP3 ADD JUMPDEST DUP3 DUP2 GT ISZERO PUSH2 0xBFB JUMPI DUP3 MLOAD DUP3 SSTORE SWAP2 PUSH1 0x20 ADD SWAP2 SWAP1 PUSH1 0x1 ADD SWAP1 PUSH2 0xBE0 JUMP JUMPDEST JUMPDEST POP SWAP1 POP PUSH2 0xC09 SWAP2 SWAP1 PUSH2 0xC35 JUMP JUMPDEST POP SWAP1 JUMP JUMPDEST PUSH1 0x40 MLOAD DUP1 PUSH1 0x80 ADD PUSH1 0x40 MSTORE DUP1 PUSH1 0x60 DUP2 MSTORE PUSH1 0x20 ADD PUSH1 0x60 DUP2 MSTORE PUSH1 0x20 ADD PUSH1 0x0 DUP2 MSTORE PUSH1 0x20 ADD PUSH1 0x0 DUP2 MSTORE POP SWAP1 JUMP JUMPDEST JUMPDEST DUP1 DUP3 GT ISZERO PUSH2 0xC4E JUMPI PUSH1 0x0 DUP2 PUSH1 0x0 SWAP1 SSTORE POP PUSH1 0x1 ADD PUSH2 0xC36 JUMP JUMPDEST POP SWAP1 JUMP JUMPDEST PUSH1 0x0 DUP1 REVERT JUMPDEST PUSH1 0x0 DUP1 REVERT JUMPDEST PUSH1 0x0 DUP1 REVERT JUMPDEST PUSH1 0x0 DUP1 REVERT JUMPDEST PUSH1 0x0 DUP1 REVERT JUMPDEST PUSH1 0x0 DUP1 DUP4 PUSH1 0x1F DUP5 ADD SLT PUSH2 0xC81 JUMPI PUSH2 0xC80 PUSH2 0xC5C JUMP JUMPDEST JUMPDEST DUP3 CALLDATALOAD SWAP1 POP PUSH8 0xFFFFFFFFFFFFFFFF DUP2 GT ISZERO PUSH2 0xC9E JUMPI PUSH2 0xC9D PUSH2 0xC61 JUMP JUMPDEST JUMPDEST PUSH1 0x20 DUP4 ADD SWAP2 POP DUP4 PUSH1 0x1 DUP3 MUL DUP4 ADD GT ISZERO PUSH2 0xCBA JUMPI PUSH2 0xCB9 PUSH2 0xC66 JUMP JUMPDEST JUMPDEST SWAP3 POP SWAP3 SWAP1 POP JUMP JUMPDEST PUSH1 0x0 DUP2 SWAP1 POP SWAP2 SWAP1 POP JUMP JUMPDEST PUSH2 0xCD4 DUP2 PUSH2 0xCC1 JUMP JUMPDEST DUP2 EQ PUSH2 0xCDF JUMPI PUSH1 0x0 DUP1 REVERT JUMPDEST POP JUMP JUMPDEST PUSH1 0x0 DUP2 CALLDATALOAD SWAP1 POP PUSH2 0xCF1 DUP2 PUSH2 0xCCB JUMP JUMPDEST SWAP3 SWAP2 POP POP JUMP JUMPDEST PUSH1 0x0 DUP1 PUSH1 0x0 PUSH1 0x40 DUP5 DUP7 SUB SLT ISZERO PUSH2 0xD10 JUMPI PUSH2 0xD0F PUSH2 0xC52 JUMP JUMPDEST JUMPDEST PUSH1 0x0 DUP5 ADD CALLDATALOAD PUSH8 0xFFFFFFFFFFFFFFFF DUP2 GT ISZERO PUSH2 0xD2E JUMPI PUSH2 0xD2D PUSH2 0xC57 JUMP JUMPDEST JUMPDEST PUSH2 0xD3A DUP7 DUP3 DUP8 ADD PUSH2 0xC6B JUMP JUMPDEST SWAP4 POP SWAP4 POP POP PUSH1 0x20 PUSH2 0xD4D DUP7 DUP3 DUP8 ADD PUSH2 0xCE2 JUMP JUMPDEST SWAP2 POP POP SWAP3 POP SWAP3 POP SWAP3 JUMP JUMPDEST PUSH1 0x0 DUP2 MLOAD SWAP1 POP SWAP2 SWAP1 POP JUMP JUMPDEST PUSH1 0x0 DUP3 DUP3 MSTORE PUSH1 0x20 DUP3 ADD SWAP1 POP SWAP3 SWAP2 POP POP JUMP JUMPDEST PUSH1 0x0 DUP2 SWAP1 POP PUSH1 0x20 DUP3 ADD SWAP1 POP SWAP2 SWAP1 POP JUMP JUMPDEST PUSH1 0x0 DUP2 MLOAD SWAP1 POP SWAP2 SWAP1 POP JUMP JUMPDEST PUSH1 0x0 DUP3 DUP3 MSTORE PUSH1 0x20 DUP3 ADD SWAP1 POP SWAP3 SWAP2 POP POP JUMP JUMPDEST PUSH1 0x0 JUMPDEST DUP4 DUP2 LT ISZERO PUSH2 0xDBD JUMPI DUP1 DUP3 ADD MLOAD DUP2 DUP5 ADD MSTORE PUSH1 0x20 DUP2 ADD SWAP1 POP PUSH2 0xDA2 JUMP JUMPDEST DUP4 DUP2 GT ISZERO PUSH2 0xDCC JUMPI PUSH1 0x0 DUP5 DUP5 ADD MSTORE JUMPDEST POP POP POP POP JUMP JUMPDEST PUSH1 0x0 PUSH1 0x1F NOT PUSH1 0x1F DUP4 ADD AND SWAP1 POP SWAP2 SWAP1 POP JUMP JUMPDEST PUSH1 0x0 PUSH2 0xDEE DUP3 PUSH2 0xD83 JUMP JUMPDEST PUSH2 0xDF8 DUP2 DUP6 PUSH2 0xD8E JUMP JUMPDEST SWAP4 POP PUSH2 0xE08 DUP2 DUP6 PUSH1 0x20 DUP7 ADD PUSH2 0xD9F JUMP JUMPDEST PUSH2 0xE11 DUP2 PUSH2 0xDD2 JUMP JUMPDEST DUP5 ADD SWAP2 POP POP SWAP3 SWAP2 POP POP JUMP JUMPDEST PUSH2 0xE25 DUP2 PUSH2 0xCC1 JUMP JUMPDEST DUP3 MSTORE POP POP JUMP JUMPDEST PUSH1 0x0 PUSH1 0x80 DUP4 ADD PUSH1 0x0 DUP4 ADD MLOAD DUP5 DUP3 SUB PUSH1 0x0 DUP7 ADD MSTORE PUSH2 0xE48 DUP3 DUP3 PUSH2 0xDE3 JUMP JUMPDEST SWAP2 POP POP PUSH1 0x20 DUP4 ADD MLOAD DUP5 DUP3 SUB PUSH1 0x20 DUP7 ADD MSTORE PUSH2 0xE62 DUP3 DUP3 PUSH2 0xDE3 JUMP JUMPDEST SWAP2 POP POP PUSH1 0x40 DUP4 ADD MLOAD PUSH2 0xE77 PUSH1 0x40 DUP7 ADD DUP3 PUSH2 0xE1C JUMP JUMPDEST POP PUSH1 0x60 DUP4 ADD MLOAD PUSH2 0xE8A PUSH1 0x60 DUP7 ADD DUP3 PUSH2 0xE1C JUMP JUMPDEST POP DUP1 SWAP2 POP POP SWAP3 SWAP2 POP POP JUMP JUMPDEST PUSH1 0x0 PUSH2 0xEA1 DUP4 DUP4 PUSH2 0xE2B JUMP JUMPDEST SWAP1 POP SWAP3 SWAP2 POP POP JUMP JUMPDEST PUSH1 0x0 PUSH1 0x20 DUP3 ADD SWAP1 POP SWAP2 SWAP1 POP JUMP JUMPDEST PUSH1 0x0 PUSH2 0xEC1 DUP3 PUSH2 0xD57 JUMP JUMPDEST PUSH2 0xECB DUP2 DUP6 PUSH2 0xD62 JUMP JUMPDEST SWAP4 POP DUP4 PUSH1 0x20 DUP3 MUL DUP6 ADD PUSH2 0xEDD DUP6 PUSH2 0xD73 JUMP JUMPDEST DUP1 PUSH1 0x0 JUMPDEST DUP6 DUP2 LT ISZERO PUSH2 0xF19 JUMPI DUP5 DUP5 SUB DUP10 MSTORE DUP2 MLOAD PUSH2 0xEFA DUP6 DUP3 PUSH2 0xE95 JUMP JUMPDEST SWAP5 POP PUSH2 0xF05 DUP4 PUSH2 0xEA9 JUMP JUMPDEST SWAP3 POP PUSH1 0x20 DUP11 ADD SWAP10 POP POP PUSH1 0x1 DUP2 ADD SWAP1 POP PUSH2 0xEE1 JUMP JUMPDEST POP DUP3 SWAP8 POP DUP8 SWAP6 POP POP POP POP POP POP SWAP3 SWAP2 POP POP JUMP JUMPDEST PUSH1 0x0 PUSH1 0x20 DUP3 ADD SWAP1 POP DUP2 DUP2 SUB PUSH1 0x0 DUP4 ADD MSTORE PUSH2 0xF45 DUP2 DUP5 PUSH2 0xEB6 JUMP JUMPDEST SWAP1 POP SWAP3 SWAP2 POP POP JUMP JUMPDEST PUSH1 0x0 PUSH20 0xFFFFFFFFFFFFFFFFFFFFFFFFFFFFFFFFFFFFFFFF DUP3 AND SWAP1 POP SWAP2 SWAP1 POP JUMP JUMPDEST PUSH1 0x0 PUSH2 0xF78 DUP3 PUSH2 0xF4D JUMP JUMPDEST SWAP1 POP SWAP2 SWAP1 POP JUMP JUMPDEST PUSH2 0xF88 DUP2 PUSH2 0xF6D JUMP JUMPDEST DUP3 MSTORE POP POP JUMP JUMPDEST PUSH1 0x0 PUSH1 0x20 DUP3 ADD SWAP1 POP PUSH2 0xFA3 PUSH1 0x0 DUP4 ADD DUP5 PUSH2 0xF7F JUMP JUMPDEST SWAP3 SWAP2 POP POP JUMP JUMPDEST PUSH2 0xFB2 DUP2 PUSH2 0xF6D JUMP JUMPDEST DUP2 EQ PUSH2 0xFBD JUMPI PUSH1 0x0 DUP1 REVERT JUMPDEST POP JUMP JUMPDEST PUSH1 0x0 DUP2 CALLDATALOAD SWAP1 POP PUSH2 0xFCF DUP2 PUSH2 0xFA9 JUMP JUMPDEST SWAP3 SWAP2 POP POP JUMP JUMPDEST PUSH1 0x0 DUP1 PUSH1 0x0 DUP1 PUSH1 0x60 DUP6 DUP8 SUB SLT ISZERO PUSH2 0xFEF JUMPI PUSH2 0xFEE PUSH2 0xC52 JUMP JUMPDEST JUMPDEST PUSH1 0x0 PUSH2 0xFFD DUP8 DUP3 DUP9 ADD PUSH2 0xFC0 JUMP JUMPDEST SWAP5 POP POP PUSH1 0x20 DUP6 ADD CALLDATALOAD PUSH8 0xFFFFFFFFFFFFFFFF DUP2 GT ISZERO PUSH2 0x101E JUMPI PUSH2 0x101D PUSH2 0xC57 JUMP JUMPDEST JUMPDEST PUSH2 0x102A DUP8 DUP3 DUP9 ADD PUSH2 0xC6B JUMP JUMPDEST SWAP4 POP SWAP4 POP POP PUSH1 0x40 PUSH2 0x103D DUP8 DUP3 DUP9 ADD PUSH2 0xCE2 JUMP JUMPDEST SWAP2 POP POP SWAP3 SWAP6 SWAP2 SWAP5 POP SWAP3 POP JUMP JUMPDEST PUSH1 0x0 DUP1 PUSH1 0x0 DUP1 PUSH1 0x60 DUP6 DUP8 SUB SLT ISZERO PUSH2 0x1063 JUMPI PUSH2 0x1062 PUSH2 0xC52 JUMP JUMPDEST JUMPDEST PUSH1 0x0 DUP6 ADD CALLDATALOAD PUSH8 0xFFFFFFFFFFFFFFFF DUP2 GT ISZERO PUSH2 0x1081 JUMPI PUSH2 0x1080 PUSH2 0xC57 JUMP JUMPDEST JUMPDEST PUSH2 0x108D DUP8 DUP3 DUP9 ADD PUSH2 0xC6B JUMP JUMPDEST SWAP5 POP SWAP5 POP POP PUSH1 0x20 PUSH2 0x10A0 DUP8 DUP3 DUP9 ADD PUSH2 0xCE2 JUMP JUMPDEST SWAP3 POP POP PUSH1 0x40 PUSH2 0x10B1 DUP8 DUP3 DUP9 ADD PUSH2 0xCE2 JUMP JUMPDEST SWAP2 POP POP SWAP3 SWAP6 SWAP2 SWAP5 POP SWAP3 POP JUMP JUMPDEST PUSH1 0x0 PUSH1 0x80 DUP4 ADD PUSH1 0x0 DUP4 ADD MLOAD DUP5 DUP3 SUB PUSH1 0x0 DUP7 ADD MSTORE PUSH2 0x10DA DUP3 DUP3 PUSH2 0xDE3 JUMP JUMPDEST SWAP2 POP POP PUSH1 0x20 DUP4 ADD MLOAD DUP5 DUP3 SUB PUSH1 0x20 DUP7 ADD MSTORE PUSH2 0x10F4 DUP3 DUP3 PUSH2 0xDE3 JUMP JUMPDEST SWAP2 POP POP PUSH1 0x40 DUP4 ADD MLOAD PUSH2 0x1109 PUSH1 0x40 DUP7 ADD DUP3 PUSH2 0xE1C JUMP JUMPDEST POP PUSH1 0x60 DUP4 ADD MLOAD PUSH2 0x111C PUSH1 0x60 DUP7 ADD DUP3 PUSH2 0xE1C JUMP JUMPDEST POP DUP1 SWAP2 POP POP SWAP3 SWAP2 POP POP JUMP JUMPDEST PUSH1 0x0 PUSH1 0x20 DUP3 ADD SWAP1 POP DUP2 DUP2 SUB PUSH1 0x0 DUP4 ADD MSTORE PUSH2 0x1141 DUP2 DUP5 PUSH2 0x10BD JUMP JUMPDEST SWAP1 POP SWAP3 SWAP2 POP POP JUMP JUMPDEST PUSH1 0x0 DUP2 MLOAD SWAP1 POP SWAP2 SWAP1 POP JUMP JUMPDEST PUSH1 0x0 DUP3 DUP3 MSTORE PUSH1 0x20 DUP3 ADD SWAP1 POP SWAP3 SWAP2 POP POP JUMP JUMPDEST PUSH1 0x0 DUP2 SWAP1 POP PUSH1 0x20 DUP3 ADD SWAP1 POP SWAP2 SWAP1 POP JUMP JUMPDEST PUSH1 0x0 PUSH2 0x1181 DUP4 DUP4 PUSH2 0xDE3 JUMP JUMPDEST SWAP1 POP SWAP3 SWAP2 POP POP JUMP JUMPDEST PUSH1 0x0 PUSH1 0x20 DUP3 ADD SWAP1 POP SWAP2 SWAP1 POP JUMP JUMPDEST PUSH1 0x0 PUSH2 0x11A1 DUP3 PUSH2 0x1149 JUMP JUMPDEST PUSH2 0x11AB DUP2 DUP6 PUSH2 0x1154 JUMP JUMPDEST SWAP4 POP DUP4 PUSH1 0x20 DUP3 MUL DUP6 ADD PUSH2 0x11BD DUP6 PUSH2 0x1165 JUMP JUMPDEST DUP1 PUSH1 0x0 JUMPDEST DUP6 DUP2 LT ISZERO PUSH2 0x11F9 JUMPI DUP5 DUP5 SUB DUP10 MSTORE DUP2 MLOAD PUSH2 0x11DA DUP6 DUP3 PUSH2 0x1175 JUMP JUMPDEST SWAP5 POP PUSH2 0x11E5 DUP4 PUSH2 0x1189 JUMP JUMPDEST SWAP3 POP PUSH1 0x20 DUP11 ADD SWAP10 POP POP PUSH1 0x1 DUP2 ADD SWAP1 POP PUSH2 0x11C1 JUMP JUMPDEST POP DUP3 SWAP8 POP DUP8 SWAP6 POP POP POP POP POP POP SWAP3 SWAP2 POP POP JUMP JUMPDEST PUSH1 0x0 PUSH1 0x20 DUP3 ADD SWAP1 POP DUP2 DUP2 SUB PUSH1 0x0 DUP4 ADD MSTORE PUSH2 0x1225 DUP2 DUP5 PUSH2 0x1196 JUMP JUMPDEST SWAP1 POP SWAP3 SWAP2 POP POP JUMP JUMPDEST PUSH1 0x0 DUP3 DUP3 MSTORE PUSH1 0x20 DUP3 ADD SWAP1 POP SWAP3 SWAP2 POP POP JUMP JUMPDEST PUSH32 0x796F752063616E206E6F7420616464206F6666696369616C0000000000000000 PUSH1 0x0 DUP3 ADD MSTORE POP JUMP JUMPDEST PUSH1 0x0 PUSH2 0x1274 PUSH1 0x18 DUP4 PUSH2 0x122D JUMP JUMPDEST SWAP2 POP PUSH2 0x127F DUP3 PUSH2 0x123E JUMP JUMPDEST PUSH1 0x20 DUP3 ADD SWAP1 POP SWAP2 SWAP1 POP JUMP JUMPDEST PUSH1 0x0 PUSH1 0x20 DUP3 ADD SWAP1 POP DUP2 DUP2 SUB PUSH1 0x0 DUP4 ADD MSTORE PUSH2 0x12A3 DUP2 PUSH2 0x1267 JUMP JUMPDEST SWAP1 POP SWAP2 SWAP1 POP JUMP JUMPDEST PUSH32 0x4E487B7100000000000000000000000000000000000000000000000000000000 PUSH1 0x0 MSTORE PUSH1 0x22 PUSH1 0x4 MSTORE PUSH1 0x24 PUSH1 0x0 REVERT JUMPDEST PUSH1 0x0 PUSH1 0x2 DUP3 DIV SWAP1 POP PUSH1 0x1 DUP3 AND DUP1 PUSH2 0x12F1 JUMPI PUSH1 0x7F DUP3 AND SWAP2 POP JUMPDEST PUSH1 0x20 DUP3 LT DUP2 EQ ISZERO PUSH2 0x1305 JUMPI PUSH2 0x1304 PUSH2 0x12AA JUMP JUMPDEST JUMPDEST POP SWAP2 SWAP1 POP JUMP JUMPDEST PUSH32 0x737461746520616C726561647920657869737400000000000000000000000000 PUSH1 0x0 DUP3 ADD MSTORE POP JUMP JUMPDEST PUSH1 0x0 PUSH2 0x1341 PUSH1 0x13 DUP4 PUSH2 0x122D JUMP JUMPDEST SWAP2 POP PUSH2 0x134C DUP3 PUSH2 0x130B JUMP JUMPDEST PUSH1 0x20 DUP3 ADD SWAP1 POP SWAP2 SWAP1 POP JUMP JUMPDEST PUSH1 0x0 PUSH1 0x20 DUP3 ADD SWAP1 POP DUP2 DUP2 SUB PUSH1 0x0 DUP4 ADD MSTORE PUSH2 0x1370 DUP2 PUSH2 0x1334 JUMP JUMPDEST SWAP1 POP SWAP2 SWAP1 POP JUMP JUMPDEST PUSH32 0x6C6F63616C20676F7665726E6D656E7420616C72656164792065786973740000 PUSH1 0x0 DUP3 ADD MSTORE POP JUMP JUMPDEST PUSH1 0x0 PUSH2 0x13AD PUSH1 0x1E DUP4 PUSH2 0x122D JUMP JUMPDEST SWAP2 POP PUSH2 0x13B8 DUP3 PUSH2 0x1377 JUMP JUMPDEST PUSH1 0x20 DUP3 ADD SWAP1 POP SWAP2 SWAP1 POP JUMP JUMPDEST PUSH1 0x0 PUSH1 0x20 DUP3 ADD SWAP1 POP DUP2 DUP2 SUB PUSH1 0x0 DUP4 ADD MSTORE PUSH2 0x13DC DUP2 PUSH2 0x13A0 JUMP JUMPDEST SWAP1 POP SWAP2 SWAP1 POP JUMP JUMPDEST PUSH32 0x737461746520646F6573206E6F74206578697374000000000000000000000000 PUSH1 0x0 DUP3 ADD MSTORE POP JUMP JUMPDEST PUSH1 0x0 PUSH2 0x1419 PUSH1 0x14 DUP4 PUSH2 0x122D JUMP JUMPDEST SWAP2 POP PUSH2 0x1424 DUP3 PUSH2 0x13E3 JUMP JUMPDEST PUSH1 0x20 DUP3 ADD SWAP1 POP SWAP2 SWAP1 POP JUMP JUMPDEST PUSH1 0x0 PUSH1 0x20 DUP3 ADD SWAP1 POP DUP2 DUP2 SUB PUSH1 0x0 DUP4 ADD MSTORE PUSH2 0x1448 DUP2 PUSH2 0x140C JUMP JUMPDEST SWAP1 POP SWAP2 SWAP1 POP JUMP INVALID LOG2 PUSH5 0x6970667358 0x22 SLT KECCAK256 0xE1 DUP8 PUSH11 0xA8F1E03A913AE02FC5BCB3 0x4B ORIGIN PUSH1 0x71 SLT AND 0xDF 0xF9 0xF9 0x1F 0xE7 LOG2 0xE4 DUP12 SIGNEXTEND CHAINID SELFBALANCE GASPRICE PUSH5 0x736F6C6343 STOP ADDMOD ADDMOD STOP CALLER "
				},
				"gasEstimates": {
					"creation": {
						"codeDepositCost": "1050600",
						"executionCost": "25360",
						"totalCost": "1075960"
					},
					"external": {
						"accredictedNewOfficial(address,string,uint256)": "infinite",
						"addLocalGovernment(string,uint256,uint256)": "infinite",
						"addState(string,uint256)": "infinite",
						"getLocalGovernment()": "infinite",
						"getOwner()": "2544",
						"getStates()": "infinite"
					}
				},
				"methodIdentifiers": {
					"accredictedNewOfficial(address,string,uint256)": "aa709075",
					"addLocalGovernment(string,uint256,uint256)": "c86b6c6b",
					"addState(string,uint256)": "5c060b79",
					"getLocalGovernment()": "6b935b86",
					"getOwner()": "893d20e8",
					"getStates()": "d8ab8274"
				}
			},
			"storageLayout": {
				"storage": [
					{
						"astId": 4,
						"contract": "contracts/EVote.sol:EVote",
						"label": "ownerAddr",
						"offset": 0,
						"slot": "0",
						"type": "t_address"
					},
					{
						"astId": 7,
						"contract": "contracts/EVote.sol:EVote",
						"label": "accredictedOfficialAddr",
						"offset": 0,
						"slot": "1",
						"type": "t_array(t_address)dyn_storage"
					},
					{
						"astId": 12,
						"contract": "contracts/EVote.sol:EVote",
						"label": "accredictedOfficialDetails",
						"offset": 0,
						"slot": "2",
						"type": "t_mapping(t_address,t_struct(Official)238_storage)"
					},
					{
						"astId": 17,
						"contract": "contracts/EVote.sol:EVote",
						"label": "accredictedZone",
						"offset": 0,
						"slot": "3",
						"type": "t_mapping(t_uint256,t_struct(VoteZone)247_storage)"
					},
					{
						"astId": 21,
						"contract": "contracts/EVote.sol:EVote",
						"label": "zones",
						"offset": 0,
						"slot": "4",
						"type": "t_array(t_struct(VoteZone)247_storage)dyn_storage"
					},
					{
						"astId": 25,
						"contract": "contracts/EVote.sol:EVote",
						"label": "statesMap",
						"offset": 0,
						"slot": "5",
						"type": "t_mapping(t_uint256,t_string_storage)"
					},
					{
						"astId": 28,
						"contract": "contracts/EVote.sol:EVote",
						"label": "states",
						"offset": 0,
						"slot": "6",
						"type": "t_array(t_string_storage)dyn_storage"
					}
				],
				"types": {
					"t_address": {
						"encoding": "inplace",
						"label": "address",
						"numberOfBytes": "20"
					},
					"t_array(t_address)dyn_storage": {
						"base": "t_address",
						"encoding": "dynamic_array",
						"label": "address[]",
						"numberOfBytes": "32"
					},
					"t_array(t_string_storage)dyn_storage": {
						"base": "t_string_storage",
						"encoding": "dynamic_array",
						"label": "string[]",
						"numberOfBytes": "32"
					},
					"t_array(t_struct(VoteZone)247_storage)dyn_storage": {
						"base": "t_struct(VoteZone)247_storage",
						"encoding": "dynamic_array",
						"label": "struct VoteZone[]",
						"numberOfBytes": "32"
					},
					"t_bool": {
						"encoding": "inplace",
						"label": "bool",
						"numberOfBytes": "1"
					},
					"t_mapping(t_address,t_struct(Official)238_storage)": {
						"encoding": "mapping",
						"key": "t_address",
						"label": "mapping(address => struct Official)",
						"numberOfBytes": "32",
						"value": "t_struct(Official)238_storage"
					},
					"t_mapping(t_uint256,t_string_storage)": {
						"encoding": "mapping",
						"key": "t_uint256",
						"label": "mapping(uint256 => string)",
						"numberOfBytes": "32",
						"value": "t_string_storage"
					},
					"t_mapping(t_uint256,t_struct(VoteZone)247_storage)": {
						"encoding": "mapping",
						"key": "t_uint256",
						"label": "mapping(uint256 => struct VoteZone)",
						"numberOfBytes": "32",
						"value": "t_struct(VoteZone)247_storage"
					},
					"t_string_storage": {
						"encoding": "bytes",
						"label": "string",
						"numberOfBytes": "32"
					},
					"t_struct(Official)238_storage": {
						"encoding": "inplace",
						"label": "struct Official",
						"members": [
							{
								"astId": 231,
								"contract": "contracts/EVote.sol:EVote",
								"label": "name",
								"offset": 0,
								"slot": "0",
								"type": "t_string_storage"
							},
							{
								"astId": 233,
								"contract": "contracts/EVote.sol:EVote",
								"label": "lgaCode",
								"offset": 0,
								"slot": "1",
								"type": "t_uint256"
							},
							{
								"astId": 235,
								"contract": "contracts/EVote.sol:EVote",
								"label": "officialAddr",
								"offset": 0,
								"slot": "2",
								"type": "t_address"
							},
							{
								"astId": 237,
								"contract": "contracts/EVote.sol:EVote",
								"label": "isActive",
								"offset": 20,
								"slot": "2",
								"type": "t_bool"
							}
						],
						"numberOfBytes": "96"
					},
					"t_struct(VoteZone)247_storage": {
						"encoding": "inplace",
						"label": "struct VoteZone",
						"members": [
							{
								"astId": 240,
								"contract": "contracts/EVote.sol:EVote",
								"label": "lga",
								"offset": 0,
								"slot": "0",
								"type": "t_string_storage"
							},
							{
								"astId": 242,
								"contract": "contracts/EVote.sol:EVote",
								"label": "state",
								"offset": 0,
								"slot": "1",
								"type": "t_string_storage"
							},
							{
								"astId": 244,
								"contract": "contracts/EVote.sol:EVote",
								"label": "stateCode",
								"offset": 0,
								"slot": "2",
								"type": "t_uint256"
							},
							{
								"astId": 246,
								"contract": "contracts/EVote.sol:EVote",
								"label": "lgaCode",
								"offset": 0,
								"slot": "3",
								"type": "t_uint256"
							}
						],
						"numberOfBytes": "128"
					},
					"t_uint256": {
						"encoding": "inplace",
						"label": "uint256",
						"numberOfBytes": "32"
					}
				}
			},
			"userdoc": {
				"kind": "user",
				"methods": {},
				"version": 1
			}
		}
	}
}