{
	"contracts/EVote.sol": {
		"EVote": {
			"abi": [
				{
					"inputs": [],
					"stateMutability": "nonpayable",
					"type": "constructor"
				},
				{
					"inputs": [
						{
							"internalType": "address",
							"name": "officialAddress",
							"type": "address"
						},
						{
							"internalType": "string",
							"name": "name",
							"type": "string"
						},
						{
							"internalType": "string",
							"name": "zoneCode",
							"type": "string"
						}
					],
					"name": "accredictedNewOfficial",
					"outputs": [],
					"stateMutability": "nonpayable",
					"type": "function"
				},
				{
					"inputs": [
						{
							"internalType": "string",
							"name": "lga",
							"type": "string"
						},
						{
							"internalType": "string",
							"name": "code",
							"type": "string"
						},
						{
							"internalType": "string",
							"name": "state",
							"type": "string"
						}
					],
					"name": "addZone",
					"outputs": [],
					"stateMutability": "nonpayable",
					"type": "function"
				},
				{
					"inputs": [],
					"name": "getOwner",
					"outputs": [
						{
							"internalType": "address",
							"name": "",
							"type": "address"
						}
					],
					"stateMutability": "view",
					"type": "function"
				},
				{
					"inputs": [],
					"name": "getZone",
					"outputs": [
						{
							"components": [
								{
									"internalType": "string",
									"name": "lga",
									"type": "string"
								},
								{
									"internalType": "string",
									"name": "state",
									"type": "string"
								},
								{
									"internalType": "string",
									"name": "zoneCode",
									"type": "string"
								}
							],
							"internalType": "struct VoteZone[]",
							"name": "",
							"type": "tuple[]"
						}
					],
					"stateMutability": "view",
					"type": "function"
				}
			],
			"devdoc": {
				"kind": "dev",
				"methods": {},
				"version": 1
			},
			"evm": {
				"assembly": "    /* \"contracts/EVote.sol\":371:1867  contract EVote{... */\n  mstore(0x40, 0x80)\n    /* \"contracts/EVote.sol\":916:969  constructor (){... */\n  callvalue\n  dup1\n  iszero\n  tag_1\n  jumpi\n  0x00\n  dup1\n  revert\ntag_1:\n  pop\n    /* \"contracts/EVote.sol\":952:962  msg.sender */\n  caller\n    /* \"contracts/EVote.sol\":940:949  ownerAddr */\n  0x00\n  dup1\n    /* \"contracts/EVote.sol\":940:962  ownerAddr = msg.sender */\n  0x0100\n  exp\n  dup2\n  sload\n  dup2\n  0xffffffffffffffffffffffffffffffffffffffff\n  mul\n  not\n  and\n  swap1\n  dup4\n  0xffffffffffffffffffffffffffffffffffffffff\n  and\n  mul\n  or\n  swap1\n  sstore\n  pop\n    /* \"contracts/EVote.sol\":371:1867  contract EVote{... */\n  dataSize(sub_0)\n  dup1\n  dataOffset(sub_0)\n  0x00\n  codecopy\n  0x00\n  return\nstop\n\nsub_0: assembly {\n        /* \"contracts/EVote.sol\":371:1867  contract EVote{... */\n      mstore(0x40, 0x80)\n      callvalue\n      dup1\n      iszero\n      tag_1\n      jumpi\n      0x00\n      dup1\n      revert\n    tag_1:\n      pop\n      jumpi(tag_2, lt(calldatasize, 0x04))\n      shr(0xe0, calldataload(0x00))\n      dup1\n      0x6e12dc0e\n      eq\n      tag_3\n      jumpi\n      dup1\n      0x893d20e8\n      eq\n      tag_4\n      jumpi\n      dup1\n      0xb7a455e6\n      eq\n      tag_5\n      jumpi\n      dup1\n      0xf9095eb7\n      eq\n      tag_6\n      jumpi\n    tag_2:\n      0x00\n      dup1\n      revert\n        /* \"contracts/EVote.sol\":1066:1325  function addZone(string calldata lga, string calldata code, string calldata state)  external isOwnerMod checkLocalGovtCode(code){... */\n    tag_3:\n      tag_7\n      0x04\n      dup1\n      calldatasize\n      sub\n      dup2\n      add\n      swap1\n      tag_8\n      swap2\n      swap1\n      tag_9\n      jump\t// in\n    tag_8:\n      tag_10\n      jump\t// in\n    tag_7:\n      stop\n        /* \"contracts/EVote.sol\":975:1060  function getOwner()  external view returns (address){... */\n    tag_4:\n      tag_11\n      tag_12\n      jump\t// in\n    tag_11:\n      mload(0x40)\n      tag_13\n      swap2\n      swap1\n      tag_14\n      jump\t// in\n    tag_13:\n      mload(0x40)\n      dup1\n      swap2\n      sub\n      swap1\n      return\n        /* \"contracts/EVote.sol\":1426:1862  function accredictedNewOfficial(address officialAddress, string calldata name, string calldata zoneCode) external isOwnerMod checkLocalGovtCode(zoneCode){... */\n    tag_5:\n      tag_15\n      0x04\n      dup1\n      calldatasize\n      sub\n      dup2\n      add\n      swap1\n      tag_16\n      swap2\n      swap1\n      tag_17\n      jump\t// in\n    tag_16:\n      tag_18\n      jump\t// in\n    tag_15:\n      stop\n        /* \"contracts/EVote.sol\":1331:1420  function getZone() external view returns (VoteZone[] memory){... */\n    tag_6:\n      tag_19\n      tag_20\n      jump\t// in\n    tag_19:\n      mload(0x40)\n      tag_21\n      swap2\n      swap1\n      tag_22\n      jump\t// in\n    tag_21:\n      mload(0x40)\n      dup1\n      swap2\n      sub\n      swap1\n      return\n        /* \"contracts/EVote.sol\":1066:1325  function addZone(string calldata lga, string calldata code, string calldata state)  external isOwnerMod checkLocalGovtCode(code){... */\n    tag_10:\n        /* \"contracts/EVote.sol\":679:689  msg.sender */\n      caller\n        /* \"contracts/EVote.sol\":666:689  ownerAddr != msg.sender */\n      0xffffffffffffffffffffffffffffffffffffffff\n      and\n        /* \"contracts/EVote.sol\":666:675  ownerAddr */\n      0x00\n      dup1\n      sload\n      swap1\n      0x0100\n      exp\n      swap1\n      div\n      0xffffffffffffffffffffffffffffffffffffffff\n      and\n        /* \"contracts/EVote.sol\":666:689  ownerAddr != msg.sender */\n      0xffffffffffffffffffffffffffffffffffffffff\n      and\n      eq\n      iszero\n        /* \"contracts/EVote.sol\":658:717  require(ownerAddr != msg.sender,\"you can not add official\") */\n      tag_24\n      jumpi\n      mload(0x40)\n      0x08c379a000000000000000000000000000000000000000000000000000000000\n      dup2\n      mstore\n      0x04\n      add\n      tag_25\n      swap1\n      tag_26\n      jump\t// in\n    tag_25:\n      mload(0x40)\n      dup1\n      swap2\n      sub\n      swap1\n      revert\n    tag_24:\n        /* \"contracts/EVote.sol\":1189:1193  code */\n      dup4\n      dup4\n        /* \"contracts/EVote.sol\":851:852  0 */\n      0x00\n        /* \"contracts/EVote.sol\":815:830  accredictedZone */\n      0x03\n        /* \"contracts/EVote.sol\":831:835  code */\n      dup4\n      dup4\n        /* \"contracts/EVote.sol\":815:836  accredictedZone[code] */\n      mload(0x40)\n      tag_28\n      swap3\n      swap2\n      swap1\n      tag_29\n      jump\t// in\n    tag_28:\n      swap1\n      dup2\n      mstore\n      0x20\n      add\n      mload(0x40)\n      dup1\n      swap2\n      sub\n      swap1\n      keccak256\n        /* \"contracts/EVote.sol\":815:840  accredictedZone[code].lga */\n      0x00\n      add\n        /* \"contracts/EVote.sol\":809:848  bytes(accredictedZone[code].lga).length */\n      dup1\n      sload\n      tag_30\n      swap1\n      tag_31\n      jump\t// in\n    tag_30:\n      swap1\n      pop\n        /* \"contracts/EVote.sol\":809:852  bytes(accredictedZone[code].lga).length < 0 */\n      lt\n        /* \"contracts/EVote.sol\":801:888  require(bytes(accredictedZone[code].lga).length < 0 , \"local government already exist\") */\n      tag_32\n      jumpi\n      mload(0x40)\n      0x08c379a000000000000000000000000000000000000000000000000000000000\n      dup2\n      mstore\n      0x04\n      add\n      tag_33\n      swap1\n      tag_34\n      jump\t// in\n    tag_33:\n      mload(0x40)\n      dup1\n      swap2\n      sub\n      swap1\n      revert\n    tag_32:\n        /* \"contracts/EVote.sol\":1204:1225  VoteZone memory _zone */\n      0x00\n        /* \"contracts/EVote.sol\":1228:1252  VoteZone(lga,state,code) */\n      mload(0x40)\n      dup1\n      0x60\n      add\n      0x40\n      mstore\n      dup1\n        /* \"contracts/EVote.sol\":1237:1240  lga */\n      dup11\n      dup11\n        /* \"contracts/EVote.sol\":1228:1252  VoteZone(lga,state,code) */\n      dup1\n      dup1\n      0x1f\n      add\n      0x20\n      dup1\n      swap2\n      div\n      mul\n      0x20\n      add\n      mload(0x40)\n      swap1\n      dup2\n      add\n      0x40\n      mstore\n      dup1\n      swap4\n      swap3\n      swap2\n      swap1\n      dup2\n      dup2\n      mstore\n      0x20\n      add\n      dup4\n      dup4\n      dup1\n      dup3\n      dup5\n      calldatacopy\n      0x00\n      dup2\n      dup5\n      add\n      mstore\n      not(0x1f)\n      0x1f\n      dup3\n      add\n      and\n      swap1\n      pop\n      dup1\n      dup4\n      add\n      swap3\n      pop\n      pop\n      pop\n      pop\n      pop\n      pop\n      pop\n      dup2\n      mstore\n      0x20\n      add\n        /* \"contracts/EVote.sol\":1241:1246  state */\n      dup7\n      dup7\n        /* \"contracts/EVote.sol\":1228:1252  VoteZone(lga,state,code) */\n      dup1\n      dup1\n      0x1f\n      add\n      0x20\n      dup1\n      swap2\n      div\n      mul\n      0x20\n      add\n      mload(0x40)\n      swap1\n      dup2\n      add\n      0x40\n      mstore\n      dup1\n      swap4\n      swap3\n      swap2\n      swap1\n      dup2\n      dup2\n      mstore\n      0x20\n      add\n      dup4\n      dup4\n      dup1\n      dup3\n      dup5\n      calldatacopy\n      0x00\n      dup2\n      dup5\n      add\n      mstore\n      not(0x1f)\n      0x1f\n      dup3\n      add\n      and\n      swap1\n      pop\n      dup1\n      dup4\n      add\n      swap3\n      pop\n      pop\n      pop\n      pop\n      pop\n      pop\n      pop\n      dup2\n      mstore\n      0x20\n      add\n        /* \"contracts/EVote.sol\":1247:1251  code */\n      dup9\n      dup9\n        /* \"contracts/EVote.sol\":1228:1252  VoteZone(lga,state,code) */\n      dup1\n      dup1\n      0x1f\n      add\n      0x20\n      dup1\n      swap2\n      div\n      mul\n      0x20\n      add\n      mload(0x40)\n      swap1\n      dup2\n      add\n      0x40\n      mstore\n      dup1\n      swap4\n      swap3\n      swap2\n      swap1\n      dup2\n      dup2\n      mstore\n      0x20\n      add\n      dup4\n      dup4\n      dup1\n      dup3\n      dup5\n      calldatacopy\n      0x00\n      dup2\n      dup5\n      add\n      mstore\n      not(0x1f)\n      0x1f\n      dup3\n      add\n      and\n      swap1\n      pop\n      dup1\n      dup4\n      add\n      swap3\n      pop\n      pop\n      pop\n      pop\n      pop\n      pop\n      pop\n      dup2\n      mstore\n      pop\n        /* \"contracts/EVote.sol\":1204:1252  VoteZone memory _zone = VoteZone(lga,state,code) */\n      swap1\n      pop\n        /* \"contracts/EVote.sol\":1286:1291  _zone */\n      dup1\n        /* \"contracts/EVote.sol\":1262:1277  accredictedZone */\n      0x03\n        /* \"contracts/EVote.sol\":1278:1282  code */\n      dup9\n      dup9\n        /* \"contracts/EVote.sol\":1262:1283  accredictedZone[code] */\n      mload(0x40)\n      tag_36\n      swap3\n      swap2\n      swap1\n      tag_29\n      jump\t// in\n    tag_36:\n      swap1\n      dup2\n      mstore\n      0x20\n      add\n      mload(0x40)\n      dup1\n      swap2\n      sub\n      swap1\n      keccak256\n        /* \"contracts/EVote.sol\":1262:1291  accredictedZone[code] = _zone */\n      0x00\n      dup3\n      add\n      mload\n      dup2\n      0x00\n      add\n      swap1\n      dup1\n      mload\n      swap1\n      0x20\n      add\n      swap1\n      tag_37\n      swap3\n      swap2\n      swap1\n      tag_38\n      jump\t// in\n    tag_37:\n      pop\n      0x20\n      dup3\n      add\n      mload\n      dup2\n      0x01\n      add\n      swap1\n      dup1\n      mload\n      swap1\n      0x20\n      add\n      swap1\n      tag_39\n      swap3\n      swap2\n      swap1\n      tag_38\n      jump\t// in\n    tag_39:\n      pop\n      0x40\n      dup3\n      add\n      mload\n      dup2\n      0x02\n      add\n      swap1\n      dup1\n      mload\n      swap1\n      0x20\n      add\n      swap1\n      tag_40\n      swap3\n      swap2\n      swap1\n      tag_38\n      jump\t// in\n    tag_40:\n      pop\n      swap1\n      pop\n      pop\n        /* \"contracts/EVote.sol\":1301:1306  zones */\n      0x04\n        /* \"contracts/EVote.sol\":1312:1317  _zone */\n      dup2\n        /* \"contracts/EVote.sol\":1301:1318  zones.push(_zone) */\n      swap1\n      dup1\n      0x01\n      dup2\n      sload\n      add\n      dup1\n      dup3\n      sstore\n      dup1\n      swap2\n      pop\n      pop\n      0x01\n      swap1\n      sub\n      swap1\n      0x00\n      mstore\n      keccak256(0x00, 0x20)\n      swap1\n      0x03\n      mul\n      add\n      0x00\n      swap1\n      swap2\n      swap1\n      swap2\n      swap1\n      swap2\n      pop\n      0x00\n      dup3\n      add\n      mload\n      dup2\n      0x00\n      add\n      swap1\n      dup1\n      mload\n      swap1\n      0x20\n      add\n      swap1\n      tag_42\n      swap3\n      swap2\n      swap1\n      tag_38\n      jump\t// in\n    tag_42:\n      pop\n      0x20\n      dup3\n      add\n      mload\n      dup2\n      0x01\n      add\n      swap1\n      dup1\n      mload\n      swap1\n      0x20\n      add\n      swap1\n      tag_43\n      swap3\n      swap2\n      swap1\n      tag_38\n      jump\t// in\n    tag_43:\n      pop\n      0x40\n      dup3\n      add\n      mload\n      dup2\n      0x02\n      add\n      swap1\n      dup1\n      mload\n      swap1\n      0x20\n      add\n      swap1\n      tag_44\n      swap3\n      swap2\n      swap1\n      tag_38\n      jump\t// in\n    tag_44:\n      pop\n      pop\n      pop\n        /* \"contracts/EVote.sol\":1194:1325  {... */\n      pop\n        /* \"contracts/EVote.sol\":727:728  _ */\n      pop\n      pop\n        /* \"contracts/EVote.sol\":1066:1325  function addZone(string calldata lga, string calldata code, string calldata state)  external isOwnerMod checkLocalGovtCode(code){... */\n      pop\n      pop\n      pop\n      pop\n      pop\n      pop\n      jump\t// out\n        /* \"contracts/EVote.sol\":975:1060  function getOwner()  external view returns (address){... */\n    tag_12:\n        /* \"contracts/EVote.sol\":1019:1026  address */\n      0x00\n        /* \"contracts/EVote.sol\":1044:1053  ownerAddr */\n      dup1\n      0x00\n      swap1\n      sload\n      swap1\n      0x0100\n      exp\n      swap1\n      div\n      0xffffffffffffffffffffffffffffffffffffffff\n      and\n        /* \"contracts/EVote.sol\":1037:1053  return ownerAddr */\n      swap1\n      pop\n        /* \"contracts/EVote.sol\":975:1060  function getOwner()  external view returns (address){... */\n      swap1\n      jump\t// out\n        /* \"contracts/EVote.sol\":1426:1862  function accredictedNewOfficial(address officialAddress, string calldata name, string calldata zoneCode) external isOwnerMod checkLocalGovtCode(zoneCode){... */\n    tag_18:\n        /* \"contracts/EVote.sol\":679:689  msg.sender */\n      caller\n        /* \"contracts/EVote.sol\":666:689  ownerAddr != msg.sender */\n      0xffffffffffffffffffffffffffffffffffffffff\n      and\n        /* \"contracts/EVote.sol\":666:675  ownerAddr */\n      0x00\n      dup1\n      sload\n      swap1\n      0x0100\n      exp\n      swap1\n      div\n      0xffffffffffffffffffffffffffffffffffffffff\n      and\n        /* \"contracts/EVote.sol\":666:689  ownerAddr != msg.sender */\n      0xffffffffffffffffffffffffffffffffffffffff\n      and\n      eq\n      iszero\n        /* \"contracts/EVote.sol\":658:717  require(ownerAddr != msg.sender,\"you can not add official\") */\n      tag_47\n      jumpi\n      mload(0x40)\n      0x08c379a000000000000000000000000000000000000000000000000000000000\n      dup2\n      mstore\n      0x04\n      add\n      tag_48\n      swap1\n      tag_26\n      jump\t// in\n    tag_48:\n      mload(0x40)\n      dup1\n      swap2\n      sub\n      swap1\n      revert\n    tag_47:\n        /* \"contracts/EVote.sol\":1570:1578  zoneCode */\n      dup2\n      dup2\n        /* \"contracts/EVote.sol\":851:852  0 */\n      0x00\n        /* \"contracts/EVote.sol\":815:830  accredictedZone */\n      0x03\n        /* \"contracts/EVote.sol\":831:835  code */\n      dup4\n      dup4\n        /* \"contracts/EVote.sol\":815:836  accredictedZone[code] */\n      mload(0x40)\n      tag_50\n      swap3\n      swap2\n      swap1\n      tag_29\n      jump\t// in\n    tag_50:\n      swap1\n      dup2\n      mstore\n      0x20\n      add\n      mload(0x40)\n      dup1\n      swap2\n      sub\n      swap1\n      keccak256\n        /* \"contracts/EVote.sol\":815:840  accredictedZone[code].lga */\n      0x00\n      add\n        /* \"contracts/EVote.sol\":809:848  bytes(accredictedZone[code].lga).length */\n      dup1\n      sload\n      tag_51\n      swap1\n      tag_31\n      jump\t// in\n    tag_51:\n      swap1\n      pop\n        /* \"contracts/EVote.sol\":809:852  bytes(accredictedZone[code].lga).length < 0 */\n      lt\n        /* \"contracts/EVote.sol\":801:888  require(bytes(accredictedZone[code].lga).length < 0 , \"local government already exist\") */\n      tag_52\n      jumpi\n      mload(0x40)\n      0x08c379a000000000000000000000000000000000000000000000000000000000\n      dup2\n      mstore\n      0x04\n      add\n      tag_53\n      swap1\n      tag_34\n      jump\t// in\n    tag_53:\n      mload(0x40)\n      dup1\n      swap2\n      sub\n      swap1\n      revert\n    tag_52:\n        /* \"contracts/EVote.sol\":1589:1612  accredictedOfficialAddr */\n      0x01\n        /* \"contracts/EVote.sol\":1618:1633  officialAddress */\n      dup8\n        /* \"contracts/EVote.sol\":1589:1634  accredictedOfficialAddr.push(officialAddress) */\n      swap1\n      dup1\n      0x01\n      dup2\n      sload\n      add\n      dup1\n      dup3\n      sstore\n      dup1\n      swap2\n      pop\n      pop\n      0x01\n      swap1\n      sub\n      swap1\n      0x00\n      mstore\n      keccak256(0x00, 0x20)\n      add\n      0x00\n      swap1\n      swap2\n      swap1\n      swap2\n      swap1\n      swap2\n      0x0100\n      exp\n      dup2\n      sload\n      dup2\n      0xffffffffffffffffffffffffffffffffffffffff\n      mul\n      not\n      and\n      swap1\n      dup4\n      0xffffffffffffffffffffffffffffffffffffffff\n      and\n      mul\n      or\n      swap1\n      sstore\n      pop\n        /* \"contracts/EVote.sol\":1691:1805  Official({... */\n      mload(0x40)\n      dup1\n      0x80\n      add\n      0x40\n      mstore\n      dup1\n        /* \"contracts/EVote.sol\":1717:1721  name */\n      dup8\n      dup8\n        /* \"contracts/EVote.sol\":1691:1805  Official({... */\n      dup1\n      dup1\n      0x1f\n      add\n      0x20\n      dup1\n      swap2\n      div\n      mul\n      0x20\n      add\n      mload(0x40)\n      swap1\n      dup2\n      add\n      0x40\n      mstore\n      dup1\n      swap4\n      swap3\n      swap2\n      swap1\n      dup2\n      dup2\n      mstore\n      0x20\n      add\n      dup4\n      dup4\n      dup1\n      dup3\n      dup5\n      calldatacopy\n      0x00\n      dup2\n      dup5\n      add\n      mstore\n      not(0x1f)\n      0x1f\n      dup3\n      add\n      and\n      swap1\n      pop\n      dup1\n      dup4\n      add\n      swap3\n      pop\n      pop\n      pop\n      pop\n      pop\n      pop\n      pop\n      dup2\n      mstore\n      0x20\n      add\n        /* \"contracts/EVote.sol\":1732:1740  zoneCode */\n      dup6\n      dup6\n        /* \"contracts/EVote.sol\":1691:1805  Official({... */\n      dup1\n      dup1\n      0x1f\n      add\n      0x20\n      dup1\n      swap2\n      div\n      mul\n      0x20\n      add\n      mload(0x40)\n      swap1\n      dup2\n      add\n      0x40\n      mstore\n      dup1\n      swap4\n      swap3\n      swap2\n      swap1\n      dup2\n      dup2\n      mstore\n      0x20\n      add\n      dup4\n      dup4\n      dup1\n      dup3\n      dup5\n      calldatacopy\n      0x00\n      dup2\n      dup5\n      add\n      mstore\n      not(0x1f)\n      0x1f\n      dup3\n      add\n      and\n      swap1\n      pop\n      dup1\n      dup4\n      add\n      swap3\n      pop\n      pop\n      pop\n      pop\n      pop\n      pop\n      pop\n      dup2\n      mstore\n      0x20\n      add\n        /* \"contracts/EVote.sol\":1764:1779  officialAddress */\n      dup9\n        /* \"contracts/EVote.sol\":1691:1805  Official({... */\n      0xffffffffffffffffffffffffffffffffffffffff\n      and\n      dup2\n      mstore\n      0x20\n      add\n        /* \"contracts/EVote.sol\":1799:1803  true */\n      0x01\n        /* \"contracts/EVote.sol\":1691:1805  Official({... */\n      iszero\n      iszero\n      dup2\n      mstore\n      pop\n        /* \"contracts/EVote.sol\":1645:1671  accredictedOfficialDetails */\n      0x02\n        /* \"contracts/EVote.sol\":1645:1688  accredictedOfficialDetails[officialAddress] */\n      0x00\n        /* \"contracts/EVote.sol\":1672:1687  officialAddress */\n      dup10\n        /* \"contracts/EVote.sol\":1645:1688  accredictedOfficialDetails[officialAddress] */\n      0xffffffffffffffffffffffffffffffffffffffff\n      and\n      0xffffffffffffffffffffffffffffffffffffffff\n      and\n      dup2\n      mstore\n      0x20\n      add\n      swap1\n      dup2\n      mstore\n      0x20\n      add\n      0x00\n      keccak256\n        /* \"contracts/EVote.sol\":1645:1805  accredictedOfficialDetails[officialAddress] = Official({... */\n      0x00\n      dup3\n      add\n      mload\n      dup2\n      0x00\n      add\n      swap1\n      dup1\n      mload\n      swap1\n      0x20\n      add\n      swap1\n      tag_56\n      swap3\n      swap2\n      swap1\n      tag_38\n      jump\t// in\n    tag_56:\n      pop\n      0x20\n      dup3\n      add\n      mload\n      dup2\n      0x01\n      add\n      swap1\n      dup1\n      mload\n      swap1\n      0x20\n      add\n      swap1\n      tag_57\n      swap3\n      swap2\n      swap1\n      tag_38\n      jump\t// in\n    tag_57:\n      pop\n      0x40\n      dup3\n      add\n      mload\n      dup2\n      0x02\n      add\n      exp(0x0100, 0x00)\n      dup2\n      sload\n      dup2\n      0xffffffffffffffffffffffffffffffffffffffff\n      mul\n      not\n      and\n      swap1\n      dup4\n      0xffffffffffffffffffffffffffffffffffffffff\n      and\n      mul\n      or\n      swap1\n      sstore\n      pop\n      0x60\n      dup3\n      add\n      mload\n      dup2\n      0x02\n      add\n      exp(0x0100, 0x14)\n      dup2\n      sload\n      dup2\n      0xff\n      mul\n      not\n      and\n      swap1\n      dup4\n      iszero\n      iszero\n      mul\n      or\n      swap1\n      sstore\n      pop\n      swap1\n      pop\n      pop\n        /* \"contracts/EVote.sol\":727:728  _ */\n      pop\n      pop\n        /* \"contracts/EVote.sol\":1426:1862  function accredictedNewOfficial(address officialAddress, string calldata name, string calldata zoneCode) external isOwnerMod checkLocalGovtCode(zoneCode){... */\n      pop\n      pop\n      pop\n      pop\n      pop\n      jump\t// out\n        /* \"contracts/EVote.sol\":1331:1420  function getZone() external view returns (VoteZone[] memory){... */\n    tag_20:\n        /* \"contracts/EVote.sol\":1373:1390  VoteZone[] memory */\n      0x60\n        /* \"contracts/EVote.sol\":1407:1412  zones */\n      0x04\n        /* \"contracts/EVote.sol\":1400:1412  return zones */\n      dup1\n      sload\n      dup1\n      0x20\n      mul\n      0x20\n      add\n      mload(0x40)\n      swap1\n      dup2\n      add\n      0x40\n      mstore\n      dup1\n      swap3\n      swap2\n      swap1\n      dup2\n      dup2\n      mstore\n      0x20\n      add\n      0x00\n      swap1\n    tag_59:\n      dup3\n      dup3\n      lt\n      iszero\n      tag_60\n      jumpi\n      dup4\n      dup3\n      swap1\n      0x00\n      mstore\n      keccak256(0x00, 0x20)\n      swap1\n      0x03\n      mul\n      add\n      mload(0x40)\n      dup1\n      0x60\n      add\n      0x40\n      mstore\n      swap1\n      dup2\n      0x00\n      dup3\n      add\n      dup1\n      sload\n      tag_62\n      swap1\n      tag_31\n      jump\t// in\n    tag_62:\n      dup1\n      0x1f\n      add\n      0x20\n      dup1\n      swap2\n      div\n      mul\n      0x20\n      add\n      mload(0x40)\n      swap1\n      dup2\n      add\n      0x40\n      mstore\n      dup1\n      swap3\n      swap2\n      swap1\n      dup2\n      dup2\n      mstore\n      0x20\n      add\n      dup3\n      dup1\n      sload\n      tag_63\n      swap1\n      tag_31\n      jump\t// in\n    tag_63:\n      dup1\n      iszero\n      tag_64\n      jumpi\n      dup1\n      0x1f\n      lt\n      tag_65\n      jumpi\n      0x0100\n      dup1\n      dup4\n      sload\n      div\n      mul\n      dup4\n      mstore\n      swap2\n      0x20\n      add\n      swap2\n      jump(tag_64)\n    tag_65:\n      dup3\n      add\n      swap2\n      swap1\n      0x00\n      mstore\n      keccak256(0x00, 0x20)\n      swap1\n    tag_66:\n      dup2\n      sload\n      dup2\n      mstore\n      swap1\n      0x01\n      add\n      swap1\n      0x20\n      add\n      dup1\n      dup4\n      gt\n      tag_66\n      jumpi\n      dup3\n      swap1\n      sub\n      0x1f\n      and\n      dup3\n      add\n      swap2\n    tag_64:\n      pop\n      pop\n      pop\n      pop\n      pop\n      dup2\n      mstore\n      0x20\n      add\n      0x01\n      dup3\n      add\n      dup1\n      sload\n      tag_67\n      swap1\n      tag_31\n      jump\t// in\n    tag_67:\n      dup1\n      0x1f\n      add\n      0x20\n      dup1\n      swap2\n      div\n      mul\n      0x20\n      add\n      mload(0x40)\n      swap1\n      dup2\n      add\n      0x40\n      mstore\n      dup1\n      swap3\n      swap2\n      swap1\n      dup2\n      dup2\n      mstore\n      0x20\n      add\n      dup3\n      dup1\n      sload\n      tag_68\n      swap1\n      tag_31\n      jump\t// in\n    tag_68:\n      dup1\n      iszero\n      tag_69\n      jumpi\n      dup1\n      0x1f\n      lt\n      tag_70\n      jumpi\n      0x0100\n      dup1\n      dup4\n      sload\n      div\n      mul\n      dup4\n      mstore\n      swap2\n      0x20\n      add\n      swap2\n      jump(tag_69)\n    tag_70:\n      dup3\n      add\n      swap2\n      swap1\n      0x00\n      mstore\n      keccak256(0x00, 0x20)\n      swap1\n    tag_71:\n      dup2\n      sload\n      dup2\n      mstore\n      swap1\n      0x01\n      add\n      swap1\n      0x20\n      add\n      dup1\n      dup4\n      gt\n      tag_71\n      jumpi\n      dup3\n      swap1\n      sub\n      0x1f\n      and\n      dup3\n      add\n      swap2\n    tag_69:\n      pop\n      pop\n      pop\n      pop\n      pop\n      dup2\n      mstore\n      0x20\n      add\n      0x02\n      dup3\n      add\n      dup1\n      sload\n      tag_72\n      swap1\n      tag_31\n      jump\t// in\n    tag_72:\n      dup1\n      0x1f\n      add\n      0x20\n      dup1\n      swap2\n      div\n      mul\n      0x20\n      add\n      mload(0x40)\n      swap1\n      dup2\n      add\n      0x40\n      mstore\n      dup1\n      swap3\n      swap2\n      swap1\n      dup2\n      dup2\n      mstore\n      0x20\n      add\n      dup3\n      dup1\n      sload\n      tag_73\n      swap1\n      tag_31\n      jump\t// in\n    tag_73:\n      dup1\n      iszero\n      tag_74\n      jumpi\n      dup1\n      0x1f\n      lt\n      tag_75\n      jumpi\n      0x0100\n      dup1\n      dup4\n      sload\n      div\n      mul\n      dup4\n      mstore\n      swap2\n      0x20\n      add\n      swap2\n      jump(tag_74)\n    tag_75:\n      dup3\n      add\n      swap2\n      swap1\n      0x00\n      mstore\n      keccak256(0x00, 0x20)\n      swap1\n    tag_76:\n      dup2\n      sload\n      dup2\n      mstore\n      swap1\n      0x01\n      add\n      swap1\n      0x20\n      add\n      dup1\n      dup4\n      gt\n      tag_76\n      jumpi\n      dup3\n      swap1\n      sub\n      0x1f\n      and\n      dup3\n      add\n      swap2\n    tag_74:\n      pop\n      pop\n      pop\n      pop\n      pop\n      dup2\n      mstore\n      pop\n      pop\n      dup2\n      mstore\n      0x20\n      add\n      swap1\n      0x01\n      add\n      swap1\n      jump(tag_59)\n    tag_60:\n      pop\n      pop\n      pop\n      pop\n      swap1\n      pop\n        /* \"contracts/EVote.sol\":1331:1420  function getZone() external view returns (VoteZone[] memory){... */\n      swap1\n      jump\t// out\n    tag_38:\n      dup3\n      dup1\n      sload\n      tag_77\n      swap1\n      tag_31\n      jump\t// in\n    tag_77:\n      swap1\n      0x00\n      mstore\n      keccak256(0x00, 0x20)\n      swap1\n      0x1f\n      add\n      0x20\n      swap1\n      div\n      dup2\n      add\n      swap3\n      dup3\n      tag_79\n      jumpi\n      0x00\n      dup6\n      sstore\n      jump(tag_78)\n    tag_79:\n      dup3\n      0x1f\n      lt\n      tag_80\n      jumpi\n      dup1\n      mload\n      not(0xff)\n      and\n      dup4\n      dup1\n      add\n      or\n      dup6\n      sstore\n      jump(tag_78)\n    tag_80:\n      dup3\n      dup1\n      add\n      0x01\n      add\n      dup6\n      sstore\n      dup3\n      iszero\n      tag_78\n      jumpi\n      swap2\n      dup3\n      add\n    tag_81:\n      dup3\n      dup2\n      gt\n      iszero\n      tag_82\n      jumpi\n      dup3\n      mload\n      dup3\n      sstore\n      swap2\n      0x20\n      add\n      swap2\n      swap1\n      0x01\n      add\n      swap1\n      jump(tag_81)\n    tag_82:\n    tag_78:\n      pop\n      swap1\n      pop\n      tag_83\n      swap2\n      swap1\n      tag_84\n      jump\t// in\n    tag_83:\n      pop\n      swap1\n      jump\t// out\n    tag_84:\n    tag_85:\n      dup1\n      dup3\n      gt\n      iszero\n      tag_86\n      jumpi\n      0x00\n      dup2\n      0x00\n      swap1\n      sstore\n      pop\n      0x01\n      add\n      jump(tag_85)\n    tag_86:\n      pop\n      swap1\n      jump\t// out\n        /* \"#utility.yul\":88:205   */\n    tag_88:\n        /* \"#utility.yul\":197:198   */\n      0x00\n        /* \"#utility.yul\":194:195   */\n      dup1\n        /* \"#utility.yul\":187:199   */\n      revert\n        /* \"#utility.yul\":211:328   */\n    tag_89:\n        /* \"#utility.yul\":320:321   */\n      0x00\n        /* \"#utility.yul\":317:318   */\n      dup1\n        /* \"#utility.yul\":310:322   */\n      revert\n        /* \"#utility.yul\":334:451   */\n    tag_90:\n        /* \"#utility.yul\":443:444   */\n      0x00\n        /* \"#utility.yul\":440:441   */\n      dup1\n        /* \"#utility.yul\":433:445   */\n      revert\n        /* \"#utility.yul\":457:574   */\n    tag_91:\n        /* \"#utility.yul\":566:567   */\n      0x00\n        /* \"#utility.yul\":563:564   */\n      dup1\n        /* \"#utility.yul\":556:568   */\n      revert\n        /* \"#utility.yul\":580:697   */\n    tag_92:\n        /* \"#utility.yul\":689:690   */\n      0x00\n        /* \"#utility.yul\":686:687   */\n      dup1\n        /* \"#utility.yul\":679:691   */\n      revert\n        /* \"#utility.yul\":717:1270   */\n    tag_93:\n        /* \"#utility.yul\":775:783   */\n      0x00\n        /* \"#utility.yul\":785:791   */\n      dup1\n        /* \"#utility.yul\":835:838   */\n      dup4\n        /* \"#utility.yul\":828:832   */\n      0x1f\n        /* \"#utility.yul\":820:826   */\n      dup5\n        /* \"#utility.yul\":816:833   */\n      add\n        /* \"#utility.yul\":812:839   */\n      slt\n        /* \"#utility.yul\":802:924   */\n      tag_128\n      jumpi\n        /* \"#utility.yul\":843:922   */\n      tag_129\n      tag_90\n      jump\t// in\n    tag_129:\n        /* \"#utility.yul\":802:924   */\n    tag_128:\n        /* \"#utility.yul\":956:962   */\n      dup3\n        /* \"#utility.yul\":943:963   */\n      calldataload\n        /* \"#utility.yul\":933:963   */\n      swap1\n      pop\n        /* \"#utility.yul\":986:1004   */\n      0xffffffffffffffff\n        /* \"#utility.yul\":978:984   */\n      dup2\n        /* \"#utility.yul\":975:1005   */\n      gt\n        /* \"#utility.yul\":972:1089   */\n      iszero\n      tag_130\n      jumpi\n        /* \"#utility.yul\":1008:1087   */\n      tag_131\n      tag_91\n      jump\t// in\n    tag_131:\n        /* \"#utility.yul\":972:1089   */\n    tag_130:\n        /* \"#utility.yul\":1122:1126   */\n      0x20\n        /* \"#utility.yul\":1114:1120   */\n      dup4\n        /* \"#utility.yul\":1110:1127   */\n      add\n        /* \"#utility.yul\":1098:1127   */\n      swap2\n      pop\n        /* \"#utility.yul\":1176:1179   */\n      dup4\n        /* \"#utility.yul\":1168:1172   */\n      0x01\n        /* \"#utility.yul\":1160:1166   */\n      dup3\n        /* \"#utility.yul\":1156:1173   */\n      mul\n        /* \"#utility.yul\":1146:1154   */\n      dup4\n        /* \"#utility.yul\":1142:1174   */\n      add\n        /* \"#utility.yul\":1139:1180   */\n      gt\n        /* \"#utility.yul\":1136:1264   */\n      iszero\n      tag_132\n      jumpi\n        /* \"#utility.yul\":1183:1262   */\n      tag_133\n      tag_92\n      jump\t// in\n    tag_133:\n        /* \"#utility.yul\":1136:1264   */\n    tag_132:\n        /* \"#utility.yul\":717:1270   */\n      swap3\n      pop\n      swap3\n      swap1\n      pop\n      jump\t// out\n        /* \"#utility.yul\":1276:2495   */\n    tag_9:\n        /* \"#utility.yul\":1389:1395   */\n      0x00\n        /* \"#utility.yul\":1397:1403   */\n      dup1\n        /* \"#utility.yul\":1405:1411   */\n      0x00\n        /* \"#utility.yul\":1413:1419   */\n      dup1\n        /* \"#utility.yul\":1421:1427   */\n      0x00\n        /* \"#utility.yul\":1429:1435   */\n      dup1\n        /* \"#utility.yul\":1478:1480   */\n      0x60\n        /* \"#utility.yul\":1466:1475   */\n      dup8\n        /* \"#utility.yul\":1457:1464   */\n      dup10\n        /* \"#utility.yul\":1453:1476   */\n      sub\n        /* \"#utility.yul\":1449:1481   */\n      slt\n        /* \"#utility.yul\":1446:1565   */\n      iszero\n      tag_135\n      jumpi\n        /* \"#utility.yul\":1484:1563   */\n      tag_136\n      tag_88\n      jump\t// in\n    tag_136:\n        /* \"#utility.yul\":1446:1565   */\n    tag_135:\n        /* \"#utility.yul\":1632:1633   */\n      0x00\n        /* \"#utility.yul\":1621:1630   */\n      dup8\n        /* \"#utility.yul\":1617:1634   */\n      add\n        /* \"#utility.yul\":1604:1635   */\n      calldataload\n        /* \"#utility.yul\":1662:1680   */\n      0xffffffffffffffff\n        /* \"#utility.yul\":1654:1660   */\n      dup2\n        /* \"#utility.yul\":1651:1681   */\n      gt\n        /* \"#utility.yul\":1648:1765   */\n      iszero\n      tag_137\n      jumpi\n        /* \"#utility.yul\":1684:1763   */\n      tag_138\n      tag_89\n      jump\t// in\n    tag_138:\n        /* \"#utility.yul\":1648:1765   */\n    tag_137:\n        /* \"#utility.yul\":1797:1862   */\n      tag_139\n        /* \"#utility.yul\":1854:1861   */\n      dup10\n        /* \"#utility.yul\":1845:1851   */\n      dup3\n        /* \"#utility.yul\":1834:1843   */\n      dup11\n        /* \"#utility.yul\":1830:1852   */\n      add\n        /* \"#utility.yul\":1797:1862   */\n      tag_93\n      jump\t// in\n    tag_139:\n        /* \"#utility.yul\":1779:1862   */\n      swap7\n      pop\n      swap7\n      pop\n        /* \"#utility.yul\":1575:1872   */\n      pop\n        /* \"#utility.yul\":1939:1941   */\n      0x20\n        /* \"#utility.yul\":1928:1937   */\n      dup8\n        /* \"#utility.yul\":1924:1942   */\n      add\n        /* \"#utility.yul\":1911:1943   */\n      calldataload\n        /* \"#utility.yul\":1970:1988   */\n      0xffffffffffffffff\n        /* \"#utility.yul\":1962:1968   */\n      dup2\n        /* \"#utility.yul\":1959:1989   */\n      gt\n        /* \"#utility.yul\":1956:2073   */\n      iszero\n      tag_140\n      jumpi\n        /* \"#utility.yul\":1992:2071   */\n      tag_141\n      tag_89\n      jump\t// in\n    tag_141:\n        /* \"#utility.yul\":1956:2073   */\n    tag_140:\n        /* \"#utility.yul\":2105:2170   */\n      tag_142\n        /* \"#utility.yul\":2162:2169   */\n      dup10\n        /* \"#utility.yul\":2153:2159   */\n      dup3\n        /* \"#utility.yul\":2142:2151   */\n      dup11\n        /* \"#utility.yul\":2138:2160   */\n      add\n        /* \"#utility.yul\":2105:2170   */\n      tag_93\n      jump\t// in\n    tag_142:\n        /* \"#utility.yul\":2087:2170   */\n      swap5\n      pop\n      swap5\n      pop\n        /* \"#utility.yul\":1882:2180   */\n      pop\n        /* \"#utility.yul\":2247:2249   */\n      0x40\n        /* \"#utility.yul\":2236:2245   */\n      dup8\n        /* \"#utility.yul\":2232:2250   */\n      add\n        /* \"#utility.yul\":2219:2251   */\n      calldataload\n        /* \"#utility.yul\":2278:2296   */\n      0xffffffffffffffff\n        /* \"#utility.yul\":2270:2276   */\n      dup2\n        /* \"#utility.yul\":2267:2297   */\n      gt\n        /* \"#utility.yul\":2264:2381   */\n      iszero\n      tag_143\n      jumpi\n        /* \"#utility.yul\":2300:2379   */\n      tag_144\n      tag_89\n      jump\t// in\n    tag_144:\n        /* \"#utility.yul\":2264:2381   */\n    tag_143:\n        /* \"#utility.yul\":2413:2478   */\n      tag_145\n        /* \"#utility.yul\":2470:2477   */\n      dup10\n        /* \"#utility.yul\":2461:2467   */\n      dup3\n        /* \"#utility.yul\":2450:2459   */\n      dup11\n        /* \"#utility.yul\":2446:2468   */\n      add\n        /* \"#utility.yul\":2413:2478   */\n      tag_93\n      jump\t// in\n    tag_145:\n        /* \"#utility.yul\":2395:2478   */\n      swap3\n      pop\n      swap3\n      pop\n        /* \"#utility.yul\":2190:2488   */\n      pop\n        /* \"#utility.yul\":1276:2495   */\n      swap3\n      swap6\n      pop\n      swap3\n      swap6\n      pop\n      swap3\n      swap6\n      jump\t// out\n        /* \"#utility.yul\":2501:2627   */\n    tag_94:\n        /* \"#utility.yul\":2538:2545   */\n      0x00\n        /* \"#utility.yul\":2578:2620   */\n      0xffffffffffffffffffffffffffffffffffffffff\n        /* \"#utility.yul\":2571:2576   */\n      dup3\n        /* \"#utility.yul\":2567:2621   */\n      and\n        /* \"#utility.yul\":2556:2621   */\n      swap1\n      pop\n        /* \"#utility.yul\":2501:2627   */\n      swap2\n      swap1\n      pop\n      jump\t// out\n        /* \"#utility.yul\":2633:2729   */\n    tag_95:\n        /* \"#utility.yul\":2670:2677   */\n      0x00\n        /* \"#utility.yul\":2699:2723   */\n      tag_148\n        /* \"#utility.yul\":2717:2722   */\n      dup3\n        /* \"#utility.yul\":2699:2723   */\n      tag_94\n      jump\t// in\n    tag_148:\n        /* \"#utility.yul\":2688:2723   */\n      swap1\n      pop\n        /* \"#utility.yul\":2633:2729   */\n      swap2\n      swap1\n      pop\n      jump\t// out\n        /* \"#utility.yul\":2735:2853   */\n    tag_96:\n        /* \"#utility.yul\":2822:2846   */\n      tag_150\n        /* \"#utility.yul\":2840:2845   */\n      dup2\n        /* \"#utility.yul\":2822:2846   */\n      tag_95\n      jump\t// in\n    tag_150:\n        /* \"#utility.yul\":2817:2820   */\n      dup3\n        /* \"#utility.yul\":2810:2847   */\n      mstore\n        /* \"#utility.yul\":2735:2853   */\n      pop\n      pop\n      jump\t// out\n        /* \"#utility.yul\":2859:3081   */\n    tag_14:\n        /* \"#utility.yul\":2952:2956   */\n      0x00\n        /* \"#utility.yul\":2990:2992   */\n      0x20\n        /* \"#utility.yul\":2979:2988   */\n      dup3\n        /* \"#utility.yul\":2975:2993   */\n      add\n        /* \"#utility.yul\":2967:2993   */\n      swap1\n      pop\n        /* \"#utility.yul\":3003:3074   */\n      tag_152\n        /* \"#utility.yul\":3071:3072   */\n      0x00\n        /* \"#utility.yul\":3060:3069   */\n      dup4\n        /* \"#utility.yul\":3056:3073   */\n      add\n        /* \"#utility.yul\":3047:3053   */\n      dup5\n        /* \"#utility.yul\":3003:3074   */\n      tag_96\n      jump\t// in\n    tag_152:\n        /* \"#utility.yul\":2859:3081   */\n      swap3\n      swap2\n      pop\n      pop\n      jump\t// out\n        /* \"#utility.yul\":3087:3209   */\n    tag_97:\n        /* \"#utility.yul\":3160:3184   */\n      tag_154\n        /* \"#utility.yul\":3178:3183   */\n      dup2\n        /* \"#utility.yul\":3160:3184   */\n      tag_95\n      jump\t// in\n    tag_154:\n        /* \"#utility.yul\":3153:3158   */\n      dup2\n        /* \"#utility.yul\":3150:3185   */\n      eq\n        /* \"#utility.yul\":3140:3203   */\n      tag_155\n      jumpi\n        /* \"#utility.yul\":3199:3200   */\n      0x00\n        /* \"#utility.yul\":3196:3197   */\n      dup1\n        /* \"#utility.yul\":3189:3201   */\n      revert\n        /* \"#utility.yul\":3140:3203   */\n    tag_155:\n        /* \"#utility.yul\":3087:3209   */\n      pop\n      jump\t// out\n        /* \"#utility.yul\":3215:3354   */\n    tag_98:\n        /* \"#utility.yul\":3261:3266   */\n      0x00\n        /* \"#utility.yul\":3299:3305   */\n      dup2\n        /* \"#utility.yul\":3286:3306   */\n      calldataload\n        /* \"#utility.yul\":3277:3306   */\n      swap1\n      pop\n        /* \"#utility.yul\":3315:3348   */\n      tag_157\n        /* \"#utility.yul\":3342:3347   */\n      dup2\n        /* \"#utility.yul\":3315:3348   */\n      tag_97\n      jump\t// in\n    tag_157:\n        /* \"#utility.yul\":3215:3354   */\n      swap3\n      swap2\n      pop\n      pop\n      jump\t// out\n        /* \"#utility.yul\":3360:4379   */\n    tag_17:\n        /* \"#utility.yul\":3461:3467   */\n      0x00\n        /* \"#utility.yul\":3469:3475   */\n      dup1\n        /* \"#utility.yul\":3477:3483   */\n      0x00\n        /* \"#utility.yul\":3485:3491   */\n      dup1\n        /* \"#utility.yul\":3493:3499   */\n      0x00\n        /* \"#utility.yul\":3542:3544   */\n      0x60\n        /* \"#utility.yul\":3530:3539   */\n      dup7\n        /* \"#utility.yul\":3521:3528   */\n      dup9\n        /* \"#utility.yul\":3517:3540   */\n      sub\n        /* \"#utility.yul\":3513:3545   */\n      slt\n        /* \"#utility.yul\":3510:3629   */\n      iszero\n      tag_159\n      jumpi\n        /* \"#utility.yul\":3548:3627   */\n      tag_160\n      tag_88\n      jump\t// in\n    tag_160:\n        /* \"#utility.yul\":3510:3629   */\n    tag_159:\n        /* \"#utility.yul\":3668:3669   */\n      0x00\n        /* \"#utility.yul\":3693:3746   */\n      tag_161\n        /* \"#utility.yul\":3738:3745   */\n      dup9\n        /* \"#utility.yul\":3729:3735   */\n      dup3\n        /* \"#utility.yul\":3718:3727   */\n      dup10\n        /* \"#utility.yul\":3714:3736   */\n      add\n        /* \"#utility.yul\":3693:3746   */\n      tag_98\n      jump\t// in\n    tag_161:\n        /* \"#utility.yul\":3683:3746   */\n      swap6\n      pop\n        /* \"#utility.yul\":3639:3756   */\n      pop\n        /* \"#utility.yul\":3823:3825   */\n      0x20\n        /* \"#utility.yul\":3812:3821   */\n      dup7\n        /* \"#utility.yul\":3808:3826   */\n      add\n        /* \"#utility.yul\":3795:3827   */\n      calldataload\n        /* \"#utility.yul\":3854:3872   */\n      0xffffffffffffffff\n        /* \"#utility.yul\":3846:3852   */\n      dup2\n        /* \"#utility.yul\":3843:3873   */\n      gt\n        /* \"#utility.yul\":3840:3957   */\n      iszero\n      tag_162\n      jumpi\n        /* \"#utility.yul\":3876:3955   */\n      tag_163\n      tag_89\n      jump\t// in\n    tag_163:\n        /* \"#utility.yul\":3840:3957   */\n    tag_162:\n        /* \"#utility.yul\":3989:4054   */\n      tag_164\n        /* \"#utility.yul\":4046:4053   */\n      dup9\n        /* \"#utility.yul\":4037:4043   */\n      dup3\n        /* \"#utility.yul\":4026:4035   */\n      dup10\n        /* \"#utility.yul\":4022:4044   */\n      add\n        /* \"#utility.yul\":3989:4054   */\n      tag_93\n      jump\t// in\n    tag_164:\n        /* \"#utility.yul\":3971:4054   */\n      swap5\n      pop\n      swap5\n      pop\n        /* \"#utility.yul\":3766:4064   */\n      pop\n        /* \"#utility.yul\":4131:4133   */\n      0x40\n        /* \"#utility.yul\":4120:4129   */\n      dup7\n        /* \"#utility.yul\":4116:4134   */\n      add\n        /* \"#utility.yul\":4103:4135   */\n      calldataload\n        /* \"#utility.yul\":4162:4180   */\n      0xffffffffffffffff\n        /* \"#utility.yul\":4154:4160   */\n      dup2\n        /* \"#utility.yul\":4151:4181   */\n      gt\n        /* \"#utility.yul\":4148:4265   */\n      iszero\n      tag_165\n      jumpi\n        /* \"#utility.yul\":4184:4263   */\n      tag_166\n      tag_89\n      jump\t// in\n    tag_166:\n        /* \"#utility.yul\":4148:4265   */\n    tag_165:\n        /* \"#utility.yul\":4297:4362   */\n      tag_167\n        /* \"#utility.yul\":4354:4361   */\n      dup9\n        /* \"#utility.yul\":4345:4351   */\n      dup3\n        /* \"#utility.yul\":4334:4343   */\n      dup10\n        /* \"#utility.yul\":4330:4352   */\n      add\n        /* \"#utility.yul\":4297:4362   */\n      tag_93\n      jump\t// in\n    tag_167:\n        /* \"#utility.yul\":4279:4362   */\n      swap3\n      pop\n      swap3\n      pop\n        /* \"#utility.yul\":4074:4372   */\n      pop\n        /* \"#utility.yul\":3360:4379   */\n      swap3\n      swap6\n      pop\n      swap3\n      swap6\n      swap1\n      swap4\n      pop\n      jump\t// out\n        /* \"#utility.yul\":4385:4524   */\n    tag_99:\n        /* \"#utility.yul\":4477:4483   */\n      0x00\n        /* \"#utility.yul\":4511:4516   */\n      dup2\n        /* \"#utility.yul\":4505:4517   */\n      mload\n        /* \"#utility.yul\":4495:4517   */\n      swap1\n      pop\n        /* \"#utility.yul\":4385:4524   */\n      swap2\n      swap1\n      pop\n      jump\t// out\n        /* \"#utility.yul\":4530:4739   */\n    tag_100:\n        /* \"#utility.yul\":4654:4665   */\n      0x00\n        /* \"#utility.yul\":4688:4694   */\n      dup3\n        /* \"#utility.yul\":4683:4686   */\n      dup3\n        /* \"#utility.yul\":4676:4695   */\n      mstore\n        /* \"#utility.yul\":4728:4732   */\n      0x20\n        /* \"#utility.yul\":4723:4726   */\n      dup3\n        /* \"#utility.yul\":4719:4733   */\n      add\n        /* \"#utility.yul\":4704:4733   */\n      swap1\n      pop\n        /* \"#utility.yul\":4530:4739   */\n      swap3\n      swap2\n      pop\n      pop\n      jump\t// out\n        /* \"#utility.yul\":4745:4902   */\n    tag_101:\n        /* \"#utility.yul\":4837:4841   */\n      0x00\n        /* \"#utility.yul\":4860:4863   */\n      dup2\n        /* \"#utility.yul\":4852:4863   */\n      swap1\n      pop\n        /* \"#utility.yul\":4890:4894   */\n      0x20\n        /* \"#utility.yul\":4885:4888   */\n      dup3\n        /* \"#utility.yul\":4881:4895   */\n      add\n        /* \"#utility.yul\":4873:4895   */\n      swap1\n      pop\n        /* \"#utility.yul\":4745:4902   */\n      swap2\n      swap1\n      pop\n      jump\t// out\n        /* \"#utility.yul\":4908:5007   */\n    tag_102:\n        /* \"#utility.yul\":4960:4966   */\n      0x00\n        /* \"#utility.yul\":4994:4999   */\n      dup2\n        /* \"#utility.yul\":4988:5000   */\n      mload\n        /* \"#utility.yul\":4978:5000   */\n      swap1\n      pop\n        /* \"#utility.yul\":4908:5007   */\n      swap2\n      swap1\n      pop\n      jump\t// out\n        /* \"#utility.yul\":5013:5172   */\n    tag_103:\n        /* \"#utility.yul\":5087:5098   */\n      0x00\n        /* \"#utility.yul\":5121:5127   */\n      dup3\n        /* \"#utility.yul\":5116:5119   */\n      dup3\n        /* \"#utility.yul\":5109:5128   */\n      mstore\n        /* \"#utility.yul\":5161:5165   */\n      0x20\n        /* \"#utility.yul\":5156:5159   */\n      dup3\n        /* \"#utility.yul\":5152:5166   */\n      add\n        /* \"#utility.yul\":5137:5166   */\n      swap1\n      pop\n        /* \"#utility.yul\":5013:5172   */\n      swap3\n      swap2\n      pop\n      pop\n      jump\t// out\n        /* \"#utility.yul\":5178:5485   */\n    tag_104:\n        /* \"#utility.yul\":5246:5247   */\n      0x00\n        /* \"#utility.yul\":5256:5369   */\n    tag_174:\n        /* \"#utility.yul\":5270:5276   */\n      dup4\n        /* \"#utility.yul\":5267:5268   */\n      dup2\n        /* \"#utility.yul\":5264:5277   */\n      lt\n        /* \"#utility.yul\":5256:5369   */\n      iszero\n      tag_176\n      jumpi\n        /* \"#utility.yul\":5355:5356   */\n      dup1\n        /* \"#utility.yul\":5350:5353   */\n      dup3\n        /* \"#utility.yul\":5346:5357   */\n      add\n        /* \"#utility.yul\":5340:5358   */\n      mload\n        /* \"#utility.yul\":5336:5337   */\n      dup2\n        /* \"#utility.yul\":5331:5334   */\n      dup5\n        /* \"#utility.yul\":5327:5338   */\n      add\n        /* \"#utility.yul\":5320:5359   */\n      mstore\n        /* \"#utility.yul\":5292:5294   */\n      0x20\n        /* \"#utility.yul\":5289:5290   */\n      dup2\n        /* \"#utility.yul\":5285:5295   */\n      add\n        /* \"#utility.yul\":5280:5295   */\n      swap1\n      pop\n        /* \"#utility.yul\":5256:5369   */\n      jump(tag_174)\n    tag_176:\n        /* \"#utility.yul\":5387:5393   */\n      dup4\n        /* \"#utility.yul\":5384:5385   */\n      dup2\n        /* \"#utility.yul\":5381:5394   */\n      gt\n        /* \"#utility.yul\":5378:5479   */\n      iszero\n      tag_177\n      jumpi\n        /* \"#utility.yul\":5467:5468   */\n      0x00\n        /* \"#utility.yul\":5458:5464   */\n      dup5\n        /* \"#utility.yul\":5453:5456   */\n      dup5\n        /* \"#utility.yul\":5449:5465   */\n      add\n        /* \"#utility.yul\":5442:5469   */\n      mstore\n        /* \"#utility.yul\":5378:5479   */\n    tag_177:\n        /* \"#utility.yul\":5227:5485   */\n      pop\n        /* \"#utility.yul\":5178:5485   */\n      pop\n      pop\n      pop\n      jump\t// out\n        /* \"#utility.yul\":5491:5593   */\n    tag_105:\n        /* \"#utility.yul\":5532:5538   */\n      0x00\n        /* \"#utility.yul\":5583:5585   */\n      0x1f\n        /* \"#utility.yul\":5579:5586   */\n      not\n        /* \"#utility.yul\":5574:5576   */\n      0x1f\n        /* \"#utility.yul\":5567:5572   */\n      dup4\n        /* \"#utility.yul\":5563:5577   */\n      add\n        /* \"#utility.yul\":5559:5587   */\n      and\n        /* \"#utility.yul\":5549:5587   */\n      swap1\n      pop\n        /* \"#utility.yul\":5491:5593   */\n      swap2\n      swap1\n      pop\n      jump\t// out\n        /* \"#utility.yul\":5599:5943   */\n    tag_106:\n        /* \"#utility.yul\":5677:5680   */\n      0x00\n        /* \"#utility.yul\":5705:5744   */\n      tag_180\n        /* \"#utility.yul\":5738:5743   */\n      dup3\n        /* \"#utility.yul\":5705:5744   */\n      tag_102\n      jump\t// in\n    tag_180:\n        /* \"#utility.yul\":5760:5821   */\n      tag_181\n        /* \"#utility.yul\":5814:5820   */\n      dup2\n        /* \"#utility.yul\":5809:5812   */\n      dup6\n        /* \"#utility.yul\":5760:5821   */\n      tag_103\n      jump\t// in\n    tag_181:\n        /* \"#utility.yul\":5753:5821   */\n      swap4\n      pop\n        /* \"#utility.yul\":5830:5882   */\n      tag_182\n        /* \"#utility.yul\":5875:5881   */\n      dup2\n        /* \"#utility.yul\":5870:5873   */\n      dup6\n        /* \"#utility.yul\":5863:5867   */\n      0x20\n        /* \"#utility.yul\":5856:5861   */\n      dup7\n        /* \"#utility.yul\":5852:5868   */\n      add\n        /* \"#utility.yul\":5830:5882   */\n      tag_104\n      jump\t// in\n    tag_182:\n        /* \"#utility.yul\":5907:5936   */\n      tag_183\n        /* \"#utility.yul\":5929:5935   */\n      dup2\n        /* \"#utility.yul\":5907:5936   */\n      tag_105\n      jump\t// in\n    tag_183:\n        /* \"#utility.yul\":5902:5905   */\n      dup5\n        /* \"#utility.yul\":5898:5937   */\n      add\n        /* \"#utility.yul\":5891:5937   */\n      swap2\n      pop\n        /* \"#utility.yul\":5681:5943   */\n      pop\n        /* \"#utility.yul\":5599:5943   */\n      swap3\n      swap2\n      pop\n      pop\n      jump\t// out\n        /* \"#utility.yul\":5991:6907   */\n    tag_107:\n        /* \"#utility.yul\":6100:6103   */\n      0x00\n        /* \"#utility.yul\":6136:6140   */\n      0x60\n        /* \"#utility.yul\":6131:6134   */\n      dup4\n        /* \"#utility.yul\":6127:6141   */\n      add\n        /* \"#utility.yul\":6222:6226   */\n      0x00\n        /* \"#utility.yul\":6215:6220   */\n      dup4\n        /* \"#utility.yul\":6211:6227   */\n      add\n        /* \"#utility.yul\":6205:6228   */\n      mload\n        /* \"#utility.yul\":6275:6278   */\n      dup5\n        /* \"#utility.yul\":6269:6273   */\n      dup3\n        /* \"#utility.yul\":6265:6279   */\n      sub\n        /* \"#utility.yul\":6258:6262   */\n      0x00\n        /* \"#utility.yul\":6253:6256   */\n      dup7\n        /* \"#utility.yul\":6249:6263   */\n      add\n        /* \"#utility.yul\":6242:6280   */\n      mstore\n        /* \"#utility.yul\":6301:6374   */\n      tag_185\n        /* \"#utility.yul\":6369:6373   */\n      dup3\n        /* \"#utility.yul\":6355:6367   */\n      dup3\n        /* \"#utility.yul\":6301:6374   */\n      tag_106\n      jump\t// in\n    tag_185:\n        /* \"#utility.yul\":6293:6374   */\n      swap2\n      pop\n        /* \"#utility.yul\":6151:6385   */\n      pop\n        /* \"#utility.yul\":6468:6472   */\n      0x20\n        /* \"#utility.yul\":6461:6466   */\n      dup4\n        /* \"#utility.yul\":6457:6473   */\n      add\n        /* \"#utility.yul\":6451:6474   */\n      mload\n        /* \"#utility.yul\":6521:6524   */\n      dup5\n        /* \"#utility.yul\":6515:6519   */\n      dup3\n        /* \"#utility.yul\":6511:6525   */\n      sub\n        /* \"#utility.yul\":6504:6508   */\n      0x20\n        /* \"#utility.yul\":6499:6502   */\n      dup7\n        /* \"#utility.yul\":6495:6509   */\n      add\n        /* \"#utility.yul\":6488:6526   */\n      mstore\n        /* \"#utility.yul\":6547:6620   */\n      tag_186\n        /* \"#utility.yul\":6615:6619   */\n      dup3\n        /* \"#utility.yul\":6601:6613   */\n      dup3\n        /* \"#utility.yul\":6547:6620   */\n      tag_106\n      jump\t// in\n    tag_186:\n        /* \"#utility.yul\":6539:6620   */\n      swap2\n      pop\n        /* \"#utility.yul\":6395:6631   */\n      pop\n        /* \"#utility.yul\":6717:6721   */\n      0x40\n        /* \"#utility.yul\":6710:6715   */\n      dup4\n        /* \"#utility.yul\":6706:6722   */\n      add\n        /* \"#utility.yul\":6700:6723   */\n      mload\n        /* \"#utility.yul\":6770:6773   */\n      dup5\n        /* \"#utility.yul\":6764:6768   */\n      dup3\n        /* \"#utility.yul\":6760:6774   */\n      sub\n        /* \"#utility.yul\":6753:6757   */\n      0x40\n        /* \"#utility.yul\":6748:6751   */\n      dup7\n        /* \"#utility.yul\":6744:6758   */\n      add\n        /* \"#utility.yul\":6737:6775   */\n      mstore\n        /* \"#utility.yul\":6796:6869   */\n      tag_187\n        /* \"#utility.yul\":6864:6868   */\n      dup3\n        /* \"#utility.yul\":6850:6862   */\n      dup3\n        /* \"#utility.yul\":6796:6869   */\n      tag_106\n      jump\t// in\n    tag_187:\n        /* \"#utility.yul\":6788:6869   */\n      swap2\n      pop\n        /* \"#utility.yul\":6641:6880   */\n      pop\n        /* \"#utility.yul\":6897:6901   */\n      dup1\n        /* \"#utility.yul\":6890:6901   */\n      swap2\n      pop\n        /* \"#utility.yul\":6105:6907   */\n      pop\n        /* \"#utility.yul\":5991:6907   */\n      swap3\n      swap2\n      pop\n      pop\n      jump\t// out\n        /* \"#utility.yul\":6913:7169   */\n    tag_108:\n        /* \"#utility.yul\":7032:7042   */\n      0x00\n        /* \"#utility.yul\":7067:7163   */\n      tag_189\n        /* \"#utility.yul\":7159:7162   */\n      dup4\n        /* \"#utility.yul\":7151:7157   */\n      dup4\n        /* \"#utility.yul\":7067:7163   */\n      tag_107\n      jump\t// in\n    tag_189:\n        /* \"#utility.yul\":7053:7163   */\n      swap1\n      pop\n        /* \"#utility.yul\":6913:7169   */\n      swap3\n      swap2\n      pop\n      pop\n      jump\t// out\n        /* \"#utility.yul\":7175:7313   */\n    tag_109:\n        /* \"#utility.yul\":7270:7274   */\n      0x00\n        /* \"#utility.yul\":7302:7306   */\n      0x20\n        /* \"#utility.yul\":7297:7300   */\n      dup3\n        /* \"#utility.yul\":7293:7307   */\n      add\n        /* \"#utility.yul\":7285:7307   */\n      swap1\n      pop\n        /* \"#utility.yul\":7175:7313   */\n      swap2\n      swap1\n      pop\n      jump\t// out\n        /* \"#utility.yul\":7365:8476   */\n    tag_110:\n        /* \"#utility.yul\":7534:7537   */\n      0x00\n        /* \"#utility.yul\":7563:7642   */\n      tag_192\n        /* \"#utility.yul\":7636:7641   */\n      dup3\n        /* \"#utility.yul\":7563:7642   */\n      tag_99\n      jump\t// in\n    tag_192:\n        /* \"#utility.yul\":7658:7769   */\n      tag_193\n        /* \"#utility.yul\":7762:7768   */\n      dup2\n        /* \"#utility.yul\":7757:7760   */\n      dup6\n        /* \"#utility.yul\":7658:7769   */\n      tag_100\n      jump\t// in\n    tag_193:\n        /* \"#utility.yul\":7651:7769   */\n      swap4\n      pop\n        /* \"#utility.yul\":7795:7798   */\n      dup4\n        /* \"#utility.yul\":7840:7844   */\n      0x20\n        /* \"#utility.yul\":7832:7838   */\n      dup3\n        /* \"#utility.yul\":7828:7845   */\n      mul\n        /* \"#utility.yul\":7823:7826   */\n      dup6\n        /* \"#utility.yul\":7819:7846   */\n      add\n        /* \"#utility.yul\":7870:7951   */\n      tag_194\n        /* \"#utility.yul\":7945:7950   */\n      dup6\n        /* \"#utility.yul\":7870:7951   */\n      tag_101\n      jump\t// in\n    tag_194:\n        /* \"#utility.yul\":7974:7981   */\n      dup1\n        /* \"#utility.yul\":8005:8006   */\n      0x00\n        /* \"#utility.yul\":7990:8431   */\n    tag_195:\n        /* \"#utility.yul\":8015:8021   */\n      dup6\n        /* \"#utility.yul\":8012:8013   */\n      dup2\n        /* \"#utility.yul\":8009:8022   */\n      lt\n        /* \"#utility.yul\":7990:8431   */\n      iszero\n      tag_197\n      jumpi\n        /* \"#utility.yul\":8086:8095   */\n      dup5\n        /* \"#utility.yul\":8080:8084   */\n      dup5\n        /* \"#utility.yul\":8076:8096   */\n      sub\n        /* \"#utility.yul\":8071:8074   */\n      dup10\n        /* \"#utility.yul\":8064:8097   */\n      mstore\n        /* \"#utility.yul\":8137:8143   */\n      dup2\n        /* \"#utility.yul\":8131:8144   */\n      mload\n        /* \"#utility.yul\":8165:8279   */\n      tag_198\n        /* \"#utility.yul\":8274:8278   */\n      dup6\n        /* \"#utility.yul\":8259:8272   */\n      dup3\n        /* \"#utility.yul\":8165:8279   */\n      tag_108\n      jump\t// in\n    tag_198:\n        /* \"#utility.yul\":8157:8279   */\n      swap5\n      pop\n        /* \"#utility.yul\":8302:8387   */\n      tag_199\n        /* \"#utility.yul\":8380:8386   */\n      dup4\n        /* \"#utility.yul\":8302:8387   */\n      tag_109\n      jump\t// in\n    tag_199:\n        /* \"#utility.yul\":8292:8387   */\n      swap3\n      pop\n        /* \"#utility.yul\":8416:8420   */\n      0x20\n        /* \"#utility.yul\":8411:8414   */\n      dup11\n        /* \"#utility.yul\":8407:8421   */\n      add\n        /* \"#utility.yul\":8400:8421   */\n      swap10\n      pop\n        /* \"#utility.yul\":8050:8431   */\n      pop\n        /* \"#utility.yul\":8037:8038   */\n      0x01\n        /* \"#utility.yul\":8034:8035   */\n      dup2\n        /* \"#utility.yul\":8030:8039   */\n      add\n        /* \"#utility.yul\":8025:8039   */\n      swap1\n      pop\n        /* \"#utility.yul\":7990:8431   */\n      jump(tag_195)\n    tag_197:\n        /* \"#utility.yul\":7994:8008   */\n      pop\n        /* \"#utility.yul\":8447:8451   */\n      dup3\n        /* \"#utility.yul\":8440:8451   */\n      swap8\n      pop\n        /* \"#utility.yul\":8467:8470   */\n      dup8\n        /* \"#utility.yul\":8460:8470   */\n      swap6\n      pop\n        /* \"#utility.yul\":7539:8476   */\n      pop\n      pop\n      pop\n      pop\n      pop\n        /* \"#utility.yul\":7365:8476   */\n      swap3\n      swap2\n      pop\n      pop\n      jump\t// out\n        /* \"#utility.yul\":8482:8955   */\n    tag_22:\n        /* \"#utility.yul\":8675:8679   */\n      0x00\n        /* \"#utility.yul\":8713:8715   */\n      0x20\n        /* \"#utility.yul\":8702:8711   */\n      dup3\n        /* \"#utility.yul\":8698:8716   */\n      add\n        /* \"#utility.yul\":8690:8716   */\n      swap1\n      pop\n        /* \"#utility.yul\":8762:8771   */\n      dup2\n        /* \"#utility.yul\":8756:8760   */\n      dup2\n        /* \"#utility.yul\":8752:8772   */\n      sub\n        /* \"#utility.yul\":8748:8749   */\n      0x00\n        /* \"#utility.yul\":8737:8746   */\n      dup4\n        /* \"#utility.yul\":8733:8750   */\n      add\n        /* \"#utility.yul\":8726:8773   */\n      mstore\n        /* \"#utility.yul\":8790:8948   */\n      tag_201\n        /* \"#utility.yul\":8943:8947   */\n      dup2\n        /* \"#utility.yul\":8934:8940   */\n      dup5\n        /* \"#utility.yul\":8790:8948   */\n      tag_110\n      jump\t// in\n    tag_201:\n        /* \"#utility.yul\":8782:8948   */\n      swap1\n      pop\n        /* \"#utility.yul\":8482:8955   */\n      swap3\n      swap2\n      pop\n      pop\n      jump\t// out\n        /* \"#utility.yul\":8961:9130   */\n    tag_111:\n        /* \"#utility.yul\":9045:9056   */\n      0x00\n        /* \"#utility.yul\":9079:9085   */\n      dup3\n        /* \"#utility.yul\":9074:9077   */\n      dup3\n        /* \"#utility.yul\":9067:9086   */\n      mstore\n        /* \"#utility.yul\":9119:9123   */\n      0x20\n        /* \"#utility.yul\":9114:9117   */\n      dup3\n        /* \"#utility.yul\":9110:9124   */\n      add\n        /* \"#utility.yul\":9095:9124   */\n      swap1\n      pop\n        /* \"#utility.yul\":8961:9130   */\n      swap3\n      swap2\n      pop\n      pop\n      jump\t// out\n        /* \"#utility.yul\":9136:9310   */\n    tag_112:\n        /* \"#utility.yul\":9276:9302   */\n      0x796f752063616e206e6f7420616464206f6666696369616c0000000000000000\n        /* \"#utility.yul\":9272:9273   */\n      0x00\n        /* \"#utility.yul\":9264:9270   */\n      dup3\n        /* \"#utility.yul\":9260:9274   */\n      add\n        /* \"#utility.yul\":9253:9303   */\n      mstore\n        /* \"#utility.yul\":9136:9310   */\n      pop\n      jump\t// out\n        /* \"#utility.yul\":9316:9682   */\n    tag_113:\n        /* \"#utility.yul\":9458:9461   */\n      0x00\n        /* \"#utility.yul\":9479:9546   */\n      tag_205\n        /* \"#utility.yul\":9543:9545   */\n      0x18\n        /* \"#utility.yul\":9538:9541   */\n      dup4\n        /* \"#utility.yul\":9479:9546   */\n      tag_111\n      jump\t// in\n    tag_205:\n        /* \"#utility.yul\":9472:9546   */\n      swap2\n      pop\n        /* \"#utility.yul\":9555:9648   */\n      tag_206\n        /* \"#utility.yul\":9644:9647   */\n      dup3\n        /* \"#utility.yul\":9555:9648   */\n      tag_112\n      jump\t// in\n    tag_206:\n        /* \"#utility.yul\":9673:9675   */\n      0x20\n        /* \"#utility.yul\":9668:9671   */\n      dup3\n        /* \"#utility.yul\":9664:9676   */\n      add\n        /* \"#utility.yul\":9657:9676   */\n      swap1\n      pop\n        /* \"#utility.yul\":9316:9682   */\n      swap2\n      swap1\n      pop\n      jump\t// out\n        /* \"#utility.yul\":9688:10107   */\n    tag_26:\n        /* \"#utility.yul\":9854:9858   */\n      0x00\n        /* \"#utility.yul\":9892:9894   */\n      0x20\n        /* \"#utility.yul\":9881:9890   */\n      dup3\n        /* \"#utility.yul\":9877:9895   */\n      add\n        /* \"#utility.yul\":9869:9895   */\n      swap1\n      pop\n        /* \"#utility.yul\":9941:9950   */\n      dup2\n        /* \"#utility.yul\":9935:9939   */\n      dup2\n        /* \"#utility.yul\":9931:9951   */\n      sub\n        /* \"#utility.yul\":9927:9928   */\n      0x00\n        /* \"#utility.yul\":9916:9925   */\n      dup4\n        /* \"#utility.yul\":9912:9929   */\n      add\n        /* \"#utility.yul\":9905:9952   */\n      mstore\n        /* \"#utility.yul\":9969:10100   */\n      tag_208\n        /* \"#utility.yul\":10095:10099   */\n      dup2\n        /* \"#utility.yul\":9969:10100   */\n      tag_113\n      jump\t// in\n    tag_208:\n        /* \"#utility.yul\":9961:10100   */\n      swap1\n      pop\n        /* \"#utility.yul\":9688:10107   */\n      swap2\n      swap1\n      pop\n      jump\t// out\n        /* \"#utility.yul\":10113:10261   */\n    tag_114:\n        /* \"#utility.yul\":10215:10226   */\n      0x00\n        /* \"#utility.yul\":10252:10255   */\n      dup2\n        /* \"#utility.yul\":10237:10255   */\n      swap1\n      pop\n        /* \"#utility.yul\":10113:10261   */\n      swap3\n      swap2\n      pop\n      pop\n      jump\t// out\n        /* \"#utility.yul\":10267:10421   */\n    tag_115:\n        /* \"#utility.yul\":10351:10357   */\n      dup3\n        /* \"#utility.yul\":10346:10349   */\n      dup2\n        /* \"#utility.yul\":10341:10344   */\n      dup4\n        /* \"#utility.yul\":10328:10358   */\n      calldatacopy\n        /* \"#utility.yul\":10413:10414   */\n      0x00\n        /* \"#utility.yul\":10404:10410   */\n      dup4\n        /* \"#utility.yul\":10399:10402   */\n      dup4\n        /* \"#utility.yul\":10395:10411   */\n      add\n        /* \"#utility.yul\":10388:10415   */\n      mstore\n        /* \"#utility.yul\":10267:10421   */\n      pop\n      pop\n      pop\n      jump\t// out\n        /* \"#utility.yul\":10451:10768   */\n    tag_116:\n        /* \"#utility.yul\":10567:10570   */\n      0x00\n        /* \"#utility.yul\":10588:10677   */\n      tag_212\n        /* \"#utility.yul\":10670:10676   */\n      dup4\n        /* \"#utility.yul\":10665:10668   */\n      dup6\n        /* \"#utility.yul\":10588:10677   */\n      tag_114\n      jump\t// in\n    tag_212:\n        /* \"#utility.yul\":10581:10677   */\n      swap4\n      pop\n        /* \"#utility.yul\":10687:10730   */\n      tag_213\n        /* \"#utility.yul\":10723:10729   */\n      dup4\n        /* \"#utility.yul\":10718:10721   */\n      dup6\n        /* \"#utility.yul\":10711:10716   */\n      dup5\n        /* \"#utility.yul\":10687:10730   */\n      tag_115\n      jump\t// in\n    tag_213:\n        /* \"#utility.yul\":10755:10761   */\n      dup3\n        /* \"#utility.yul\":10750:10753   */\n      dup5\n        /* \"#utility.yul\":10746:10762   */\n      add\n        /* \"#utility.yul\":10739:10762   */\n      swap1\n      pop\n        /* \"#utility.yul\":10451:10768   */\n      swap4\n      swap3\n      pop\n      pop\n      pop\n      jump\t// out\n        /* \"#utility.yul\":10774:11069   */\n    tag_29:\n        /* \"#utility.yul\":10916:10919   */\n      0x00\n        /* \"#utility.yul\":10938:11043   */\n      tag_215\n        /* \"#utility.yul\":11039:11042   */\n      dup3\n        /* \"#utility.yul\":11030:11036   */\n      dup5\n        /* \"#utility.yul\":11022:11028   */\n      dup7\n        /* \"#utility.yul\":10938:11043   */\n      tag_116\n      jump\t// in\n    tag_215:\n        /* \"#utility.yul\":10931:11043   */\n      swap2\n      pop\n        /* \"#utility.yul\":11060:11063   */\n      dup2\n        /* \"#utility.yul\":11053:11063   */\n      swap1\n      pop\n        /* \"#utility.yul\":10774:11069   */\n      swap4\n      swap3\n      pop\n      pop\n      pop\n      jump\t// out\n        /* \"#utility.yul\":11075:11255   */\n    tag_117:\n        /* \"#utility.yul\":11123:11200   */\n      0x4e487b7100000000000000000000000000000000000000000000000000000000\n        /* \"#utility.yul\":11120:11121   */\n      0x00\n        /* \"#utility.yul\":11113:11201   */\n      mstore\n        /* \"#utility.yul\":11220:11224   */\n      0x22\n        /* \"#utility.yul\":11217:11218   */\n      0x04\n        /* \"#utility.yul\":11210:11225   */\n      mstore\n        /* \"#utility.yul\":11244:11248   */\n      0x24\n        /* \"#utility.yul\":11241:11242   */\n      0x00\n        /* \"#utility.yul\":11234:11249   */\n      revert\n        /* \"#utility.yul\":11261:11581   */\n    tag_31:\n        /* \"#utility.yul\":11305:11311   */\n      0x00\n        /* \"#utility.yul\":11342:11343   */\n      0x02\n        /* \"#utility.yul\":11336:11340   */\n      dup3\n        /* \"#utility.yul\":11332:11344   */\n      div\n        /* \"#utility.yul\":11322:11344   */\n      swap1\n      pop\n        /* \"#utility.yul\":11389:11390   */\n      0x01\n        /* \"#utility.yul\":11383:11387   */\n      dup3\n        /* \"#utility.yul\":11379:11391   */\n      and\n        /* \"#utility.yul\":11410:11428   */\n      dup1\n        /* \"#utility.yul\":11400:11481   */\n      tag_218\n      jumpi\n        /* \"#utility.yul\":11466:11470   */\n      0x7f\n        /* \"#utility.yul\":11458:11464   */\n      dup3\n        /* \"#utility.yul\":11454:11471   */\n      and\n        /* \"#utility.yul\":11444:11471   */\n      swap2\n      pop\n        /* \"#utility.yul\":11400:11481   */\n    tag_218:\n        /* \"#utility.yul\":11528:11530   */\n      0x20\n        /* \"#utility.yul\":11520:11526   */\n      dup3\n        /* \"#utility.yul\":11517:11531   */\n      lt\n        /* \"#utility.yul\":11497:11515   */\n      dup2\n        /* \"#utility.yul\":11494:11532   */\n      eq\n        /* \"#utility.yul\":11491:11575   */\n      iszero\n      tag_219\n      jumpi\n        /* \"#utility.yul\":11547:11565   */\n      tag_220\n      tag_117\n      jump\t// in\n    tag_220:\n        /* \"#utility.yul\":11491:11575   */\n    tag_219:\n        /* \"#utility.yul\":11312:11581   */\n      pop\n        /* \"#utility.yul\":11261:11581   */\n      swap2\n      swap1\n      pop\n      jump\t// out\n        /* \"#utility.yul\":11587:11767   */\n    tag_118:\n        /* \"#utility.yul\":11727:11759   */\n      0x6c6f63616c20676f7665726e6d656e7420616c72656164792065786973740000\n        /* \"#utility.yul\":11723:11724   */\n      0x00\n        /* \"#utility.yul\":11715:11721   */\n      dup3\n        /* \"#utility.yul\":11711:11725   */\n      add\n        /* \"#utility.yul\":11704:11760   */\n      mstore\n        /* \"#utility.yul\":11587:11767   */\n      pop\n      jump\t// out\n        /* \"#utility.yul\":11773:12139   */\n    tag_119:\n        /* \"#utility.yul\":11915:11918   */\n      0x00\n        /* \"#utility.yul\":11936:12003   */\n      tag_223\n        /* \"#utility.yul\":12000:12002   */\n      0x1e\n        /* \"#utility.yul\":11995:11998   */\n      dup4\n        /* \"#utility.yul\":11936:12003   */\n      tag_111\n      jump\t// in\n    tag_223:\n        /* \"#utility.yul\":11929:12003   */\n      swap2\n      pop\n        /* \"#utility.yul\":12012:12105   */\n      tag_224\n        /* \"#utility.yul\":12101:12104   */\n      dup3\n        /* \"#utility.yul\":12012:12105   */\n      tag_118\n      jump\t// in\n    tag_224:\n        /* \"#utility.yul\":12130:12132   */\n      0x20\n        /* \"#utility.yul\":12125:12128   */\n      dup3\n        /* \"#utility.yul\":12121:12133   */\n      add\n        /* \"#utility.yul\":12114:12133   */\n      swap1\n      pop\n        /* \"#utility.yul\":11773:12139   */\n      swap2\n      swap1\n      pop\n      jump\t// out\n        /* \"#utility.yul\":12145:12564   */\n    tag_34:\n        /* \"#utility.yul\":12311:12315   */\n      0x00\n        /* \"#utility.yul\":12349:12351   */\n      0x20\n        /* \"#utility.yul\":12338:12347   */\n      dup3\n        /* \"#utility.yul\":12334:12352   */\n      add\n        /* \"#utility.yul\":12326:12352   */\n      swap1\n      pop\n        /* \"#utility.yul\":12398:12407   */\n      dup2\n        /* \"#utility.yul\":12392:12396   */\n      dup2\n        /* \"#utility.yul\":12388:12408   */\n      sub\n        /* \"#utility.yul\":12384:12385   */\n      0x00\n        /* \"#utility.yul\":12373:12382   */\n      dup4\n        /* \"#utility.yul\":12369:12386   */\n      add\n        /* \"#utility.yul\":12362:12409   */\n      mstore\n        /* \"#utility.yul\":12426:12557   */\n      tag_226\n        /* \"#utility.yul\":12552:12556   */\n      dup2\n        /* \"#utility.yul\":12426:12557   */\n      tag_119\n      jump\t// in\n    tag_226:\n        /* \"#utility.yul\":12418:12557   */\n      swap1\n      pop\n        /* \"#utility.yul\":12145:12564   */\n      swap2\n      swap1\n      pop\n      jump\t// out\n\n    auxdata: 0xa2646970667358221220ae9900b6aee77bad86908aa7836639e8eda5263abd57ee2a9e6a38242454b20e64736f6c63430008080033\n}\n",
				"bytecode": {
					"linkReferences": {},
					"object": "608060405234801561001057600080fd5b50336000806101000a81548173ffffffffffffffffffffffffffffffffffffffff021916908373ffffffffffffffffffffffffffffffffffffffff160217905550610fa6806100606000396000f3fe608060405234801561001057600080fd5b506004361061004c5760003560e01c80636e12dc0e14610051578063893d20e81461006d578063b7a455e61461008b578063f9095eb7146100a7575b600080fd5b61006b60048036038101906100669190610a22565b6100c5565b005b6100756103be565b6040516100829190610b17565b60405180910390f35b6100a560048036038101906100a09190610b5e565b6103e7565b005b6100af6106fb565b6040516100bc9190610dac565b60405180910390f35b3373ffffffffffffffffffffffffffffffffffffffff1660008054906101000a900473ffffffffffffffffffffffffffffffffffffffff1673ffffffffffffffffffffffffffffffffffffffff161415610154576040517f08c379a000000000000000000000000000000000000000000000000000000000815260040161014b90610e2b565b60405180910390fd5b838360006003838360405161016a929190610e8a565b9081526020016040518091039020600001805461018690610ed2565b9050106101c8576040517f08c379a00000000000000000000000000000000000000000000000000000000081526004016101bf90610f50565b60405180910390fd5b600060405180606001604052808a8a8080601f016020809104026020016040519081016040528093929190818152602001838380828437600081840152601f19601f82011690508083019250505050505050815260200186868080601f016020809104026020016040519081016040528093929190818152602001838380828437600081840152601f19601f82011690508083019250505050505050815260200188888080601f016020809104026020016040519081016040528093929190818152602001838380828437600081840152601f19601f82011690508083019250505050505050815250905080600388886040516102c6929190610e8a565b908152602001604051809103902060008201518160000190805190602001906102f0929190610910565b50602082015181600101908051906020019061030d929190610910565b50604082015181600201908051906020019061032a929190610910565b5090505060048190806001815401808255809150506001900390600052602060002090600302016000909190919091506000820151816000019080519060200190610376929190610910565b506020820151816001019080519060200190610393929190610910565b5060408201518160020190805190602001906103b0929190610910565b505050505050505050505050565b60008060009054906101000a900473ffffffffffffffffffffffffffffffffffffffff16905090565b3373ffffffffffffffffffffffffffffffffffffffff1660008054906101000a900473ffffffffffffffffffffffffffffffffffffffff1673ffffffffffffffffffffffffffffffffffffffff161415610476576040517f08c379a000000000000000000000000000000000000000000000000000000000815260040161046d90610e2b565b60405180910390fd5b818160006003838360405161048c929190610e8a565b908152602001604051809103902060000180546104a890610ed2565b9050106104ea576040517f08c379a00000000000000000000000000000000000000000000000000000000081526004016104e190610f50565b60405180910390fd5b6001879080600181540180825580915050600190039060005260206000200160009091909190916101000a81548173ffffffffffffffffffffffffffffffffffffffff021916908373ffffffffffffffffffffffffffffffffffffffff160217905550604051806080016040528087878080601f016020809104026020016040519081016040528093929190818152602001838380828437600081840152601f19601f82011690508083019250505050505050815260200185858080601f016020809104026020016040519081016040528093929190818152602001838380828437600081840152601f19601f8201169050808301925050505050505081526020018873ffffffffffffffffffffffffffffffffffffffff16815260200160011515815250600260008973ffffffffffffffffffffffffffffffffffffffff1673ffffffffffffffffffffffffffffffffffffffff168152602001908152602001600020600082015181600001908051906020019061066a929190610910565b506020820151816001019080519060200190610687929190610910565b5060408201518160020160006101000a81548173ffffffffffffffffffffffffffffffffffffffff021916908373ffffffffffffffffffffffffffffffffffffffff16021790555060608201518160020160146101000a81548160ff02191690831515021790555090505050505050505050565b60606004805480602002602001604051908101604052809291908181526020016000905b82821015610907578382906000526020600020906003020160405180606001604052908160008201805461075290610ed2565b80601f016020809104026020016040519081016040528092919081815260200182805461077e90610ed2565b80156107cb5780601f106107a0576101008083540402835291602001916107cb565b820191906000526020600020905b8154815290600101906020018083116107ae57829003601f168201915b505050505081526020016001820180546107e490610ed2565b80601f016020809104026020016040519081016040528092919081815260200182805461081090610ed2565b801561085d5780601f106108325761010080835404028352916020019161085d565b820191906000526020600020905b81548152906001019060200180831161084057829003601f168201915b5050505050815260200160028201805461087690610ed2565b80601f01602080910402602001604051908101604052809291908181526020018280546108a290610ed2565b80156108ef5780601f106108c4576101008083540402835291602001916108ef565b820191906000526020600020905b8154815290600101906020018083116108d257829003601f168201915b5050505050815250508152602001906001019061071f565b50505050905090565b82805461091c90610ed2565b90600052602060002090601f01602090048101928261093e5760008555610985565b82601f1061095757805160ff1916838001178555610985565b82800160010185558215610985579182015b82811115610984578251825591602001919060010190610969565b5b5090506109929190610996565b5090565b5b808211156109af576000816000905550600101610997565b5090565b600080fd5b600080fd5b600080fd5b600080fd5b600080fd5b60008083601f8401126109e2576109e16109bd565b5b8235905067ffffffffffffffff8111156109ff576109fe6109c2565b5b602083019150836001820283011115610a1b57610a1a6109c7565b5b9250929050565b60008060008060008060608789031215610a3f57610a3e6109b3565b5b600087013567ffffffffffffffff811115610a5d57610a5c6109b8565b5b610a6989828a016109cc565b9650965050602087013567ffffffffffffffff811115610a8c57610a8b6109b8565b5b610a9889828a016109cc565b9450945050604087013567ffffffffffffffff811115610abb57610aba6109b8565b5b610ac789828a016109cc565b92509250509295509295509295565b600073ffffffffffffffffffffffffffffffffffffffff82169050919050565b6000610b0182610ad6565b9050919050565b610b1181610af6565b82525050565b6000602082019050610b2c6000830184610b08565b92915050565b610b3b81610af6565b8114610b4657600080fd5b50565b600081359050610b5881610b32565b92915050565b600080600080600060608688031215610b7a57610b796109b3565b5b6000610b8888828901610b49565b955050602086013567ffffffffffffffff811115610ba957610ba86109b8565b5b610bb5888289016109cc565b9450945050604086013567ffffffffffffffff811115610bd857610bd76109b8565b5b610be4888289016109cc565b92509250509295509295909350565b600081519050919050565b600082825260208201905092915050565b6000819050602082019050919050565b600081519050919050565b600082825260208201905092915050565b60005b83811015610c59578082015181840152602081019050610c3e565b83811115610c68576000848401525b50505050565b6000601f19601f8301169050919050565b6000610c8a82610c1f565b610c948185610c2a565b9350610ca4818560208601610c3b565b610cad81610c6e565b840191505092915050565b60006060830160008301518482036000860152610cd58282610c7f565b91505060208301518482036020860152610cef8282610c7f565b91505060408301518482036040860152610d098282610c7f565b9150508091505092915050565b6000610d228383610cb8565b905092915050565b6000602082019050919050565b6000610d4282610bf3565b610d4c8185610bfe565b935083602082028501610d5e85610c0f565b8060005b85811015610d9a5784840389528151610d7b8582610d16565b9450610d8683610d2a565b925060208a01995050600181019050610d62565b50829750879550505050505092915050565b60006020820190508181036000830152610dc68184610d37565b905092915050565b600082825260208201905092915050565b7f796f752063616e206e6f7420616464206f6666696369616c0000000000000000600082015250565b6000610e15601883610dce565b9150610e2082610ddf565b602082019050919050565b60006020820190508181036000830152610e4481610e08565b9050919050565b600081905092915050565b82818337600083830152505050565b6000610e718385610e4b565b9350610e7e838584610e56565b82840190509392505050565b6000610e97828486610e65565b91508190509392505050565b7f4e487b7100000000000000000000000000000000000000000000000000000000600052602260045260246000fd5b60006002820490506001821680610eea57607f821691505b60208210811415610efe57610efd610ea3565b5b50919050565b7f6c6f63616c20676f7665726e6d656e7420616c72656164792065786973740000600082015250565b6000610f3a601e83610dce565b9150610f4582610f04565b602082019050919050565b60006020820190508181036000830152610f6981610f2d565b905091905056fea2646970667358221220ae9900b6aee77bad86908aa7836639e8eda5263abd57ee2a9e6a38242454b20e64736f6c63430008080033",
					"opcodes": "PUSH1 0x80 PUSH1 0x40 MSTORE CALLVALUE DUP1 ISZERO PUSH2 0x10 JUMPI PUSH1 0x0 DUP1 REVERT JUMPDEST POP CALLER PUSH1 0x0 DUP1 PUSH2 0x100 EXP DUP2 SLOAD DUP2 PUSH20 0xFFFFFFFFFFFFFFFFFFFFFFFFFFFFFFFFFFFFFFFF MUL NOT AND SWAP1 DUP4 PUSH20 0xFFFFFFFFFFFFFFFFFFFFFFFFFFFFFFFFFFFFFFFF AND MUL OR SWAP1 SSTORE POP PUSH2 0xFA6 DUP1 PUSH2 0x60 PUSH1 0x0 CODECOPY PUSH1 0x0 RETURN INVALID PUSH1 0x80 PUSH1 0x40 MSTORE CALLVALUE DUP1 ISZERO PUSH2 0x10 JUMPI PUSH1 0x0 DUP1 REVERT JUMPDEST POP PUSH1 0x4 CALLDATASIZE LT PUSH2 0x4C JUMPI PUSH1 0x0 CALLDATALOAD PUSH1 0xE0 SHR DUP1 PUSH4 0x6E12DC0E EQ PUSH2 0x51 JUMPI DUP1 PUSH4 0x893D20E8 EQ PUSH2 0x6D JUMPI DUP1 PUSH4 0xB7A455E6 EQ PUSH2 0x8B JUMPI DUP1 PUSH4 0xF9095EB7 EQ PUSH2 0xA7 JUMPI JUMPDEST PUSH1 0x0 DUP1 REVERT JUMPDEST PUSH2 0x6B PUSH1 0x4 DUP1 CALLDATASIZE SUB DUP2 ADD SWAP1 PUSH2 0x66 SWAP2 SWAP1 PUSH2 0xA22 JUMP JUMPDEST PUSH2 0xC5 JUMP JUMPDEST STOP JUMPDEST PUSH2 0x75 PUSH2 0x3BE JUMP JUMPDEST PUSH1 0x40 MLOAD PUSH2 0x82 SWAP2 SWAP1 PUSH2 0xB17 JUMP JUMPDEST PUSH1 0x40 MLOAD DUP1 SWAP2 SUB SWAP1 RETURN JUMPDEST PUSH2 0xA5 PUSH1 0x4 DUP1 CALLDATASIZE SUB DUP2 ADD SWAP1 PUSH2 0xA0 SWAP2 SWAP1 PUSH2 0xB5E JUMP JUMPDEST PUSH2 0x3E7 JUMP JUMPDEST STOP JUMPDEST PUSH2 0xAF PUSH2 0x6FB JUMP JUMPDEST PUSH1 0x40 MLOAD PUSH2 0xBC SWAP2 SWAP1 PUSH2 0xDAC JUMP JUMPDEST PUSH1 0x40 MLOAD DUP1 SWAP2 SUB SWAP1 RETURN JUMPDEST CALLER PUSH20 0xFFFFFFFFFFFFFFFFFFFFFFFFFFFFFFFFFFFFFFFF AND PUSH1 0x0 DUP1 SLOAD SWAP1 PUSH2 0x100 EXP SWAP1 DIV PUSH20 0xFFFFFFFFFFFFFFFFFFFFFFFFFFFFFFFFFFFFFFFF AND PUSH20 0xFFFFFFFFFFFFFFFFFFFFFFFFFFFFFFFFFFFFFFFF AND EQ ISZERO PUSH2 0x154 JUMPI PUSH1 0x40 MLOAD PUSH32 0x8C379A000000000000000000000000000000000000000000000000000000000 DUP2 MSTORE PUSH1 0x4 ADD PUSH2 0x14B SWAP1 PUSH2 0xE2B JUMP JUMPDEST PUSH1 0x40 MLOAD DUP1 SWAP2 SUB SWAP1 REVERT JUMPDEST DUP4 DUP4 PUSH1 0x0 PUSH1 0x3 DUP4 DUP4 PUSH1 0x40 MLOAD PUSH2 0x16A SWAP3 SWAP2 SWAP1 PUSH2 0xE8A JUMP JUMPDEST SWAP1 DUP2 MSTORE PUSH1 0x20 ADD PUSH1 0x40 MLOAD DUP1 SWAP2 SUB SWAP1 KECCAK256 PUSH1 0x0 ADD DUP1 SLOAD PUSH2 0x186 SWAP1 PUSH2 0xED2 JUMP JUMPDEST SWAP1 POP LT PUSH2 0x1C8 JUMPI PUSH1 0x40 MLOAD PUSH32 0x8C379A000000000000000000000000000000000000000000000000000000000 DUP2 MSTORE PUSH1 0x4 ADD PUSH2 0x1BF SWAP1 PUSH2 0xF50 JUMP JUMPDEST PUSH1 0x40 MLOAD DUP1 SWAP2 SUB SWAP1 REVERT JUMPDEST PUSH1 0x0 PUSH1 0x40 MLOAD DUP1 PUSH1 0x60 ADD PUSH1 0x40 MSTORE DUP1 DUP11 DUP11 DUP1 DUP1 PUSH1 0x1F ADD PUSH1 0x20 DUP1 SWAP2 DIV MUL PUSH1 0x20 ADD PUSH1 0x40 MLOAD SWAP1 DUP2 ADD PUSH1 0x40 MSTORE DUP1 SWAP4 SWAP3 SWAP2 SWAP1 DUP2 DUP2 MSTORE PUSH1 0x20 ADD DUP4 DUP4 DUP1 DUP3 DUP5 CALLDATACOPY PUSH1 0x0 DUP2 DUP5 ADD MSTORE PUSH1 0x1F NOT PUSH1 0x1F DUP3 ADD AND SWAP1 POP DUP1 DUP4 ADD SWAP3 POP POP POP POP POP POP POP DUP2 MSTORE PUSH1 0x20 ADD DUP7 DUP7 DUP1 DUP1 PUSH1 0x1F ADD PUSH1 0x20 DUP1 SWAP2 DIV MUL PUSH1 0x20 ADD PUSH1 0x40 MLOAD SWAP1 DUP2 ADD PUSH1 0x40 MSTORE DUP1 SWAP4 SWAP3 SWAP2 SWAP1 DUP2 DUP2 MSTORE PUSH1 0x20 ADD DUP4 DUP4 DUP1 DUP3 DUP5 CALLDATACOPY PUSH1 0x0 DUP2 DUP5 ADD MSTORE PUSH1 0x1F NOT PUSH1 0x1F DUP3 ADD AND SWAP1 POP DUP1 DUP4 ADD SWAP3 POP POP POP POP POP POP POP DUP2 MSTORE PUSH1 0x20 ADD DUP9 DUP9 DUP1 DUP1 PUSH1 0x1F ADD PUSH1 0x20 DUP1 SWAP2 DIV MUL PUSH1 0x20 ADD PUSH1 0x40 MLOAD SWAP1 DUP2 ADD PUSH1 0x40 MSTORE DUP1 SWAP4 SWAP3 SWAP2 SWAP1 DUP2 DUP2 MSTORE PUSH1 0x20 ADD DUP4 DUP4 DUP1 DUP3 DUP5 CALLDATACOPY PUSH1 0x0 DUP2 DUP5 ADD MSTORE PUSH1 0x1F NOT PUSH1 0x1F DUP3 ADD AND SWAP1 POP DUP1 DUP4 ADD SWAP3 POP POP POP POP POP POP POP DUP2 MSTORE POP SWAP1 POP DUP1 PUSH1 0x3 DUP9 DUP9 PUSH1 0x40 MLOAD PUSH2 0x2C6 SWAP3 SWAP2 SWAP1 PUSH2 0xE8A JUMP JUMPDEST SWAP1 DUP2 MSTORE PUSH1 0x20 ADD PUSH1 0x40 MLOAD DUP1 SWAP2 SUB SWAP1 KECCAK256 PUSH1 0x0 DUP3 ADD MLOAD DUP2 PUSH1 0x0 ADD SWAP1 DUP1 MLOAD SWAP1 PUSH1 0x20 ADD SWAP1 PUSH2 0x2F0 SWAP3 SWAP2 SWAP1 PUSH2 0x910 JUMP JUMPDEST POP PUSH1 0x20 DUP3 ADD MLOAD DUP2 PUSH1 0x1 ADD SWAP1 DUP1 MLOAD SWAP1 PUSH1 0x20 ADD SWAP1 PUSH2 0x30D SWAP3 SWAP2 SWAP1 PUSH2 0x910 JUMP JUMPDEST POP PUSH1 0x40 DUP3 ADD MLOAD DUP2 PUSH1 0x2 ADD SWAP1 DUP1 MLOAD SWAP1 PUSH1 0x20 ADD SWAP1 PUSH2 0x32A SWAP3 SWAP2 SWAP1 PUSH2 0x910 JUMP JUMPDEST POP SWAP1 POP POP PUSH1 0x4 DUP2 SWAP1 DUP1 PUSH1 0x1 DUP2 SLOAD ADD DUP1 DUP3 SSTORE DUP1 SWAP2 POP POP PUSH1 0x1 SWAP1 SUB SWAP1 PUSH1 0x0 MSTORE PUSH1 0x20 PUSH1 0x0 KECCAK256 SWAP1 PUSH1 0x3 MUL ADD PUSH1 0x0 SWAP1 SWAP2 SWAP1 SWAP2 SWAP1 SWAP2 POP PUSH1 0x0 DUP3 ADD MLOAD DUP2 PUSH1 0x0 ADD SWAP1 DUP1 MLOAD SWAP1 PUSH1 0x20 ADD SWAP1 PUSH2 0x376 SWAP3 SWAP2 SWAP1 PUSH2 0x910 JUMP JUMPDEST POP PUSH1 0x20 DUP3 ADD MLOAD DUP2 PUSH1 0x1 ADD SWAP1 DUP1 MLOAD SWAP1 PUSH1 0x20 ADD SWAP1 PUSH2 0x393 SWAP3 SWAP2 SWAP1 PUSH2 0x910 JUMP JUMPDEST POP PUSH1 0x40 DUP3 ADD MLOAD DUP2 PUSH1 0x2 ADD SWAP1 DUP1 MLOAD SWAP1 PUSH1 0x20 ADD SWAP1 PUSH2 0x3B0 SWAP3 SWAP2 SWAP1 PUSH2 0x910 JUMP JUMPDEST POP POP POP POP POP POP POP POP POP POP POP POP JUMP JUMPDEST PUSH1 0x0 DUP1 PUSH1 0x0 SWAP1 SLOAD SWAP1 PUSH2 0x100 EXP SWAP1 DIV PUSH20 0xFFFFFFFFFFFFFFFFFFFFFFFFFFFFFFFFFFFFFFFF AND SWAP1 POP SWAP1 JUMP JUMPDEST CALLER PUSH20 0xFFFFFFFFFFFFFFFFFFFFFFFFFFFFFFFFFFFFFFFF AND PUSH1 0x0 DUP1 SLOAD SWAP1 PUSH2 0x100 EXP SWAP1 DIV PUSH20 0xFFFFFFFFFFFFFFFFFFFFFFFFFFFFFFFFFFFFFFFF AND PUSH20 0xFFFFFFFFFFFFFFFFFFFFFFFFFFFFFFFFFFFFFFFF AND EQ ISZERO PUSH2 0x476 JUMPI PUSH1 0x40 MLOAD PUSH32 0x8C379A000000000000000000000000000000000000000000000000000000000 DUP2 MSTORE PUSH1 0x4 ADD PUSH2 0x46D SWAP1 PUSH2 0xE2B JUMP JUMPDEST PUSH1 0x40 MLOAD DUP1 SWAP2 SUB SWAP1 REVERT JUMPDEST DUP2 DUP2 PUSH1 0x0 PUSH1 0x3 DUP4 DUP4 PUSH1 0x40 MLOAD PUSH2 0x48C SWAP3 SWAP2 SWAP1 PUSH2 0xE8A JUMP JUMPDEST SWAP1 DUP2 MSTORE PUSH1 0x20 ADD PUSH1 0x40 MLOAD DUP1 SWAP2 SUB SWAP1 KECCAK256 PUSH1 0x0 ADD DUP1 SLOAD PUSH2 0x4A8 SWAP1 PUSH2 0xED2 JUMP JUMPDEST SWAP1 POP LT PUSH2 0x4EA JUMPI PUSH1 0x40 MLOAD PUSH32 0x8C379A000000000000000000000000000000000000000000000000000000000 DUP2 MSTORE PUSH1 0x4 ADD PUSH2 0x4E1 SWAP1 PUSH2 0xF50 JUMP JUMPDEST PUSH1 0x40 MLOAD DUP1 SWAP2 SUB SWAP1 REVERT JUMPDEST PUSH1 0x1 DUP8 SWAP1 DUP1 PUSH1 0x1 DUP2 SLOAD ADD DUP1 DUP3 SSTORE DUP1 SWAP2 POP POP PUSH1 0x1 SWAP1 SUB SWAP1 PUSH1 0x0 MSTORE PUSH1 0x20 PUSH1 0x0 KECCAK256 ADD PUSH1 0x0 SWAP1 SWAP2 SWAP1 SWAP2 SWAP1 SWAP2 PUSH2 0x100 EXP DUP2 SLOAD DUP2 PUSH20 0xFFFFFFFFFFFFFFFFFFFFFFFFFFFFFFFFFFFFFFFF MUL NOT AND SWAP1 DUP4 PUSH20 0xFFFFFFFFFFFFFFFFFFFFFFFFFFFFFFFFFFFFFFFF AND MUL OR SWAP1 SSTORE POP PUSH1 0x40 MLOAD DUP1 PUSH1 0x80 ADD PUSH1 0x40 MSTORE DUP1 DUP8 DUP8 DUP1 DUP1 PUSH1 0x1F ADD PUSH1 0x20 DUP1 SWAP2 DIV MUL PUSH1 0x20 ADD PUSH1 0x40 MLOAD SWAP1 DUP2 ADD PUSH1 0x40 MSTORE DUP1 SWAP4 SWAP3 SWAP2 SWAP1 DUP2 DUP2 MSTORE PUSH1 0x20 ADD DUP4 DUP4 DUP1 DUP3 DUP5 CALLDATACOPY PUSH1 0x0 DUP2 DUP5 ADD MSTORE PUSH1 0x1F NOT PUSH1 0x1F DUP3 ADD AND SWAP1 POP DUP1 DUP4 ADD SWAP3 POP POP POP POP POP POP POP DUP2 MSTORE PUSH1 0x20 ADD DUP6 DUP6 DUP1 DUP1 PUSH1 0x1F ADD PUSH1 0x20 DUP1 SWAP2 DIV MUL PUSH1 0x20 ADD PUSH1 0x40 MLOAD SWAP1 DUP2 ADD PUSH1 0x40 MSTORE DUP1 SWAP4 SWAP3 SWAP2 SWAP1 DUP2 DUP2 MSTORE PUSH1 0x20 ADD DUP4 DUP4 DUP1 DUP3 DUP5 CALLDATACOPY PUSH1 0x0 DUP2 DUP5 ADD MSTORE PUSH1 0x1F NOT PUSH1 0x1F DUP3 ADD AND SWAP1 POP DUP1 DUP4 ADD SWAP3 POP POP POP POP POP POP POP DUP2 MSTORE PUSH1 0x20 ADD DUP9 PUSH20 0xFFFFFFFFFFFFFFFFFFFFFFFFFFFFFFFFFFFFFFFF AND DUP2 MSTORE PUSH1 0x20 ADD PUSH1 0x1 ISZERO ISZERO DUP2 MSTORE POP PUSH1 0x2 PUSH1 0x0 DUP10 PUSH20 0xFFFFFFFFFFFFFFFFFFFFFFFFFFFFFFFFFFFFFFFF AND PUSH20 0xFFFFFFFFFFFFFFFFFFFFFFFFFFFFFFFFFFFFFFFF AND DUP2 MSTORE PUSH1 0x20 ADD SWAP1 DUP2 MSTORE PUSH1 0x20 ADD PUSH1 0x0 KECCAK256 PUSH1 0x0 DUP3 ADD MLOAD DUP2 PUSH1 0x0 ADD SWAP1 DUP1 MLOAD SWAP1 PUSH1 0x20 ADD SWAP1 PUSH2 0x66A SWAP3 SWAP2 SWAP1 PUSH2 0x910 JUMP JUMPDEST POP PUSH1 0x20 DUP3 ADD MLOAD DUP2 PUSH1 0x1 ADD SWAP1 DUP1 MLOAD SWAP1 PUSH1 0x20 ADD SWAP1 PUSH2 0x687 SWAP3 SWAP2 SWAP1 PUSH2 0x910 JUMP JUMPDEST POP PUSH1 0x40 DUP3 ADD MLOAD DUP2 PUSH1 0x2 ADD PUSH1 0x0 PUSH2 0x100 EXP DUP2 SLOAD DUP2 PUSH20 0xFFFFFFFFFFFFFFFFFFFFFFFFFFFFFFFFFFFFFFFF MUL NOT AND SWAP1 DUP4 PUSH20 0xFFFFFFFFFFFFFFFFFFFFFFFFFFFFFFFFFFFFFFFF AND MUL OR SWAP1 SSTORE POP PUSH1 0x60 DUP3 ADD MLOAD DUP2 PUSH1 0x2 ADD PUSH1 0x14 PUSH2 0x100 EXP DUP2 SLOAD DUP2 PUSH1 0xFF MUL NOT AND SWAP1 DUP4 ISZERO ISZERO MUL OR SWAP1 SSTORE POP SWAP1 POP POP POP POP POP POP POP POP POP JUMP JUMPDEST PUSH1 0x60 PUSH1 0x4 DUP1 SLOAD DUP1 PUSH1 0x20 MUL PUSH1 0x20 ADD PUSH1 0x40 MLOAD SWAP1 DUP2 ADD PUSH1 0x40 MSTORE DUP1 SWAP3 SWAP2 SWAP1 DUP2 DUP2 MSTORE PUSH1 0x20 ADD PUSH1 0x0 SWAP1 JUMPDEST DUP3 DUP3 LT ISZERO PUSH2 0x907 JUMPI DUP4 DUP3 SWAP1 PUSH1 0x0 MSTORE PUSH1 0x20 PUSH1 0x0 KECCAK256 SWAP1 PUSH1 0x3 MUL ADD PUSH1 0x40 MLOAD DUP1 PUSH1 0x60 ADD PUSH1 0x40 MSTORE SWAP1 DUP2 PUSH1 0x0 DUP3 ADD DUP1 SLOAD PUSH2 0x752 SWAP1 PUSH2 0xED2 JUMP JUMPDEST DUP1 PUSH1 0x1F ADD PUSH1 0x20 DUP1 SWAP2 DIV MUL PUSH1 0x20 ADD PUSH1 0x40 MLOAD SWAP1 DUP2 ADD PUSH1 0x40 MSTORE DUP1 SWAP3 SWAP2 SWAP1 DUP2 DUP2 MSTORE PUSH1 0x20 ADD DUP3 DUP1 SLOAD PUSH2 0x77E SWAP1 PUSH2 0xED2 JUMP JUMPDEST DUP1 ISZERO PUSH2 0x7CB JUMPI DUP1 PUSH1 0x1F LT PUSH2 0x7A0 JUMPI PUSH2 0x100 DUP1 DUP4 SLOAD DIV MUL DUP4 MSTORE SWAP2 PUSH1 0x20 ADD SWAP2 PUSH2 0x7CB JUMP JUMPDEST DUP3 ADD SWAP2 SWAP1 PUSH1 0x0 MSTORE PUSH1 0x20 PUSH1 0x0 KECCAK256 SWAP1 JUMPDEST DUP2 SLOAD DUP2 MSTORE SWAP1 PUSH1 0x1 ADD SWAP1 PUSH1 0x20 ADD DUP1 DUP4 GT PUSH2 0x7AE JUMPI DUP3 SWAP1 SUB PUSH1 0x1F AND DUP3 ADD SWAP2 JUMPDEST POP POP POP POP POP DUP2 MSTORE PUSH1 0x20 ADD PUSH1 0x1 DUP3 ADD DUP1 SLOAD PUSH2 0x7E4 SWAP1 PUSH2 0xED2 JUMP JUMPDEST DUP1 PUSH1 0x1F ADD PUSH1 0x20 DUP1 SWAP2 DIV MUL PUSH1 0x20 ADD PUSH1 0x40 MLOAD SWAP1 DUP2 ADD PUSH1 0x40 MSTORE DUP1 SWAP3 SWAP2 SWAP1 DUP2 DUP2 MSTORE PUSH1 0x20 ADD DUP3 DUP1 SLOAD PUSH2 0x810 SWAP1 PUSH2 0xED2 JUMP JUMPDEST DUP1 ISZERO PUSH2 0x85D JUMPI DUP1 PUSH1 0x1F LT PUSH2 0x832 JUMPI PUSH2 0x100 DUP1 DUP4 SLOAD DIV MUL DUP4 MSTORE SWAP2 PUSH1 0x20 ADD SWAP2 PUSH2 0x85D JUMP JUMPDEST DUP3 ADD SWAP2 SWAP1 PUSH1 0x0 MSTORE PUSH1 0x20 PUSH1 0x0 KECCAK256 SWAP1 JUMPDEST DUP2 SLOAD DUP2 MSTORE SWAP1 PUSH1 0x1 ADD SWAP1 PUSH1 0x20 ADD DUP1 DUP4 GT PUSH2 0x840 JUMPI DUP3 SWAP1 SUB PUSH1 0x1F AND DUP3 ADD SWAP2 JUMPDEST POP POP POP POP POP DUP2 MSTORE PUSH1 0x20 ADD PUSH1 0x2 DUP3 ADD DUP1 SLOAD PUSH2 0x876 SWAP1 PUSH2 0xED2 JUMP JUMPDEST DUP1 PUSH1 0x1F ADD PUSH1 0x20 DUP1 SWAP2 DIV MUL PUSH1 0x20 ADD PUSH1 0x40 MLOAD SWAP1 DUP2 ADD PUSH1 0x40 MSTORE DUP1 SWAP3 SWAP2 SWAP1 DUP2 DUP2 MSTORE PUSH1 0x20 ADD DUP3 DUP1 SLOAD PUSH2 0x8A2 SWAP1 PUSH2 0xED2 JUMP JUMPDEST DUP1 ISZERO PUSH2 0x8EF JUMPI DUP1 PUSH1 0x1F LT PUSH2 0x8C4 JUMPI PUSH2 0x100 DUP1 DUP4 SLOAD DIV MUL DUP4 MSTORE SWAP2 PUSH1 0x20 ADD SWAP2 PUSH2 0x8EF JUMP JUMPDEST DUP3 ADD SWAP2 SWAP1 PUSH1 0x0 MSTORE PUSH1 0x20 PUSH1 0x0 KECCAK256 SWAP1 JUMPDEST DUP2 SLOAD DUP2 MSTORE SWAP1 PUSH1 0x1 ADD SWAP1 PUSH1 0x20 ADD DUP1 DUP4 GT PUSH2 0x8D2 JUMPI DUP3 SWAP1 SUB PUSH1 0x1F AND DUP3 ADD SWAP2 JUMPDEST POP POP POP POP POP DUP2 MSTORE POP POP DUP2 MSTORE PUSH1 0x20 ADD SWAP1 PUSH1 0x1 ADD SWAP1 PUSH2 0x71F JUMP JUMPDEST POP POP POP POP SWAP1 POP SWAP1 JUMP JUMPDEST DUP3 DUP1 SLOAD PUSH2 0x91C SWAP1 PUSH2 0xED2 JUMP JUMPDEST SWAP1 PUSH1 0x0 MSTORE PUSH1 0x20 PUSH1 0x0 KECCAK256 SWAP1 PUSH1 0x1F ADD PUSH1 0x20 SWAP1 DIV DUP2 ADD SWAP3 DUP3 PUSH2 0x93E JUMPI PUSH1 0x0 DUP6 SSTORE PUSH2 0x985 JUMP JUMPDEST DUP3 PUSH1 0x1F LT PUSH2 0x957 JUMPI DUP1 MLOAD PUSH1 0xFF NOT AND DUP4 DUP1 ADD OR DUP6 SSTORE PUSH2 0x985 JUMP JUMPDEST DUP3 DUP1 ADD PUSH1 0x1 ADD DUP6 SSTORE DUP3 ISZERO PUSH2 0x985 JUMPI SWAP2 DUP3 ADD JUMPDEST DUP3 DUP2 GT ISZERO PUSH2 0x984 JUMPI DUP3 MLOAD DUP3 SSTORE SWAP2 PUSH1 0x20 ADD SWAP2 SWAP1 PUSH1 0x1 ADD SWAP1 PUSH2 0x969 JUMP JUMPDEST JUMPDEST POP SWAP1 POP PUSH2 0x992 SWAP2 SWAP1 PUSH2 0x996 JUMP JUMPDEST POP SWAP1 JUMP JUMPDEST JUMPDEST DUP1 DUP3 GT ISZERO PUSH2 0x9AF JUMPI PUSH1 0x0 DUP2 PUSH1 0x0 SWAP1 SSTORE POP PUSH1 0x1 ADD PUSH2 0x997 JUMP JUMPDEST POP SWAP1 JUMP JUMPDEST PUSH1 0x0 DUP1 REVERT JUMPDEST PUSH1 0x0 DUP1 REVERT JUMPDEST PUSH1 0x0 DUP1 REVERT JUMPDEST PUSH1 0x0 DUP1 REVERT JUMPDEST PUSH1 0x0 DUP1 REVERT JUMPDEST PUSH1 0x0 DUP1 DUP4 PUSH1 0x1F DUP5 ADD SLT PUSH2 0x9E2 JUMPI PUSH2 0x9E1 PUSH2 0x9BD JUMP JUMPDEST JUMPDEST DUP3 CALLDATALOAD SWAP1 POP PUSH8 0xFFFFFFFFFFFFFFFF DUP2 GT ISZERO PUSH2 0x9FF JUMPI PUSH2 0x9FE PUSH2 0x9C2 JUMP JUMPDEST JUMPDEST PUSH1 0x20 DUP4 ADD SWAP2 POP DUP4 PUSH1 0x1 DUP3 MUL DUP4 ADD GT ISZERO PUSH2 0xA1B JUMPI PUSH2 0xA1A PUSH2 0x9C7 JUMP JUMPDEST JUMPDEST SWAP3 POP SWAP3 SWAP1 POP JUMP JUMPDEST PUSH1 0x0 DUP1 PUSH1 0x0 DUP1 PUSH1 0x0 DUP1 PUSH1 0x60 DUP8 DUP10 SUB SLT ISZERO PUSH2 0xA3F JUMPI PUSH2 0xA3E PUSH2 0x9B3 JUMP JUMPDEST JUMPDEST PUSH1 0x0 DUP8 ADD CALLDATALOAD PUSH8 0xFFFFFFFFFFFFFFFF DUP2 GT ISZERO PUSH2 0xA5D JUMPI PUSH2 0xA5C PUSH2 0x9B8 JUMP JUMPDEST JUMPDEST PUSH2 0xA69 DUP10 DUP3 DUP11 ADD PUSH2 0x9CC JUMP JUMPDEST SWAP7 POP SWAP7 POP POP PUSH1 0x20 DUP8 ADD CALLDATALOAD PUSH8 0xFFFFFFFFFFFFFFFF DUP2 GT ISZERO PUSH2 0xA8C JUMPI PUSH2 0xA8B PUSH2 0x9B8 JUMP JUMPDEST JUMPDEST PUSH2 0xA98 DUP10 DUP3 DUP11 ADD PUSH2 0x9CC JUMP JUMPDEST SWAP5 POP SWAP5 POP POP PUSH1 0x40 DUP8 ADD CALLDATALOAD PUSH8 0xFFFFFFFFFFFFFFFF DUP2 GT ISZERO PUSH2 0xABB JUMPI PUSH2 0xABA PUSH2 0x9B8 JUMP JUMPDEST JUMPDEST PUSH2 0xAC7 DUP10 DUP3 DUP11 ADD PUSH2 0x9CC JUMP JUMPDEST SWAP3 POP SWAP3 POP POP SWAP3 SWAP6 POP SWAP3 SWAP6 POP SWAP3 SWAP6 JUMP JUMPDEST PUSH1 0x0 PUSH20 0xFFFFFFFFFFFFFFFFFFFFFFFFFFFFFFFFFFFFFFFF DUP3 AND SWAP1 POP SWAP2 SWAP1 POP JUMP JUMPDEST PUSH1 0x0 PUSH2 0xB01 DUP3 PUSH2 0xAD6 JUMP JUMPDEST SWAP1 POP SWAP2 SWAP1 POP JUMP JUMPDEST PUSH2 0xB11 DUP2 PUSH2 0xAF6 JUMP JUMPDEST DUP3 MSTORE POP POP JUMP JUMPDEST PUSH1 0x0 PUSH1 0x20 DUP3 ADD SWAP1 POP PUSH2 0xB2C PUSH1 0x0 DUP4 ADD DUP5 PUSH2 0xB08 JUMP JUMPDEST SWAP3 SWAP2 POP POP JUMP JUMPDEST PUSH2 0xB3B DUP2 PUSH2 0xAF6 JUMP JUMPDEST DUP2 EQ PUSH2 0xB46 JUMPI PUSH1 0x0 DUP1 REVERT JUMPDEST POP JUMP JUMPDEST PUSH1 0x0 DUP2 CALLDATALOAD SWAP1 POP PUSH2 0xB58 DUP2 PUSH2 0xB32 JUMP JUMPDEST SWAP3 SWAP2 POP POP JUMP JUMPDEST PUSH1 0x0 DUP1 PUSH1 0x0 DUP1 PUSH1 0x0 PUSH1 0x60 DUP7 DUP9 SUB SLT ISZERO PUSH2 0xB7A JUMPI PUSH2 0xB79 PUSH2 0x9B3 JUMP JUMPDEST JUMPDEST PUSH1 0x0 PUSH2 0xB88 DUP9 DUP3 DUP10 ADD PUSH2 0xB49 JUMP JUMPDEST SWAP6 POP POP PUSH1 0x20 DUP7 ADD CALLDATALOAD PUSH8 0xFFFFFFFFFFFFFFFF DUP2 GT ISZERO PUSH2 0xBA9 JUMPI PUSH2 0xBA8 PUSH2 0x9B8 JUMP JUMPDEST JUMPDEST PUSH2 0xBB5 DUP9 DUP3 DUP10 ADD PUSH2 0x9CC JUMP JUMPDEST SWAP5 POP SWAP5 POP POP PUSH1 0x40 DUP7 ADD CALLDATALOAD PUSH8 0xFFFFFFFFFFFFFFFF DUP2 GT ISZERO PUSH2 0xBD8 JUMPI PUSH2 0xBD7 PUSH2 0x9B8 JUMP JUMPDEST JUMPDEST PUSH2 0xBE4 DUP9 DUP3 DUP10 ADD PUSH2 0x9CC JUMP JUMPDEST SWAP3 POP SWAP3 POP POP SWAP3 SWAP6 POP SWAP3 SWAP6 SWAP1 SWAP4 POP JUMP JUMPDEST PUSH1 0x0 DUP2 MLOAD SWAP1 POP SWAP2 SWAP1 POP JUMP JUMPDEST PUSH1 0x0 DUP3 DUP3 MSTORE PUSH1 0x20 DUP3 ADD SWAP1 POP SWAP3 SWAP2 POP POP JUMP JUMPDEST PUSH1 0x0 DUP2 SWAP1 POP PUSH1 0x20 DUP3 ADD SWAP1 POP SWAP2 SWAP1 POP JUMP JUMPDEST PUSH1 0x0 DUP2 MLOAD SWAP1 POP SWAP2 SWAP1 POP JUMP JUMPDEST PUSH1 0x0 DUP3 DUP3 MSTORE PUSH1 0x20 DUP3 ADD SWAP1 POP SWAP3 SWAP2 POP POP JUMP JUMPDEST PUSH1 0x0 JUMPDEST DUP4 DUP2 LT ISZERO PUSH2 0xC59 JUMPI DUP1 DUP3 ADD MLOAD DUP2 DUP5 ADD MSTORE PUSH1 0x20 DUP2 ADD SWAP1 POP PUSH2 0xC3E JUMP JUMPDEST DUP4 DUP2 GT ISZERO PUSH2 0xC68 JUMPI PUSH1 0x0 DUP5 DUP5 ADD MSTORE JUMPDEST POP POP POP POP JUMP JUMPDEST PUSH1 0x0 PUSH1 0x1F NOT PUSH1 0x1F DUP4 ADD AND SWAP1 POP SWAP2 SWAP1 POP JUMP JUMPDEST PUSH1 0x0 PUSH2 0xC8A DUP3 PUSH2 0xC1F JUMP JUMPDEST PUSH2 0xC94 DUP2 DUP6 PUSH2 0xC2A JUMP JUMPDEST SWAP4 POP PUSH2 0xCA4 DUP2 DUP6 PUSH1 0x20 DUP7 ADD PUSH2 0xC3B JUMP JUMPDEST PUSH2 0xCAD DUP2 PUSH2 0xC6E JUMP JUMPDEST DUP5 ADD SWAP2 POP POP SWAP3 SWAP2 POP POP JUMP JUMPDEST PUSH1 0x0 PUSH1 0x60 DUP4 ADD PUSH1 0x0 DUP4 ADD MLOAD DUP5 DUP3 SUB PUSH1 0x0 DUP7 ADD MSTORE PUSH2 0xCD5 DUP3 DUP3 PUSH2 0xC7F JUMP JUMPDEST SWAP2 POP POP PUSH1 0x20 DUP4 ADD MLOAD DUP5 DUP3 SUB PUSH1 0x20 DUP7 ADD MSTORE PUSH2 0xCEF DUP3 DUP3 PUSH2 0xC7F JUMP JUMPDEST SWAP2 POP POP PUSH1 0x40 DUP4 ADD MLOAD DUP5 DUP3 SUB PUSH1 0x40 DUP7 ADD MSTORE PUSH2 0xD09 DUP3 DUP3 PUSH2 0xC7F JUMP JUMPDEST SWAP2 POP POP DUP1 SWAP2 POP POP SWAP3 SWAP2 POP POP JUMP JUMPDEST PUSH1 0x0 PUSH2 0xD22 DUP4 DUP4 PUSH2 0xCB8 JUMP JUMPDEST SWAP1 POP SWAP3 SWAP2 POP POP JUMP JUMPDEST PUSH1 0x0 PUSH1 0x20 DUP3 ADD SWAP1 POP SWAP2 SWAP1 POP JUMP JUMPDEST PUSH1 0x0 PUSH2 0xD42 DUP3 PUSH2 0xBF3 JUMP JUMPDEST PUSH2 0xD4C DUP2 DUP6 PUSH2 0xBFE JUMP JUMPDEST SWAP4 POP DUP4 PUSH1 0x20 DUP3 MUL DUP6 ADD PUSH2 0xD5E DUP6 PUSH2 0xC0F JUMP JUMPDEST DUP1 PUSH1 0x0 JUMPDEST DUP6 DUP2 LT ISZERO PUSH2 0xD9A JUMPI DUP5 DUP5 SUB DUP10 MSTORE DUP2 MLOAD PUSH2 0xD7B DUP6 DUP3 PUSH2 0xD16 JUMP JUMPDEST SWAP5 POP PUSH2 0xD86 DUP4 PUSH2 0xD2A JUMP JUMPDEST SWAP3 POP PUSH1 0x20 DUP11 ADD SWAP10 POP POP PUSH1 0x1 DUP2 ADD SWAP1 POP PUSH2 0xD62 JUMP JUMPDEST POP DUP3 SWAP8 POP DUP8 SWAP6 POP POP POP POP POP POP SWAP3 SWAP2 POP POP JUMP JUMPDEST PUSH1 0x0 PUSH1 0x20 DUP3 ADD SWAP1 POP DUP2 DUP2 SUB PUSH1 0x0 DUP4 ADD MSTORE PUSH2 0xDC6 DUP2 DUP5 PUSH2 0xD37 JUMP JUMPDEST SWAP1 POP SWAP3 SWAP2 POP POP JUMP JUMPDEST PUSH1 0x0 DUP3 DUP3 MSTORE PUSH1 0x20 DUP3 ADD SWAP1 POP SWAP3 SWAP2 POP POP JUMP JUMPDEST PUSH32 0x796F752063616E206E6F7420616464206F6666696369616C0000000000000000 PUSH1 0x0 DUP3 ADD MSTORE POP JUMP JUMPDEST PUSH1 0x0 PUSH2 0xE15 PUSH1 0x18 DUP4 PUSH2 0xDCE JUMP JUMPDEST SWAP2 POP PUSH2 0xE20 DUP3 PUSH2 0xDDF JUMP JUMPDEST PUSH1 0x20 DUP3 ADD SWAP1 POP SWAP2 SWAP1 POP JUMP JUMPDEST PUSH1 0x0 PUSH1 0x20 DUP3 ADD SWAP1 POP DUP2 DUP2 SUB PUSH1 0x0 DUP4 ADD MSTORE PUSH2 0xE44 DUP2 PUSH2 0xE08 JUMP JUMPDEST SWAP1 POP SWAP2 SWAP1 POP JUMP JUMPDEST PUSH1 0x0 DUP2 SWAP1 POP SWAP3 SWAP2 POP POP JUMP JUMPDEST DUP3 DUP2 DUP4 CALLDATACOPY PUSH1 0x0 DUP4 DUP4 ADD MSTORE POP POP POP JUMP JUMPDEST PUSH1 0x0 PUSH2 0xE71 DUP4 DUP6 PUSH2 0xE4B JUMP JUMPDEST SWAP4 POP PUSH2 0xE7E DUP4 DUP6 DUP5 PUSH2 0xE56 JUMP JUMPDEST DUP3 DUP5 ADD SWAP1 POP SWAP4 SWAP3 POP POP POP JUMP JUMPDEST PUSH1 0x0 PUSH2 0xE97 DUP3 DUP5 DUP7 PUSH2 0xE65 JUMP JUMPDEST SWAP2 POP DUP2 SWAP1 POP SWAP4 SWAP3 POP POP POP JUMP JUMPDEST PUSH32 0x4E487B7100000000000000000000000000000000000000000000000000000000 PUSH1 0x0 MSTORE PUSH1 0x22 PUSH1 0x4 MSTORE PUSH1 0x24 PUSH1 0x0 REVERT JUMPDEST PUSH1 0x0 PUSH1 0x2 DUP3 DIV SWAP1 POP PUSH1 0x1 DUP3 AND DUP1 PUSH2 0xEEA JUMPI PUSH1 0x7F DUP3 AND SWAP2 POP JUMPDEST PUSH1 0x20 DUP3 LT DUP2 EQ ISZERO PUSH2 0xEFE JUMPI PUSH2 0xEFD PUSH2 0xEA3 JUMP JUMPDEST JUMPDEST POP SWAP2 SWAP1 POP JUMP JUMPDEST PUSH32 0x6C6F63616C20676F7665726E6D656E7420616C72656164792065786973740000 PUSH1 0x0 DUP3 ADD MSTORE POP JUMP JUMPDEST PUSH1 0x0 PUSH2 0xF3A PUSH1 0x1E DUP4 PUSH2 0xDCE JUMP JUMPDEST SWAP2 POP PUSH2 0xF45 DUP3 PUSH2 0xF04 JUMP JUMPDEST PUSH1 0x20 DUP3 ADD SWAP1 POP SWAP2 SWAP1 POP JUMP JUMPDEST PUSH1 0x0 PUSH1 0x20 DUP3 ADD SWAP1 POP DUP2 DUP2 SUB PUSH1 0x0 DUP4 ADD MSTORE PUSH2 0xF69 DUP2 PUSH2 0xF2D JUMP JUMPDEST SWAP1 POP SWAP2 SWAP1 POP JUMP INVALID LOG2 PUSH5 0x6970667358 0x22 SLT KECCAK256 0xAE SWAP10 STOP 0xB6 0xAE 0xE7 PUSH28 0xAD86908AA7836639E8EDA5263ABD57EE2A9E6A38242454B20E64736F PUSH13 0x63430008080033000000000000 "
				},
				"gasEstimates": {
					"creation": {
						"codeDepositCost": "801200",
						"executionCost": "25104",
						"totalCost": "826304"
					},
					"external": {
						"accredictedNewOfficial(address,string,string)": "infinite",
						"addZone(string,string,string)": "infinite",
						"getOwner()": "2522",
						"getZone()": "infinite"
					}
				},
				"methodIdentifiers": {
					"accredictedNewOfficial(address,string,string)": "b7a455e6",
					"addZone(string,string,string)": "6e12dc0e",
					"getOwner()": "893d20e8",
					"getZone()": "f9095eb7"
				}
			},
			"storageLayout": {
				"storage": [
					{
						"astId": 4,
						"contract": "contracts/EVote.sol:EVote",
						"label": "ownerAddr",
						"offset": 0,
						"slot": "0",
						"type": "t_address"
					},
					{
						"astId": 7,
						"contract": "contracts/EVote.sol:EVote",
						"label": "accredictedOfficialAddr",
						"offset": 0,
						"slot": "1",
						"type": "t_array(t_address)dyn_storage"
					},
					{
						"astId": 12,
						"contract": "contracts/EVote.sol:EVote",
						"label": "accredictedOfficialDetails",
						"offset": 0,
						"slot": "2",
						"type": "t_mapping(t_address,t_struct(Official)160_storage)"
					},
					{
						"astId": 17,
						"contract": "contracts/EVote.sol:EVote",
						"label": "accredictedZone",
						"offset": 0,
						"slot": "3",
						"type": "t_mapping(t_string_memory_ptr,t_struct(VoteZone)167_storage)"
					},
					{
						"astId": 21,
						"contract": "contracts/EVote.sol:EVote",
						"label": "zones",
						"offset": 0,
						"slot": "4",
						"type": "t_array(t_struct(VoteZone)167_storage)dyn_storage"
					}
				],
				"types": {
					"t_address": {
						"encoding": "inplace",
						"label": "address",
						"numberOfBytes": "20"
					},
					"t_array(t_address)dyn_storage": {
						"base": "t_address",
						"encoding": "dynamic_array",
						"label": "address[]",
						"numberOfBytes": "32"
					},
					"t_array(t_struct(VoteZone)167_storage)dyn_storage": {
						"base": "t_struct(VoteZone)167_storage",
						"encoding": "dynamic_array",
						"label": "struct VoteZone[]",
						"numberOfBytes": "32"
					},
					"t_bool": {
						"encoding": "inplace",
						"label": "bool",
						"numberOfBytes": "1"
					},
					"t_mapping(t_address,t_struct(Official)160_storage)": {
						"encoding": "mapping",
						"key": "t_address",
						"label": "mapping(address => struct Official)",
						"numberOfBytes": "32",
						"value": "t_struct(Official)160_storage"
					},
					"t_mapping(t_string_memory_ptr,t_struct(VoteZone)167_storage)": {
						"encoding": "mapping",
						"key": "t_string_memory_ptr",
						"label": "mapping(string => struct VoteZone)",
						"numberOfBytes": "32",
						"value": "t_struct(VoteZone)167_storage"
					},
					"t_string_memory_ptr": {
						"encoding": "bytes",
						"label": "string",
						"numberOfBytes": "32"
					},
					"t_string_storage": {
						"encoding": "bytes",
						"label": "string",
						"numberOfBytes": "32"
					},
					"t_struct(Official)160_storage": {
						"encoding": "inplace",
						"label": "struct Official",
						"members": [
							{
								"astId": 153,
								"contract": "contracts/EVote.sol:EVote",
								"label": "name",
								"offset": 0,
								"slot": "0",
								"type": "t_string_storage"
							},
							{
								"astId": 155,
								"contract": "contracts/EVote.sol:EVote",
								"label": "zoneCode",
								"offset": 0,
								"slot": "1",
								"type": "t_string_storage"
							},
							{
								"astId": 157,
								"contract": "contracts/EVote.sol:EVote",
								"label": "officialAddr",
								"offset": 0,
								"slot": "2",
								"type": "t_address"
							},
							{
								"astId": 159,
								"contract": "contracts/EVote.sol:EVote",
								"label": "isActive",
								"offset": 20,
								"slot": "2",
								"type": "t_bool"
							}
						],
						"numberOfBytes": "96"
					},
					"t_struct(VoteZone)167_storage": {
						"encoding": "inplace",
						"label": "struct VoteZone",
						"members": [
							{
								"astId": 162,
								"contract": "contracts/EVote.sol:EVote",
								"label": "lga",
								"offset": 0,
								"slot": "0",
								"type": "t_string_storage"
							},
							{
								"astId": 164,
								"contract": "contracts/EVote.sol:EVote",
								"label": "state",
								"offset": 0,
								"slot": "1",
								"type": "t_string_storage"
							},
							{
								"astId": 166,
								"contract": "contracts/EVote.sol:EVote",
								"label": "zoneCode",
								"offset": 0,
								"slot": "2",
								"type": "t_string_storage"
							}
						],
						"numberOfBytes": "96"
					}
				}
			},
			"userdoc": {
				"kind": "user",
				"methods": {},
				"version": 1
			}
		}
	}
}